{
  "_format": "hh-sol-artifact-1",
  "contractName": "DexNft",
  "sourceName": "contracts/DexNft.sol",
  "abi": [
    {
      "inputs": [
        {
          "internalType": "string",
          "name": "_initBaseURI",
          "type": "string"
        },
        {
          "internalType": "address",
          "name": "_tokenAddress",
          "type": "address"
        }
      ],
      "stateMutability": "nonpayable",
      "type": "constructor"
    },
    {
      "inputs": [],
      "name": "ApprovalCallerNotOwnerNorApproved",
      "type": "error"
    },
    {
      "inputs": [],
      "name": "ApprovalQueryForNonexistentToken",
      "type": "error"
    },
    {
      "inputs": [],
      "name": "BalanceQueryForZeroAddress",
      "type": "error"
    },
    {
      "inputs": [],
      "name": "MintERC2309QuantityExceedsLimit",
      "type": "error"
    },
    {
      "inputs": [],
      "name": "MintToZeroAddress",
      "type": "error"
    },
    {
      "inputs": [],
      "name": "MintZeroQuantity",
      "type": "error"
    },
    {
      "inputs": [],
      "name": "OwnerQueryForNonexistentToken",
      "type": "error"
    },
    {
      "inputs": [],
      "name": "OwnershipNotInitializedForExtraData",
      "type": "error"
    },
    {
      "inputs": [],
      "name": "TransferCallerNotOwnerNorApproved",
      "type": "error"
    },
    {
      "inputs": [],
      "name": "TransferFromIncorrectOwner",
      "type": "error"
    },
    {
      "inputs": [],
      "name": "TransferToNonERC721ReceiverImplementer",
      "type": "error"
    },
    {
      "inputs": [],
      "name": "TransferToZeroAddress",
      "type": "error"
    },
    {
      "inputs": [],
      "name": "URIQueryForNonexistentToken",
      "type": "error"
    },
    {
      "anonymous": false,
      "inputs": [
        {
          "indexed": true,
          "internalType": "address",
          "name": "owner",
          "type": "address"
        },
        {
          "indexed": true,
          "internalType": "address",
          "name": "approved",
          "type": "address"
        },
        {
          "indexed": true,
          "internalType": "uint256",
          "name": "tokenId",
          "type": "uint256"
        }
      ],
      "name": "Approval",
      "type": "event"
    },
    {
      "anonymous": false,
      "inputs": [
        {
          "indexed": true,
          "internalType": "address",
          "name": "owner",
          "type": "address"
        },
        {
          "indexed": true,
          "internalType": "address",
          "name": "operator",
          "type": "address"
        },
        {
          "indexed": false,
          "internalType": "bool",
          "name": "approved",
          "type": "bool"
        }
      ],
      "name": "ApprovalForAll",
      "type": "event"
    },
    {
      "anonymous": false,
      "inputs": [
        {
          "indexed": true,
          "internalType": "uint256",
          "name": "fromTokenId",
          "type": "uint256"
        },
        {
          "indexed": false,
          "internalType": "uint256",
          "name": "toTokenId",
          "type": "uint256"
        },
        {
          "indexed": true,
          "internalType": "address",
          "name": "from",
          "type": "address"
        },
        {
          "indexed": true,
          "internalType": "address",
          "name": "to",
          "type": "address"
        }
      ],
      "name": "ConsecutiveTransfer",
      "type": "event"
    },
    {
      "anonymous": false,
      "inputs": [
        {
          "indexed": true,
          "internalType": "address",
          "name": "previousOwner",
          "type": "address"
        },
        {
          "indexed": true,
          "internalType": "address",
          "name": "newOwner",
          "type": "address"
        }
      ],
      "name": "OwnershipTransferred",
      "type": "event"
    },
    {
      "anonymous": false,
      "inputs": [
        {
          "indexed": true,
          "internalType": "address",
          "name": "from",
          "type": "address"
        },
        {
          "indexed": true,
          "internalType": "address",
          "name": "to",
          "type": "address"
        },
        {
          "indexed": true,
          "internalType": "uint256",
          "name": "tokenId",
          "type": "uint256"
        }
      ],
      "name": "Transfer",
      "type": "event"
    },
    {
      "inputs": [
        {
          "internalType": "uint256",
          "name": "tokens",
          "type": "uint256"
        }
      ],
      "name": "Airdrop",
      "outputs": [],
      "stateMutability": "nonpayable",
      "type": "function"
    },
    {
      "inputs": [],
      "name": "AirdropEnabled",
      "outputs": [
        {
          "internalType": "bool",
          "name": "",
          "type": "bool"
        }
      ],
      "stateMutability": "view",
      "type": "function"
    },
    {
      "inputs": [],
      "name": "Max_Airdrop_Amount_Per_Wallet",
      "outputs": [
        {
          "internalType": "uint256",
          "name": "",
          "type": "uint256"
        }
      ],
      "stateMutability": "view",
      "type": "function"
    },
    {
      "inputs": [],
      "name": "MaxperTx",
      "outputs": [
        {
          "internalType": "uint256",
          "name": "",
          "type": "uint256"
        }
      ],
      "stateMutability": "view",
      "type": "function"
    },
    {
      "inputs": [],
      "name": "MaxperWalletwl",
      "outputs": [
        {
          "internalType": "uint256",
          "name": "",
          "type": "uint256"
        }
      ],
      "stateMutability": "view",
      "type": "function"
    },
    {
      "inputs": [
        {
          "internalType": "uint256",
          "name": "tokens",
          "type": "uint256"
        }
      ],
      "name": "PublicMint",
      "outputs": [],
      "stateMutability": "nonpayable",
      "type": "function"
    },
    {
      "inputs": [
        {
          "internalType": "uint256",
          "name": "tokens",
          "type": "uint256"
        },
        {
          "internalType": "bytes32[]",
          "name": "merkleProof",
          "type": "bytes32[]"
        }
      ],
      "name": "WLMint",
      "outputs": [],
      "stateMutability": "nonpayable",
      "type": "function"
    },
    {
      "inputs": [
        {
          "internalType": "address",
          "name": "to",
          "type": "address"
        },
        {
          "internalType": "uint256",
          "name": "tokenId",
          "type": "uint256"
        }
      ],
      "name": "approve",
      "outputs": [],
      "stateMutability": "payable",
      "type": "function"
    },
    {
      "inputs": [
        {
          "internalType": "address",
          "name": "owner",
          "type": "address"
        }
      ],
      "name": "balanceOf",
      "outputs": [
        {
          "internalType": "uint256",
          "name": "",
          "type": "uint256"
        }
      ],
      "stateMutability": "view",
      "type": "function"
    },
    {
      "inputs": [],
      "name": "baseExtension",
      "outputs": [
        {
          "internalType": "string",
          "name": "",
          "type": "string"
        }
      ],
      "stateMutability": "view",
      "type": "function"
    },
    {
      "inputs": [],
      "name": "baseURI",
      "outputs": [
        {
          "internalType": "string",
          "name": "",
          "type": "string"
        }
      ],
      "stateMutability": "view",
      "type": "function"
    },
    {
      "inputs": [
        {
          "internalType": "uint256",
          "name": "tokenId",
          "type": "uint256"
        }
      ],
      "name": "getApproved",
      "outputs": [
        {
          "internalType": "address",
          "name": "",
          "type": "address"
        }
      ],
      "stateMutability": "view",
      "type": "function"
    },
    {
      "inputs": [
        {
          "internalType": "uint256",
          "name": "_mintAmount",
          "type": "uint256"
        },
        {
          "internalType": "address",
          "name": "destination",
          "type": "address"
        }
      ],
      "name": "gift",
      "outputs": [],
      "stateMutability": "nonpayable",
      "type": "function"
    },
    {
      "inputs": [
        {
          "internalType": "address",
          "name": "owner",
          "type": "address"
        },
        {
          "internalType": "address",
          "name": "operator",
          "type": "address"
        }
      ],
      "name": "isApprovedForAll",
      "outputs": [
        {
          "internalType": "bool",
          "name": "",
          "type": "bool"
        }
      ],
      "stateMutability": "view",
      "type": "function"
    },
    {
      "inputs": [],
      "name": "maxAirDropSupply",
      "outputs": [
        {
          "internalType": "uint256",
          "name": "",
          "type": "uint256"
        }
      ],
      "stateMutability": "view",
      "type": "function"
    },
    {
      "inputs": [],
      "name": "maxPerWallet",
      "outputs": [
        {
          "internalType": "uint256",
          "name": "",
          "type": "uint256"
        }
      ],
      "stateMutability": "view",
      "type": "function"
    },
    {
      "inputs": [],
      "name": "maxSupply",
      "outputs": [
        {
          "internalType": "uint256",
          "name": "",
          "type": "uint256"
        }
      ],
      "stateMutability": "view",
      "type": "function"
    },
    {
      "inputs": [],
      "name": "merkleRoot",
      "outputs": [
        {
          "internalType": "bytes32",
          "name": "",
          "type": "bytes32"
        }
      ],
      "stateMutability": "view",
      "type": "function"
    },
    {
      "inputs": [],
      "name": "name",
      "outputs": [
        {
          "internalType": "string",
          "name": "",
          "type": "string"
        }
      ],
      "stateMutability": "view",
      "type": "function"
    },
    {
      "inputs": [],
      "name": "notRevealedUri",
      "outputs": [
        {
          "internalType": "string",
          "name": "",
          "type": "string"
        }
      ],
      "stateMutability": "view",
      "type": "function"
    },
    {
      "inputs": [
        {
          "internalType": "address",
          "name": "owner",
          "type": "address"
        }
      ],
      "name": "numberMinted",
      "outputs": [
        {
          "internalType": "uint256",
          "name": "",
          "type": "uint256"
        }
      ],
      "stateMutability": "view",
      "type": "function"
    },
    {
      "inputs": [],
      "name": "owner",
      "outputs": [
        {
          "internalType": "address",
          "name": "",
          "type": "address"
        }
      ],
      "stateMutability": "view",
      "type": "function"
    },
    {
      "inputs": [
        {
          "internalType": "uint256",
          "name": "tokenId",
          "type": "uint256"
        }
      ],
      "name": "ownerOf",
      "outputs": [
        {
          "internalType": "address",
          "name": "",
          "type": "address"
        }
      ],
      "stateMutability": "view",
      "type": "function"
    },
    {
      "inputs": [
        {
          "internalType": "bool",
          "name": "_state",
          "type": "bool"
        }
      ],
      "name": "pause",
      "outputs": [],
      "stateMutability": "nonpayable",
      "type": "function"
    },
    {
      "inputs": [],
      "name": "paused",
      "outputs": [
        {
          "internalType": "bool",
          "name": "",
          "type": "bool"
        }
      ],
      "stateMutability": "view",
      "type": "function"
    },
    {
      "inputs": [],
      "name": "publicMint",
      "outputs": [
        {
          "internalType": "bool",
          "name": "",
          "type": "bool"
        }
      ],
      "stateMutability": "view",
      "type": "function"
    },
    {
      "inputs": [],
      "name": "rate",
      "outputs": [
        {
          "internalType": "uint256",
          "name": "",
          "type": "uint256"
        }
      ],
      "stateMutability": "view",
      "type": "function"
    },
    {
      "inputs": [],
      "name": "renounceOwnership",
      "outputs": [],
      "stateMutability": "nonpayable",
      "type": "function"
    },
    {
      "inputs": [
        {
          "internalType": "bool",
          "name": "_state",
          "type": "bool"
        }
      ],
      "name": "reveal",
      "outputs": [],
      "stateMutability": "nonpayable",
      "type": "function"
    },
    {
      "inputs": [],
      "name": "revealed",
      "outputs": [
        {
          "internalType": "bool",
          "name": "",
          "type": "bool"
        }
      ],
      "stateMutability": "view",
      "type": "function"
    },
    {
      "inputs": [
        {
          "internalType": "address",
          "name": "from",
          "type": "address"
        },
        {
          "internalType": "address",
          "name": "to",
          "type": "address"
        },
        {
          "internalType": "uint256",
          "name": "tokenId",
          "type": "uint256"
        }
      ],
      "name": "safeTransferFrom",
      "outputs": [],
      "stateMutability": "payable",
      "type": "function"
    },
    {
      "inputs": [
        {
          "internalType": "address",
          "name": "from",
          "type": "address"
        },
        {
          "internalType": "address",
          "name": "to",
          "type": "address"
        },
        {
          "internalType": "uint256",
          "name": "tokenId",
          "type": "uint256"
        },
        {
          "internalType": "bytes",
          "name": "_data",
          "type": "bytes"
        }
      ],
      "name": "safeTransferFrom",
      "outputs": [],
      "stateMutability": "payable",
      "type": "function"
    },
    {
      "inputs": [
        {
          "internalType": "address",
          "name": "operator",
          "type": "address"
        },
        {
          "internalType": "bool",
          "name": "approved",
          "type": "bool"
        }
      ],
      "name": "setApprovalForAll",
      "outputs": [],
      "stateMutability": "nonpayable",
      "type": "function"
    },
    {
      "inputs": [
        {
          "internalType": "string",
          "name": "_newBaseExtension",
          "type": "string"
        }
      ],
      "name": "setBaseExtension",
      "outputs": [],
      "stateMutability": "nonpayable",
      "type": "function"
    },
    {
      "inputs": [
        {
          "internalType": "string",
          "name": "_newBaseURI",
          "type": "string"
        }
      ],
      "name": "setBaseURI",
      "outputs": [],
      "stateMutability": "nonpayable",
      "type": "function"
    },
    {
      "inputs": [
        {
          "internalType": "uint256",
          "name": "_maxAirDropSupply",
          "type": "uint256"
        }
      ],
      "name": "setMaxAirDropSupply",
      "outputs": [],
      "stateMutability": "nonpayable",
      "type": "function"
    },
    {
      "inputs": [
        {
          "internalType": "uint256",
          "name": "_NewMaxAirdrop",
          "type": "uint256"
        }
      ],
      "name": "setMax_Airdrop_Amount_Per_Wallet",
      "outputs": [],
      "stateMutability": "nonpayable",
      "type": "function"
    },
    {
      "inputs": [
        {
          "internalType": "uint256",
          "name": "_newMaxperTx",
          "type": "uint256"
        }
      ],
      "name": "setMaxperTx",
      "outputs": [],
      "stateMutability": "nonpayable",
      "type": "function"
    },
    {
      "inputs": [
        {
          "internalType": "uint256",
          "name": "_limit",
          "type": "uint256"
        }
      ],
      "name": "setMaxperWallet",
      "outputs": [],
      "stateMutability": "nonpayable",
      "type": "function"
    },
    {
      "inputs": [
        {
          "internalType": "uint256",
          "name": "_limit",
          "type": "uint256"
        }
      ],
      "name": "setMaxperWalletwl",
      "outputs": [],
      "stateMutability": "nonpayable",
      "type": "function"
    },
    {
      "inputs": [
        {
          "internalType": "uint256",
          "name": "_newsupply",
          "type": "uint256"
        }
      ],
      "name": "setMaxsupply",
      "outputs": [],
      "stateMutability": "nonpayable",
      "type": "function"
    },
    {
      "inputs": [
        {
          "internalType": "bytes32",
          "name": "_merkleRoot",
          "type": "bytes32"
        }
      ],
      "name": "setMerkleRoot",
      "outputs": [],
      "stateMutability": "nonpayable",
      "type": "function"
    },
    {
      "inputs": [
        {
          "internalType": "string",
          "name": "_notRevealedURI",
          "type": "string"
        }
      ],
      "name": "setNotRevealedURI",
      "outputs": [],
      "stateMutability": "nonpayable",
      "type": "function"
    },
    {
      "inputs": [
        {
          "internalType": "uint256",
          "name": "_newRate",
          "type": "uint256"
        }
      ],
      "name": "setRate",
      "outputs": [],
      "stateMutability": "nonpayable",
      "type": "function"
    },
    {
      "inputs": [
        {
          "internalType": "uint256",
          "name": "_newWlRate",
          "type": "uint256"
        }
      ],
      "name": "setWlRate",
      "outputs": [],
      "stateMutability": "nonpayable",
      "type": "function"
    },
    {
      "inputs": [
        {
          "internalType": "bytes4",
          "name": "interfaceId",
          "type": "bytes4"
        }
      ],
      "name": "supportsInterface",
      "outputs": [
        {
          "internalType": "bool",
          "name": "",
          "type": "bool"
        }
      ],
      "stateMutability": "view",
      "type": "function"
    },
    {
      "inputs": [],
      "name": "symbol",
      "outputs": [
        {
          "internalType": "string",
          "name": "",
          "type": "string"
        }
      ],
      "stateMutability": "view",
      "type": "function"
    },
    {
      "inputs": [
        {
          "internalType": "bool",
          "name": "_state",
          "type": "bool"
        }
      ],
      "name": "toggleAirdropEnabled",
      "outputs": [],
      "stateMutability": "nonpayable",
      "type": "function"
    },
    {
      "inputs": [
        {
          "internalType": "bool",
          "name": "_state",
          "type": "bool"
        }
      ],
      "name": "toggleWlMint",
      "outputs": [],
      "stateMutability": "nonpayable",
      "type": "function"
    },
    {
      "inputs": [
        {
          "internalType": "bool",
          "name": "_state",
          "type": "bool"
        }
      ],
      "name": "togglepublicMint",
      "outputs": [],
      "stateMutability": "nonpayable",
      "type": "function"
    },
    {
      "inputs": [],
      "name": "tokenAddress",
      "outputs": [
        {
          "internalType": "contract IERC20",
          "name": "",
          "type": "address"
        }
      ],
      "stateMutability": "view",
      "type": "function"
    },
    {
      "inputs": [
        {
          "internalType": "uint256",
          "name": "tokenId",
          "type": "uint256"
        }
      ],
      "name": "tokenURI",
      "outputs": [
        {
          "internalType": "string",
          "name": "",
          "type": "string"
        }
      ],
      "stateMutability": "view",
      "type": "function"
    },
    {
      "inputs": [],
      "name": "totalSupply",
      "outputs": [
        {
          "internalType": "uint256",
          "name": "",
          "type": "uint256"
        }
      ],
      "stateMutability": "view",
      "type": "function"
    },
    {
      "inputs": [
        {
          "internalType": "address",
          "name": "from",
          "type": "address"
        },
        {
          "internalType": "address",
          "name": "to",
          "type": "address"
        },
        {
          "internalType": "uint256",
          "name": "tokenId",
          "type": "uint256"
        }
      ],
      "name": "transferFrom",
      "outputs": [],
      "stateMutability": "payable",
      "type": "function"
    },
    {
      "inputs": [
        {
          "internalType": "address",
          "name": "newOwner",
          "type": "address"
        }
      ],
      "name": "transferOwnership",
      "outputs": [],
      "stateMutability": "nonpayable",
      "type": "function"
    },
    {
      "inputs": [],
      "name": "withdrawToken",
      "outputs": [],
      "stateMutability": "nonpayable",
      "type": "function"
    },
    {
      "inputs": [],
      "name": "wlMint",
      "outputs": [
        {
          "internalType": "bool",
          "name": "",
          "type": "bool"
        }
      ],
      "stateMutability": "view",
      "type": "function"
    },
    {
      "inputs": [],
      "name": "wlRate",
      "outputs": [
        {
          "internalType": "uint256",
          "name": "",
          "type": "uint256"
        }
      ],
      "stateMutability": "view",
      "type": "function"
    }
  ],
  "bytecode": "0x60c06040526005608081905264173539b7b760d91b60a09081526200002891600b91906200022b565b50600a600d819055600e8190556103e8600f5560105560646011819055600560125560016013556014556015805464ffffffffff60a01b19166201000160a81b17905560006016553480156200007d57600080fd5b5060405162002e1d38038062002e1d833981016040819052620000a091620002ee565b604080518082018252600f81526e44455820424154544c45204e46547360881b60208083019182528351808501909452600684526511115613919560d21b908401528151919291620000f5916002916200022b565b5080516200010b9060039060208401906200022b565b50506001600055506200011e3362000155565b60016009556200012e82620001a7565b601580546001600160a01b0319166001600160a01b0392909216919091179055506200042c565b600880546001600160a01b038381166001600160a01b0319831681179093556040519116919082907f8be0079c531659141344cd1fd0a4f28419497f9722a3daafe3b4186f6b6457e090600090a35050565b620001b1620001ca565b8051620001c690600a9060208401906200022b565b5050565b6008546001600160a01b03163314620002295760405162461bcd60e51b815260206004820181905260248201527f4f776e61626c653a2063616c6c6572206973206e6f7420746865206f776e6572604482015260640160405180910390fd5b565b8280546200023990620003d9565b90600052602060002090601f0160209004810192826200025d5760008555620002a8565b82601f106200027857805160ff1916838001178555620002a8565b82800160010185558215620002a8579182015b82811115620002a85782518255916020019190600101906200028b565b50620002b6929150620002ba565b5090565b5b80821115620002b65760008155600101620002bb565b80516001600160a01b0381168114620002e957600080fd5b919050565b6000806040838503121562000301578182fd5b82516001600160401b038082111562000318578384fd5b818501915085601f8301126200032c578384fd5b81518181111562000341576200034162000416565b604051601f8201601f19908116603f011681019083821181831017156200036c576200036c62000416565b8160405282815260209350888484870101111562000388578687fd5b8691505b82821015620003ab57848201840151818301850152908301906200038c565b82821115620003bc57868484830101525b9550620003ce915050858201620002d1565b925050509250929050565b600181811c90821680620003ee57607f821691505b602082108114156200041057634e487b7160e01b600052602260045260246000fd5b50919050565b634e487b7160e01b600052604160045260246000fd5b6129e1806200043c6000396000f3fe6080604052600436106103815760003560e01c80636c0360eb116101d1578063ac81308811610102578063d4c53f3d116100a0578063e985e9c51161006f578063e985e9c5146109b7578063f2c4ce1e14610a00578063f2fde38b14610a20578063ff64569114610a4057600080fd5b8063d4c53f3d1461094b578063d5abeb0114610961578063da3ef23f14610977578063dc33e6811461099757600080fd5b8063c6682862116100dc578063c6682862146108e1578063c87b56dd146108f6578063ca628c7814610916578063d0ecdf481461092b57600080fd5b8063ac81308814610898578063b88d4fde146108b8578063b8b4af39146108cb57600080fd5b80638da5cb5b1161016f578063963cf25711610149578063963cf257146108185780639d76ea58146108385780639fb17e3414610858578063a22cb4651461087857600080fd5b80638da5cb5b146107c5578063940cd05b146107e357806395d89b411461080357600080fd5b80637afb04ff116101ab5780637afb04ff146107445780637cb64759146107645780637f9fa4111461078457806383a076be146107a557600080fd5b80636c0360eb146106fa57806370a082311461070f578063715018a61461072f57600080fd5b80632c4e722e116102b657806355753761116102545780635ef9ff37116102235780635ef9ff37146106845780636352211e146106a45780636ae433a8146106c45780636b38d118146106da57600080fd5b8063557537611461060357806355f804b3146106235780635ac7164f146106435780635c975abb1461066357600080fd5b806342842e0e1161029057806342842e0e14610599578063453c2310146105ac5780634a2bbe3d146105c257806351830227146105e257600080fd5b80632c4e722e1461054d5780632eb4a7ab1461056357806334fcf4371461057957600080fd5b8063149835a0116103235780631dcd8e4e116102fd5780631dcd8e4e146104e3578063226fe1c0146104f957806323b872dd1461051957806326092b831461052c57600080fd5b8063149835a01461047f57806317d8924d1461049f57806318160ddd146104c057600080fd5b8063081812fc1161035f578063081812fc146103ff578063081c8c4414610437578063095ea7b31461044c5780630c311a9c1461045f57600080fd5b806301ffc9a71461038657806302329a29146103bb57806306fdde03146103dd575b600080fd5b34801561039257600080fd5b506103a66103a13660046124dd565b610a56565b60405190151581526020015b60405180910390f35b3480156103c757600080fd5b506103db6103d636600461248d565b610aa8565b005b3480156103e957600080fd5b506103f2610ace565b6040516103b2919061273a565b34801561040b57600080fd5b5061041f61041a3660046124c5565b610b60565b6040516001600160a01b0390911681526020016103b2565b34801561044357600080fd5b506103f2610ba4565b6103db61045a366004612464565b610c32565b34801561046b57600080fd5b506103db61047a3660046124c5565b610cd2565b34801561048b57600080fd5b506103db61049a3660046124c5565b610cdf565b3480156104ab57600080fd5b506015546103a690600160c01b900460ff1681565b3480156104cc57600080fd5b506104d5610cec565b6040519081526020016103b2565b3480156104ef57600080fd5b506104d560145481565b34801561050557600080fd5b506103db610514366004612595565b610cfa565b6103db61052736600461237a565b611042565b34801561053857600080fd5b506015546103a690600160b81b900460ff1681565b34801561055957600080fd5b506104d5600d5481565b34801561056f57600080fd5b506104d560165481565b34801561058557600080fd5b506103db6105943660046124c5565b6111d3565b6103db6105a736600461237a565b6111e0565b3480156105b857600080fd5b506104d560115481565b3480156105ce57600080fd5b506103db6105dd3660046124c5565b611200565b3480156105ee57600080fd5b506015546103a690600160a81b900460ff1681565b34801561060f57600080fd5b506103db61061e3660046124c5565b61120d565b34801561062f57600080fd5b506103db61063e366004612515565b61121a565b34801561064f57600080fd5b506103db61065e3660046124c5565b611239565b34801561066f57600080fd5b506015546103a690600160a01b900460ff1681565b34801561069057600080fd5b506103db61069f3660046124c5565b611246565b3480156106b057600080fd5b5061041f6106bf3660046124c5565b611253565b3480156106d057600080fd5b506104d560105481565b3480156106e657600080fd5b506103db6106f536600461248d565b61125e565b34801561070657600080fd5b506103f2611284565b34801561071b57600080fd5b506104d561072a36600461232e565b611291565b34801561073b57600080fd5b506103db6112e0565b34801561075057600080fd5b506103db61075f3660046124c5565b6112f4565b34801561077057600080fd5b506103db61077f3660046124c5565b611301565b34801561079057600080fd5b506015546103a690600160b01b900460ff1681565b3480156107b157600080fd5b506103db6107c0366004612573565b61130e565b3480156107d157600080fd5b506008546001600160a01b031661041f565b3480156107ef57600080fd5b506103db6107fe36600461248d565b6113d0565b34801561080f57600080fd5b506103f26113f6565b34801561082457600080fd5b506103db61083336600461248d565b611405565b34801561084457600080fd5b5060155461041f906001600160a01b031681565b34801561086457600080fd5b506103db6108733660046124c5565b61142b565b34801561088457600080fd5b506103db61089336600461242e565b611687565b3480156108a457600080fd5b506103db6108b336600461248d565b6116f3565b6103db6108c63660046123b5565b611719565b3480156108d757600080fd5b506104d5600e5481565b3480156108ed57600080fd5b506103f2611763565b34801561090257600080fd5b506103f26109113660046124c5565b611770565b34801561092257600080fd5b506103db6118e2565b34801561093757600080fd5b506103db6109463660046124c5565b6119f0565b34801561095757600080fd5b506104d560135481565b34801561096d57600080fd5b506104d5600f5481565b34801561098357600080fd5b506103db610992366004612515565b611bc6565b3480156109a357600080fd5b506104d56109b236600461232e565b611be1565b3480156109c357600080fd5b506103a66109d2366004612348565b6001600160a01b03918216600090815260076020908152604080832093909416825291909152205460ff1690565b348015610a0c57600080fd5b506103db610a1b366004612515565b611bec565b348015610a2c57600080fd5b506103db610a3b36600461232e565b611c07565b348015610a4c57600080fd5b506104d560125481565b60006301ffc9a760e01b6001600160e01b031983161480610a8757506380ac58cd60e01b6001600160e01b03198316145b80610aa25750635b5e139f60e01b6001600160e01b03198316145b92915050565b610ab0611c7d565b60158054911515600160a01b0260ff60a01b19909216919091179055565b606060028054610add906128db565b80601f0160208091040260200160405190810160405280929190818152602001828054610b09906128db565b8015610b565780601f10610b2b57610100808354040283529160200191610b56565b820191906000526020600020905b815481529060010190602001808311610b3957829003601f168201915b5050505050905090565b6000610b6b82611cd7565b610b88576040516333d1c03960e21b815260040160405180910390fd5b506000908152600660205260409020546001600160a01b031690565b600c8054610bb1906128db565b80601f0160208091040260200160405190810160405280929190818152602001828054610bdd906128db565b8015610c2a5780601f10610bff57610100808354040283529160200191610c2a565b820191906000526020600020905b815481529060010190602001808311610c0d57829003601f168201915b505050505081565b6000610c3d82611253565b9050336001600160a01b03821614610c7657610c5981336109d2565b610c76576040516367d9dca160e11b815260040160405180910390fd5b60008281526006602052604080822080546001600160a01b0319166001600160a01b0387811691821790925591518593918516917f8c5be1e5ebec7d5bd14f71427d1e84f3dd0314c0f7b2291e5b200ac8c7c3b92591a4505050565b610cda611c7d565b601355565b610ce7611c7d565b600f55565b600154600054036000190190565b60026009541415610d265760405162461bcd60e51b8152600401610d1d906127df565b60405180910390fd5b6002600955601554600160a01b900460ff1615610d555760405162461bcd60e51b8152600401610d1d90612771565b601554600160b01b900460ff16610dae5760405162461bcd60e51b815260206004820152601a60248201527f574c206d696e74204861736e27742073746172746564207965740000000000006044820152606401610d1d565b610e23828280806020026020016040519081016040528093929190818152602001838360200280828437600092019190915250506016546040516bffffffffffffffffffffffff193360601b166020820152909250603401905060405160208183030381529060405280519060200120611d0c565b610e6f5760405162461bcd60e51b815260206004820152601860248201527f20596f7520617265206e6f742077686974656c697374656400000000000000006044820152606401610d1d565b6000610e79610cec565b905060105484610eb2610e893390565b6001600160a01b03166000908152600560205260409081902054901c67ffffffffffffffff1690565b610ebc919061284d565b1115610eda5760405162461bcd60e51b8152600401610d1d906127a8565b60008411610efa5760405162461bcd60e51b8152600401610d1d90612816565b600f54610f07858361284d565b1115610f255760405162461bcd60e51b8152600401610d1d9061274d565b601254841115610f775760405162461bcd60e51b815260206004820152601860248201527f6d6178206d696e742070657220547820657863656564656400000000000000006044820152606401610d1d565b601554600e546001600160a01b03909116906323b872dd9033903090610fa590670de0b6b3a7640000612879565b6040516001600160e01b031960e086901b1681526001600160a01b0393841660048201529290911660248301526044820152606401602060405180830381600087803b158015610ff457600080fd5b505af1158015611008573d6000803e3d6000fd5b505050506040513d601f19601f8201168201806040525081019061102c91906124a9565b506110373385611d22565b505060016009555050565b600061104d82611d3c565b9050836001600160a01b0316816001600160a01b0316146110805760405162a1148160e81b815260040160405180910390fd5b60008281526006602052604090208054338082146001600160a01b038816909114176110cd576110b086336109d2565b6110cd57604051632ce44b5f60e11b815260040160405180910390fd5b6001600160a01b0385166110f457604051633a954ecd60e21b815260040160405180910390fd5b80156110ff57600082555b6001600160a01b038681166000908152600560205260408082208054600019019055918716808252919020805460010190554260a01b17600160e11b17600085815260046020526040902055600160e11b831661118a57600184016000818152600460205260409020546111885760005481146111885760008181526004602052604090208490555b505b83856001600160a01b0316876001600160a01b03167fddf252ad1be2c89b69c2b068fc378daa952ba7f163c4a11628f55a4df523b3ef60405160405180910390a4505050505050565b6111db611c7d565b600d55565b6111fb83838360405180602001604052806000815250611719565b505050565b611208611c7d565b601155565b611215611c7d565b600e55565b611222611c7d565b805161123590600a906020840190612203565b5050565b611241611c7d565b601455565b61124e611c7d565b601255565b6000610aa282611d3c565b611266611c7d565b60158054911515600160c01b0260ff60c01b19909216919091179055565b600a8054610bb1906128db565b60006001600160a01b0382166112ba576040516323d3ad8160e21b815260040160405180910390fd5b506001600160a01b031660009081526005602052604090205467ffffffffffffffff1690565b6112e8611c7d565b6112f26000611da5565b565b6112fc611c7d565b601055565b611309611c7d565b601655565b611316611c7d565b600260095414156113395760405162461bcd60e51b8152600401610d1d906127df565b60026009558161135b5760405162461bcd60e51b8152600401610d1d90612816565b6000611365610cec565b600f54909150611375848361284d565b11156113bc5760405162461bcd60e51b81526020600482015260166024820152751b585e08139195081b1a5b5a5d08195e18d95959195960521b6044820152606401610d1d565b6113c68284611d22565b5050600160095550565b6113d8611c7d565b60158054911515600160a81b0260ff60a81b19909216919091179055565b606060038054610add906128db565b61140d611c7d565b60158054911515600160b81b0260ff60b81b19909216919091179055565b6002600954141561144e5760405162461bcd60e51b8152600401610d1d906127df565b6002600955601554600160a01b900460ff161561147d5760405162461bcd60e51b8152600401610d1d90612771565b601554600160b81b900460ff166114d65760405162461bcd60e51b815260206004820152601760248201527f53616c65204861736e27742073746172746564207965740000000000000000006044820152606401610d1d565b60006114e0610cec565b9050600082116115025760405162461bcd60e51b8152600401610d1d90612816565b6012548211156115545760405162461bcd60e51b815260206004820152601f60248201527f6d6178206d696e7420616d6f756e7420706572207478206578636565646564006044820152606401610d1d565b600f54611561838361284d565b111561157f5760405162461bcd60e51b8152600401610d1d9061274d565b6011548261158c33610e89565b611596919061284d565b11156115b45760405162461bcd60e51b8152600401610d1d906127a8565b601554600d546001600160a01b03909116906323b872dd90339030906115da9087612879565b6115ec90670de0b6b3a7640000612879565b6040516001600160e01b031960e086901b1681526001600160a01b0393841660048201529290911660248301526044820152606401602060405180830381600087803b15801561163b57600080fd5b505af115801561164f573d6000803e3d6000fd5b505050506040513d601f19601f8201168201806040525081019061167391906124a9565b5061167e3383611d22565b50506001600955565b3360008181526007602090815260408083206001600160a01b03871680855290835292819020805460ff191686151590811790915590519081529192917f17307eab39ab6107e8899845ad3d59bd9653f200f220920489ca2b5937696c31910160405180910390a35050565b6116fb611c7d565b60158054911515600160b01b0260ff60b01b19909216919091179055565b611724848484611042565b6001600160a01b0383163b1561175d5761174084848484611df7565b61175d576040516368d2bf6b60e11b815260040160405180910390fd5b50505050565b600b8054610bb1906128db565b606061177b82611cd7565b6117e05760405162461bcd60e51b815260206004820152603060248201527f455243373231414d657461646174613a2055524920717565727920666f72206e60448201526f37b732bc34b9ba32b73a103a37b5b2b760811b6064820152608401610d1d565b601554600160a81b900460ff1661188357600c80546117fe906128db565b80601f016020809104026020016040519081016040528092919081815260200182805461182a906128db565b80156118775780601f1061184c57610100808354040283529160200191611877565b820191906000526020600020905b81548152906001019060200180831161185a57829003601f168201915b50505050509050919050565b600061188d611eef565b905060008151116118ad57604051806020016040528060008152506118db565b806118b784611efe565b600b6040516020016118cb9392919061263b565b6040516020818303038152906040525b9392505050565b6118ea611c7d565b6015546040516370a0823160e01b81523060048201526001600160a01b039091169063a9059cbb90339083906370a082319060240160206040518083038186803b15801561193757600080fd5b505afa15801561194b573d6000803e3d6000fd5b505050506040513d601f19601f8201168201806040525081019061196f919061255b565b6040516001600160e01b031960e085901b1681526001600160a01b0390921660048301526024820152604401602060405180830381600087803b1580156119b557600080fd5b505af11580156119c9573d6000803e3d6000fd5b505050506040513d601f19601f820116820180604052508101906119ed91906124a9565b50565b60026009541415611a135760405162461bcd60e51b8152600401610d1d906127df565b6002600955601554600160a01b900460ff1615611a425760405162461bcd60e51b8152600401610d1d90612771565b601554600160c01b900460ff16611a9b5760405162461bcd60e51b815260206004820152601960248201527f416964726f70204861736e2774207374617274656420796574000000000000006044820152606401610d1d565b6000611aa5610cec565b905060008211611ac75760405162461bcd60e51b8152600401610d1d90612816565b601354821115611b195760405162461bcd60e51b815260206004820152601f60248201527f6d6178206d696e7420616d6f756e7420706572207478206578636565646564006044820152606401610d1d565b60135482611b2633610e89565b611b30919061284d565b1115611b4e5760405162461bcd60e51b8152600401610d1d906127a8565b600f54611b5b838361284d565b1115611b795760405162461bcd60e51b8152600401610d1d9061274d565b601454611b86838361284d565b11156115b45760405162461bcd60e51b815260206004820152600f60248201526e105a5c991c9bdc081a185cc8195b99608a1b6044820152606401610d1d565b611bce611c7d565b805161123590600b906020840190612203565b6000610aa282610e89565b611bf4611c7d565b805161123590600c906020840190612203565b611c0f611c7d565b6001600160a01b038116611c745760405162461bcd60e51b815260206004820152602660248201527f4f776e61626c653a206e6577206f776e657220697320746865207a65726f206160448201526564647265737360d01b6064820152608401610d1d565b6119ed81611da5565b6008546001600160a01b031633146112f25760405162461bcd60e51b815260206004820181905260248201527f4f776e61626c653a2063616c6c6572206973206e6f7420746865206f776e65726044820152606401610d1d565b600081600111158015611ceb575060005482105b8015610aa2575050600090815260046020526040902054600160e01b161590565b600082611d198584612018565b14949350505050565b611235828260405180602001604052806000815250612073565b60008180600111611d8c57600054811015611d8c57600081815260046020526040902054600160e01b8116611d8a575b806118db575060001901600081815260046020526040902054611d6c565b505b604051636f96cda160e11b815260040160405180910390fd5b600880546001600160a01b038381166001600160a01b0319831681179093556040519116919082907f8be0079c531659141344cd1fd0a4f28419497f9722a3daafe3b4186f6b6457e090600090a35050565b604051630a85bd0160e11b81526000906001600160a01b0385169063150b7a0290611e2c9033908990889088906004016126fd565b602060405180830381600087803b158015611e4657600080fd5b505af1925050508015611e76575060408051601f3d908101601f19168201909252611e73918101906124f9565b60015b611ed1573d808015611ea4576040519150601f19603f3d011682016040523d82523d6000602084013e611ea9565b606091505b508051611ec9576040516368d2bf6b60e11b815260040160405180910390fd5b805181602001fd5b6001600160e01b031916630a85bd0160e11b1490505b949350505050565b6060600a8054610add906128db565b606081611f225750506040805180820190915260018152600360fc1b602082015290565b8160005b8115611f4c5780611f3681612916565b9150611f459050600a83612865565b9150611f26565b60008167ffffffffffffffff811115611f7557634e487b7160e01b600052604160045260246000fd5b6040519080825280601f01601f191660200182016040528015611f9f576020820181803683370190505b5090505b8415611ee757611fb4600183612898565b9150611fc1600a86612931565b611fcc90603061284d565b60f81b818381518110611fef57634e487b7160e01b600052603260045260246000fd5b60200101906001600160f81b031916908160001a905350612011600a86612865565b9450611fa3565b600081815b845181101561206b576120578286838151811061204a57634e487b7160e01b600052603260045260246000fd5b60200260200101516120e0565b91508061206381612916565b91505061201d565b509392505050565b61207d838361210c565b6001600160a01b0383163b156111fb576000548281035b6120a76000868380600101945086611df7565b6120c4576040516368d2bf6b60e11b815260040160405180910390fd5b8181106120945781600054146120d957600080fd5b5050505050565b60008183106120fc5760008281526020849052604090206118db565b5060009182526020526040902090565b6000548161212d5760405163b562e8dd60e01b815260040160405180910390fd5b6001600160a01b03831660008181526005602090815260408083208054680100000000000000018802019055848352600490915281206001851460e11b4260a01b178317905582840190839083907fddf252ad1be2c89b69c2b068fc378daa952ba7f163c4a11628f55a4df523b3ef8180a4600183015b8181146121dc57808360007fddf252ad1be2c89b69c2b068fc378daa952ba7f163c4a11628f55a4df523b3ef600080a46001016121a4565b50816121fa57604051622e076360e81b815260040160405180910390fd5b60005550505050565b82805461220f906128db565b90600052602060002090601f0160209004810192826122315760008555612277565b82601f1061224a57805160ff1916838001178555612277565b82800160010185558215612277579182015b8281111561227757825182559160200191906001019061225c565b50612283929150612287565b5090565b5b808211156122835760008155600101612288565b600067ffffffffffffffff808411156122b7576122b7612971565b604051601f8501601f19908116603f011681019082821181831017156122df576122df612971565b816040528093508581528686860111156122f857600080fd5b858560208301376000602087830101525050509392505050565b80356001600160a01b038116811461232957600080fd5b919050565b60006020828403121561233f578081fd5b6118db82612312565b6000806040838503121561235a578081fd5b61236383612312565b915061237160208401612312565b90509250929050565b60008060006060848603121561238e578081fd5b61239784612312565b92506123a560208501612312565b9150604084013590509250925092565b600080600080608085870312156123ca578081fd5b6123d385612312565b93506123e160208601612312565b925060408501359150606085013567ffffffffffffffff811115612403578182fd5b8501601f81018713612413578182fd5b6124228782356020840161229c565b91505092959194509250565b60008060408385031215612440578182fd5b61244983612312565b9150602083013561245981612987565b809150509250929050565b60008060408385031215612476578182fd5b61247f83612312565b946020939093013593505050565b60006020828403121561249e578081fd5b81356118db81612987565b6000602082840312156124ba578081fd5b81516118db81612987565b6000602082840312156124d6578081fd5b5035919050565b6000602082840312156124ee578081fd5b81356118db81612995565b60006020828403121561250a578081fd5b81516118db81612995565b600060208284031215612526578081fd5b813567ffffffffffffffff81111561253c578182fd5b8201601f8101841361254c578182fd5b611ee78482356020840161229c565b60006020828403121561256c578081fd5b5051919050565b60008060408385031215612585578182fd5b8235915061237160208401612312565b6000806000604084860312156125a9578081fd5b83359250602084013567ffffffffffffffff808211156125c7578283fd5b818601915086601f8301126125da578283fd5b8135818111156125e8578384fd5b8760208260051b85010111156125fc578384fd5b6020830194508093505050509250925092565b600081518084526126278160208601602086016128af565b601f01601f19169290920160200192915050565b60008451602061264e8285838a016128af565b8551918401916126618184848a016128af565b85549201918390600181811c908083168061267d57607f831692505b85831081141561269b57634e487b7160e01b88526022600452602488fd5b8080156126af57600181146126c0576126ec565b60ff198516885283880195506126ec565b60008b815260209020895b858110156126e45781548a8201529084019088016126cb565b505083880195505b50939b9a5050505050505050505050565b6001600160a01b03858116825284166020820152604081018390526080606082018190526000906127309083018461260f565b9695505050505050565b6020815260006118db602083018461260f565b6020808252600a908201526915d94814dbdb191bdd5d60b21b604082015260600190565b60208082526017908201527f6f6f707320636f6e747261637420697320706175736564000000000000000000604082015260600190565b6020808252601b908201527f4d6178204e4654205065722057616c6c65742065786365656465640000000000604082015260600190565b6020808252601f908201527f5265656e7472616e637947756172643a207265656e7472616e742063616c6c00604082015260600190565b6020808252601b908201527f6e65656420746f206d696e74206174206c656173742031204e46540000000000604082015260600190565b6000821982111561286057612860612945565b500190565b6000826128745761287461295b565b500490565b600081600019048311821515161561289357612893612945565b500290565b6000828210156128aa576128aa612945565b500390565b60005b838110156128ca5781810151838201526020016128b2565b8381111561175d5750506000910152565b600181811c908216806128ef57607f821691505b6020821081141561291057634e487b7160e01b600052602260045260246000fd5b50919050565b600060001982141561292a5761292a612945565b5060010190565b6000826129405761294061295b565b500690565b634e487b7160e01b600052601160045260246000fd5b634e487b7160e01b600052601260045260246000fd5b634e487b7160e01b600052604160045260246000fd5b80151581146119ed57600080fd5b6001600160e01b0319811681146119ed57600080fdfea2646970667358221220375d4b6ec6819d46143fd1a2e61307f49dc35d4109e49480d0c9e7e14f6e75d564736f6c63430008040033",
  "linkReferences": {},
  "deployedLinkReferences": {}
}