{
  "_format": "hh-sol-artifact-1",
  "contractName": "DexNft",
  "sourceName": "contracts/DexNft.sol",
  "abi": [
    {
      "inputs": [
        {
          "internalType": "address",
          "name": "_tokenAddress",
          "type": "address"
        }
      ],
      "stateMutability": "nonpayable",
      "type": "constructor"
    },
    {
      "anonymous": false,
      "inputs": [
        {
          "indexed": true,
          "internalType": "address",
          "name": "account",
          "type": "address"
        },
        {
          "indexed": true,
          "internalType": "address",
          "name": "operator",
          "type": "address"
        },
        {
          "indexed": false,
          "internalType": "bool",
          "name": "approved",
          "type": "bool"
        }
      ],
      "name": "ApprovalForAll",
      "type": "event"
    },
    {
      "anonymous": false,
      "inputs": [
        {
          "indexed": true,
          "internalType": "address",
          "name": "previousOwner",
          "type": "address"
        },
        {
          "indexed": true,
          "internalType": "address",
          "name": "newOwner",
          "type": "address"
        }
      ],
      "name": "OwnershipTransferred",
      "type": "event"
    },
    {
      "anonymous": false,
      "inputs": [
        {
          "indexed": false,
          "internalType": "address",
          "name": "account",
          "type": "address"
        }
      ],
      "name": "Paused",
      "type": "event"
    },
    {
      "anonymous": false,
      "inputs": [
        {
          "indexed": true,
          "internalType": "address",
          "name": "operator",
          "type": "address"
        },
        {
          "indexed": true,
          "internalType": "address",
          "name": "from",
          "type": "address"
        },
        {
          "indexed": true,
          "internalType": "address",
          "name": "to",
          "type": "address"
        },
        {
          "indexed": false,
          "internalType": "uint256[]",
          "name": "ids",
          "type": "uint256[]"
        },
        {
          "indexed": false,
          "internalType": "uint256[]",
          "name": "values",
          "type": "uint256[]"
        }
      ],
      "name": "TransferBatch",
      "type": "event"
    },
    {
      "anonymous": false,
      "inputs": [
        {
          "indexed": true,
          "internalType": "address",
          "name": "operator",
          "type": "address"
        },
        {
          "indexed": true,
          "internalType": "address",
          "name": "from",
          "type": "address"
        },
        {
          "indexed": true,
          "internalType": "address",
          "name": "to",
          "type": "address"
        },
        {
          "indexed": false,
          "internalType": "uint256",
          "name": "id",
          "type": "uint256"
        },
        {
          "indexed": false,
          "internalType": "uint256",
          "name": "value",
          "type": "uint256"
        }
      ],
      "name": "TransferSingle",
      "type": "event"
    },
    {
      "anonymous": false,
      "inputs": [
        {
          "indexed": false,
          "internalType": "string",
          "name": "value",
          "type": "string"
        },
        {
          "indexed": true,
          "internalType": "uint256",
          "name": "id",
          "type": "uint256"
        }
      ],
      "name": "URI",
      "type": "event"
    },
    {
      "anonymous": false,
      "inputs": [
        {
          "indexed": false,
          "internalType": "address",
          "name": "account",
          "type": "address"
        }
      ],
      "name": "Unpaused",
      "type": "event"
    },
    {
      "inputs": [],
      "name": "Common_items_cost",
      "outputs": [
        {
          "internalType": "uint256",
          "name": "",
          "type": "uint256"
        }
      ],
      "stateMutability": "view",
      "type": "function"
    },
    {
      "inputs": [],
      "name": "Epic_items_cost",
      "outputs": [
        {
          "internalType": "uint256",
          "name": "",
          "type": "uint256"
        }
      ],
      "stateMutability": "view",
      "type": "function"
    },
    {
      "inputs": [],
      "name": "Leader_items_cost",
      "outputs": [
        {
          "internalType": "uint256",
          "name": "",
          "type": "uint256"
        }
      ],
      "stateMutability": "view",
      "type": "function"
    },
    {
      "inputs": [],
      "name": "Legendary_items_cost",
      "outputs": [
        {
          "internalType": "uint256",
          "name": "",
          "type": "uint256"
        }
      ],
      "stateMutability": "view",
      "type": "function"
    },
    {
      "inputs": [],
      "name": "Rare_items_cost",
      "outputs": [
        {
          "internalType": "uint256",
          "name": "",
          "type": "uint256"
        }
      ],
      "stateMutability": "view",
      "type": "function"
    },
    {
      "inputs": [],
      "name": "Uncommon_items_cost",
      "outputs": [
        {
          "internalType": "uint256",
          "name": "",
          "type": "uint256"
        }
      ],
      "stateMutability": "view",
      "type": "function"
    },
    {
      "inputs": [
        {
          "internalType": "address",
          "name": "account",
          "type": "address"
        },
        {
          "internalType": "uint256",
          "name": "id",
          "type": "uint256"
        }
      ],
      "name": "balanceOf",
      "outputs": [
        {
          "internalType": "uint256",
          "name": "",
          "type": "uint256"
        }
      ],
      "stateMutability": "view",
      "type": "function"
    },
    {
      "inputs": [
        {
          "internalType": "address[]",
          "name": "accounts",
          "type": "address[]"
        },
        {
          "internalType": "uint256[]",
          "name": "ids",
          "type": "uint256[]"
        }
      ],
      "name": "balanceOfBatch",
      "outputs": [
        {
          "internalType": "uint256[]",
          "name": "",
          "type": "uint256[]"
        }
      ],
      "stateMutability": "view",
      "type": "function"
    },
    {
      "inputs": [
        {
          "internalType": "uint256",
          "name": "id",
          "type": "uint256"
        }
      ],
      "name": "exists",
      "outputs": [
        {
          "internalType": "bool",
          "name": "",
          "type": "bool"
        }
      ],
      "stateMutability": "view",
      "type": "function"
    },
    {
      "inputs": [
        {
          "internalType": "address",
          "name": "account",
          "type": "address"
        },
        {
          "internalType": "address",
          "name": "operator",
          "type": "address"
        }
      ],
      "name": "isApprovedForAll",
      "outputs": [
        {
          "internalType": "bool",
          "name": "",
          "type": "bool"
        }
      ],
      "stateMutability": "view",
      "type": "function"
    },
    {
      "inputs": [],
      "name": "maxCommonSupply",
      "outputs": [
        {
          "internalType": "uint256",
          "name": "",
          "type": "uint256"
        }
      ],
      "stateMutability": "view",
      "type": "function"
    },
    {
      "inputs": [],
      "name": "maxEpicSupply",
      "outputs": [
        {
          "internalType": "uint256",
          "name": "",
          "type": "uint256"
        }
      ],
      "stateMutability": "view",
      "type": "function"
    },
    {
      "inputs": [],
      "name": "maxLeaderSupply",
      "outputs": [
        {
          "internalType": "uint256",
          "name": "",
          "type": "uint256"
        }
      ],
      "stateMutability": "view",
      "type": "function"
    },
    {
      "inputs": [],
      "name": "maxLegendarySupply",
      "outputs": [
        {
          "internalType": "uint256",
          "name": "",
          "type": "uint256"
        }
      ],
      "stateMutability": "view",
      "type": "function"
    },
    {
      "inputs": [],
      "name": "maxRareSupply",
      "outputs": [
        {
          "internalType": "uint256",
          "name": "",
          "type": "uint256"
        }
      ],
      "stateMutability": "view",
      "type": "function"
    },
    {
      "inputs": [],
      "name": "maxUncommonSupply",
      "outputs": [
        {
          "internalType": "uint256",
          "name": "",
          "type": "uint256"
        }
      ],
      "stateMutability": "view",
      "type": "function"
    },
    {
      "inputs": [
        {
          "internalType": "uint256",
          "name": "id",
          "type": "uint256"
        }
      ],
      "name": "mint",
      "outputs": [],
      "stateMutability": "nonpayable",
      "type": "function"
    },
    {
      "inputs": [],
      "name": "owner",
      "outputs": [
        {
          "internalType": "address",
          "name": "",
          "type": "address"
        }
      ],
      "stateMutability": "view",
      "type": "function"
    },
    {
      "inputs": [],
      "name": "pause",
      "outputs": [],
      "stateMutability": "nonpayable",
      "type": "function"
    },
    {
      "inputs": [],
      "name": "paused",
      "outputs": [
        {
          "internalType": "bool",
          "name": "",
          "type": "bool"
        }
      ],
      "stateMutability": "view",
      "type": "function"
    },
    {
      "inputs": [],
      "name": "rate",
      "outputs": [
        {
          "internalType": "uint256",
          "name": "",
          "type": "uint256"
        }
      ],
      "stateMutability": "view",
      "type": "function"
    },
    {
      "inputs": [],
      "name": "renounceOwnership",
      "outputs": [],
      "stateMutability": "nonpayable",
      "type": "function"
    },
    {
      "inputs": [
        {
          "internalType": "address",
          "name": "from",
          "type": "address"
        },
        {
          "internalType": "address",
          "name": "to",
          "type": "address"
        },
        {
          "internalType": "uint256[]",
          "name": "ids",
          "type": "uint256[]"
        },
        {
          "internalType": "uint256[]",
          "name": "amounts",
          "type": "uint256[]"
        },
        {
          "internalType": "bytes",
          "name": "data",
          "type": "bytes"
        }
      ],
      "name": "safeBatchTransferFrom",
      "outputs": [],
      "stateMutability": "nonpayable",
      "type": "function"
    },
    {
      "inputs": [
        {
          "internalType": "address",
          "name": "from",
          "type": "address"
        },
        {
          "internalType": "address",
          "name": "to",
          "type": "address"
        },
        {
          "internalType": "uint256",
          "name": "id",
          "type": "uint256"
        },
        {
          "internalType": "uint256",
          "name": "amount",
          "type": "uint256"
        },
        {
          "internalType": "bytes",
          "name": "data",
          "type": "bytes"
        }
      ],
      "name": "safeTransferFrom",
      "outputs": [],
      "stateMutability": "nonpayable",
      "type": "function"
    },
    {
      "inputs": [
        {
          "internalType": "address",
          "name": "operator",
          "type": "address"
        },
        {
          "internalType": "bool",
          "name": "approved",
          "type": "bool"
        }
      ],
      "name": "setApprovalForAll",
      "outputs": [],
      "stateMutability": "nonpayable",
      "type": "function"
    },
    {
      "inputs": [
        {
          "internalType": "uint256",
          "name": "_newsupply",
          "type": "uint256"
        }
      ],
      "name": "setMaxCommonSupply",
      "outputs": [],
      "stateMutability": "nonpayable",
      "type": "function"
    },
    {
      "inputs": [
        {
          "internalType": "uint256",
          "name": "_newsupply",
          "type": "uint256"
        }
      ],
      "name": "setMaxEpicSupply",
      "outputs": [],
      "stateMutability": "nonpayable",
      "type": "function"
    },
    {
      "inputs": [
        {
          "internalType": "uint256",
          "name": "_newsupply",
          "type": "uint256"
        }
      ],
      "name": "setMaxLegendarySupply",
      "outputs": [],
      "stateMutability": "nonpayable",
      "type": "function"
    },
    {
      "inputs": [
        {
          "internalType": "uint256",
          "name": "_newsupply",
          "type": "uint256"
        }
      ],
      "name": "setMaxRareSupply",
      "outputs": [],
      "stateMutability": "nonpayable",
      "type": "function"
    },
    {
      "inputs": [
        {
          "internalType": "uint256",
          "name": "_newsupply",
          "type": "uint256"
        }
      ],
      "name": "setMaxUncommonSupply",
      "outputs": [],
      "stateMutability": "nonpayable",
      "type": "function"
    },
    {
      "inputs": [
        {
          "internalType": "uint256",
          "name": "_newsupply",
          "type": "uint256"
        }
      ],
      "name": "setMaxleaderSupply",
      "outputs": [],
      "stateMutability": "nonpayable",
      "type": "function"
    },
    {
      "inputs": [
        {
          "internalType": "string",
          "name": "newuri",
          "type": "string"
        }
      ],
      "name": "setURI",
      "outputs": [],
      "stateMutability": "nonpayable",
      "type": "function"
    },
    {
      "inputs": [
        {
          "internalType": "uint256",
          "name": "_newcost",
          "type": "uint256"
        }
      ],
      "name": "set_Common_items_cost",
      "outputs": [],
      "stateMutability": "nonpayable",
      "type": "function"
    },
    {
      "inputs": [
        {
          "internalType": "uint256",
          "name": "_newcost",
          "type": "uint256"
        }
      ],
      "name": "set_Epic_items_cost",
      "outputs": [],
      "stateMutability": "nonpayable",
      "type": "function"
    },
    {
      "inputs": [
        {
          "internalType": "uint256",
          "name": "_newcost",
          "type": "uint256"
        }
      ],
      "name": "set_Leader_items_cost",
      "outputs": [],
      "stateMutability": "nonpayable",
      "type": "function"
    },
    {
      "inputs": [
        {
          "internalType": "uint256",
          "name": "_newcost",
          "type": "uint256"
        }
      ],
      "name": "set_Legendary_items_cost",
      "outputs": [],
      "stateMutability": "nonpayable",
      "type": "function"
    },
    {
      "inputs": [
        {
          "internalType": "uint256",
          "name": "_newcost",
          "type": "uint256"
        }
      ],
      "name": "set_Rare_items_cost",
      "outputs": [],
      "stateMutability": "nonpayable",
      "type": "function"
    },
    {
      "inputs": [
        {
          "internalType": "uint256",
          "name": "_newcost",
          "type": "uint256"
        }
      ],
      "name": "set_Uncommon_items_cost",
      "outputs": [],
      "stateMutability": "nonpayable",
      "type": "function"
    },
    {
      "inputs": [
        {
          "internalType": "bytes4",
          "name": "interfaceId",
          "type": "bytes4"
        }
      ],
      "name": "supportsInterface",
      "outputs": [
        {
          "internalType": "bool",
          "name": "",
          "type": "bool"
        }
      ],
      "stateMutability": "view",
      "type": "function"
    },
    {
      "inputs": [],
      "name": "tokenAddress",
      "outputs": [
        {
          "internalType": "contract IERC20",
          "name": "",
          "type": "address"
        }
      ],
      "stateMutability": "view",
      "type": "function"
    },
    {
      "inputs": [
        {
          "internalType": "uint256",
          "name": "id",
          "type": "uint256"
        }
      ],
      "name": "totalSupply",
      "outputs": [
        {
          "internalType": "uint256",
          "name": "",
          "type": "uint256"
        }
      ],
      "stateMutability": "view",
      "type": "function"
    },
    {
      "inputs": [
        {
          "internalType": "address",
          "name": "newOwner",
          "type": "address"
        }
      ],
      "name": "transferOwnership",
      "outputs": [],
      "stateMutability": "nonpayable",
      "type": "function"
    },
    {
      "inputs": [],
      "name": "unpause",
      "outputs": [],
      "stateMutability": "nonpayable",
      "type": "function"
    },
    {
      "inputs": [
        {
          "internalType": "uint256",
          "name": "_id",
          "type": "uint256"
        }
      ],
      "name": "uri",
      "outputs": [
        {
          "internalType": "string",
          "name": "",
          "type": "string"
        }
      ],
      "stateMutability": "view",
      "type": "function"
    },
    {
      "inputs": [],
      "name": "withdrawToken",
      "outputs": [],
      "stateMutability": "nonpayable",
      "type": "function"
    }
  ],
  "bytecode": "0x60806040526003600555606460065560c860075561012c6008556101906009556101f4600a55610bb8600b5560c8600c556096600d556064600e55604b600f556032601055600a6014553480156200005657600080fd5b5060405162002729380380620027298339810160408190526200007991620001ee565b604051806060016040528060368152602001620026f3603691396200009e81620000dd565b50620000aa33620000f6565b6003805460ff60a01b19169055601580546001600160a01b0319166001600160a01b03929092169190911790556200025b565b8051620000f290600290602084019062000148565b5050565b600380546001600160a01b038381166001600160a01b0319831681179093556040519116919082907f8be0079c531659141344cd1fd0a4f28419497f9722a3daafe3b4186f6b6457e090600090a35050565b82805462000156906200021e565b90600052602060002090601f0160209004810192826200017a5760008555620001c5565b82601f106200019557805160ff1916838001178555620001c5565b82800160010185558215620001c5579182015b82811115620001c5578251825591602001919060010190620001a8565b50620001d3929150620001d7565b5090565b5b80821115620001d35760008155600101620001d8565b60006020828403121562000200578081fd5b81516001600160a01b038116811462000217578182fd5b9392505050565b600181811c908216806200023357607f821691505b602082108114156200025557634e487b7160e01b600052602260045260246000fd5b50919050565b612488806200026b6000396000f3fe608060405234801561001057600080fd5b506004361061027e5760003560e01c80638da5cb5b1161015c578063bf7ee4a5116100ce578063da248c4b11610087578063da248c4b14610530578063dd6f175214610543578063e985e9c51461054c578063f242432a14610588578063f2fde38b1461059b578063fad078df146105ae57600080fd5b8063bf7ee4a5146104f1578063c8eb86c8146104fa578063ca5605b314610503578063ca628c781461050c578063ce1d91f414610514578063d02439fe1461052757600080fd5b8063ab24834811610120578063ab2483481461047c578063aeb8062114610485578063b78a5d7714610498578063b7e2698d146104ab578063b7f24320146104be578063bd85b039146104d157600080fd5b80638da5cb5b146104155780639a41aa731461043a5780639d76ea5814610443578063a0712d6814610456578063a22cb4651461046957600080fd5b806340624b79116101f55780635c975abb116101b95780635c975abb146103ba57806366871520146103cc578063715018a6146103df5780637814308b146103e75780638456cb59146103fa5780638d61e9f11461040257600080fd5b806340624b79146103535780634e1273f41461035c5780634f558e791461037c578063559c039a1461039e5780635c774f03146103a757600080fd5b806325ba5f561161024757806325ba5f56146103145780632c4e722e1461031d5780632eb2c2d6146103265780633235d397146103395780633ba09b9e146103425780633f4ba83a1461034b57600080fd5b8062fdd58e1461028357806301ffc9a7146102a957806302fe5305146102cc5780630e89341c146102e15780631e6b8b8214610301575b600080fd5b610296610291366004611d7d565b6105c1565b6040519081526020015b60405180910390f35b6102bc6102b7366004611e8d565b610657565b60405190151581526020016102a0565b6102df6102da366004611ec5565b6106a9565b005b6102f46102ef366004611f0b565b6106bd565b6040516102a091906120c4565b6102df61030f366004611f0b565b610754565b61029660085481565b61029660145481565b6102df610334366004611c3e565b610761565b61029660055481565b61029660075481565b6102df6107ad565b610296600d5481565b61036f61036a366004611da6565b6107bf565b6040516102a09190612083565b6102bc61038a366004611f0b565b600090815260046020526040902054151590565b61029660095481565b6102df6103b5366004611f0b565b610921565b600354600160a01b900460ff166102bc565b6102df6103da366004611f0b565b61092e565b6102df61093b565b6102df6103f5366004611f0b565b61094d565b6102df61095a565b6102df610410366004611f0b565b61096a565b6003546001600160a01b03165b6040516001600160a01b0390911681526020016102a0565b610296600b5481565b601554610422906001600160a01b031681565b6102df610464366004611f0b565b610977565b6102df610477366004611d47565b610ad3565b61029660065481565b6102df610493366004611f0b565b610ae2565b6102df6104a6366004611f0b565b610aef565b6102df6104b9366004611f0b565b610afc565b6102df6104cc366004611f0b565b610b09565b6102966104df366004611f0b565b60009081526004602052604090205490565b61029660105481565b610296600e5481565b610296600f5481565b6102df610b16565b6102df610522366004611f0b565b610c21565b610296600c5481565b6102df61053e366004611f0b565b610c2e565b610296600a5481565b6102bc61055a366004611c0c565b6001600160a01b03918216600090815260016020908152604080832093909416825291909152205460ff1690565b6102df610596366004611ce4565b610c3b565b6102df6105a9366004611bf2565b610c80565b6102df6105bc366004611f0b565b610cf6565b60006001600160a01b0383166106315760405162461bcd60e51b815260206004820152602a60248201527f455243313135353a2061646472657373207a65726f206973206e6f742061207660448201526930b634b21037bbb732b960b11b60648201526084015b60405180910390fd5b506000908152602081815260408083206001600160a01b03949094168352929052205490565b60006001600160e01b03198216636cdb3d1360e11b148061068857506001600160e01b031982166303a24d0760e21b145b806106a357506301ffc9a760e01b6001600160e01b03198316145b92915050565b6106b1610d03565b6106ba81610d5d565b50565b60008181526004602052604090205460609061071b5760405162461bcd60e51b815260206004820152601860248201527f5552493a20746f6b656e20646f65736e277420657869737400000000000000006044820152606401610628565b61072482610d70565b61072d83610e04565b60405160200161073e929190611fa1565b6040516020818303038152906040529050919050565b61075c610d03565b600555565b6001600160a01b03851633148061077d575061077d853361055a565b6107995760405162461bcd60e51b8152600401610628906120d7565b6107a68585858585610f26565b5050505050565b6107b5610d03565b6107bd61112d565b565b606081518351146108245760405162461bcd60e51b815260206004820152602960248201527f455243313135353a206163636f756e747320616e6420696473206c656e677468604482015268040dad2e6dac2e8c6d60bb1b6064820152608401610628565b6000835167ffffffffffffffff81111561084e57634e487b7160e01b600052604160045260246000fd5b604051908082528060200260200182016040528015610877578160200160208202803683370190505b50905060005b8451811015610919576108de8582815181106108a957634e487b7160e01b600052603260045260246000fd5b60200260200101518583815181106108d157634e487b7160e01b600052603260045260246000fd5b60200260200101516105c1565b8282815181106108fe57634e487b7160e01b600052603260045260246000fd5b60209081029190910101526109128161231b565b905061087d565b509392505050565b610929610d03565b600b55565b610936610d03565b600655565b610943610d03565b6107bd6000611182565b610955610d03565b600f55565b610962610d03565b6107bd6111d4565b610972610d03565b600d55565b6080811061099057600654601155600c54601255610a01565b606381106109a957600754601155600d54601255610a01565b604081106109c257600854601155600e54601255610a01565b602581106109db57600954601155600f54601255610a01565b600a81106109f457600a54601155601054601255610a01565b600554601155600b546012555b6015546012546001600160a01b03909116906323b872dd9033903090610a2f90670de0b6b3a764000061224d565b6040516001600160e01b031960e086901b1681526001600160a01b0393841660048201529290911660248301526044820152606401602060405180830381600087803b158015610a7e57600080fd5b505af1158015610a92573d6000803e3d6000fd5b505050506040513d601f19601f82011682018060405250810190610ab69190611e71565b506106ba3382600160405180602001604052806000815250611217565b610ade33838361133a565b5050565b610aea610d03565b600955565b610af7610d03565b600e55565b610b04610d03565b600a55565b610b11610d03565b600855565b610b1e610d03565b6015546040516370a0823160e01b81523060048201526001600160a01b039091169063a9059cbb90339083906370a082319060240160206040518083038186803b158015610b6b57600080fd5b505afa158015610b7f573d6000803e3d6000fd5b505050506040513d601f19601f82011682018060405250810190610ba39190611f23565b6040516001600160e01b031960e085901b1681526001600160a01b0390921660048301526024820152604401602060405180830381600087803b158015610be957600080fd5b505af1158015610bfd573d6000803e3d6000fd5b505050506040513d601f19601f820116820180604052508101906106ba9190611e71565b610c29610d03565b600c55565b610c36610d03565b601055565b6001600160a01b038516331480610c575750610c57853361055a565b610c735760405162461bcd60e51b8152600401610628906120d7565b6107a6858585858561141b565b610c88610d03565b6001600160a01b038116610ced5760405162461bcd60e51b815260206004820152602660248201527f4f776e61626c653a206e6577206f776e657220697320746865207a65726f206160448201526564647265737360d01b6064820152608401610628565b6106ba81611182565b610cfe610d03565b600755565b6003546001600160a01b031633146107bd5760405162461bcd60e51b815260206004820181905260248201527f4f776e61626c653a2063616c6c6572206973206e6f7420746865206f776e65726044820152606401610628565b8051610ade906002906020840190611a45565b606060028054610d7f906122b3565b80601f0160208091040260200160405190810160405280929190818152602001828054610dab906122b3565b8015610df85780601f10610dcd57610100808354040283529160200191610df8565b820191906000526020600020905b815481529060010190602001808311610ddb57829003601f168201915b50505050509050919050565b606081610e285750506040805180820190915260018152600360fc1b602082015290565b8160005b8115610e525780610e3c8161231b565b9150610e4b9050600a83612239565b9150610e2c565b60008167ffffffffffffffff811115610e7b57634e487b7160e01b600052604160045260246000fd5b6040519080825280601f01601f191660200182016040528015610ea5576020820181803683370190505b5090505b8415610f1e57610eba60018361226c565b9150610ec7600a86612336565b610ed2906030612221565b60f81b818381518110610ef557634e487b7160e01b600052603260045260246000fd5b60200101906001600160f81b031916908160001a905350610f17600a86612239565b9450610ea9565b949350505050565b8151835114610f885760405162461bcd60e51b815260206004820152602860248201527f455243313135353a2069647320616e6420616d6f756e7473206c656e677468206044820152670dad2e6dac2e8c6d60c31b6064820152608401610628565b6001600160a01b038416610fae5760405162461bcd60e51b81526004016106289061216e565b33610fbd818787878787611553565b60005b84518110156110bf576000858281518110610feb57634e487b7160e01b600052603260045260246000fd5b60200260200101519050600085838151811061101757634e487b7160e01b600052603260045260246000fd5b602090810291909101810151600084815280835260408082206001600160a01b038e1683529093529190912054909150818110156110675760405162461bcd60e51b8152600401610628906121b3565b6000838152602081815260408083206001600160a01b038e8116855292528083208585039055908b168252812080548492906110a4908490612221565b92505081905550505050806110b89061231b565b9050610fc0565b50846001600160a01b0316866001600160a01b0316826001600160a01b03167f4a39dc06d4c0dbc64b70af90fd698a233a518aa5d07e595d983b8c0526c8f7fb878760405161110f929190612096565b60405180910390a4611125818787878787611569565b505050505050565b6111356116d4565b6003805460ff60a01b191690557f5db9ee0a495bf2e6ff9c91a7834c1ba4fdd244a5e8aa4e537bd38aeae4b073aa335b6040516001600160a01b03909116815260200160405180910390a1565b600380546001600160a01b038381166001600160a01b0319831681179093556040519116919082907f8be0079c531659141344cd1fd0a4f28419497f9722a3daafe3b4186f6b6457e090600090a35050565b6111dc611724565b6003805460ff60a01b1916600160a01b1790557f62e78cea01bee320cd4e420270b5ea74000d11b0c9f74754ebdbfc544b05a2586111653390565b6001600160a01b0384166112775760405162461bcd60e51b815260206004820152602160248201527f455243313135353a206d696e7420746f20746865207a65726f206164647265736044820152607360f81b6064820152608401610628565b33600061128385611771565b9050600061129085611771565b90506112a183600089858589611553565b6000868152602081815260408083206001600160a01b038b168452909152812080548792906112d1908490612221565b909155505060408051878152602081018790526001600160a01b03808a1692600092918716917fc3d58168c5ae7397731d063d5bbf3d657854427343f4c083240f7aacaa2d0f62910160405180910390a4611331836000898989896117ca565b50505050505050565b816001600160a01b0316836001600160a01b031614156113ae5760405162461bcd60e51b815260206004820152602960248201527f455243313135353a2073657474696e6720617070726f76616c20737461747573604482015268103337b91039b2b63360b91b6064820152608401610628565b6001600160a01b03838116600081815260016020908152604080832094871680845294825291829020805460ff191686151590811790915591519182527f17307eab39ab6107e8899845ad3d59bd9653f200f220920489ca2b5937696c31910160405180910390a3505050565b6001600160a01b0384166114415760405162461bcd60e51b81526004016106289061216e565b33600061144d85611771565b9050600061145a85611771565b905061146a838989858589611553565b6000868152602081815260408083206001600160a01b038c168452909152902054858110156114ab5760405162461bcd60e51b8152600401610628906121b3565b6000878152602081815260408083206001600160a01b038d8116855292528083208985039055908a168252812080548892906114e8908490612221565b909155505060408051888152602081018890526001600160a01b03808b16928c821692918816917fc3d58168c5ae7397731d063d5bbf3d657854427343f4c083240f7aacaa2d0f62910160405180910390a4611548848a8a8a8a8a6117ca565b505050505050505050565b61155b611724565b611125868686868686611894565b6001600160a01b0384163b156111255760405163bc197c8160e01b81526001600160a01b0385169063bc197c81906115ad9089908990889088908890600401611fe0565b602060405180830381600087803b1580156115c757600080fd5b505af19250505080156115f7575060408051601f3d908101601f191682019092526115f491810190611ea9565b60015b6116a45761160361238c565b806308c379a0141561163d57506116186123a4565b80611623575061163f565b8060405162461bcd60e51b815260040161062891906120c4565b505b60405162461bcd60e51b815260206004820152603460248201527f455243313135353a207472616e7366657220746f206e6f6e20455243313135356044820152732932b1b2b4bb32b91034b6b83632b6b2b73a32b960611b6064820152608401610628565b6001600160e01b0319811663bc197c8160e01b146113315760405162461bcd60e51b815260040161062890612126565b600354600160a01b900460ff166107bd5760405162461bcd60e51b815260206004820152601460248201527314185d5cd8589b194e881b9bdd081c185d5cd95960621b6044820152606401610628565b600354600160a01b900460ff16156107bd5760405162461bcd60e51b815260206004820152601060248201526f14185d5cd8589b194e881c185d5cd95960821b6044820152606401610628565b604080516001808252818301909252606091600091906020808301908036833701905050905082816000815181106117b957634e487b7160e01b600052603260045260246000fd5b602090810291909101015292915050565b6001600160a01b0384163b156111255760405163f23a6e6160e01b81526001600160a01b0385169063f23a6e619061180e908990899088908890889060040161203e565b602060405180830381600087803b15801561182857600080fd5b505af1925050508015611858575060408051601f3d908101601f1916820190925261185591810190611ea9565b60015b6118645761160361238c565b6001600160e01b0319811663f23a6e6160e01b146113315760405162461bcd60e51b815260040161062890612126565b6001600160a01b0385166119375760005b8351811015611935578281815181106118ce57634e487b7160e01b600052603260045260246000fd5b6020026020010151600460008684815181106118fa57634e487b7160e01b600052603260045260246000fd5b60200260200101518152602001908152602001600020600082825461191f9190612221565b9091555061192e90508161231b565b90506118a5565b505b6001600160a01b0384166111255760005b835181101561133157600084828151811061197357634e487b7160e01b600052603260045260246000fd5b60200260200101519050600084838151811061199f57634e487b7160e01b600052603260045260246000fd5b6020026020010151905060006004600084815260200190815260200160002054905081811015611a225760405162461bcd60e51b815260206004820152602860248201527f455243313135353a206275726e20616d6f756e74206578636565647320746f74604482015267616c537570706c7960c01b6064820152608401610628565b60009283526004602052604090922091039055611a3e8161231b565b9050611948565b828054611a51906122b3565b90600052602060002090601f016020900481019282611a735760008555611ab9565b82601f10611a8c57805160ff1916838001178555611ab9565b82800160010185558215611ab9579182015b82811115611ab9578251825591602001919060010190611a9e565b50611ac5929150611ac9565b5090565b5b80821115611ac55760008155600101611aca565b600067ffffffffffffffff831115611af857611af8612376565b604051611b0f601f8501601f1916602001826122ee565b809150838152848484011115611b2457600080fd5b83836020830137600060208583010152509392505050565b80356001600160a01b0381168114611b5357600080fd5b919050565b600082601f830112611b68578081fd5b81356020611b75826121fd565b604051611b8282826122ee565b8381528281019150858301600585901b87018401881015611ba1578586fd5b855b85811015611bbf57813584529284019290840190600101611ba3565b5090979650505050505050565b600082601f830112611bdc578081fd5b611beb83833560208501611ade565b9392505050565b600060208284031215611c03578081fd5b611beb82611b3c565b60008060408385031215611c1e578081fd5b611c2783611b3c565b9150611c3560208401611b3c565b90509250929050565b600080600080600060a08688031215611c55578081fd5b611c5e86611b3c565b9450611c6c60208701611b3c565b9350604086013567ffffffffffffffff80821115611c88578283fd5b611c9489838a01611b58565b94506060880135915080821115611ca9578283fd5b611cb589838a01611b58565b93506080880135915080821115611cca578283fd5b50611cd788828901611bcc565b9150509295509295909350565b600080600080600060a08688031215611cfb578081fd5b611d0486611b3c565b9450611d1260208701611b3c565b93506040860135925060608601359150608086013567ffffffffffffffff811115611d3b578182fd5b611cd788828901611bcc565b60008060408385031215611d59578182fd5b611d6283611b3c565b91506020830135611d728161242e565b809150509250929050565b60008060408385031215611d8f578182fd5b611d9883611b3c565b946020939093013593505050565b60008060408385031215611db8578182fd5b823567ffffffffffffffff80821115611dcf578384fd5b818501915085601f830112611de2578384fd5b81356020611def826121fd565b604051611dfc82826122ee565b8381528281019150858301600585901b870184018b1015611e1b578889fd5b8896505b84871015611e4457611e3081611b3c565b835260019690960195918301918301611e1f565b5096505086013592505080821115611e5a578283fd5b50611e6785828601611b58565b9150509250929050565b600060208284031215611e82578081fd5b8151611beb8161242e565b600060208284031215611e9e578081fd5b8135611beb8161243c565b600060208284031215611eba578081fd5b8151611beb8161243c565b600060208284031215611ed6578081fd5b813567ffffffffffffffff811115611eec578182fd5b8201601f81018413611efc578182fd5b610f1e84823560208401611ade565b600060208284031215611f1c578081fd5b5035919050565b600060208284031215611f34578081fd5b5051919050565b6000815180845260208085019450808401835b83811015611f6a57815187529582019590820190600101611f4e565b509495945050505050565b60008151808452611f8d816020860160208601612283565b601f01601f19169290920160200192915050565b60008351611fb3818460208801612283565b835190830190611fc7818360208801612283565b64173539b7b760d91b9101908152600501949350505050565b6001600160a01b0386811682528516602082015260a06040820181905260009061200c90830186611f3b565b828103606084015261201e8186611f3b565b905082810360808401526120328185611f75565b98975050505050505050565b6001600160a01b03868116825285166020820152604081018490526060810183905260a06080820181905260009061207890830184611f75565b979650505050505050565b602081526000611beb6020830184611f3b565b6040815260006120a96040830185611f3b565b82810360208401526120bb8185611f3b565b95945050505050565b602081526000611beb6020830184611f75565b6020808252602f908201527f455243313135353a2063616c6c6572206973206e6f7420746f6b656e206f776e60408201526e195c881b9bdc88185c1c1c9bdd9959608a1b606082015260800190565b60208082526028908201527f455243313135353a204552433131353552656365697665722072656a656374656040820152676420746f6b656e7360c01b606082015260800190565b60208082526025908201527f455243313135353a207472616e7366657220746f20746865207a65726f206164604082015264647265737360d81b606082015260800190565b6020808252602a908201527f455243313135353a20696e73756666696369656e742062616c616e636520666f60408201526939103a3930b739b332b960b11b606082015260800190565b600067ffffffffffffffff82111561221757612217612376565b5060051b60200190565b600082198211156122345761223461234a565b500190565b60008261224857612248612360565b500490565b60008160001904831182151516156122675761226761234a565b500290565b60008282101561227e5761227e61234a565b500390565b60005b8381101561229e578181015183820152602001612286565b838111156122ad576000848401525b50505050565b600181811c908216806122c757607f821691505b602082108114156122e857634e487b7160e01b600052602260045260246000fd5b50919050565b601f8201601f1916810167ffffffffffffffff8111828210171561231457612314612376565b6040525050565b600060001982141561232f5761232f61234a565b5060010190565b60008261234557612345612360565b500690565b634e487b7160e01b600052601160045260246000fd5b634e487b7160e01b600052601260045260246000fd5b634e487b7160e01b600052604160045260246000fd5b600060033d11156123a157600481823e5160e01c5b90565b600060443d10156123b25790565b6040516003193d81016004833e81513d67ffffffffffffffff81602484011181841117156123e257505050505090565b82850191508151818111156123fa5750505050505090565b843d87010160208285010111156124145750505050505090565b612423602082860101876122ee565b509095945050505050565b80151581146106ba57600080fd5b6001600160e01b0319811681146106ba57600080fdfea264697066735822122043b1a11a35e89f61407eafee2e9f88b1ebab763c0d6a2bd73ba871f611baaa1b64736f6c63430008040033697066733a2f2f516d59386a36526142656b526e3754353336757279626b41435177637162716e517950544e4370364a6451675a392f",
  "linkReferences": {},
  "deployedLinkReferences": {}
}