{
  "_format": "hh-sol-artifact-1",
  "contractName": "DexNft",
  "sourceName": "contracts/DexNft.sol",
  "abi": [
    {
      "inputs": [
        {
          "internalType": "string",
          "name": "_initBaseURI",
          "type": "string"
        },
        {
          "internalType": "address",
          "name": "_tokenAddress",
          "type": "address"
        }
      ],
      "stateMutability": "nonpayable",
      "type": "constructor"
    },
    {
      "inputs": [],
      "name": "ApprovalCallerNotOwnerNorApproved",
      "type": "error"
    },
    {
      "inputs": [],
      "name": "ApprovalQueryForNonexistentToken",
      "type": "error"
    },
    {
      "inputs": [],
      "name": "BalanceQueryForZeroAddress",
      "type": "error"
    },
    {
      "inputs": [],
      "name": "MintERC2309QuantityExceedsLimit",
      "type": "error"
    },
    {
      "inputs": [],
      "name": "MintToZeroAddress",
      "type": "error"
    },
    {
      "inputs": [],
      "name": "MintZeroQuantity",
      "type": "error"
    },
    {
      "inputs": [],
      "name": "OwnerQueryForNonexistentToken",
      "type": "error"
    },
    {
      "inputs": [],
      "name": "OwnershipNotInitializedForExtraData",
      "type": "error"
    },
    {
      "inputs": [],
      "name": "TransferCallerNotOwnerNorApproved",
      "type": "error"
    },
    {
      "inputs": [],
      "name": "TransferFromIncorrectOwner",
      "type": "error"
    },
    {
      "inputs": [],
      "name": "TransferToNonERC721ReceiverImplementer",
      "type": "error"
    },
    {
      "inputs": [],
      "name": "TransferToZeroAddress",
      "type": "error"
    },
    {
      "inputs": [],
      "name": "URIQueryForNonexistentToken",
      "type": "error"
    },
    {
      "anonymous": false,
      "inputs": [
        {
          "indexed": true,
          "internalType": "address",
          "name": "owner",
          "type": "address"
        },
        {
          "indexed": true,
          "internalType": "address",
          "name": "approved",
          "type": "address"
        },
        {
          "indexed": true,
          "internalType": "uint256",
          "name": "tokenId",
          "type": "uint256"
        }
      ],
      "name": "Approval",
      "type": "event"
    },
    {
      "anonymous": false,
      "inputs": [
        {
          "indexed": true,
          "internalType": "address",
          "name": "owner",
          "type": "address"
        },
        {
          "indexed": true,
          "internalType": "address",
          "name": "operator",
          "type": "address"
        },
        {
          "indexed": false,
          "internalType": "bool",
          "name": "approved",
          "type": "bool"
        }
      ],
      "name": "ApprovalForAll",
      "type": "event"
    },
    {
      "anonymous": false,
      "inputs": [
        {
          "indexed": true,
          "internalType": "uint256",
          "name": "fromTokenId",
          "type": "uint256"
        },
        {
          "indexed": false,
          "internalType": "uint256",
          "name": "toTokenId",
          "type": "uint256"
        },
        {
          "indexed": true,
          "internalType": "address",
          "name": "from",
          "type": "address"
        },
        {
          "indexed": true,
          "internalType": "address",
          "name": "to",
          "type": "address"
        }
      ],
      "name": "ConsecutiveTransfer",
      "type": "event"
    },
    {
      "anonymous": false,
      "inputs": [
        {
          "indexed": true,
          "internalType": "address",
          "name": "previousOwner",
          "type": "address"
        },
        {
          "indexed": true,
          "internalType": "address",
          "name": "newOwner",
          "type": "address"
        }
      ],
      "name": "OwnershipTransferred",
      "type": "event"
    },
    {
      "anonymous": false,
      "inputs": [
        {
          "indexed": true,
          "internalType": "address",
          "name": "from",
          "type": "address"
        },
        {
          "indexed": true,
          "internalType": "address",
          "name": "to",
          "type": "address"
        },
        {
          "indexed": true,
          "internalType": "uint256",
          "name": "tokenId",
          "type": "uint256"
        }
      ],
      "name": "Transfer",
      "type": "event"
    },
    {
      "inputs": [],
      "name": "MaxperTx",
      "outputs": [
        {
          "internalType": "uint256",
          "name": "",
          "type": "uint256"
        }
      ],
      "stateMutability": "view",
      "type": "function"
    },
    {
      "inputs": [],
      "name": "MaxperWalletwl",
      "outputs": [
        {
          "internalType": "uint256",
          "name": "",
          "type": "uint256"
        }
      ],
      "stateMutability": "view",
      "type": "function"
    },
    {
      "inputs": [
        {
          "internalType": "uint256",
          "name": "tokens",
          "type": "uint256"
        }
      ],
      "name": "PublicMint",
      "outputs": [],
      "stateMutability": "nonpayable",
      "type": "function"
    },
    {
      "inputs": [
        {
          "internalType": "uint256",
          "name": "tokens",
          "type": "uint256"
        },
        {
          "internalType": "bytes32[]",
          "name": "merkleProof",
          "type": "bytes32[]"
        }
      ],
      "name": "WLMint",
      "outputs": [],
      "stateMutability": "payable",
      "type": "function"
    },
    {
      "inputs": [
        {
          "internalType": "address",
          "name": "to",
          "type": "address"
        },
        {
          "internalType": "uint256",
          "name": "tokenId",
          "type": "uint256"
        }
      ],
      "name": "approve",
      "outputs": [],
      "stateMutability": "payable",
      "type": "function"
    },
    {
      "inputs": [
        {
          "internalType": "address",
          "name": "owner",
          "type": "address"
        }
      ],
      "name": "balanceOf",
      "outputs": [
        {
          "internalType": "uint256",
          "name": "",
          "type": "uint256"
        }
      ],
      "stateMutability": "view",
      "type": "function"
    },
    {
      "inputs": [],
      "name": "baseExtension",
      "outputs": [
        {
          "internalType": "string",
          "name": "",
          "type": "string"
        }
      ],
      "stateMutability": "view",
      "type": "function"
    },
    {
      "inputs": [],
      "name": "baseURI",
      "outputs": [
        {
          "internalType": "string",
          "name": "",
          "type": "string"
        }
      ],
      "stateMutability": "view",
      "type": "function"
    },
    {
      "inputs": [
        {
          "internalType": "uint256",
          "name": "tokenId",
          "type": "uint256"
        }
      ],
      "name": "getApproved",
      "outputs": [
        {
          "internalType": "address",
          "name": "",
          "type": "address"
        }
      ],
      "stateMutability": "view",
      "type": "function"
    },
    {
      "inputs": [
        {
          "internalType": "uint256",
          "name": "_mintAmount",
          "type": "uint256"
        },
        {
          "internalType": "address",
          "name": "destination",
          "type": "address"
        }
      ],
      "name": "gift",
      "outputs": [],
      "stateMutability": "nonpayable",
      "type": "function"
    },
    {
      "inputs": [
        {
          "internalType": "address",
          "name": "owner",
          "type": "address"
        },
        {
          "internalType": "address",
          "name": "operator",
          "type": "address"
        }
      ],
      "name": "isApprovedForAll",
      "outputs": [
        {
          "internalType": "bool",
          "name": "",
          "type": "bool"
        }
      ],
      "stateMutability": "view",
      "type": "function"
    },
    {
      "inputs": [],
      "name": "maxSupply",
      "outputs": [
        {
          "internalType": "uint256",
          "name": "",
          "type": "uint256"
        }
      ],
      "stateMutability": "view",
      "type": "function"
    },
    {
      "inputs": [],
      "name": "merkleRoot",
      "outputs": [
        {
          "internalType": "bytes32",
          "name": "",
          "type": "bytes32"
        }
      ],
      "stateMutability": "view",
      "type": "function"
    },
    {
      "inputs": [],
      "name": "name",
      "outputs": [
        {
          "internalType": "string",
          "name": "",
          "type": "string"
        }
      ],
      "stateMutability": "view",
      "type": "function"
    },
    {
      "inputs": [],
      "name": "notRevealedUri",
      "outputs": [
        {
          "internalType": "string",
          "name": "",
          "type": "string"
        }
      ],
      "stateMutability": "view",
      "type": "function"
    },
    {
      "inputs": [
        {
          "internalType": "address",
          "name": "owner",
          "type": "address"
        }
      ],
      "name": "numberMinted",
      "outputs": [
        {
          "internalType": "uint256",
          "name": "",
          "type": "uint256"
        }
      ],
      "stateMutability": "view",
      "type": "function"
    },
    {
      "inputs": [],
      "name": "owner",
      "outputs": [
        {
          "internalType": "address",
          "name": "",
          "type": "address"
        }
      ],
      "stateMutability": "view",
      "type": "function"
    },
    {
      "inputs": [
        {
          "internalType": "uint256",
          "name": "tokenId",
          "type": "uint256"
        }
      ],
      "name": "ownerOf",
      "outputs": [
        {
          "internalType": "address",
          "name": "",
          "type": "address"
        }
      ],
      "stateMutability": "view",
      "type": "function"
    },
    {
      "inputs": [
        {
          "internalType": "bool",
          "name": "_state",
          "type": "bool"
        }
      ],
      "name": "pause",
      "outputs": [],
      "stateMutability": "nonpayable",
      "type": "function"
    },
    {
      "inputs": [],
      "name": "paused",
      "outputs": [
        {
          "internalType": "bool",
          "name": "",
          "type": "bool"
        }
      ],
      "stateMutability": "view",
      "type": "function"
    },
    {
      "inputs": [],
      "name": "publicMint",
      "outputs": [
        {
          "internalType": "bool",
          "name": "",
          "type": "bool"
        }
      ],
      "stateMutability": "view",
      "type": "function"
    },
    {
      "inputs": [],
      "name": "rate",
      "outputs": [
        {
          "internalType": "uint256",
          "name": "",
          "type": "uint256"
        }
      ],
      "stateMutability": "view",
      "type": "function"
    },
    {
      "inputs": [],
      "name": "renounceOwnership",
      "outputs": [],
      "stateMutability": "nonpayable",
      "type": "function"
    },
    {
      "inputs": [
        {
          "internalType": "bool",
          "name": "_state",
          "type": "bool"
        }
      ],
      "name": "reveal",
      "outputs": [],
      "stateMutability": "nonpayable",
      "type": "function"
    },
    {
      "inputs": [],
      "name": "revealed",
      "outputs": [
        {
          "internalType": "bool",
          "name": "",
          "type": "bool"
        }
      ],
      "stateMutability": "view",
      "type": "function"
    },
    {
      "inputs": [
        {
          "internalType": "address",
          "name": "from",
          "type": "address"
        },
        {
          "internalType": "address",
          "name": "to",
          "type": "address"
        },
        {
          "internalType": "uint256",
          "name": "tokenId",
          "type": "uint256"
        }
      ],
      "name": "safeTransferFrom",
      "outputs": [],
      "stateMutability": "payable",
      "type": "function"
    },
    {
      "inputs": [
        {
          "internalType": "address",
          "name": "from",
          "type": "address"
        },
        {
          "internalType": "address",
          "name": "to",
          "type": "address"
        },
        {
          "internalType": "uint256",
          "name": "tokenId",
          "type": "uint256"
        },
        {
          "internalType": "bytes",
          "name": "_data",
          "type": "bytes"
        }
      ],
      "name": "safeTransferFrom",
      "outputs": [],
      "stateMutability": "payable",
      "type": "function"
    },
    {
      "inputs": [
        {
          "internalType": "address",
          "name": "operator",
          "type": "address"
        },
        {
          "internalType": "bool",
          "name": "approved",
          "type": "bool"
        }
      ],
      "name": "setApprovalForAll",
      "outputs": [],
      "stateMutability": "nonpayable",
      "type": "function"
    },
    {
      "inputs": [
        {
          "internalType": "string",
          "name": "_newBaseExtension",
          "type": "string"
        }
      ],
      "name": "setBaseExtension",
      "outputs": [],
      "stateMutability": "nonpayable",
      "type": "function"
    },
    {
      "inputs": [
        {
          "internalType": "string",
          "name": "_newBaseURI",
          "type": "string"
        }
      ],
      "name": "setBaseURI",
      "outputs": [],
      "stateMutability": "nonpayable",
      "type": "function"
    },
    {
      "inputs": [
        {
          "internalType": "uint256",
          "name": "_newMaxperTx",
          "type": "uint256"
        }
      ],
      "name": "setMaxperTx",
      "outputs": [],
      "stateMutability": "nonpayable",
      "type": "function"
    },
    {
      "inputs": [
        {
          "internalType": "uint256",
          "name": "_limit",
          "type": "uint256"
        }
      ],
      "name": "setMaxperWalletwl",
      "outputs": [],
      "stateMutability": "nonpayable",
      "type": "function"
    },
    {
      "inputs": [
        {
          "internalType": "uint256",
          "name": "_newsupply",
          "type": "uint256"
        }
      ],
      "name": "setMaxsupply",
      "outputs": [],
      "stateMutability": "nonpayable",
      "type": "function"
    },
    {
      "inputs": [
        {
          "internalType": "bytes32",
          "name": "_merkleRoot",
          "type": "bytes32"
        }
      ],
      "name": "setMerkleRoot",
      "outputs": [],
      "stateMutability": "nonpayable",
      "type": "function"
    },
    {
      "inputs": [
        {
          "internalType": "string",
          "name": "_notRevealedURI",
          "type": "string"
        }
      ],
      "name": "setNotRevealedURI",
      "outputs": [],
      "stateMutability": "nonpayable",
      "type": "function"
    },
    {
      "inputs": [
        {
          "internalType": "uint256",
          "name": "_newRate",
          "type": "uint256"
        }
      ],
      "name": "setRate",
      "outputs": [],
      "stateMutability": "nonpayable",
      "type": "function"
    },
    {
      "inputs": [
        {
          "internalType": "uint256",
          "name": "_newWlRate",
          "type": "uint256"
        }
      ],
      "name": "setWlRate",
      "outputs": [],
      "stateMutability": "nonpayable",
      "type": "function"
    },
    {
      "inputs": [
        {
          "internalType": "bytes4",
          "name": "interfaceId",
          "type": "bytes4"
        }
      ],
      "name": "supportsInterface",
      "outputs": [
        {
          "internalType": "bool",
          "name": "",
          "type": "bool"
        }
      ],
      "stateMutability": "view",
      "type": "function"
    },
    {
      "inputs": [],
      "name": "symbol",
      "outputs": [
        {
          "internalType": "string",
          "name": "",
          "type": "string"
        }
      ],
      "stateMutability": "view",
      "type": "function"
    },
    {
      "inputs": [
        {
          "internalType": "bool",
          "name": "_state",
          "type": "bool"
        }
      ],
      "name": "toggleWlMint",
      "outputs": [],
      "stateMutability": "nonpayable",
      "type": "function"
    },
    {
      "inputs": [
        {
          "internalType": "bool",
          "name": "_state",
          "type": "bool"
        }
      ],
      "name": "togglepublicMint",
      "outputs": [],
      "stateMutability": "nonpayable",
      "type": "function"
    },
    {
      "inputs": [],
      "name": "tokenAddress",
      "outputs": [
        {
          "internalType": "contract IERC20",
          "name": "",
          "type": "address"
        }
      ],
      "stateMutability": "view",
      "type": "function"
    },
    {
      "inputs": [
        {
          "internalType": "uint256",
          "name": "tokenId",
          "type": "uint256"
        }
      ],
      "name": "tokenURI",
      "outputs": [
        {
          "internalType": "string",
          "name": "",
          "type": "string"
        }
      ],
      "stateMutability": "view",
      "type": "function"
    },
    {
      "inputs": [],
      "name": "totalSupply",
      "outputs": [
        {
          "internalType": "uint256",
          "name": "",
          "type": "uint256"
        }
      ],
      "stateMutability": "view",
      "type": "function"
    },
    {
      "inputs": [
        {
          "internalType": "address",
          "name": "from",
          "type": "address"
        },
        {
          "internalType": "address",
          "name": "to",
          "type": "address"
        },
        {
          "internalType": "uint256",
          "name": "tokenId",
          "type": "uint256"
        }
      ],
      "name": "transferFrom",
      "outputs": [],
      "stateMutability": "payable",
      "type": "function"
    },
    {
      "inputs": [
        {
          "internalType": "address",
          "name": "newOwner",
          "type": "address"
        }
      ],
      "name": "transferOwnership",
      "outputs": [],
      "stateMutability": "nonpayable",
      "type": "function"
    },
    {
      "inputs": [],
      "name": "withdrawToken",
      "outputs": [],
      "stateMutability": "nonpayable",
      "type": "function"
    },
    {
      "inputs": [],
      "name": "wlMint",
      "outputs": [
        {
          "internalType": "bool",
          "name": "",
          "type": "bool"
        }
      ],
      "stateMutability": "view",
      "type": "function"
    },
    {
      "inputs": [],
      "name": "wlRate",
      "outputs": [
        {
          "internalType": "uint256",
          "name": "",
          "type": "uint256"
        }
      ],
      "stateMutability": "view",
      "type": "function"
    }
  ],
  "bytecode": "0x60c06040526005608081905264173539b7b760d91b60a09081526200002891600b91906200021b565b50600a600d819055600e8190556103e8600f5560105560056011556012805463ffffffff60a01b19166201000160a81b17905560006013553480156200006d57600080fd5b5060405162002a2a38038062002a2a8339810160408190526200009091620002de565b604080518082018252600f81526e44455820424154544c45204e46547360881b60208083019182528351808501909452600684526511115613919560d21b908401528151919291620000e5916002916200021b565b508051620000fb9060039060208401906200021b565b50506001600055506200010e3362000145565b60016009556200011e8262000197565b601280546001600160a01b0319166001600160a01b0392909216919091179055506200041c565b600880546001600160a01b038381166001600160a01b0319831681179093556040519116919082907f8be0079c531659141344cd1fd0a4f28419497f9722a3daafe3b4186f6b6457e090600090a35050565b620001a1620001ba565b8051620001b690600a9060208401906200021b565b5050565b6008546001600160a01b03163314620002195760405162461bcd60e51b815260206004820181905260248201527f4f776e61626c653a2063616c6c6572206973206e6f7420746865206f776e6572604482015260640160405180910390fd5b565b8280546200022990620003c9565b90600052602060002090601f0160209004810192826200024d576000855562000298565b82601f106200026857805160ff191683800117855562000298565b8280016001018555821562000298579182015b82811115620002985782518255916020019190600101906200027b565b50620002a6929150620002aa565b5090565b5b80821115620002a65760008155600101620002ab565b80516001600160a01b0381168114620002d957600080fd5b919050565b60008060408385031215620002f1578182fd5b82516001600160401b038082111562000308578384fd5b818501915085601f8301126200031c578384fd5b81518181111562000331576200033162000406565b604051601f8201601f19908116603f011681019083821181831017156200035c576200035c62000406565b8160405282815260209350888484870101111562000378578687fd5b8691505b828210156200039b57848201840151818301850152908301906200037c565b82821115620003ac57868484830101525b9550620003be915050858201620002c1565b925050509250929050565b600181811c90821680620003de57607f821691505b602082108114156200040057634e487b7160e01b600052602260045260246000fd5b50919050565b634e487b7160e01b600052604160045260246000fd5b6125fe806200042c6000396000f3fe6080604052600436106102ae5760003560e01c8063715018a611610175578063ac813088116100dc578063d5abeb0111610095578063e985e9c51161006f578063e985e9c5146107dd578063f2c4ce1e14610826578063f2fde38b14610846578063ff6456911461086657600080fd5b8063d5abeb0114610787578063da3ef23f1461079d578063dc33e681146107bd57600080fd5b8063ac813088146106f4578063b88d4fde14610714578063b8b4af3914610727578063c66828621461073d578063c87b56dd14610752578063ca628c781461077257600080fd5b8063940cd05b1161012e578063940cd05b1461063f57806395d89b411461065f578063963cf257146106745780639d76ea58146106945780639fb17e34146106b4578063a22cb465146106d457600080fd5b8063715018a61461058b5780637afb04ff146105a05780637cb64759146105c05780637f9fa411146105e057806383a076be146106015780638da5cb5b1461062157600080fd5b80632eb4a7ab116102195780635c975abb116101d25780635c975abb146104df5780635ef9ff37146105005780636352211e146105205780636ae433a8146105405780636c0360eb1461055657806370a082311461056b57600080fd5b80632eb4a7ab1461043557806334fcf4371461044b57806342842e0e1461046b578063518302271461047e578063557537611461049f57806355f804b3146104bf57600080fd5b8063149835a01161026b578063149835a01461038c57806318160ddd146103ac578063226fe1c0146103d857806323b872dd146103eb57806326092b83146103fe5780632c4e722e1461041f57600080fd5b806301ffc9a7146102b357806302329a29146102e857806306fdde031461030a578063081812fc1461032c578063081c8c4414610364578063095ea7b314610379575b600080fd5b3480156102bf57600080fd5b506102d36102ce36600461218c565b61087c565b60405190151581526020015b60405180910390f35b3480156102f457600080fd5b5061030861030336600461213c565b6108ce565b005b34801561031657600080fd5b5061031f6108f4565b6040516102df91906123e9565b34801561033857600080fd5b5061034c610347366004612174565b610986565b6040516001600160a01b0390911681526020016102df565b34801561037057600080fd5b5061031f6109ca565b610308610387366004612113565b610a58565b34801561039857600080fd5b506103086103a7366004612174565b610af8565b3480156103b857600080fd5b506103ca600154600054036000190190565b6040519081526020016102df565b6103086103e6366004612244565b610b05565b6103086103f9366004612029565b610ecd565b34801561040a57600080fd5b506012546102d390600160b81b900460ff1681565b34801561042b57600080fd5b506103ca600d5481565b34801561044157600080fd5b506103ca60135481565b34801561045757600080fd5b50610308610466366004612174565b61105e565b610308610479366004612029565b61106b565b34801561048a57600080fd5b506012546102d390600160a81b900460ff1681565b3480156104ab57600080fd5b506103086104ba366004612174565b61108b565b3480156104cb57600080fd5b506103086104da3660046121c4565b611098565b3480156104eb57600080fd5b506012546102d390600160a01b900460ff1681565b34801561050c57600080fd5b5061030861051b366004612174565b6110b7565b34801561052c57600080fd5b5061034c61053b366004612174565b6110c4565b34801561054c57600080fd5b506103ca60105481565b34801561056257600080fd5b5061031f6110cf565b34801561057757600080fd5b506103ca610586366004611fdd565b6110dc565b34801561059757600080fd5b5061030861112b565b3480156105ac57600080fd5b506103086105bb366004612174565b61113f565b3480156105cc57600080fd5b506103086105db366004612174565b61114c565b3480156105ec57600080fd5b506012546102d390600160b01b900460ff1681565b34801561060d57600080fd5b5061030861061c366004612222565b611159565b34801561062d57600080fd5b506008546001600160a01b031661034c565b34801561064b57600080fd5b5061030861065a36600461213c565b611224565b34801561066b57600080fd5b5061031f61124a565b34801561068057600080fd5b5061030861068f36600461213c565b611259565b3480156106a057600080fd5b5060125461034c906001600160a01b031681565b3480156106c057600080fd5b506103086106cf366004612174565b61127f565b3480156106e057600080fd5b506103086106ef3660046120dd565b6114ec565b34801561070057600080fd5b5061030861070f36600461213c565b611558565b610308610722366004612064565b61157e565b34801561073357600080fd5b506103ca600e5481565b34801561074957600080fd5b5061031f6115c8565b34801561075e57600080fd5b5061031f61076d366004612174565b6115d5565b34801561077e57600080fd5b50610308611747565b34801561079357600080fd5b506103ca600f5481565b3480156107a957600080fd5b506103086107b83660046121c4565b611855565b3480156107c957600080fd5b506103ca6107d8366004611fdd565b611870565b3480156107e957600080fd5b506102d36107f8366004611ff7565b6001600160a01b03918216600090815260076020908152604080832093909416825291909152205460ff1690565b34801561083257600080fd5b506103086108413660046121c4565b61189b565b34801561085257600080fd5b50610308610861366004611fdd565b6118b6565b34801561087257600080fd5b506103ca60115481565b60006301ffc9a760e01b6001600160e01b0319831614806108ad57506380ac58cd60e01b6001600160e01b03198316145b806108c85750635b5e139f60e01b6001600160e01b03198316145b92915050565b6108d661192c565b60128054911515600160a01b0260ff60a01b19909216919091179055565b606060028054610903906124f8565b80601f016020809104026020016040519081016040528092919081815260200182805461092f906124f8565b801561097c5780601f106109515761010080835404028352916020019161097c565b820191906000526020600020905b81548152906001019060200180831161095f57829003601f168201915b5050505050905090565b600061099182611986565b6109ae576040516333d1c03960e21b815260040160405180910390fd5b506000908152600660205260409020546001600160a01b031690565b600c80546109d7906124f8565b80601f0160208091040260200160405190810160405280929190818152602001828054610a03906124f8565b8015610a505780601f10610a2557610100808354040283529160200191610a50565b820191906000526020600020905b815481529060010190602001808311610a3357829003601f168201915b505050505081565b6000610a63826110c4565b9050336001600160a01b03821614610a9c57610a7f81336107f8565b610a9c576040516367d9dca160e11b815260040160405180910390fd5b60008281526006602052604080822080546001600160a01b0319166001600160a01b0387811691821790925591518593918516917f8c5be1e5ebec7d5bd14f71427d1e84f3dd0314c0f7b2291e5b200ac8c7c3b92591a4505050565b610b0061192c565b600f55565b60026009541415610b315760405162461bcd60e51b8152600401610b28906123fc565b60405180910390fd5b6002600955601254600160a01b900460ff1615610b8a5760405162461bcd60e51b81526020600482015260176024820152761bdbdc1cc818dbdb9d1c9858dd081a5cc81c185d5cd959604a1b6044820152606401610b28565b601254600160b01b900460ff16610be35760405162461bcd60e51b815260206004820152601a60248201527f574c206d696e74204861736e27742073746172746564207965740000000000006044820152606401610b28565b610c58828280806020026020016040519081016040528093929190818152602001838360200280828437600092019190915250506013546040516bffffffffffffffffffffffff193360601b1660208201529092506034019050604051602081830303815290604052805190602001206119bb565b610ca45760405162461bcd60e51b815260206004820152601860248201527f20596f7520617265206e6f742077686974656c697374656400000000000000006044820152606401610b28565b6000610cb7600154600054036000190190565b905060105484610cf0610cc73390565b6001600160a01b03166000908152600560205260409081902054901c67ffffffffffffffff1690565b610cfa919061246a565b1115610d485760405162461bcd60e51b815260206004820152601b60248201527f4d6178204e4654205065722057616c6c657420657863656564656400000000006044820152606401610b28565b60008411610d685760405162461bcd60e51b8152600401610b2890612433565b600f54610d75858361246a565b1115610db05760405162461bcd60e51b815260206004820152600a60248201526915d94814dbdb191bdd5d60b21b6044820152606401610b28565b601154841115610e025760405162461bcd60e51b815260206004820152601860248201527f6d6178206d696e742070657220547820657863656564656400000000000000006044820152606401610b28565b601254600e546001600160a01b03909116906323b872dd9033903090610e3090670de0b6b3a7640000612496565b6040516001600160e01b031960e086901b1681526001600160a01b0393841660048201529290911660248301526044820152606401602060405180830381600087803b158015610e7f57600080fd5b505af1158015610e93573d6000803e3d6000fd5b505050506040513d601f19601f82011682018060405250810190610eb79190612158565b50610ec233856119d1565b505060016009555050565b6000610ed8826119eb565b9050836001600160a01b0316816001600160a01b031614610f0b5760405162a1148160e81b815260040160405180910390fd5b60008281526006602052604090208054338082146001600160a01b03881690911417610f5857610f3b86336107f8565b610f5857604051632ce44b5f60e11b815260040160405180910390fd5b6001600160a01b038516610f7f57604051633a954ecd60e21b815260040160405180910390fd5b8015610f8a57600082555b6001600160a01b038681166000908152600560205260408082208054600019019055918716808252919020805460010190554260a01b17600160e11b17600085815260046020526040902055600160e11b831661101557600184016000818152600460205260409020546110135760005481146110135760008181526004602052604090208490555b505b83856001600160a01b0316876001600160a01b03167fddf252ad1be2c89b69c2b068fc378daa952ba7f163c4a11628f55a4df523b3ef60405160405180910390a4505050505050565b61106661192c565b600d55565b6110868383836040518060200160405280600081525061157e565b505050565b61109361192c565b600e55565b6110a061192c565b80516110b390600a906020840190611eb2565b5050565b6110bf61192c565b601155565b60006108c8826119eb565b600a80546109d7906124f8565b60006001600160a01b038216611105576040516323d3ad8160e21b815260040160405180910390fd5b506001600160a01b031660009081526005602052604090205467ffffffffffffffff1690565b61113361192c565b61113d6000611a54565b565b61114761192c565b601055565b61115461192c565b601355565b61116161192c565b600260095414156111845760405162461bcd60e51b8152600401610b28906123fc565b6002600955816111a65760405162461bcd60e51b8152600401610b2890612433565b60006111b9600154600054036000190190565b600f549091506111c9848361246a565b11156112105760405162461bcd60e51b81526020600482015260166024820152751b585e08139195081b1a5b5a5d08195e18d95959195960521b6044820152606401610b28565b61121a82846119d1565b5050600160095550565b61122c61192c565b60128054911515600160a81b0260ff60a81b19909216919091179055565b606060038054610903906124f8565b61126161192c565b60128054911515600160b81b0260ff60b81b19909216919091179055565b600260095414156112a25760405162461bcd60e51b8152600401610b28906123fc565b6002600955601254600160a01b900460ff16156112fb5760405162461bcd60e51b81526020600482015260176024820152761bdbdc1cc818dbdb9d1c9858dd081a5cc81c185d5cd959604a1b6044820152606401610b28565b601254600160b81b900460ff166113545760405162461bcd60e51b815260206004820152601760248201527f53616c65204861736e27742073746172746564207965740000000000000000006044820152606401610b28565b6000611367600154600054036000190190565b9050600082116113895760405162461bcd60e51b8152600401610b2890612433565b6011548211156113db5760405162461bcd60e51b815260206004820152601f60248201527f6d6178206d696e7420616d6f756e7420706572207478206578636565646564006044820152606401610b28565b600f546113e8838361246a565b11156114235760405162461bcd60e51b815260206004820152600a60248201526915d94814dbdb191bdd5d60b21b6044820152606401610b28565b601254600d546001600160a01b03909116906323b872dd903390309061145190670de0b6b3a7640000612496565b6040516001600160e01b031960e086901b1681526001600160a01b0393841660048201529290911660248301526044820152606401602060405180830381600087803b1580156114a057600080fd5b505af11580156114b4573d6000803e3d6000fd5b505050506040513d601f19601f820116820180604052508101906114d89190612158565b506114e333836119d1565b50506001600955565b3360008181526007602090815260408083206001600160a01b03871680855290835292819020805460ff191686151590811790915590519081529192917f17307eab39ab6107e8899845ad3d59bd9653f200f220920489ca2b5937696c31910160405180910390a35050565b61156061192c565b60128054911515600160b01b0260ff60b01b19909216919091179055565b611589848484610ecd565b6001600160a01b0383163b156115c2576115a584848484611aa6565b6115c2576040516368d2bf6b60e11b815260040160405180910390fd5b50505050565b600b80546109d7906124f8565b60606115e082611986565b6116455760405162461bcd60e51b815260206004820152603060248201527f455243373231414d657461646174613a2055524920717565727920666f72206e60448201526f37b732bc34b9ba32b73a103a37b5b2b760811b6064820152608401610b28565b601254600160a81b900460ff166116e857600c8054611663906124f8565b80601f016020809104026020016040519081016040528092919081815260200182805461168f906124f8565b80156116dc5780601f106116b1576101008083540402835291602001916116dc565b820191906000526020600020905b8154815290600101906020018083116116bf57829003601f168201915b50505050509050919050565b60006116f2611b9e565b905060008151116117125760405180602001604052806000815250611740565b8061171c84611bad565b600b604051602001611730939291906122ea565b6040516020818303038152906040525b9392505050565b61174f61192c565b6012546040516370a0823160e01b81523060048201526001600160a01b039091169063a9059cbb90339083906370a082319060240160206040518083038186803b15801561179c57600080fd5b505afa1580156117b0573d6000803e3d6000fd5b505050506040513d601f19601f820116820180604052508101906117d4919061220a565b6040516001600160e01b031960e085901b1681526001600160a01b0390921660048301526024820152604401602060405180830381600087803b15801561181a57600080fd5b505af115801561182e573d6000803e3d6000fd5b505050506040513d601f19601f820116820180604052508101906118529190612158565b50565b61185d61192c565b80516110b390600b906020840190611eb2565b6001600160a01b0381166000908152600560205260408082205467ffffffffffffffff911c166108c8565b6118a361192c565b80516110b390600c906020840190611eb2565b6118be61192c565b6001600160a01b0381166119235760405162461bcd60e51b815260206004820152602660248201527f4f776e61626c653a206e6577206f776e657220697320746865207a65726f206160448201526564647265737360d01b6064820152608401610b28565b61185281611a54565b6008546001600160a01b0316331461113d5760405162461bcd60e51b815260206004820181905260248201527f4f776e61626c653a2063616c6c6572206973206e6f7420746865206f776e65726044820152606401610b28565b60008160011115801561199a575060005482105b80156108c8575050600090815260046020526040902054600160e01b161590565b6000826119c88584611cc7565b14949350505050565b6110b3828260405180602001604052806000815250611d22565b60008180600111611a3b57600054811015611a3b57600081815260046020526040902054600160e01b8116611a39575b80611740575060001901600081815260046020526040902054611a1b565b505b604051636f96cda160e11b815260040160405180910390fd5b600880546001600160a01b038381166001600160a01b0319831681179093556040519116919082907f8be0079c531659141344cd1fd0a4f28419497f9722a3daafe3b4186f6b6457e090600090a35050565b604051630a85bd0160e11b81526000906001600160a01b0385169063150b7a0290611adb9033908990889088906004016123ac565b602060405180830381600087803b158015611af557600080fd5b505af1925050508015611b25575060408051601f3d908101601f19168201909252611b22918101906121a8565b60015b611b80573d808015611b53576040519150601f19603f3d011682016040523d82523d6000602084013e611b58565b606091505b508051611b78576040516368d2bf6b60e11b815260040160405180910390fd5b805181602001fd5b6001600160e01b031916630a85bd0160e11b1490505b949350505050565b6060600a8054610903906124f8565b606081611bd15750506040805180820190915260018152600360fc1b602082015290565b8160005b8115611bfb5780611be581612533565b9150611bf49050600a83612482565b9150611bd5565b60008167ffffffffffffffff811115611c2457634e487b7160e01b600052604160045260246000fd5b6040519080825280601f01601f191660200182016040528015611c4e576020820181803683370190505b5090505b8415611b9657611c636001836124b5565b9150611c70600a8661254e565b611c7b90603061246a565b60f81b818381518110611c9e57634e487b7160e01b600052603260045260246000fd5b60200101906001600160f81b031916908160001a905350611cc0600a86612482565b9450611c52565b600081815b8451811015611d1a57611d0682868381518110611cf957634e487b7160e01b600052603260045260246000fd5b6020026020010151611d8f565b915080611d1281612533565b915050611ccc565b509392505050565b611d2c8383611dbb565b6001600160a01b0383163b15611086576000548281035b611d566000868380600101945086611aa6565b611d73576040516368d2bf6b60e11b815260040160405180910390fd5b818110611d43578160005414611d8857600080fd5b5050505050565b6000818310611dab576000828152602084905260409020611740565b5060009182526020526040902090565b60005481611ddc5760405163b562e8dd60e01b815260040160405180910390fd5b6001600160a01b03831660008181526005602090815260408083208054680100000000000000018802019055848352600490915281206001851460e11b4260a01b178317905582840190839083907fddf252ad1be2c89b69c2b068fc378daa952ba7f163c4a11628f55a4df523b3ef8180a4600183015b818114611e8b57808360007fddf252ad1be2c89b69c2b068fc378daa952ba7f163c4a11628f55a4df523b3ef600080a4600101611e53565b5081611ea957604051622e076360e81b815260040160405180910390fd5b60005550505050565b828054611ebe906124f8565b90600052602060002090601f016020900481019282611ee05760008555611f26565b82601f10611ef957805160ff1916838001178555611f26565b82800160010185558215611f26579182015b82811115611f26578251825591602001919060010190611f0b565b50611f32929150611f36565b5090565b5b80821115611f325760008155600101611f37565b600067ffffffffffffffff80841115611f6657611f6661258e565b604051601f8501601f19908116603f01168101908282118183101715611f8e57611f8e61258e565b81604052809350858152868686011115611fa757600080fd5b858560208301376000602087830101525050509392505050565b80356001600160a01b0381168114611fd857600080fd5b919050565b600060208284031215611fee578081fd5b61174082611fc1565b60008060408385031215612009578081fd5b61201283611fc1565b915061202060208401611fc1565b90509250929050565b60008060006060848603121561203d578081fd5b61204684611fc1565b925061205460208501611fc1565b9150604084013590509250925092565b60008060008060808587031215612079578081fd5b61208285611fc1565b935061209060208601611fc1565b925060408501359150606085013567ffffffffffffffff8111156120b2578182fd5b8501601f810187136120c2578182fd5b6120d187823560208401611f4b565b91505092959194509250565b600080604083850312156120ef578182fd5b6120f883611fc1565b91506020830135612108816125a4565b809150509250929050565b60008060408385031215612125578182fd5b61212e83611fc1565b946020939093013593505050565b60006020828403121561214d578081fd5b8135611740816125a4565b600060208284031215612169578081fd5b8151611740816125a4565b600060208284031215612185578081fd5b5035919050565b60006020828403121561219d578081fd5b8135611740816125b2565b6000602082840312156121b9578081fd5b8151611740816125b2565b6000602082840312156121d5578081fd5b813567ffffffffffffffff8111156121eb578182fd5b8201601f810184136121fb578182fd5b611b9684823560208401611f4b565b60006020828403121561221b578081fd5b5051919050565b60008060408385031215612234578182fd5b8235915061202060208401611fc1565b600080600060408486031215612258578081fd5b83359250602084013567ffffffffffffffff80821115612276578283fd5b818601915086601f830112612289578283fd5b813581811115612297578384fd5b8760208260051b85010111156122ab578384fd5b6020830194508093505050509250925092565b600081518084526122d68160208601602086016124cc565b601f01601f19169290920160200192915050565b6000845160206122fd8285838a016124cc565b8551918401916123108184848a016124cc565b85549201918390600181811c908083168061232c57607f831692505b85831081141561234a57634e487b7160e01b88526022600452602488fd5b80801561235e576001811461236f5761239b565b60ff1985168852838801955061239b565b60008b815260209020895b858110156123935781548a82015290840190880161237a565b505083880195505b50939b9a5050505050505050505050565b6001600160a01b03858116825284166020820152604081018390526080606082018190526000906123df908301846122be565b9695505050505050565b60208152600061174060208301846122be565b6020808252601f908201527f5265656e7472616e637947756172643a207265656e7472616e742063616c6c00604082015260600190565b6020808252601b908201527f6e65656420746f206d696e74206174206c656173742031204e46540000000000604082015260600190565b6000821982111561247d5761247d612562565b500190565b60008261249157612491612578565b500490565b60008160001904831182151516156124b0576124b0612562565b500290565b6000828210156124c7576124c7612562565b500390565b60005b838110156124e75781810151838201526020016124cf565b838111156115c25750506000910152565b600181811c9082168061250c57607f821691505b6020821081141561252d57634e487b7160e01b600052602260045260246000fd5b50919050565b600060001982141561254757612547612562565b5060010190565b60008261255d5761255d612578565b500690565b634e487b7160e01b600052601160045260246000fd5b634e487b7160e01b600052601260045260246000fd5b634e487b7160e01b600052604160045260246000fd5b801515811461185257600080fd5b6001600160e01b03198116811461185257600080fdfea264697066735822122049eae4585198d3dce366896d30964a4867faadd838d00660acaf5a1ffe66506a64736f6c63430008040033",
  "linkReferences": {},
  "deployedLinkReferences": {}
}