{"contracts/DexNft.sol":{"DexNft":{"abi":[{"inputs":[{"internalType":"string","name":"_initBaseURI","type":"string"},{"internalType":"address","name":"_tokenAddress","type":"address"}],"stateMutability":"nonpayable","type":"constructor"},{"inputs":[],"name":"ApprovalCallerNotOwnerNorApproved","type":"error"},{"inputs":[],"name":"ApprovalQueryForNonexistentToken","type":"error"},{"inputs":[],"name":"BalanceQueryForZeroAddress","type":"error"},{"inputs":[],"name":"MintERC2309QuantityExceedsLimit","type":"error"},{"inputs":[],"name":"MintToZeroAddress","type":"error"},{"inputs":[],"name":"MintZeroQuantity","type":"error"},{"inputs":[],"name":"OwnerQueryForNonexistentToken","type":"error"},{"inputs":[],"name":"OwnershipNotInitializedForExtraData","type":"error"},{"inputs":[],"name":"TransferCallerNotOwnerNorApproved","type":"error"},{"inputs":[],"name":"TransferFromIncorrectOwner","type":"error"},{"inputs":[],"name":"TransferToNonERC721ReceiverImplementer","type":"error"},{"inputs":[],"name":"TransferToZeroAddress","type":"error"},{"inputs":[],"name":"URIQueryForNonexistentToken","type":"error"},{"anonymous":false,"inputs":[{"indexed":true,"internalType":"address","name":"owner","type":"address"},{"indexed":true,"internalType":"address","name":"approved","type":"address"},{"indexed":true,"internalType":"uint256","name":"tokenId","type":"uint256"}],"name":"Approval","type":"event"},{"anonymous":false,"inputs":[{"indexed":true,"internalType":"address","name":"owner","type":"address"},{"indexed":true,"internalType":"address","name":"operator","type":"address"},{"indexed":false,"internalType":"bool","name":"approved","type":"bool"}],"name":"ApprovalForAll","type":"event"},{"anonymous":false,"inputs":[{"indexed":true,"internalType":"uint256","name":"fromTokenId","type":"uint256"},{"indexed":false,"internalType":"uint256","name":"toTokenId","type":"uint256"},{"indexed":true,"internalType":"address","name":"from","type":"address"},{"indexed":true,"internalType":"address","name":"to","type":"address"}],"name":"ConsecutiveTransfer","type":"event"},{"anonymous":false,"inputs":[{"indexed":true,"internalType":"address","name":"previousOwner","type":"address"},{"indexed":true,"internalType":"address","name":"newOwner","type":"address"}],"name":"OwnershipTransferred","type":"event"},{"anonymous":false,"inputs":[{"indexed":true,"internalType":"address","name":"from","type":"address"},{"indexed":true,"internalType":"address","name":"to","type":"address"},{"indexed":true,"internalType":"uint256","name":"tokenId","type":"uint256"}],"name":"Transfer","type":"event"},{"inputs":[{"internalType":"uint256","name":"tokens","type":"uint256"}],"name":"Airdrop","outputs":[],"stateMutability":"nonpayable","type":"function"},{"inputs":[],"name":"AirdropEnabled","outputs":[{"internalType":"bool","name":"","type":"bool"}],"stateMutability":"view","type":"function"},{"inputs":[],"name":"Max_Airdrop_Amount_Per_Wallet","outputs":[{"internalType":"uint256","name":"","type":"uint256"}],"stateMutability":"view","type":"function"},{"inputs":[],"name":"MaxperTx","outputs":[{"internalType":"uint256","name":"","type":"uint256"}],"stateMutability":"view","type":"function"},{"inputs":[],"name":"MaxperWalletwl","outputs":[{"internalType":"uint256","name":"","type":"uint256"}],"stateMutability":"view","type":"function"},{"inputs":[{"internalType":"uint256","name":"tokens","type":"uint256"}],"name":"PublicMint","outputs":[],"stateMutability":"nonpayable","type":"function"},{"inputs":[{"internalType":"uint256","name":"tokens","type":"uint256"},{"internalType":"bytes32[]","name":"merkleProof","type":"bytes32[]"}],"name":"WLMint","outputs":[],"stateMutability":"nonpayable","type":"function"},{"inputs":[{"internalType":"address","name":"to","type":"address"},{"internalType":"uint256","name":"tokenId","type":"uint256"}],"name":"approve","outputs":[],"stateMutability":"payable","type":"function"},{"inputs":[{"internalType":"address","name":"owner","type":"address"}],"name":"balanceOf","outputs":[{"internalType":"uint256","name":"","type":"uint256"}],"stateMutability":"view","type":"function"},{"inputs":[],"name":"baseExtension","outputs":[{"internalType":"string","name":"","type":"string"}],"stateMutability":"view","type":"function"},{"inputs":[],"name":"baseURI","outputs":[{"internalType":"string","name":"","type":"string"}],"stateMutability":"view","type":"function"},{"inputs":[{"internalType":"uint256","name":"tokenId","type":"uint256"}],"name":"getApproved","outputs":[{"internalType":"address","name":"","type":"address"}],"stateMutability":"view","type":"function"},{"inputs":[{"internalType":"uint256","name":"_mintAmount","type":"uint256"},{"internalType":"address","name":"destination","type":"address"}],"name":"gift","outputs":[],"stateMutability":"nonpayable","type":"function"},{"inputs":[{"internalType":"address","name":"owner","type":"address"},{"internalType":"address","name":"operator","type":"address"}],"name":"isApprovedForAll","outputs":[{"internalType":"bool","name":"","type":"bool"}],"stateMutability":"view","type":"function"},{"inputs":[],"name":"maxAirDropSupply","outputs":[{"internalType":"uint256","name":"","type":"uint256"}],"stateMutability":"view","type":"function"},{"inputs":[],"name":"maxPerWallet","outputs":[{"internalType":"uint256","name":"","type":"uint256"}],"stateMutability":"view","type":"function"},{"inputs":[],"name":"maxSupply","outputs":[{"internalType":"uint256","name":"","type":"uint256"}],"stateMutability":"view","type":"function"},{"inputs":[],"name":"merkleRoot","outputs":[{"internalType":"bytes32","name":"","type":"bytes32"}],"stateMutability":"view","type":"function"},{"inputs":[],"name":"name","outputs":[{"internalType":"string","name":"","type":"string"}],"stateMutability":"view","type":"function"},{"inputs":[],"name":"notRevealedUri","outputs":[{"internalType":"string","name":"","type":"string"}],"stateMutability":"view","type":"function"},{"inputs":[{"internalType":"address","name":"owner","type":"address"}],"name":"numberMinted","outputs":[{"internalType":"uint256","name":"","type":"uint256"}],"stateMutability":"view","type":"function"},{"inputs":[],"name":"owner","outputs":[{"internalType":"address","name":"","type":"address"}],"stateMutability":"view","type":"function"},{"inputs":[{"internalType":"uint256","name":"tokenId","type":"uint256"}],"name":"ownerOf","outputs":[{"internalType":"address","name":"","type":"address"}],"stateMutability":"view","type":"function"},{"inputs":[{"internalType":"bool","name":"_state","type":"bool"}],"name":"pause","outputs":[],"stateMutability":"nonpayable","type":"function"},{"inputs":[],"name":"paused","outputs":[{"internalType":"bool","name":"","type":"bool"}],"stateMutability":"view","type":"function"},{"inputs":[],"name":"publicMint","outputs":[{"internalType":"bool","name":"","type":"bool"}],"stateMutability":"view","type":"function"},{"inputs":[],"name":"rate","outputs":[{"internalType":"uint256","name":"","type":"uint256"}],"stateMutability":"view","type":"function"},{"inputs":[],"name":"renounceOwnership","outputs":[],"stateMutability":"nonpayable","type":"function"},{"inputs":[{"internalType":"bool","name":"_state","type":"bool"}],"name":"reveal","outputs":[],"stateMutability":"nonpayable","type":"function"},{"inputs":[],"name":"revealed","outputs":[{"internalType":"bool","name":"","type":"bool"}],"stateMutability":"view","type":"function"},{"inputs":[{"internalType":"address","name":"from","type":"address"},{"internalType":"address","name":"to","type":"address"},{"internalType":"uint256","name":"tokenId","type":"uint256"}],"name":"safeTransferFrom","outputs":[],"stateMutability":"payable","type":"function"},{"inputs":[{"internalType":"address","name":"from","type":"address"},{"internalType":"address","name":"to","type":"address"},{"internalType":"uint256","name":"tokenId","type":"uint256"},{"internalType":"bytes","name":"_data","type":"bytes"}],"name":"safeTransferFrom","outputs":[],"stateMutability":"payable","type":"function"},{"inputs":[{"internalType":"address","name":"operator","type":"address"},{"internalType":"bool","name":"approved","type":"bool"}],"name":"setApprovalForAll","outputs":[],"stateMutability":"nonpayable","type":"function"},{"inputs":[{"internalType":"string","name":"_newBaseExtension","type":"string"}],"name":"setBaseExtension","outputs":[],"stateMutability":"nonpayable","type":"function"},{"inputs":[{"internalType":"string","name":"_newBaseURI","type":"string"}],"name":"setBaseURI","outputs":[],"stateMutability":"nonpayable","type":"function"},{"inputs":[{"internalType":"uint256","name":"_maxAirDropSupply","type":"uint256"}],"name":"setMaxAirDropSupply","outputs":[],"stateMutability":"nonpayable","type":"function"},{"inputs":[{"internalType":"uint256","name":"_NewMaxAirdrop","type":"uint256"}],"name":"setMax_Airdrop_Amount_Per_Wallet","outputs":[],"stateMutability":"nonpayable","type":"function"},{"inputs":[{"internalType":"uint256","name":"_newMaxperTx","type":"uint256"}],"name":"setMaxperTx","outputs":[],"stateMutability":"nonpayable","type":"function"},{"inputs":[{"internalType":"uint256","name":"_limit","type":"uint256"}],"name":"setMaxperWallet","outputs":[],"stateMutability":"nonpayable","type":"function"},{"inputs":[{"internalType":"uint256","name":"_limit","type":"uint256"}],"name":"setMaxperWalletwl","outputs":[],"stateMutability":"nonpayable","type":"function"},{"inputs":[{"internalType":"uint256","name":"_newsupply","type":"uint256"}],"name":"setMaxsupply","outputs":[],"stateMutability":"nonpayable","type":"function"},{"inputs":[{"internalType":"bytes32","name":"_merkleRoot","type":"bytes32"}],"name":"setMerkleRoot","outputs":[],"stateMutability":"nonpayable","type":"function"},{"inputs":[{"internalType":"string","name":"_notRevealedURI","type":"string"}],"name":"setNotRevealedURI","outputs":[],"stateMutability":"nonpayable","type":"function"},{"inputs":[{"internalType":"uint256","name":"_newRate","type":"uint256"}],"name":"setRate","outputs":[],"stateMutability":"nonpayable","type":"function"},{"inputs":[{"internalType":"uint256","name":"_newWlRate","type":"uint256"}],"name":"setWlRate","outputs":[],"stateMutability":"nonpayable","type":"function"},{"inputs":[{"internalType":"bytes4","name":"interfaceId","type":"bytes4"}],"name":"supportsInterface","outputs":[{"internalType":"bool","name":"","type":"bool"}],"stateMutability":"view","type":"function"},{"inputs":[],"name":"symbol","outputs":[{"internalType":"string","name":"","type":"string"}],"stateMutability":"view","type":"function"},{"inputs":[{"internalType":"bool","name":"_state","type":"bool"}],"name":"toggleAirdropEnabled","outputs":[],"stateMutability":"nonpayable","type":"function"},{"inputs":[{"internalType":"bool","name":"_state","type":"bool"}],"name":"toggleWlMint","outputs":[],"stateMutability":"nonpayable","type":"function"},{"inputs":[{"internalType":"bool","name":"_state","type":"bool"}],"name":"togglepublicMint","outputs":[],"stateMutability":"nonpayable","type":"function"},{"inputs":[],"name":"tokenAddress","outputs":[{"internalType":"contract IERC20","name":"","type":"address"}],"stateMutability":"view","type":"function"},{"inputs":[{"internalType":"uint256","name":"tokenId","type":"uint256"}],"name":"tokenURI","outputs":[{"internalType":"string","name":"","type":"string"}],"stateMutability":"view","type":"function"},{"inputs":[],"name":"totalSupply","outputs":[{"internalType":"uint256","name":"","type":"uint256"}],"stateMutability":"view","type":"function"},{"inputs":[{"internalType":"address","name":"from","type":"address"},{"internalType":"address","name":"to","type":"address"},{"internalType":"uint256","name":"tokenId","type":"uint256"}],"name":"transferFrom","outputs":[],"stateMutability":"payable","type":"function"},{"inputs":[{"internalType":"address","name":"newOwner","type":"address"}],"name":"transferOwnership","outputs":[],"stateMutability":"nonpayable","type":"function"},{"inputs":[],"name":"withdrawToken","outputs":[],"stateMutability":"nonpayable","type":"function"},{"inputs":[],"name":"wlMint","outputs":[{"internalType":"bool","name":"","type":"bool"}],"stateMutability":"view","type":"function"},{"inputs":[],"name":"wlRate","outputs":[{"internalType":"uint256","name":"","type":"uint256"}],"stateMutability":"view","type":"function"}],"evm":{"bytecode":{"linkReferences":{},"object":"60c06040526005608081905264173539b7b760d91b60a09081526200002891600b91906200022b565b50600a600d819055600e8190556103e8600f5560105560646011819055600560125560016013556014556015805464ffffffffff60a01b19166201000160a81b17905560006016553480156200007d57600080fd5b5060405162002e1d38038062002e1d833981016040819052620000a091620002ee565b604080518082018252600f81526e44455820424154544c45204e46547360881b60208083019182528351808501909452600684526511115613919560d21b908401528151919291620000f5916002916200022b565b5080516200010b9060039060208401906200022b565b50506001600055506200011e3362000155565b60016009556200012e82620001a7565b601580546001600160a01b0319166001600160a01b0392909216919091179055506200042c565b600880546001600160a01b038381166001600160a01b0319831681179093556040519116919082907f8be0079c531659141344cd1fd0a4f28419497f9722a3daafe3b4186f6b6457e090600090a35050565b620001b1620001ca565b8051620001c690600a9060208401906200022b565b5050565b6008546001600160a01b03163314620002295760405162461bcd60e51b815260206004820181905260248201527f4f776e61626c653a2063616c6c6572206973206e6f7420746865206f776e6572604482015260640160405180910390fd5b565b8280546200023990620003d9565b90600052602060002090601f0160209004810192826200025d5760008555620002a8565b82601f106200027857805160ff1916838001178555620002a8565b82800160010185558215620002a8579182015b82811115620002a85782518255916020019190600101906200028b565b50620002b6929150620002ba565b5090565b5b80821115620002b65760008155600101620002bb565b80516001600160a01b0381168114620002e957600080fd5b919050565b6000806040838503121562000301578182fd5b82516001600160401b038082111562000318578384fd5b818501915085601f8301126200032c578384fd5b81518181111562000341576200034162000416565b604051601f8201601f19908116603f011681019083821181831017156200036c576200036c62000416565b8160405282815260209350888484870101111562000388578687fd5b8691505b82821015620003ab57848201840151818301850152908301906200038c565b82821115620003bc57868484830101525b9550620003ce915050858201620002d1565b925050509250929050565b600181811c90821680620003ee57607f821691505b602082108114156200041057634e487b7160e01b600052602260045260246000fd5b50919050565b634e487b7160e01b600052604160045260246000fd5b6129e1806200043c6000396000f3fe6080604052600436106103815760003560e01c80636c0360eb116101d1578063ac81308811610102578063d4c53f3d116100a0578063e985e9c51161006f578063e985e9c5146109b7578063f2c4ce1e14610a00578063f2fde38b14610a20578063ff64569114610a4057600080fd5b8063d4c53f3d1461094b578063d5abeb0114610961578063da3ef23f14610977578063dc33e6811461099757600080fd5b8063c6682862116100dc578063c6682862146108e1578063c87b56dd146108f6578063ca628c7814610916578063d0ecdf481461092b57600080fd5b8063ac81308814610898578063b88d4fde146108b8578063b8b4af39146108cb57600080fd5b80638da5cb5b1161016f578063963cf25711610149578063963cf257146108185780639d76ea58146108385780639fb17e3414610858578063a22cb4651461087857600080fd5b80638da5cb5b146107c5578063940cd05b146107e357806395d89b411461080357600080fd5b80637afb04ff116101ab5780637afb04ff146107445780637cb64759146107645780637f9fa4111461078457806383a076be146107a557600080fd5b80636c0360eb146106fa57806370a082311461070f578063715018a61461072f57600080fd5b80632c4e722e116102b657806355753761116102545780635ef9ff37116102235780635ef9ff37146106845780636352211e146106a45780636ae433a8146106c45780636b38d118146106da57600080fd5b8063557537611461060357806355f804b3146106235780635ac7164f146106435780635c975abb1461066357600080fd5b806342842e0e1161029057806342842e0e14610599578063453c2310146105ac5780634a2bbe3d146105c257806351830227146105e257600080fd5b80632c4e722e1461054d5780632eb4a7ab1461056357806334fcf4371461057957600080fd5b8063149835a0116103235780631dcd8e4e116102fd5780631dcd8e4e146104e3578063226fe1c0146104f957806323b872dd1461051957806326092b831461052c57600080fd5b8063149835a01461047f57806317d8924d1461049f57806318160ddd146104c057600080fd5b8063081812fc1161035f578063081812fc146103ff578063081c8c4414610437578063095ea7b31461044c5780630c311a9c1461045f57600080fd5b806301ffc9a71461038657806302329a29146103bb57806306fdde03146103dd575b600080fd5b34801561039257600080fd5b506103a66103a13660046124dd565b610a56565b60405190151581526020015b60405180910390f35b3480156103c757600080fd5b506103db6103d636600461248d565b610aa8565b005b3480156103e957600080fd5b506103f2610ace565b6040516103b2919061273a565b34801561040b57600080fd5b5061041f61041a3660046124c5565b610b60565b6040516001600160a01b0390911681526020016103b2565b34801561044357600080fd5b506103f2610ba4565b6103db61045a366004612464565b610c32565b34801561046b57600080fd5b506103db61047a3660046124c5565b610cd2565b34801561048b57600080fd5b506103db61049a3660046124c5565b610cdf565b3480156104ab57600080fd5b506015546103a690600160c01b900460ff1681565b3480156104cc57600080fd5b506104d5610cec565b6040519081526020016103b2565b3480156104ef57600080fd5b506104d560145481565b34801561050557600080fd5b506103db610514366004612595565b610cfa565b6103db61052736600461237a565b611042565b34801561053857600080fd5b506015546103a690600160b81b900460ff1681565b34801561055957600080fd5b506104d5600d5481565b34801561056f57600080fd5b506104d560165481565b34801561058557600080fd5b506103db6105943660046124c5565b6111d3565b6103db6105a736600461237a565b6111e0565b3480156105b857600080fd5b506104d560115481565b3480156105ce57600080fd5b506103db6105dd3660046124c5565b611200565b3480156105ee57600080fd5b506015546103a690600160a81b900460ff1681565b34801561060f57600080fd5b506103db61061e3660046124c5565b61120d565b34801561062f57600080fd5b506103db61063e366004612515565b61121a565b34801561064f57600080fd5b506103db61065e3660046124c5565b611239565b34801561066f57600080fd5b506015546103a690600160a01b900460ff1681565b34801561069057600080fd5b506103db61069f3660046124c5565b611246565b3480156106b057600080fd5b5061041f6106bf3660046124c5565b611253565b3480156106d057600080fd5b506104d560105481565b3480156106e657600080fd5b506103db6106f536600461248d565b61125e565b34801561070657600080fd5b506103f2611284565b34801561071b57600080fd5b506104d561072a36600461232e565b611291565b34801561073b57600080fd5b506103db6112e0565b34801561075057600080fd5b506103db61075f3660046124c5565b6112f4565b34801561077057600080fd5b506103db61077f3660046124c5565b611301565b34801561079057600080fd5b506015546103a690600160b01b900460ff1681565b3480156107b157600080fd5b506103db6107c0366004612573565b61130e565b3480156107d157600080fd5b506008546001600160a01b031661041f565b3480156107ef57600080fd5b506103db6107fe36600461248d565b6113d0565b34801561080f57600080fd5b506103f26113f6565b34801561082457600080fd5b506103db61083336600461248d565b611405565b34801561084457600080fd5b5060155461041f906001600160a01b031681565b34801561086457600080fd5b506103db6108733660046124c5565b61142b565b34801561088457600080fd5b506103db61089336600461242e565b611687565b3480156108a457600080fd5b506103db6108b336600461248d565b6116f3565b6103db6108c63660046123b5565b611719565b3480156108d757600080fd5b506104d5600e5481565b3480156108ed57600080fd5b506103f2611763565b34801561090257600080fd5b506103f26109113660046124c5565b611770565b34801561092257600080fd5b506103db6118e2565b34801561093757600080fd5b506103db6109463660046124c5565b6119f0565b34801561095757600080fd5b506104d560135481565b34801561096d57600080fd5b506104d5600f5481565b34801561098357600080fd5b506103db610992366004612515565b611bc6565b3480156109a357600080fd5b506104d56109b236600461232e565b611be1565b3480156109c357600080fd5b506103a66109d2366004612348565b6001600160a01b03918216600090815260076020908152604080832093909416825291909152205460ff1690565b348015610a0c57600080fd5b506103db610a1b366004612515565b611bec565b348015610a2c57600080fd5b506103db610a3b36600461232e565b611c07565b348015610a4c57600080fd5b506104d560125481565b60006301ffc9a760e01b6001600160e01b031983161480610a8757506380ac58cd60e01b6001600160e01b03198316145b80610aa25750635b5e139f60e01b6001600160e01b03198316145b92915050565b610ab0611c7d565b60158054911515600160a01b0260ff60a01b19909216919091179055565b606060028054610add906128db565b80601f0160208091040260200160405190810160405280929190818152602001828054610b09906128db565b8015610b565780601f10610b2b57610100808354040283529160200191610b56565b820191906000526020600020905b815481529060010190602001808311610b3957829003601f168201915b5050505050905090565b6000610b6b82611cd7565b610b88576040516333d1c03960e21b815260040160405180910390fd5b506000908152600660205260409020546001600160a01b031690565b600c8054610bb1906128db565b80601f0160208091040260200160405190810160405280929190818152602001828054610bdd906128db565b8015610c2a5780601f10610bff57610100808354040283529160200191610c2a565b820191906000526020600020905b815481529060010190602001808311610c0d57829003601f168201915b505050505081565b6000610c3d82611253565b9050336001600160a01b03821614610c7657610c5981336109d2565b610c76576040516367d9dca160e11b815260040160405180910390fd5b60008281526006602052604080822080546001600160a01b0319166001600160a01b0387811691821790925591518593918516917f8c5be1e5ebec7d5bd14f71427d1e84f3dd0314c0f7b2291e5b200ac8c7c3b92591a4505050565b610cda611c7d565b601355565b610ce7611c7d565b600f55565b600154600054036000190190565b60026009541415610d265760405162461bcd60e51b8152600401610d1d906127df565b60405180910390fd5b6002600955601554600160a01b900460ff1615610d555760405162461bcd60e51b8152600401610d1d90612771565b601554600160b01b900460ff16610dae5760405162461bcd60e51b815260206004820152601a60248201527f574c206d696e74204861736e27742073746172746564207965740000000000006044820152606401610d1d565b610e23828280806020026020016040519081016040528093929190818152602001838360200280828437600092019190915250506016546040516bffffffffffffffffffffffff193360601b166020820152909250603401905060405160208183030381529060405280519060200120611d0c565b610e6f5760405162461bcd60e51b815260206004820152601860248201527f20596f7520617265206e6f742077686974656c697374656400000000000000006044820152606401610d1d565b6000610e79610cec565b905060105484610eb2610e893390565b6001600160a01b03166000908152600560205260409081902054901c67ffffffffffffffff1690565b610ebc919061284d565b1115610eda5760405162461bcd60e51b8152600401610d1d906127a8565b60008411610efa5760405162461bcd60e51b8152600401610d1d90612816565b600f54610f07858361284d565b1115610f255760405162461bcd60e51b8152600401610d1d9061274d565b601254841115610f775760405162461bcd60e51b815260206004820152601860248201527f6d6178206d696e742070657220547820657863656564656400000000000000006044820152606401610d1d565b601554600e546001600160a01b03909116906323b872dd9033903090610fa590670de0b6b3a7640000612879565b6040516001600160e01b031960e086901b1681526001600160a01b0393841660048201529290911660248301526044820152606401602060405180830381600087803b158015610ff457600080fd5b505af1158015611008573d6000803e3d6000fd5b505050506040513d601f19601f8201168201806040525081019061102c91906124a9565b506110373385611d22565b505060016009555050565b600061104d82611d3c565b9050836001600160a01b0316816001600160a01b0316146110805760405162a1148160e81b815260040160405180910390fd5b60008281526006602052604090208054338082146001600160a01b038816909114176110cd576110b086336109d2565b6110cd57604051632ce44b5f60e11b815260040160405180910390fd5b6001600160a01b0385166110f457604051633a954ecd60e21b815260040160405180910390fd5b80156110ff57600082555b6001600160a01b038681166000908152600560205260408082208054600019019055918716808252919020805460010190554260a01b17600160e11b17600085815260046020526040902055600160e11b831661118a57600184016000818152600460205260409020546111885760005481146111885760008181526004602052604090208490555b505b83856001600160a01b0316876001600160a01b03167fddf252ad1be2c89b69c2b068fc378daa952ba7f163c4a11628f55a4df523b3ef60405160405180910390a4505050505050565b6111db611c7d565b600d55565b6111fb83838360405180602001604052806000815250611719565b505050565b611208611c7d565b601155565b611215611c7d565b600e55565b611222611c7d565b805161123590600a906020840190612203565b5050565b611241611c7d565b601455565b61124e611c7d565b601255565b6000610aa282611d3c565b611266611c7d565b60158054911515600160c01b0260ff60c01b19909216919091179055565b600a8054610bb1906128db565b60006001600160a01b0382166112ba576040516323d3ad8160e21b815260040160405180910390fd5b506001600160a01b031660009081526005602052604090205467ffffffffffffffff1690565b6112e8611c7d565b6112f26000611da5565b565b6112fc611c7d565b601055565b611309611c7d565b601655565b611316611c7d565b600260095414156113395760405162461bcd60e51b8152600401610d1d906127df565b60026009558161135b5760405162461bcd60e51b8152600401610d1d90612816565b6000611365610cec565b600f54909150611375848361284d565b11156113bc5760405162461bcd60e51b81526020600482015260166024820152751b585e08139195081b1a5b5a5d08195e18d95959195960521b6044820152606401610d1d565b6113c68284611d22565b5050600160095550565b6113d8611c7d565b60158054911515600160a81b0260ff60a81b19909216919091179055565b606060038054610add906128db565b61140d611c7d565b60158054911515600160b81b0260ff60b81b19909216919091179055565b6002600954141561144e5760405162461bcd60e51b8152600401610d1d906127df565b6002600955601554600160a01b900460ff161561147d5760405162461bcd60e51b8152600401610d1d90612771565b601554600160b81b900460ff166114d65760405162461bcd60e51b815260206004820152601760248201527f53616c65204861736e27742073746172746564207965740000000000000000006044820152606401610d1d565b60006114e0610cec565b9050600082116115025760405162461bcd60e51b8152600401610d1d90612816565b6012548211156115545760405162461bcd60e51b815260206004820152601f60248201527f6d6178206d696e7420616d6f756e7420706572207478206578636565646564006044820152606401610d1d565b600f54611561838361284d565b111561157f5760405162461bcd60e51b8152600401610d1d9061274d565b6011548261158c33610e89565b611596919061284d565b11156115b45760405162461bcd60e51b8152600401610d1d906127a8565b601554600d546001600160a01b03909116906323b872dd90339030906115da9087612879565b6115ec90670de0b6b3a7640000612879565b6040516001600160e01b031960e086901b1681526001600160a01b0393841660048201529290911660248301526044820152606401602060405180830381600087803b15801561163b57600080fd5b505af115801561164f573d6000803e3d6000fd5b505050506040513d601f19601f8201168201806040525081019061167391906124a9565b5061167e3383611d22565b50506001600955565b3360008181526007602090815260408083206001600160a01b03871680855290835292819020805460ff191686151590811790915590519081529192917f17307eab39ab6107e8899845ad3d59bd9653f200f220920489ca2b5937696c31910160405180910390a35050565b6116fb611c7d565b60158054911515600160b01b0260ff60b01b19909216919091179055565b611724848484611042565b6001600160a01b0383163b1561175d5761174084848484611df7565b61175d576040516368d2bf6b60e11b815260040160405180910390fd5b50505050565b600b8054610bb1906128db565b606061177b82611cd7565b6117e05760405162461bcd60e51b815260206004820152603060248201527f455243373231414d657461646174613a2055524920717565727920666f72206e60448201526f37b732bc34b9ba32b73a103a37b5b2b760811b6064820152608401610d1d565b601554600160a81b900460ff1661188357600c80546117fe906128db565b80601f016020809104026020016040519081016040528092919081815260200182805461182a906128db565b80156118775780601f1061184c57610100808354040283529160200191611877565b820191906000526020600020905b81548152906001019060200180831161185a57829003601f168201915b50505050509050919050565b600061188d611eef565b905060008151116118ad57604051806020016040528060008152506118db565b806118b784611efe565b600b6040516020016118cb9392919061263b565b6040516020818303038152906040525b9392505050565b6118ea611c7d565b6015546040516370a0823160e01b81523060048201526001600160a01b039091169063a9059cbb90339083906370a082319060240160206040518083038186803b15801561193757600080fd5b505afa15801561194b573d6000803e3d6000fd5b505050506040513d601f19601f8201168201806040525081019061196f919061255b565b6040516001600160e01b031960e085901b1681526001600160a01b0390921660048301526024820152604401602060405180830381600087803b1580156119b557600080fd5b505af11580156119c9573d6000803e3d6000fd5b505050506040513d601f19601f820116820180604052508101906119ed91906124a9565b50565b60026009541415611a135760405162461bcd60e51b8152600401610d1d906127df565b6002600955601554600160a01b900460ff1615611a425760405162461bcd60e51b8152600401610d1d90612771565b601554600160c01b900460ff16611a9b5760405162461bcd60e51b815260206004820152601960248201527f416964726f70204861736e2774207374617274656420796574000000000000006044820152606401610d1d565b6000611aa5610cec565b905060008211611ac75760405162461bcd60e51b8152600401610d1d90612816565b601354821115611b195760405162461bcd60e51b815260206004820152601f60248201527f6d6178206d696e7420616d6f756e7420706572207478206578636565646564006044820152606401610d1d565b60135482611b2633610e89565b611b30919061284d565b1115611b4e5760405162461bcd60e51b8152600401610d1d906127a8565b600f54611b5b838361284d565b1115611b795760405162461bcd60e51b8152600401610d1d9061274d565b601454611b86838361284d565b11156115b45760405162461bcd60e51b815260206004820152600f60248201526e105a5c991c9bdc081a185cc8195b99608a1b6044820152606401610d1d565b611bce611c7d565b805161123590600b906020840190612203565b6000610aa282610e89565b611bf4611c7d565b805161123590600c906020840190612203565b611c0f611c7d565b6001600160a01b038116611c745760405162461bcd60e51b815260206004820152602660248201527f4f776e61626c653a206e6577206f776e657220697320746865207a65726f206160448201526564647265737360d01b6064820152608401610d1d565b6119ed81611da5565b6008546001600160a01b031633146112f25760405162461bcd60e51b815260206004820181905260248201527f4f776e61626c653a2063616c6c6572206973206e6f7420746865206f776e65726044820152606401610d1d565b600081600111158015611ceb575060005482105b8015610aa2575050600090815260046020526040902054600160e01b161590565b600082611d198584612018565b14949350505050565b611235828260405180602001604052806000815250612073565b60008180600111611d8c57600054811015611d8c57600081815260046020526040902054600160e01b8116611d8a575b806118db575060001901600081815260046020526040902054611d6c565b505b604051636f96cda160e11b815260040160405180910390fd5b600880546001600160a01b038381166001600160a01b0319831681179093556040519116919082907f8be0079c531659141344cd1fd0a4f28419497f9722a3daafe3b4186f6b6457e090600090a35050565b604051630a85bd0160e11b81526000906001600160a01b0385169063150b7a0290611e2c9033908990889088906004016126fd565b602060405180830381600087803b158015611e4657600080fd5b505af1925050508015611e76575060408051601f3d908101601f19168201909252611e73918101906124f9565b60015b611ed1573d808015611ea4576040519150601f19603f3d011682016040523d82523d6000602084013e611ea9565b606091505b508051611ec9576040516368d2bf6b60e11b815260040160405180910390fd5b805181602001fd5b6001600160e01b031916630a85bd0160e11b1490505b949350505050565b6060600a8054610add906128db565b606081611f225750506040805180820190915260018152600360fc1b602082015290565b8160005b8115611f4c5780611f3681612916565b9150611f459050600a83612865565b9150611f26565b60008167ffffffffffffffff811115611f7557634e487b7160e01b600052604160045260246000fd5b6040519080825280601f01601f191660200182016040528015611f9f576020820181803683370190505b5090505b8415611ee757611fb4600183612898565b9150611fc1600a86612931565b611fcc90603061284d565b60f81b818381518110611fef57634e487b7160e01b600052603260045260246000fd5b60200101906001600160f81b031916908160001a905350612011600a86612865565b9450611fa3565b600081815b845181101561206b576120578286838151811061204a57634e487b7160e01b600052603260045260246000fd5b60200260200101516120e0565b91508061206381612916565b91505061201d565b509392505050565b61207d838361210c565b6001600160a01b0383163b156111fb576000548281035b6120a76000868380600101945086611df7565b6120c4576040516368d2bf6b60e11b815260040160405180910390fd5b8181106120945781600054146120d957600080fd5b5050505050565b60008183106120fc5760008281526020849052604090206118db565b5060009182526020526040902090565b6000548161212d5760405163b562e8dd60e01b815260040160405180910390fd5b6001600160a01b03831660008181526005602090815260408083208054680100000000000000018802019055848352600490915281206001851460e11b4260a01b178317905582840190839083907fddf252ad1be2c89b69c2b068fc378daa952ba7f163c4a11628f55a4df523b3ef8180a4600183015b8181146121dc57808360007fddf252ad1be2c89b69c2b068fc378daa952ba7f163c4a11628f55a4df523b3ef600080a46001016121a4565b50816121fa57604051622e076360e81b815260040160405180910390fd5b60005550505050565b82805461220f906128db565b90600052602060002090601f0160209004810192826122315760008555612277565b82601f1061224a57805160ff1916838001178555612277565b82800160010185558215612277579182015b8281111561227757825182559160200191906001019061225c565b50612283929150612287565b5090565b5b808211156122835760008155600101612288565b600067ffffffffffffffff808411156122b7576122b7612971565b604051601f8501601f19908116603f011681019082821181831017156122df576122df612971565b816040528093508581528686860111156122f857600080fd5b858560208301376000602087830101525050509392505050565b80356001600160a01b038116811461232957600080fd5b919050565b60006020828403121561233f578081fd5b6118db82612312565b6000806040838503121561235a578081fd5b61236383612312565b915061237160208401612312565b90509250929050565b60008060006060848603121561238e578081fd5b61239784612312565b92506123a560208501612312565b9150604084013590509250925092565b600080600080608085870312156123ca578081fd5b6123d385612312565b93506123e160208601612312565b925060408501359150606085013567ffffffffffffffff811115612403578182fd5b8501601f81018713612413578182fd5b6124228782356020840161229c565b91505092959194509250565b60008060408385031215612440578182fd5b61244983612312565b9150602083013561245981612987565b809150509250929050565b60008060408385031215612476578182fd5b61247f83612312565b946020939093013593505050565b60006020828403121561249e578081fd5b81356118db81612987565b6000602082840312156124ba578081fd5b81516118db81612987565b6000602082840312156124d6578081fd5b5035919050565b6000602082840312156124ee578081fd5b81356118db81612995565b60006020828403121561250a578081fd5b81516118db81612995565b600060208284031215612526578081fd5b813567ffffffffffffffff81111561253c578182fd5b8201601f8101841361254c578182fd5b611ee78482356020840161229c565b60006020828403121561256c578081fd5b5051919050565b60008060408385031215612585578182fd5b8235915061237160208401612312565b6000806000604084860312156125a9578081fd5b83359250602084013567ffffffffffffffff808211156125c7578283fd5b818601915086601f8301126125da578283fd5b8135818111156125e8578384fd5b8760208260051b85010111156125fc578384fd5b6020830194508093505050509250925092565b600081518084526126278160208601602086016128af565b601f01601f19169290920160200192915050565b60008451602061264e8285838a016128af565b8551918401916126618184848a016128af565b85549201918390600181811c908083168061267d57607f831692505b85831081141561269b57634e487b7160e01b88526022600452602488fd5b8080156126af57600181146126c0576126ec565b60ff198516885283880195506126ec565b60008b815260209020895b858110156126e45781548a8201529084019088016126cb565b505083880195505b50939b9a5050505050505050505050565b6001600160a01b03858116825284166020820152604081018390526080606082018190526000906127309083018461260f565b9695505050505050565b6020815260006118db602083018461260f565b6020808252600a908201526915d94814dbdb191bdd5d60b21b604082015260600190565b60208082526017908201527f6f6f707320636f6e747261637420697320706175736564000000000000000000604082015260600190565b6020808252601b908201527f4d6178204e4654205065722057616c6c65742065786365656465640000000000604082015260600190565b6020808252601f908201527f5265656e7472616e637947756172643a207265656e7472616e742063616c6c00604082015260600190565b6020808252601b908201527f6e65656420746f206d696e74206174206c656173742031204e46540000000000604082015260600190565b6000821982111561286057612860612945565b500190565b6000826128745761287461295b565b500490565b600081600019048311821515161561289357612893612945565b500290565b6000828210156128aa576128aa612945565b500390565b60005b838110156128ca5781810151838201526020016128b2565b8381111561175d5750506000910152565b600181811c908216806128ef57607f821691505b6020821081141561291057634e487b7160e01b600052602260045260246000fd5b50919050565b600060001982141561292a5761292a612945565b5060010190565b6000826129405761294061295b565b500690565b634e487b7160e01b600052601160045260246000fd5b634e487b7160e01b600052601260045260246000fd5b634e487b7160e01b600052604160045260246000fd5b80151581146119ed57600080fd5b6001600160e01b0319811681146119ed57600080fdfea2646970667358221220375d4b6ec6819d46143fd1a2e61307f49dc35d4109e49480d0c9e7e14f6e75d564736f6c63430008040033","opcodes":"PUSH1 0xC0 PUSH1 0x40 MSTORE PUSH1 0x5 PUSH1 0x80 DUP2 SWAP1 MSTORE PUSH5 0x173539B7B7 PUSH1 0xD9 SHL PUSH1 0xA0 SWAP1 DUP2 MSTORE PUSH3 0x28 SWAP2 PUSH1 0xB SWAP2 SWAP1 PUSH3 0x22B JUMP JUMPDEST POP PUSH1 0xA PUSH1 0xD DUP2 SWAP1 SSTORE PUSH1 0xE DUP2 SWAP1 SSTORE PUSH2 0x3E8 PUSH1 0xF SSTORE PUSH1 0x10 SSTORE PUSH1 0x64 PUSH1 0x11 DUP2 SWAP1 SSTORE PUSH1 0x5 PUSH1 0x12 SSTORE PUSH1 0x1 PUSH1 0x13 SSTORE PUSH1 0x14 SSTORE PUSH1 0x15 DUP1 SLOAD PUSH5 0xFFFFFFFFFF PUSH1 0xA0 SHL NOT AND PUSH3 0x10001 PUSH1 0xA8 SHL OR SWAP1 SSTORE PUSH1 0x0 PUSH1 0x16 SSTORE CALLVALUE DUP1 ISZERO PUSH3 0x7D JUMPI PUSH1 0x0 DUP1 REVERT JUMPDEST POP PUSH1 0x40 MLOAD PUSH3 0x2E1D CODESIZE SUB DUP1 PUSH3 0x2E1D DUP4 CODECOPY DUP2 ADD PUSH1 0x40 DUP2 SWAP1 MSTORE PUSH3 0xA0 SWAP2 PUSH3 0x2EE JUMP JUMPDEST PUSH1 0x40 DUP1 MLOAD DUP1 DUP3 ADD DUP3 MSTORE PUSH1 0xF DUP2 MSTORE PUSH15 0x44455820424154544C45204E465473 PUSH1 0x88 SHL PUSH1 0x20 DUP1 DUP4 ADD SWAP2 DUP3 MSTORE DUP4 MLOAD DUP1 DUP6 ADD SWAP1 SWAP5 MSTORE PUSH1 0x6 DUP5 MSTORE PUSH6 0x111156139195 PUSH1 0xD2 SHL SWAP1 DUP5 ADD MSTORE DUP2 MLOAD SWAP2 SWAP3 SWAP2 PUSH3 0xF5 SWAP2 PUSH1 0x2 SWAP2 PUSH3 0x22B JUMP JUMPDEST POP DUP1 MLOAD PUSH3 0x10B SWAP1 PUSH1 0x3 SWAP1 PUSH1 0x20 DUP5 ADD SWAP1 PUSH3 0x22B JUMP JUMPDEST POP POP PUSH1 0x1 PUSH1 0x0 SSTORE POP PUSH3 0x11E CALLER PUSH3 0x155 JUMP JUMPDEST PUSH1 0x1 PUSH1 0x9 SSTORE PUSH3 0x12E DUP3 PUSH3 0x1A7 JUMP JUMPDEST PUSH1 0x15 DUP1 SLOAD PUSH1 0x1 PUSH1 0x1 PUSH1 0xA0 SHL SUB NOT AND PUSH1 0x1 PUSH1 0x1 PUSH1 0xA0 SHL SUB SWAP3 SWAP1 SWAP3 AND SWAP2 SWAP1 SWAP2 OR SWAP1 SSTORE POP PUSH3 0x42C JUMP JUMPDEST PUSH1 0x8 DUP1 SLOAD PUSH1 0x1 PUSH1 0x1 PUSH1 0xA0 SHL SUB DUP4 DUP2 AND PUSH1 0x1 PUSH1 0x1 PUSH1 0xA0 SHL SUB NOT DUP4 AND DUP2 OR SWAP1 SWAP4 SSTORE PUSH1 0x40 MLOAD SWAP2 AND SWAP2 SWAP1 DUP3 SWAP1 PUSH32 0x8BE0079C531659141344CD1FD0A4F28419497F9722A3DAAFE3B4186F6B6457E0 SWAP1 PUSH1 0x0 SWAP1 LOG3 POP POP JUMP JUMPDEST PUSH3 0x1B1 PUSH3 0x1CA JUMP JUMPDEST DUP1 MLOAD PUSH3 0x1C6 SWAP1 PUSH1 0xA SWAP1 PUSH1 0x20 DUP5 ADD SWAP1 PUSH3 0x22B JUMP JUMPDEST POP POP JUMP JUMPDEST PUSH1 0x8 SLOAD PUSH1 0x1 PUSH1 0x1 PUSH1 0xA0 SHL SUB AND CALLER EQ PUSH3 0x229 JUMPI PUSH1 0x40 MLOAD PUSH3 0x461BCD PUSH1 0xE5 SHL DUP2 MSTORE PUSH1 0x20 PUSH1 0x4 DUP3 ADD DUP2 SWAP1 MSTORE PUSH1 0x24 DUP3 ADD MSTORE PUSH32 0x4F776E61626C653A2063616C6C6572206973206E6F7420746865206F776E6572 PUSH1 0x44 DUP3 ADD MSTORE PUSH1 0x64 ADD PUSH1 0x40 MLOAD DUP1 SWAP2 SUB SWAP1 REVERT JUMPDEST JUMP JUMPDEST DUP3 DUP1 SLOAD PUSH3 0x239 SWAP1 PUSH3 0x3D9 JUMP JUMPDEST SWAP1 PUSH1 0x0 MSTORE PUSH1 0x20 PUSH1 0x0 KECCAK256 SWAP1 PUSH1 0x1F ADD PUSH1 0x20 SWAP1 DIV DUP2 ADD SWAP3 DUP3 PUSH3 0x25D JUMPI PUSH1 0x0 DUP6 SSTORE PUSH3 0x2A8 JUMP JUMPDEST DUP3 PUSH1 0x1F LT PUSH3 0x278 JUMPI DUP1 MLOAD PUSH1 0xFF NOT AND DUP4 DUP1 ADD OR DUP6 SSTORE PUSH3 0x2A8 JUMP JUMPDEST DUP3 DUP1 ADD PUSH1 0x1 ADD DUP6 SSTORE DUP3 ISZERO PUSH3 0x2A8 JUMPI SWAP2 DUP3 ADD JUMPDEST DUP3 DUP2 GT ISZERO PUSH3 0x2A8 JUMPI DUP3 MLOAD DUP3 SSTORE SWAP2 PUSH1 0x20 ADD SWAP2 SWAP1 PUSH1 0x1 ADD SWAP1 PUSH3 0x28B JUMP JUMPDEST POP PUSH3 0x2B6 SWAP3 SWAP2 POP PUSH3 0x2BA JUMP JUMPDEST POP SWAP1 JUMP JUMPDEST JUMPDEST DUP1 DUP3 GT ISZERO PUSH3 0x2B6 JUMPI PUSH1 0x0 DUP2 SSTORE PUSH1 0x1 ADD PUSH3 0x2BB JUMP JUMPDEST DUP1 MLOAD PUSH1 0x1 PUSH1 0x1 PUSH1 0xA0 SHL SUB DUP2 AND DUP2 EQ PUSH3 0x2E9 JUMPI PUSH1 0x0 DUP1 REVERT JUMPDEST SWAP2 SWAP1 POP JUMP JUMPDEST PUSH1 0x0 DUP1 PUSH1 0x40 DUP4 DUP6 SUB SLT ISZERO PUSH3 0x301 JUMPI DUP2 DUP3 REVERT JUMPDEST DUP3 MLOAD PUSH1 0x1 PUSH1 0x1 PUSH1 0x40 SHL SUB DUP1 DUP3 GT ISZERO PUSH3 0x318 JUMPI DUP4 DUP5 REVERT JUMPDEST DUP2 DUP6 ADD SWAP2 POP DUP6 PUSH1 0x1F DUP4 ADD SLT PUSH3 0x32C JUMPI DUP4 DUP5 REVERT JUMPDEST DUP2 MLOAD DUP2 DUP2 GT ISZERO PUSH3 0x341 JUMPI PUSH3 0x341 PUSH3 0x416 JUMP JUMPDEST PUSH1 0x40 MLOAD PUSH1 0x1F DUP3 ADD PUSH1 0x1F NOT SWAP1 DUP2 AND PUSH1 0x3F ADD AND DUP2 ADD SWAP1 DUP4 DUP3 GT DUP2 DUP4 LT OR ISZERO PUSH3 0x36C JUMPI PUSH3 0x36C PUSH3 0x416 JUMP JUMPDEST DUP2 PUSH1 0x40 MSTORE DUP3 DUP2 MSTORE PUSH1 0x20 SWAP4 POP DUP9 DUP5 DUP5 DUP8 ADD ADD GT ISZERO PUSH3 0x388 JUMPI DUP7 DUP8 REVERT JUMPDEST DUP7 SWAP2 POP JUMPDEST DUP3 DUP3 LT ISZERO PUSH3 0x3AB JUMPI DUP5 DUP3 ADD DUP5 ADD MLOAD DUP2 DUP4 ADD DUP6 ADD MSTORE SWAP1 DUP4 ADD SWAP1 PUSH3 0x38C JUMP JUMPDEST DUP3 DUP3 GT ISZERO PUSH3 0x3BC JUMPI DUP7 DUP5 DUP5 DUP4 ADD ADD MSTORE JUMPDEST SWAP6 POP PUSH3 0x3CE SWAP2 POP POP DUP6 DUP3 ADD PUSH3 0x2D1 JUMP JUMPDEST SWAP3 POP POP POP SWAP3 POP SWAP3 SWAP1 POP JUMP JUMPDEST PUSH1 0x1 DUP2 DUP2 SHR SWAP1 DUP3 AND DUP1 PUSH3 0x3EE JUMPI PUSH1 0x7F DUP3 AND SWAP2 POP JUMPDEST PUSH1 0x20 DUP3 LT DUP2 EQ ISZERO PUSH3 0x410 JUMPI PUSH4 0x4E487B71 PUSH1 0xE0 SHL PUSH1 0x0 MSTORE PUSH1 0x22 PUSH1 0x4 MSTORE PUSH1 0x24 PUSH1 0x0 REVERT JUMPDEST POP SWAP2 SWAP1 POP JUMP JUMPDEST PUSH4 0x4E487B71 PUSH1 0xE0 SHL PUSH1 0x0 MSTORE PUSH1 0x41 PUSH1 0x4 MSTORE PUSH1 0x24 PUSH1 0x0 REVERT JUMPDEST PUSH2 0x29E1 DUP1 PUSH3 0x43C PUSH1 0x0 CODECOPY PUSH1 0x0 RETURN INVALID PUSH1 0x80 PUSH1 0x40 MSTORE PUSH1 0x4 CALLDATASIZE LT PUSH2 0x381 JUMPI PUSH1 0x0 CALLDATALOAD PUSH1 0xE0 SHR DUP1 PUSH4 0x6C0360EB GT PUSH2 0x1D1 JUMPI DUP1 PUSH4 0xAC813088 GT PUSH2 0x102 JUMPI DUP1 PUSH4 0xD4C53F3D GT PUSH2 0xA0 JUMPI DUP1 PUSH4 0xE985E9C5 GT PUSH2 0x6F JUMPI DUP1 PUSH4 0xE985E9C5 EQ PUSH2 0x9B7 JUMPI DUP1 PUSH4 0xF2C4CE1E EQ PUSH2 0xA00 JUMPI DUP1 PUSH4 0xF2FDE38B EQ PUSH2 0xA20 JUMPI DUP1 PUSH4 0xFF645691 EQ PUSH2 0xA40 JUMPI PUSH1 0x0 DUP1 REVERT JUMPDEST DUP1 PUSH4 0xD4C53F3D EQ PUSH2 0x94B JUMPI DUP1 PUSH4 0xD5ABEB01 EQ PUSH2 0x961 JUMPI DUP1 PUSH4 0xDA3EF23F EQ PUSH2 0x977 JUMPI DUP1 PUSH4 0xDC33E681 EQ PUSH2 0x997 JUMPI PUSH1 0x0 DUP1 REVERT JUMPDEST DUP1 PUSH4 0xC6682862 GT PUSH2 0xDC JUMPI DUP1 PUSH4 0xC6682862 EQ PUSH2 0x8E1 JUMPI DUP1 PUSH4 0xC87B56DD EQ PUSH2 0x8F6 JUMPI DUP1 PUSH4 0xCA628C78 EQ PUSH2 0x916 JUMPI DUP1 PUSH4 0xD0ECDF48 EQ PUSH2 0x92B JUMPI PUSH1 0x0 DUP1 REVERT JUMPDEST DUP1 PUSH4 0xAC813088 EQ PUSH2 0x898 JUMPI DUP1 PUSH4 0xB88D4FDE EQ PUSH2 0x8B8 JUMPI DUP1 PUSH4 0xB8B4AF39 EQ PUSH2 0x8CB JUMPI PUSH1 0x0 DUP1 REVERT JUMPDEST DUP1 PUSH4 0x8DA5CB5B GT PUSH2 0x16F JUMPI DUP1 PUSH4 0x963CF257 GT PUSH2 0x149 JUMPI DUP1 PUSH4 0x963CF257 EQ PUSH2 0x818 JUMPI DUP1 PUSH4 0x9D76EA58 EQ PUSH2 0x838 JUMPI DUP1 PUSH4 0x9FB17E34 EQ PUSH2 0x858 JUMPI DUP1 PUSH4 0xA22CB465 EQ PUSH2 0x878 JUMPI PUSH1 0x0 DUP1 REVERT JUMPDEST DUP1 PUSH4 0x8DA5CB5B EQ PUSH2 0x7C5 JUMPI DUP1 PUSH4 0x940CD05B EQ PUSH2 0x7E3 JUMPI DUP1 PUSH4 0x95D89B41 EQ PUSH2 0x803 JUMPI PUSH1 0x0 DUP1 REVERT JUMPDEST DUP1 PUSH4 0x7AFB04FF GT PUSH2 0x1AB JUMPI DUP1 PUSH4 0x7AFB04FF EQ PUSH2 0x744 JUMPI DUP1 PUSH4 0x7CB64759 EQ PUSH2 0x764 JUMPI DUP1 PUSH4 0x7F9FA411 EQ PUSH2 0x784 JUMPI DUP1 PUSH4 0x83A076BE EQ PUSH2 0x7A5 JUMPI PUSH1 0x0 DUP1 REVERT JUMPDEST DUP1 PUSH4 0x6C0360EB EQ PUSH2 0x6FA JUMPI DUP1 PUSH4 0x70A08231 EQ PUSH2 0x70F JUMPI DUP1 PUSH4 0x715018A6 EQ PUSH2 0x72F JUMPI PUSH1 0x0 DUP1 REVERT JUMPDEST DUP1 PUSH4 0x2C4E722E GT PUSH2 0x2B6 JUMPI DUP1 PUSH4 0x55753761 GT PUSH2 0x254 JUMPI DUP1 PUSH4 0x5EF9FF37 GT PUSH2 0x223 JUMPI DUP1 PUSH4 0x5EF9FF37 EQ PUSH2 0x684 JUMPI DUP1 PUSH4 0x6352211E EQ PUSH2 0x6A4 JUMPI DUP1 PUSH4 0x6AE433A8 EQ PUSH2 0x6C4 JUMPI DUP1 PUSH4 0x6B38D118 EQ PUSH2 0x6DA JUMPI PUSH1 0x0 DUP1 REVERT JUMPDEST DUP1 PUSH4 0x55753761 EQ PUSH2 0x603 JUMPI DUP1 PUSH4 0x55F804B3 EQ PUSH2 0x623 JUMPI DUP1 PUSH4 0x5AC7164F EQ PUSH2 0x643 JUMPI DUP1 PUSH4 0x5C975ABB EQ PUSH2 0x663 JUMPI PUSH1 0x0 DUP1 REVERT JUMPDEST DUP1 PUSH4 0x42842E0E GT PUSH2 0x290 JUMPI DUP1 PUSH4 0x42842E0E EQ PUSH2 0x599 JUMPI DUP1 PUSH4 0x453C2310 EQ PUSH2 0x5AC JUMPI DUP1 PUSH4 0x4A2BBE3D EQ PUSH2 0x5C2 JUMPI DUP1 PUSH4 0x51830227 EQ PUSH2 0x5E2 JUMPI PUSH1 0x0 DUP1 REVERT JUMPDEST DUP1 PUSH4 0x2C4E722E EQ PUSH2 0x54D JUMPI DUP1 PUSH4 0x2EB4A7AB EQ PUSH2 0x563 JUMPI DUP1 PUSH4 0x34FCF437 EQ PUSH2 0x579 JUMPI PUSH1 0x0 DUP1 REVERT JUMPDEST DUP1 PUSH4 0x149835A0 GT PUSH2 0x323 JUMPI DUP1 PUSH4 0x1DCD8E4E GT PUSH2 0x2FD JUMPI DUP1 PUSH4 0x1DCD8E4E EQ PUSH2 0x4E3 JUMPI DUP1 PUSH4 0x226FE1C0 EQ PUSH2 0x4F9 JUMPI DUP1 PUSH4 0x23B872DD EQ PUSH2 0x519 JUMPI DUP1 PUSH4 0x26092B83 EQ PUSH2 0x52C JUMPI PUSH1 0x0 DUP1 REVERT JUMPDEST DUP1 PUSH4 0x149835A0 EQ PUSH2 0x47F JUMPI DUP1 PUSH4 0x17D8924D EQ PUSH2 0x49F JUMPI DUP1 PUSH4 0x18160DDD EQ PUSH2 0x4C0 JUMPI PUSH1 0x0 DUP1 REVERT JUMPDEST DUP1 PUSH4 0x81812FC GT PUSH2 0x35F JUMPI DUP1 PUSH4 0x81812FC EQ PUSH2 0x3FF JUMPI DUP1 PUSH4 0x81C8C44 EQ PUSH2 0x437 JUMPI DUP1 PUSH4 0x95EA7B3 EQ PUSH2 0x44C JUMPI DUP1 PUSH4 0xC311A9C EQ PUSH2 0x45F JUMPI PUSH1 0x0 DUP1 REVERT JUMPDEST DUP1 PUSH4 0x1FFC9A7 EQ PUSH2 0x386 JUMPI DUP1 PUSH4 0x2329A29 EQ PUSH2 0x3BB JUMPI DUP1 PUSH4 0x6FDDE03 EQ PUSH2 0x3DD JUMPI JUMPDEST PUSH1 0x0 DUP1 REVERT JUMPDEST CALLVALUE DUP1 ISZERO PUSH2 0x392 JUMPI PUSH1 0x0 DUP1 REVERT JUMPDEST POP PUSH2 0x3A6 PUSH2 0x3A1 CALLDATASIZE PUSH1 0x4 PUSH2 0x24DD JUMP JUMPDEST PUSH2 0xA56 JUMP JUMPDEST PUSH1 0x40 MLOAD SWAP1 ISZERO ISZERO DUP2 MSTORE PUSH1 0x20 ADD JUMPDEST PUSH1 0x40 MLOAD DUP1 SWAP2 SUB SWAP1 RETURN JUMPDEST CALLVALUE DUP1 ISZERO PUSH2 0x3C7 JUMPI PUSH1 0x0 DUP1 REVERT JUMPDEST POP PUSH2 0x3DB PUSH2 0x3D6 CALLDATASIZE PUSH1 0x4 PUSH2 0x248D JUMP JUMPDEST PUSH2 0xAA8 JUMP JUMPDEST STOP JUMPDEST CALLVALUE DUP1 ISZERO PUSH2 0x3E9 JUMPI PUSH1 0x0 DUP1 REVERT JUMPDEST POP PUSH2 0x3F2 PUSH2 0xACE JUMP JUMPDEST PUSH1 0x40 MLOAD PUSH2 0x3B2 SWAP2 SWAP1 PUSH2 0x273A JUMP JUMPDEST CALLVALUE DUP1 ISZERO PUSH2 0x40B JUMPI PUSH1 0x0 DUP1 REVERT JUMPDEST POP PUSH2 0x41F PUSH2 0x41A CALLDATASIZE PUSH1 0x4 PUSH2 0x24C5 JUMP JUMPDEST PUSH2 0xB60 JUMP JUMPDEST PUSH1 0x40 MLOAD PUSH1 0x1 PUSH1 0x1 PUSH1 0xA0 SHL SUB SWAP1 SWAP2 AND DUP2 MSTORE PUSH1 0x20 ADD PUSH2 0x3B2 JUMP JUMPDEST CALLVALUE DUP1 ISZERO PUSH2 0x443 JUMPI PUSH1 0x0 DUP1 REVERT JUMPDEST POP PUSH2 0x3F2 PUSH2 0xBA4 JUMP JUMPDEST PUSH2 0x3DB PUSH2 0x45A CALLDATASIZE PUSH1 0x4 PUSH2 0x2464 JUMP JUMPDEST PUSH2 0xC32 JUMP JUMPDEST CALLVALUE DUP1 ISZERO PUSH2 0x46B JUMPI PUSH1 0x0 DUP1 REVERT JUMPDEST POP PUSH2 0x3DB PUSH2 0x47A CALLDATASIZE PUSH1 0x4 PUSH2 0x24C5 JUMP JUMPDEST PUSH2 0xCD2 JUMP JUMPDEST CALLVALUE DUP1 ISZERO PUSH2 0x48B JUMPI PUSH1 0x0 DUP1 REVERT JUMPDEST POP PUSH2 0x3DB PUSH2 0x49A CALLDATASIZE PUSH1 0x4 PUSH2 0x24C5 JUMP JUMPDEST PUSH2 0xCDF JUMP JUMPDEST CALLVALUE DUP1 ISZERO PUSH2 0x4AB JUMPI PUSH1 0x0 DUP1 REVERT JUMPDEST POP PUSH1 0x15 SLOAD PUSH2 0x3A6 SWAP1 PUSH1 0x1 PUSH1 0xC0 SHL SWAP1 DIV PUSH1 0xFF AND DUP2 JUMP JUMPDEST CALLVALUE DUP1 ISZERO PUSH2 0x4CC JUMPI PUSH1 0x0 DUP1 REVERT JUMPDEST POP PUSH2 0x4D5 PUSH2 0xCEC JUMP JUMPDEST PUSH1 0x40 MLOAD SWAP1 DUP2 MSTORE PUSH1 0x20 ADD PUSH2 0x3B2 JUMP JUMPDEST CALLVALUE DUP1 ISZERO PUSH2 0x4EF JUMPI PUSH1 0x0 DUP1 REVERT JUMPDEST POP PUSH2 0x4D5 PUSH1 0x14 SLOAD DUP2 JUMP JUMPDEST CALLVALUE DUP1 ISZERO PUSH2 0x505 JUMPI PUSH1 0x0 DUP1 REVERT JUMPDEST POP PUSH2 0x3DB PUSH2 0x514 CALLDATASIZE PUSH1 0x4 PUSH2 0x2595 JUMP JUMPDEST PUSH2 0xCFA JUMP JUMPDEST PUSH2 0x3DB PUSH2 0x527 CALLDATASIZE PUSH1 0x4 PUSH2 0x237A JUMP JUMPDEST PUSH2 0x1042 JUMP JUMPDEST CALLVALUE DUP1 ISZERO PUSH2 0x538 JUMPI PUSH1 0x0 DUP1 REVERT JUMPDEST POP PUSH1 0x15 SLOAD PUSH2 0x3A6 SWAP1 PUSH1 0x1 PUSH1 0xB8 SHL SWAP1 DIV PUSH1 0xFF AND DUP2 JUMP JUMPDEST CALLVALUE DUP1 ISZERO PUSH2 0x559 JUMPI PUSH1 0x0 DUP1 REVERT JUMPDEST POP PUSH2 0x4D5 PUSH1 0xD SLOAD DUP2 JUMP JUMPDEST CALLVALUE DUP1 ISZERO PUSH2 0x56F JUMPI PUSH1 0x0 DUP1 REVERT JUMPDEST POP PUSH2 0x4D5 PUSH1 0x16 SLOAD DUP2 JUMP JUMPDEST CALLVALUE DUP1 ISZERO PUSH2 0x585 JUMPI PUSH1 0x0 DUP1 REVERT JUMPDEST POP PUSH2 0x3DB PUSH2 0x594 CALLDATASIZE PUSH1 0x4 PUSH2 0x24C5 JUMP JUMPDEST PUSH2 0x11D3 JUMP JUMPDEST PUSH2 0x3DB PUSH2 0x5A7 CALLDATASIZE PUSH1 0x4 PUSH2 0x237A JUMP JUMPDEST PUSH2 0x11E0 JUMP JUMPDEST CALLVALUE DUP1 ISZERO PUSH2 0x5B8 JUMPI PUSH1 0x0 DUP1 REVERT JUMPDEST POP PUSH2 0x4D5 PUSH1 0x11 SLOAD DUP2 JUMP JUMPDEST CALLVALUE DUP1 ISZERO PUSH2 0x5CE JUMPI PUSH1 0x0 DUP1 REVERT JUMPDEST POP PUSH2 0x3DB PUSH2 0x5DD CALLDATASIZE PUSH1 0x4 PUSH2 0x24C5 JUMP JUMPDEST PUSH2 0x1200 JUMP JUMPDEST CALLVALUE DUP1 ISZERO PUSH2 0x5EE JUMPI PUSH1 0x0 DUP1 REVERT JUMPDEST POP PUSH1 0x15 SLOAD PUSH2 0x3A6 SWAP1 PUSH1 0x1 PUSH1 0xA8 SHL SWAP1 DIV PUSH1 0xFF AND DUP2 JUMP JUMPDEST CALLVALUE DUP1 ISZERO PUSH2 0x60F JUMPI PUSH1 0x0 DUP1 REVERT JUMPDEST POP PUSH2 0x3DB PUSH2 0x61E CALLDATASIZE PUSH1 0x4 PUSH2 0x24C5 JUMP JUMPDEST PUSH2 0x120D JUMP JUMPDEST CALLVALUE DUP1 ISZERO PUSH2 0x62F JUMPI PUSH1 0x0 DUP1 REVERT JUMPDEST POP PUSH2 0x3DB PUSH2 0x63E CALLDATASIZE PUSH1 0x4 PUSH2 0x2515 JUMP JUMPDEST PUSH2 0x121A JUMP JUMPDEST CALLVALUE DUP1 ISZERO PUSH2 0x64F JUMPI PUSH1 0x0 DUP1 REVERT JUMPDEST POP PUSH2 0x3DB PUSH2 0x65E CALLDATASIZE PUSH1 0x4 PUSH2 0x24C5 JUMP JUMPDEST PUSH2 0x1239 JUMP JUMPDEST CALLVALUE DUP1 ISZERO PUSH2 0x66F JUMPI PUSH1 0x0 DUP1 REVERT JUMPDEST POP PUSH1 0x15 SLOAD PUSH2 0x3A6 SWAP1 PUSH1 0x1 PUSH1 0xA0 SHL SWAP1 DIV PUSH1 0xFF AND DUP2 JUMP JUMPDEST CALLVALUE DUP1 ISZERO PUSH2 0x690 JUMPI PUSH1 0x0 DUP1 REVERT JUMPDEST POP PUSH2 0x3DB PUSH2 0x69F CALLDATASIZE PUSH1 0x4 PUSH2 0x24C5 JUMP JUMPDEST PUSH2 0x1246 JUMP JUMPDEST CALLVALUE DUP1 ISZERO PUSH2 0x6B0 JUMPI PUSH1 0x0 DUP1 REVERT JUMPDEST POP PUSH2 0x41F PUSH2 0x6BF CALLDATASIZE PUSH1 0x4 PUSH2 0x24C5 JUMP JUMPDEST PUSH2 0x1253 JUMP JUMPDEST CALLVALUE DUP1 ISZERO PUSH2 0x6D0 JUMPI PUSH1 0x0 DUP1 REVERT JUMPDEST POP PUSH2 0x4D5 PUSH1 0x10 SLOAD DUP2 JUMP JUMPDEST CALLVALUE DUP1 ISZERO PUSH2 0x6E6 JUMPI PUSH1 0x0 DUP1 REVERT JUMPDEST POP PUSH2 0x3DB PUSH2 0x6F5 CALLDATASIZE PUSH1 0x4 PUSH2 0x248D JUMP JUMPDEST PUSH2 0x125E JUMP JUMPDEST CALLVALUE DUP1 ISZERO PUSH2 0x706 JUMPI PUSH1 0x0 DUP1 REVERT JUMPDEST POP PUSH2 0x3F2 PUSH2 0x1284 JUMP JUMPDEST CALLVALUE DUP1 ISZERO PUSH2 0x71B JUMPI PUSH1 0x0 DUP1 REVERT JUMPDEST POP PUSH2 0x4D5 PUSH2 0x72A CALLDATASIZE PUSH1 0x4 PUSH2 0x232E JUMP JUMPDEST PUSH2 0x1291 JUMP JUMPDEST CALLVALUE DUP1 ISZERO PUSH2 0x73B JUMPI PUSH1 0x0 DUP1 REVERT JUMPDEST POP PUSH2 0x3DB PUSH2 0x12E0 JUMP JUMPDEST CALLVALUE DUP1 ISZERO PUSH2 0x750 JUMPI PUSH1 0x0 DUP1 REVERT JUMPDEST POP PUSH2 0x3DB PUSH2 0x75F CALLDATASIZE PUSH1 0x4 PUSH2 0x24C5 JUMP JUMPDEST PUSH2 0x12F4 JUMP JUMPDEST CALLVALUE DUP1 ISZERO PUSH2 0x770 JUMPI PUSH1 0x0 DUP1 REVERT JUMPDEST POP PUSH2 0x3DB PUSH2 0x77F CALLDATASIZE PUSH1 0x4 PUSH2 0x24C5 JUMP JUMPDEST PUSH2 0x1301 JUMP JUMPDEST CALLVALUE DUP1 ISZERO PUSH2 0x790 JUMPI PUSH1 0x0 DUP1 REVERT JUMPDEST POP PUSH1 0x15 SLOAD PUSH2 0x3A6 SWAP1 PUSH1 0x1 PUSH1 0xB0 SHL SWAP1 DIV PUSH1 0xFF AND DUP2 JUMP JUMPDEST CALLVALUE DUP1 ISZERO PUSH2 0x7B1 JUMPI PUSH1 0x0 DUP1 REVERT JUMPDEST POP PUSH2 0x3DB PUSH2 0x7C0 CALLDATASIZE PUSH1 0x4 PUSH2 0x2573 JUMP JUMPDEST PUSH2 0x130E JUMP JUMPDEST CALLVALUE DUP1 ISZERO PUSH2 0x7D1 JUMPI PUSH1 0x0 DUP1 REVERT JUMPDEST POP PUSH1 0x8 SLOAD PUSH1 0x1 PUSH1 0x1 PUSH1 0xA0 SHL SUB AND PUSH2 0x41F JUMP JUMPDEST CALLVALUE DUP1 ISZERO PUSH2 0x7EF JUMPI PUSH1 0x0 DUP1 REVERT JUMPDEST POP PUSH2 0x3DB PUSH2 0x7FE CALLDATASIZE PUSH1 0x4 PUSH2 0x248D JUMP JUMPDEST PUSH2 0x13D0 JUMP JUMPDEST CALLVALUE DUP1 ISZERO PUSH2 0x80F JUMPI PUSH1 0x0 DUP1 REVERT JUMPDEST POP PUSH2 0x3F2 PUSH2 0x13F6 JUMP JUMPDEST CALLVALUE DUP1 ISZERO PUSH2 0x824 JUMPI PUSH1 0x0 DUP1 REVERT JUMPDEST POP PUSH2 0x3DB PUSH2 0x833 CALLDATASIZE PUSH1 0x4 PUSH2 0x248D JUMP JUMPDEST PUSH2 0x1405 JUMP JUMPDEST CALLVALUE DUP1 ISZERO PUSH2 0x844 JUMPI PUSH1 0x0 DUP1 REVERT JUMPDEST POP PUSH1 0x15 SLOAD PUSH2 0x41F SWAP1 PUSH1 0x1 PUSH1 0x1 PUSH1 0xA0 SHL SUB AND DUP2 JUMP JUMPDEST CALLVALUE DUP1 ISZERO PUSH2 0x864 JUMPI PUSH1 0x0 DUP1 REVERT JUMPDEST POP PUSH2 0x3DB PUSH2 0x873 CALLDATASIZE PUSH1 0x4 PUSH2 0x24C5 JUMP JUMPDEST PUSH2 0x142B JUMP JUMPDEST CALLVALUE DUP1 ISZERO PUSH2 0x884 JUMPI PUSH1 0x0 DUP1 REVERT JUMPDEST POP PUSH2 0x3DB PUSH2 0x893 CALLDATASIZE PUSH1 0x4 PUSH2 0x242E JUMP JUMPDEST PUSH2 0x1687 JUMP JUMPDEST CALLVALUE DUP1 ISZERO PUSH2 0x8A4 JUMPI PUSH1 0x0 DUP1 REVERT JUMPDEST POP PUSH2 0x3DB PUSH2 0x8B3 CALLDATASIZE PUSH1 0x4 PUSH2 0x248D JUMP JUMPDEST PUSH2 0x16F3 JUMP JUMPDEST PUSH2 0x3DB PUSH2 0x8C6 CALLDATASIZE PUSH1 0x4 PUSH2 0x23B5 JUMP JUMPDEST PUSH2 0x1719 JUMP JUMPDEST CALLVALUE DUP1 ISZERO PUSH2 0x8D7 JUMPI PUSH1 0x0 DUP1 REVERT JUMPDEST POP PUSH2 0x4D5 PUSH1 0xE SLOAD DUP2 JUMP JUMPDEST CALLVALUE DUP1 ISZERO PUSH2 0x8ED JUMPI PUSH1 0x0 DUP1 REVERT JUMPDEST POP PUSH2 0x3F2 PUSH2 0x1763 JUMP JUMPDEST CALLVALUE DUP1 ISZERO PUSH2 0x902 JUMPI PUSH1 0x0 DUP1 REVERT JUMPDEST POP PUSH2 0x3F2 PUSH2 0x911 CALLDATASIZE PUSH1 0x4 PUSH2 0x24C5 JUMP JUMPDEST PUSH2 0x1770 JUMP JUMPDEST CALLVALUE DUP1 ISZERO PUSH2 0x922 JUMPI PUSH1 0x0 DUP1 REVERT JUMPDEST POP PUSH2 0x3DB PUSH2 0x18E2 JUMP JUMPDEST CALLVALUE DUP1 ISZERO PUSH2 0x937 JUMPI PUSH1 0x0 DUP1 REVERT JUMPDEST POP PUSH2 0x3DB PUSH2 0x946 CALLDATASIZE PUSH1 0x4 PUSH2 0x24C5 JUMP JUMPDEST PUSH2 0x19F0 JUMP JUMPDEST CALLVALUE DUP1 ISZERO PUSH2 0x957 JUMPI PUSH1 0x0 DUP1 REVERT JUMPDEST POP PUSH2 0x4D5 PUSH1 0x13 SLOAD DUP2 JUMP JUMPDEST CALLVALUE DUP1 ISZERO PUSH2 0x96D JUMPI PUSH1 0x0 DUP1 REVERT JUMPDEST POP PUSH2 0x4D5 PUSH1 0xF SLOAD DUP2 JUMP JUMPDEST CALLVALUE DUP1 ISZERO PUSH2 0x983 JUMPI PUSH1 0x0 DUP1 REVERT JUMPDEST POP PUSH2 0x3DB PUSH2 0x992 CALLDATASIZE PUSH1 0x4 PUSH2 0x2515 JUMP JUMPDEST PUSH2 0x1BC6 JUMP JUMPDEST CALLVALUE DUP1 ISZERO PUSH2 0x9A3 JUMPI PUSH1 0x0 DUP1 REVERT JUMPDEST POP PUSH2 0x4D5 PUSH2 0x9B2 CALLDATASIZE PUSH1 0x4 PUSH2 0x232E JUMP JUMPDEST PUSH2 0x1BE1 JUMP JUMPDEST CALLVALUE DUP1 ISZERO PUSH2 0x9C3 JUMPI PUSH1 0x0 DUP1 REVERT JUMPDEST POP PUSH2 0x3A6 PUSH2 0x9D2 CALLDATASIZE PUSH1 0x4 PUSH2 0x2348 JUMP JUMPDEST PUSH1 0x1 PUSH1 0x1 PUSH1 0xA0 SHL SUB SWAP2 DUP3 AND PUSH1 0x0 SWAP1 DUP2 MSTORE PUSH1 0x7 PUSH1 0x20 SWAP1 DUP2 MSTORE PUSH1 0x40 DUP1 DUP4 KECCAK256 SWAP4 SWAP1 SWAP5 AND DUP3 MSTORE SWAP2 SWAP1 SWAP2 MSTORE KECCAK256 SLOAD PUSH1 0xFF AND SWAP1 JUMP JUMPDEST CALLVALUE DUP1 ISZERO PUSH2 0xA0C JUMPI PUSH1 0x0 DUP1 REVERT JUMPDEST POP PUSH2 0x3DB PUSH2 0xA1B CALLDATASIZE PUSH1 0x4 PUSH2 0x2515 JUMP JUMPDEST PUSH2 0x1BEC JUMP JUMPDEST CALLVALUE DUP1 ISZERO PUSH2 0xA2C JUMPI PUSH1 0x0 DUP1 REVERT JUMPDEST POP PUSH2 0x3DB PUSH2 0xA3B CALLDATASIZE PUSH1 0x4 PUSH2 0x232E JUMP JUMPDEST PUSH2 0x1C07 JUMP JUMPDEST CALLVALUE DUP1 ISZERO PUSH2 0xA4C JUMPI PUSH1 0x0 DUP1 REVERT JUMPDEST POP PUSH2 0x4D5 PUSH1 0x12 SLOAD DUP2 JUMP JUMPDEST PUSH1 0x0 PUSH4 0x1FFC9A7 PUSH1 0xE0 SHL PUSH1 0x1 PUSH1 0x1 PUSH1 0xE0 SHL SUB NOT DUP4 AND EQ DUP1 PUSH2 0xA87 JUMPI POP PUSH4 0x80AC58CD PUSH1 0xE0 SHL PUSH1 0x1 PUSH1 0x1 PUSH1 0xE0 SHL SUB NOT DUP4 AND EQ JUMPDEST DUP1 PUSH2 0xAA2 JUMPI POP PUSH4 0x5B5E139F PUSH1 0xE0 SHL PUSH1 0x1 PUSH1 0x1 PUSH1 0xE0 SHL SUB NOT DUP4 AND EQ JUMPDEST SWAP3 SWAP2 POP POP JUMP JUMPDEST PUSH2 0xAB0 PUSH2 0x1C7D JUMP JUMPDEST PUSH1 0x15 DUP1 SLOAD SWAP2 ISZERO ISZERO PUSH1 0x1 PUSH1 0xA0 SHL MUL PUSH1 0xFF PUSH1 0xA0 SHL NOT SWAP1 SWAP3 AND SWAP2 SWAP1 SWAP2 OR SWAP1 SSTORE JUMP JUMPDEST PUSH1 0x60 PUSH1 0x2 DUP1 SLOAD PUSH2 0xADD SWAP1 PUSH2 0x28DB JUMP JUMPDEST DUP1 PUSH1 0x1F ADD PUSH1 0x20 DUP1 SWAP2 DIV MUL PUSH1 0x20 ADD PUSH1 0x40 MLOAD SWAP1 DUP2 ADD PUSH1 0x40 MSTORE DUP1 SWAP3 SWAP2 SWAP1 DUP2 DUP2 MSTORE PUSH1 0x20 ADD DUP3 DUP1 SLOAD PUSH2 0xB09 SWAP1 PUSH2 0x28DB JUMP JUMPDEST DUP1 ISZERO PUSH2 0xB56 JUMPI DUP1 PUSH1 0x1F LT PUSH2 0xB2B JUMPI PUSH2 0x100 DUP1 DUP4 SLOAD DIV MUL DUP4 MSTORE SWAP2 PUSH1 0x20 ADD SWAP2 PUSH2 0xB56 JUMP JUMPDEST DUP3 ADD SWAP2 SWAP1 PUSH1 0x0 MSTORE PUSH1 0x20 PUSH1 0x0 KECCAK256 SWAP1 JUMPDEST DUP2 SLOAD DUP2 MSTORE SWAP1 PUSH1 0x1 ADD SWAP1 PUSH1 0x20 ADD DUP1 DUP4 GT PUSH2 0xB39 JUMPI DUP3 SWAP1 SUB PUSH1 0x1F AND DUP3 ADD SWAP2 JUMPDEST POP POP POP POP POP SWAP1 POP SWAP1 JUMP JUMPDEST PUSH1 0x0 PUSH2 0xB6B DUP3 PUSH2 0x1CD7 JUMP JUMPDEST PUSH2 0xB88 JUMPI PUSH1 0x40 MLOAD PUSH4 0x33D1C039 PUSH1 0xE2 SHL DUP2 MSTORE PUSH1 0x4 ADD PUSH1 0x40 MLOAD DUP1 SWAP2 SUB SWAP1 REVERT JUMPDEST POP PUSH1 0x0 SWAP1 DUP2 MSTORE PUSH1 0x6 PUSH1 0x20 MSTORE PUSH1 0x40 SWAP1 KECCAK256 SLOAD PUSH1 0x1 PUSH1 0x1 PUSH1 0xA0 SHL SUB AND SWAP1 JUMP JUMPDEST PUSH1 0xC DUP1 SLOAD PUSH2 0xBB1 SWAP1 PUSH2 0x28DB JUMP JUMPDEST DUP1 PUSH1 0x1F ADD PUSH1 0x20 DUP1 SWAP2 DIV MUL PUSH1 0x20 ADD PUSH1 0x40 MLOAD SWAP1 DUP2 ADD PUSH1 0x40 MSTORE DUP1 SWAP3 SWAP2 SWAP1 DUP2 DUP2 MSTORE PUSH1 0x20 ADD DUP3 DUP1 SLOAD PUSH2 0xBDD SWAP1 PUSH2 0x28DB JUMP JUMPDEST DUP1 ISZERO PUSH2 0xC2A JUMPI DUP1 PUSH1 0x1F LT PUSH2 0xBFF JUMPI PUSH2 0x100 DUP1 DUP4 SLOAD DIV MUL DUP4 MSTORE SWAP2 PUSH1 0x20 ADD SWAP2 PUSH2 0xC2A JUMP JUMPDEST DUP3 ADD SWAP2 SWAP1 PUSH1 0x0 MSTORE PUSH1 0x20 PUSH1 0x0 KECCAK256 SWAP1 JUMPDEST DUP2 SLOAD DUP2 MSTORE SWAP1 PUSH1 0x1 ADD SWAP1 PUSH1 0x20 ADD DUP1 DUP4 GT PUSH2 0xC0D JUMPI DUP3 SWAP1 SUB PUSH1 0x1F AND DUP3 ADD SWAP2 JUMPDEST POP POP POP POP POP DUP2 JUMP JUMPDEST PUSH1 0x0 PUSH2 0xC3D DUP3 PUSH2 0x1253 JUMP JUMPDEST SWAP1 POP CALLER PUSH1 0x1 PUSH1 0x1 PUSH1 0xA0 SHL SUB DUP3 AND EQ PUSH2 0xC76 JUMPI PUSH2 0xC59 DUP2 CALLER PUSH2 0x9D2 JUMP JUMPDEST PUSH2 0xC76 JUMPI PUSH1 0x40 MLOAD PUSH4 0x67D9DCA1 PUSH1 0xE1 SHL DUP2 MSTORE PUSH1 0x4 ADD PUSH1 0x40 MLOAD DUP1 SWAP2 SUB SWAP1 REVERT JUMPDEST PUSH1 0x0 DUP3 DUP2 MSTORE PUSH1 0x6 PUSH1 0x20 MSTORE PUSH1 0x40 DUP1 DUP3 KECCAK256 DUP1 SLOAD PUSH1 0x1 PUSH1 0x1 PUSH1 0xA0 SHL SUB NOT AND PUSH1 0x1 PUSH1 0x1 PUSH1 0xA0 SHL SUB DUP8 DUP2 AND SWAP2 DUP3 OR SWAP1 SWAP3 SSTORE SWAP2 MLOAD DUP6 SWAP4 SWAP2 DUP6 AND SWAP2 PUSH32 0x8C5BE1E5EBEC7D5BD14F71427D1E84F3DD0314C0F7B2291E5B200AC8C7C3B925 SWAP2 LOG4 POP POP POP JUMP JUMPDEST PUSH2 0xCDA PUSH2 0x1C7D JUMP JUMPDEST PUSH1 0x13 SSTORE JUMP JUMPDEST PUSH2 0xCE7 PUSH2 0x1C7D JUMP JUMPDEST PUSH1 0xF SSTORE JUMP JUMPDEST PUSH1 0x1 SLOAD PUSH1 0x0 SLOAD SUB PUSH1 0x0 NOT ADD SWAP1 JUMP JUMPDEST PUSH1 0x2 PUSH1 0x9 SLOAD EQ ISZERO PUSH2 0xD26 JUMPI PUSH1 0x40 MLOAD PUSH3 0x461BCD PUSH1 0xE5 SHL DUP2 MSTORE PUSH1 0x4 ADD PUSH2 0xD1D SWAP1 PUSH2 0x27DF JUMP JUMPDEST PUSH1 0x40 MLOAD DUP1 SWAP2 SUB SWAP1 REVERT JUMPDEST PUSH1 0x2 PUSH1 0x9 SSTORE PUSH1 0x15 SLOAD PUSH1 0x1 PUSH1 0xA0 SHL SWAP1 DIV PUSH1 0xFF AND ISZERO PUSH2 0xD55 JUMPI PUSH1 0x40 MLOAD PUSH3 0x461BCD PUSH1 0xE5 SHL DUP2 MSTORE PUSH1 0x4 ADD PUSH2 0xD1D SWAP1 PUSH2 0x2771 JUMP JUMPDEST PUSH1 0x15 SLOAD PUSH1 0x1 PUSH1 0xB0 SHL SWAP1 DIV PUSH1 0xFF AND PUSH2 0xDAE JUMPI PUSH1 0x40 MLOAD PUSH3 0x461BCD PUSH1 0xE5 SHL DUP2 MSTORE PUSH1 0x20 PUSH1 0x4 DUP3 ADD MSTORE PUSH1 0x1A PUSH1 0x24 DUP3 ADD MSTORE PUSH32 0x574C206D696E74204861736E2774207374617274656420796574000000000000 PUSH1 0x44 DUP3 ADD MSTORE PUSH1 0x64 ADD PUSH2 0xD1D JUMP JUMPDEST PUSH2 0xE23 DUP3 DUP3 DUP1 DUP1 PUSH1 0x20 MUL PUSH1 0x20 ADD PUSH1 0x40 MLOAD SWAP1 DUP2 ADD PUSH1 0x40 MSTORE DUP1 SWAP4 SWAP3 SWAP2 SWAP1 DUP2 DUP2 MSTORE PUSH1 0x20 ADD DUP4 DUP4 PUSH1 0x20 MUL DUP1 DUP3 DUP5 CALLDATACOPY PUSH1 0x0 SWAP3 ADD SWAP2 SWAP1 SWAP2 MSTORE POP POP PUSH1 0x16 SLOAD PUSH1 0x40 MLOAD PUSH12 0xFFFFFFFFFFFFFFFFFFFFFFFF NOT CALLER PUSH1 0x60 SHL AND PUSH1 0x20 DUP3 ADD MSTORE SWAP1 SWAP3 POP PUSH1 0x34 ADD SWAP1 POP PUSH1 0x40 MLOAD PUSH1 0x20 DUP2 DUP4 SUB SUB DUP2 MSTORE SWAP1 PUSH1 0x40 MSTORE DUP1 MLOAD SWAP1 PUSH1 0x20 ADD KECCAK256 PUSH2 0x1D0C JUMP JUMPDEST PUSH2 0xE6F JUMPI PUSH1 0x40 MLOAD PUSH3 0x461BCD PUSH1 0xE5 SHL DUP2 MSTORE PUSH1 0x20 PUSH1 0x4 DUP3 ADD MSTORE PUSH1 0x18 PUSH1 0x24 DUP3 ADD MSTORE PUSH32 0x20596F7520617265206E6F742077686974656C69737465640000000000000000 PUSH1 0x44 DUP3 ADD MSTORE PUSH1 0x64 ADD PUSH2 0xD1D JUMP JUMPDEST PUSH1 0x0 PUSH2 0xE79 PUSH2 0xCEC JUMP JUMPDEST SWAP1 POP PUSH1 0x10 SLOAD DUP5 PUSH2 0xEB2 PUSH2 0xE89 CALLER SWAP1 JUMP JUMPDEST PUSH1 0x1 PUSH1 0x1 PUSH1 0xA0 SHL SUB AND PUSH1 0x0 SWAP1 DUP2 MSTORE PUSH1 0x5 PUSH1 0x20 MSTORE PUSH1 0x40 SWAP1 DUP2 SWAP1 KECCAK256 SLOAD SWAP1 SHR PUSH8 0xFFFFFFFFFFFFFFFF AND SWAP1 JUMP JUMPDEST PUSH2 0xEBC SWAP2 SWAP1 PUSH2 0x284D JUMP JUMPDEST GT ISZERO PUSH2 0xEDA JUMPI PUSH1 0x40 MLOAD PUSH3 0x461BCD PUSH1 0xE5 SHL DUP2 MSTORE PUSH1 0x4 ADD PUSH2 0xD1D SWAP1 PUSH2 0x27A8 JUMP JUMPDEST PUSH1 0x0 DUP5 GT PUSH2 0xEFA JUMPI PUSH1 0x40 MLOAD PUSH3 0x461BCD PUSH1 0xE5 SHL DUP2 MSTORE PUSH1 0x4 ADD PUSH2 0xD1D SWAP1 PUSH2 0x2816 JUMP JUMPDEST PUSH1 0xF SLOAD PUSH2 0xF07 DUP6 DUP4 PUSH2 0x284D JUMP JUMPDEST GT ISZERO PUSH2 0xF25 JUMPI PUSH1 0x40 MLOAD PUSH3 0x461BCD PUSH1 0xE5 SHL DUP2 MSTORE PUSH1 0x4 ADD PUSH2 0xD1D SWAP1 PUSH2 0x274D JUMP JUMPDEST PUSH1 0x12 SLOAD DUP5 GT ISZERO PUSH2 0xF77 JUMPI PUSH1 0x40 MLOAD PUSH3 0x461BCD PUSH1 0xE5 SHL DUP2 MSTORE PUSH1 0x20 PUSH1 0x4 DUP3 ADD MSTORE PUSH1 0x18 PUSH1 0x24 DUP3 ADD MSTORE PUSH32 0x6D6178206D696E74207065722054782065786365656465640000000000000000 PUSH1 0x44 DUP3 ADD MSTORE PUSH1 0x64 ADD PUSH2 0xD1D JUMP JUMPDEST PUSH1 0x15 SLOAD PUSH1 0xE SLOAD PUSH1 0x1 PUSH1 0x1 PUSH1 0xA0 SHL SUB SWAP1 SWAP2 AND SWAP1 PUSH4 0x23B872DD SWAP1 CALLER SWAP1 ADDRESS SWAP1 PUSH2 0xFA5 SWAP1 PUSH8 0xDE0B6B3A7640000 PUSH2 0x2879 JUMP JUMPDEST PUSH1 0x40 MLOAD PUSH1 0x1 PUSH1 0x1 PUSH1 0xE0 SHL SUB NOT PUSH1 0xE0 DUP7 SWAP1 SHL AND DUP2 MSTORE PUSH1 0x1 PUSH1 0x1 PUSH1 0xA0 SHL SUB SWAP4 DUP5 AND PUSH1 0x4 DUP3 ADD MSTORE SWAP3 SWAP1 SWAP2 AND PUSH1 0x24 DUP4 ADD MSTORE PUSH1 0x44 DUP3 ADD MSTORE PUSH1 0x64 ADD PUSH1 0x20 PUSH1 0x40 MLOAD DUP1 DUP4 SUB DUP2 PUSH1 0x0 DUP8 DUP1 EXTCODESIZE ISZERO DUP1 ISZERO PUSH2 0xFF4 JUMPI PUSH1 0x0 DUP1 REVERT JUMPDEST POP GAS CALL ISZERO DUP1 ISZERO PUSH2 0x1008 JUMPI RETURNDATASIZE PUSH1 0x0 DUP1 RETURNDATACOPY RETURNDATASIZE PUSH1 0x0 REVERT JUMPDEST POP POP POP POP PUSH1 0x40 MLOAD RETURNDATASIZE PUSH1 0x1F NOT PUSH1 0x1F DUP3 ADD AND DUP3 ADD DUP1 PUSH1 0x40 MSTORE POP DUP2 ADD SWAP1 PUSH2 0x102C SWAP2 SWAP1 PUSH2 0x24A9 JUMP JUMPDEST POP PUSH2 0x1037 CALLER DUP6 PUSH2 0x1D22 JUMP JUMPDEST POP POP PUSH1 0x1 PUSH1 0x9 SSTORE POP POP JUMP JUMPDEST PUSH1 0x0 PUSH2 0x104D DUP3 PUSH2 0x1D3C JUMP JUMPDEST SWAP1 POP DUP4 PUSH1 0x1 PUSH1 0x1 PUSH1 0xA0 SHL SUB AND DUP2 PUSH1 0x1 PUSH1 0x1 PUSH1 0xA0 SHL SUB AND EQ PUSH2 0x1080 JUMPI PUSH1 0x40 MLOAD PUSH3 0xA11481 PUSH1 0xE8 SHL DUP2 MSTORE PUSH1 0x4 ADD PUSH1 0x40 MLOAD DUP1 SWAP2 SUB SWAP1 REVERT JUMPDEST PUSH1 0x0 DUP3 DUP2 MSTORE PUSH1 0x6 PUSH1 0x20 MSTORE PUSH1 0x40 SWAP1 KECCAK256 DUP1 SLOAD CALLER DUP1 DUP3 EQ PUSH1 0x1 PUSH1 0x1 PUSH1 0xA0 SHL SUB DUP9 AND SWAP1 SWAP2 EQ OR PUSH2 0x10CD JUMPI PUSH2 0x10B0 DUP7 CALLER PUSH2 0x9D2 JUMP JUMPDEST PUSH2 0x10CD JUMPI PUSH1 0x40 MLOAD PUSH4 0x2CE44B5F PUSH1 0xE1 SHL DUP2 MSTORE PUSH1 0x4 ADD PUSH1 0x40 MLOAD DUP1 SWAP2 SUB SWAP1 REVERT JUMPDEST PUSH1 0x1 PUSH1 0x1 PUSH1 0xA0 SHL SUB DUP6 AND PUSH2 0x10F4 JUMPI PUSH1 0x40 MLOAD PUSH4 0x3A954ECD PUSH1 0xE2 SHL DUP2 MSTORE PUSH1 0x4 ADD PUSH1 0x40 MLOAD DUP1 SWAP2 SUB SWAP1 REVERT JUMPDEST DUP1 ISZERO PUSH2 0x10FF JUMPI PUSH1 0x0 DUP3 SSTORE JUMPDEST PUSH1 0x1 PUSH1 0x1 PUSH1 0xA0 SHL SUB DUP7 DUP2 AND PUSH1 0x0 SWAP1 DUP2 MSTORE PUSH1 0x5 PUSH1 0x20 MSTORE PUSH1 0x40 DUP1 DUP3 KECCAK256 DUP1 SLOAD PUSH1 0x0 NOT ADD SWAP1 SSTORE SWAP2 DUP8 AND DUP1 DUP3 MSTORE SWAP2 SWAP1 KECCAK256 DUP1 SLOAD PUSH1 0x1 ADD SWAP1 SSTORE TIMESTAMP PUSH1 0xA0 SHL OR PUSH1 0x1 PUSH1 0xE1 SHL OR PUSH1 0x0 DUP6 DUP2 MSTORE PUSH1 0x4 PUSH1 0x20 MSTORE PUSH1 0x40 SWAP1 KECCAK256 SSTORE PUSH1 0x1 PUSH1 0xE1 SHL DUP4 AND PUSH2 0x118A JUMPI PUSH1 0x1 DUP5 ADD PUSH1 0x0 DUP2 DUP2 MSTORE PUSH1 0x4 PUSH1 0x20 MSTORE PUSH1 0x40 SWAP1 KECCAK256 SLOAD PUSH2 0x1188 JUMPI PUSH1 0x0 SLOAD DUP2 EQ PUSH2 0x1188 JUMPI PUSH1 0x0 DUP2 DUP2 MSTORE PUSH1 0x4 PUSH1 0x20 MSTORE PUSH1 0x40 SWAP1 KECCAK256 DUP5 SWAP1 SSTORE JUMPDEST POP JUMPDEST DUP4 DUP6 PUSH1 0x1 PUSH1 0x1 PUSH1 0xA0 SHL SUB AND DUP8 PUSH1 0x1 PUSH1 0x1 PUSH1 0xA0 SHL SUB AND PUSH32 0xDDF252AD1BE2C89B69C2B068FC378DAA952BA7F163C4A11628F55A4DF523B3EF PUSH1 0x40 MLOAD PUSH1 0x40 MLOAD DUP1 SWAP2 SUB SWAP1 LOG4 POP POP POP POP POP POP JUMP JUMPDEST PUSH2 0x11DB PUSH2 0x1C7D JUMP JUMPDEST PUSH1 0xD SSTORE JUMP JUMPDEST PUSH2 0x11FB DUP4 DUP4 DUP4 PUSH1 0x40 MLOAD DUP1 PUSH1 0x20 ADD PUSH1 0x40 MSTORE DUP1 PUSH1 0x0 DUP2 MSTORE POP PUSH2 0x1719 JUMP JUMPDEST POP POP POP JUMP JUMPDEST PUSH2 0x1208 PUSH2 0x1C7D JUMP JUMPDEST PUSH1 0x11 SSTORE JUMP JUMPDEST PUSH2 0x1215 PUSH2 0x1C7D JUMP JUMPDEST PUSH1 0xE SSTORE JUMP JUMPDEST PUSH2 0x1222 PUSH2 0x1C7D JUMP JUMPDEST DUP1 MLOAD PUSH2 0x1235 SWAP1 PUSH1 0xA SWAP1 PUSH1 0x20 DUP5 ADD SWAP1 PUSH2 0x2203 JUMP JUMPDEST POP POP JUMP JUMPDEST PUSH2 0x1241 PUSH2 0x1C7D JUMP JUMPDEST PUSH1 0x14 SSTORE JUMP JUMPDEST PUSH2 0x124E PUSH2 0x1C7D JUMP JUMPDEST PUSH1 0x12 SSTORE JUMP JUMPDEST PUSH1 0x0 PUSH2 0xAA2 DUP3 PUSH2 0x1D3C JUMP JUMPDEST PUSH2 0x1266 PUSH2 0x1C7D JUMP JUMPDEST PUSH1 0x15 DUP1 SLOAD SWAP2 ISZERO ISZERO PUSH1 0x1 PUSH1 0xC0 SHL MUL PUSH1 0xFF PUSH1 0xC0 SHL NOT SWAP1 SWAP3 AND SWAP2 SWAP1 SWAP2 OR SWAP1 SSTORE JUMP JUMPDEST PUSH1 0xA DUP1 SLOAD PUSH2 0xBB1 SWAP1 PUSH2 0x28DB JUMP JUMPDEST PUSH1 0x0 PUSH1 0x1 PUSH1 0x1 PUSH1 0xA0 SHL SUB DUP3 AND PUSH2 0x12BA JUMPI PUSH1 0x40 MLOAD PUSH4 0x23D3AD81 PUSH1 0xE2 SHL DUP2 MSTORE PUSH1 0x4 ADD PUSH1 0x40 MLOAD DUP1 SWAP2 SUB SWAP1 REVERT JUMPDEST POP PUSH1 0x1 PUSH1 0x1 PUSH1 0xA0 SHL SUB AND PUSH1 0x0 SWAP1 DUP2 MSTORE PUSH1 0x5 PUSH1 0x20 MSTORE PUSH1 0x40 SWAP1 KECCAK256 SLOAD PUSH8 0xFFFFFFFFFFFFFFFF AND SWAP1 JUMP JUMPDEST PUSH2 0x12E8 PUSH2 0x1C7D JUMP JUMPDEST PUSH2 0x12F2 PUSH1 0x0 PUSH2 0x1DA5 JUMP JUMPDEST JUMP JUMPDEST PUSH2 0x12FC PUSH2 0x1C7D JUMP JUMPDEST PUSH1 0x10 SSTORE JUMP JUMPDEST PUSH2 0x1309 PUSH2 0x1C7D JUMP JUMPDEST PUSH1 0x16 SSTORE JUMP JUMPDEST PUSH2 0x1316 PUSH2 0x1C7D JUMP JUMPDEST PUSH1 0x2 PUSH1 0x9 SLOAD EQ ISZERO PUSH2 0x1339 JUMPI PUSH1 0x40 MLOAD PUSH3 0x461BCD PUSH1 0xE5 SHL DUP2 MSTORE PUSH1 0x4 ADD PUSH2 0xD1D SWAP1 PUSH2 0x27DF JUMP JUMPDEST PUSH1 0x2 PUSH1 0x9 SSTORE DUP2 PUSH2 0x135B JUMPI PUSH1 0x40 MLOAD PUSH3 0x461BCD PUSH1 0xE5 SHL DUP2 MSTORE PUSH1 0x4 ADD PUSH2 0xD1D SWAP1 PUSH2 0x2816 JUMP JUMPDEST PUSH1 0x0 PUSH2 0x1365 PUSH2 0xCEC JUMP JUMPDEST PUSH1 0xF SLOAD SWAP1 SWAP2 POP PUSH2 0x1375 DUP5 DUP4 PUSH2 0x284D JUMP JUMPDEST GT ISZERO PUSH2 0x13BC JUMPI PUSH1 0x40 MLOAD PUSH3 0x461BCD PUSH1 0xE5 SHL DUP2 MSTORE PUSH1 0x20 PUSH1 0x4 DUP3 ADD MSTORE PUSH1 0x16 PUSH1 0x24 DUP3 ADD MSTORE PUSH22 0x1B585E08139195081B1A5B5A5D08195E18D959591959 PUSH1 0x52 SHL PUSH1 0x44 DUP3 ADD MSTORE PUSH1 0x64 ADD PUSH2 0xD1D JUMP JUMPDEST PUSH2 0x13C6 DUP3 DUP5 PUSH2 0x1D22 JUMP JUMPDEST POP POP PUSH1 0x1 PUSH1 0x9 SSTORE POP JUMP JUMPDEST PUSH2 0x13D8 PUSH2 0x1C7D JUMP JUMPDEST PUSH1 0x15 DUP1 SLOAD SWAP2 ISZERO ISZERO PUSH1 0x1 PUSH1 0xA8 SHL MUL PUSH1 0xFF PUSH1 0xA8 SHL NOT SWAP1 SWAP3 AND SWAP2 SWAP1 SWAP2 OR SWAP1 SSTORE JUMP JUMPDEST PUSH1 0x60 PUSH1 0x3 DUP1 SLOAD PUSH2 0xADD SWAP1 PUSH2 0x28DB JUMP JUMPDEST PUSH2 0x140D PUSH2 0x1C7D JUMP JUMPDEST PUSH1 0x15 DUP1 SLOAD SWAP2 ISZERO ISZERO PUSH1 0x1 PUSH1 0xB8 SHL MUL PUSH1 0xFF PUSH1 0xB8 SHL NOT SWAP1 SWAP3 AND SWAP2 SWAP1 SWAP2 OR SWAP1 SSTORE JUMP JUMPDEST PUSH1 0x2 PUSH1 0x9 SLOAD EQ ISZERO PUSH2 0x144E JUMPI PUSH1 0x40 MLOAD PUSH3 0x461BCD PUSH1 0xE5 SHL DUP2 MSTORE PUSH1 0x4 ADD PUSH2 0xD1D SWAP1 PUSH2 0x27DF JUMP JUMPDEST PUSH1 0x2 PUSH1 0x9 SSTORE PUSH1 0x15 SLOAD PUSH1 0x1 PUSH1 0xA0 SHL SWAP1 DIV PUSH1 0xFF AND ISZERO PUSH2 0x147D JUMPI PUSH1 0x40 MLOAD PUSH3 0x461BCD PUSH1 0xE5 SHL DUP2 MSTORE PUSH1 0x4 ADD PUSH2 0xD1D SWAP1 PUSH2 0x2771 JUMP JUMPDEST PUSH1 0x15 SLOAD PUSH1 0x1 PUSH1 0xB8 SHL SWAP1 DIV PUSH1 0xFF AND PUSH2 0x14D6 JUMPI PUSH1 0x40 MLOAD PUSH3 0x461BCD PUSH1 0xE5 SHL DUP2 MSTORE PUSH1 0x20 PUSH1 0x4 DUP3 ADD MSTORE PUSH1 0x17 PUSH1 0x24 DUP3 ADD MSTORE PUSH32 0x53616C65204861736E2774207374617274656420796574000000000000000000 PUSH1 0x44 DUP3 ADD MSTORE PUSH1 0x64 ADD PUSH2 0xD1D JUMP JUMPDEST PUSH1 0x0 PUSH2 0x14E0 PUSH2 0xCEC JUMP JUMPDEST SWAP1 POP PUSH1 0x0 DUP3 GT PUSH2 0x1502 JUMPI PUSH1 0x40 MLOAD PUSH3 0x461BCD PUSH1 0xE5 SHL DUP2 MSTORE PUSH1 0x4 ADD PUSH2 0xD1D SWAP1 PUSH2 0x2816 JUMP JUMPDEST PUSH1 0x12 SLOAD DUP3 GT ISZERO PUSH2 0x1554 JUMPI PUSH1 0x40 MLOAD PUSH3 0x461BCD PUSH1 0xE5 SHL DUP2 MSTORE PUSH1 0x20 PUSH1 0x4 DUP3 ADD MSTORE PUSH1 0x1F PUSH1 0x24 DUP3 ADD MSTORE PUSH32 0x6D6178206D696E7420616D6F756E742070657220747820657863656564656400 PUSH1 0x44 DUP3 ADD MSTORE PUSH1 0x64 ADD PUSH2 0xD1D JUMP JUMPDEST PUSH1 0xF SLOAD PUSH2 0x1561 DUP4 DUP4 PUSH2 0x284D JUMP JUMPDEST GT ISZERO PUSH2 0x157F JUMPI PUSH1 0x40 MLOAD PUSH3 0x461BCD PUSH1 0xE5 SHL DUP2 MSTORE PUSH1 0x4 ADD PUSH2 0xD1D SWAP1 PUSH2 0x274D JUMP JUMPDEST PUSH1 0x11 SLOAD DUP3 PUSH2 0x158C CALLER PUSH2 0xE89 JUMP JUMPDEST PUSH2 0x1596 SWAP2 SWAP1 PUSH2 0x284D JUMP JUMPDEST GT ISZERO PUSH2 0x15B4 JUMPI PUSH1 0x40 MLOAD PUSH3 0x461BCD PUSH1 0xE5 SHL DUP2 MSTORE PUSH1 0x4 ADD PUSH2 0xD1D SWAP1 PUSH2 0x27A8 JUMP JUMPDEST PUSH1 0x15 SLOAD PUSH1 0xD SLOAD PUSH1 0x1 PUSH1 0x1 PUSH1 0xA0 SHL SUB SWAP1 SWAP2 AND SWAP1 PUSH4 0x23B872DD SWAP1 CALLER SWAP1 ADDRESS SWAP1 PUSH2 0x15DA SWAP1 DUP8 PUSH2 0x2879 JUMP JUMPDEST PUSH2 0x15EC SWAP1 PUSH8 0xDE0B6B3A7640000 PUSH2 0x2879 JUMP JUMPDEST PUSH1 0x40 MLOAD PUSH1 0x1 PUSH1 0x1 PUSH1 0xE0 SHL SUB NOT PUSH1 0xE0 DUP7 SWAP1 SHL AND DUP2 MSTORE PUSH1 0x1 PUSH1 0x1 PUSH1 0xA0 SHL SUB SWAP4 DUP5 AND PUSH1 0x4 DUP3 ADD MSTORE SWAP3 SWAP1 SWAP2 AND PUSH1 0x24 DUP4 ADD MSTORE PUSH1 0x44 DUP3 ADD MSTORE PUSH1 0x64 ADD PUSH1 0x20 PUSH1 0x40 MLOAD DUP1 DUP4 SUB DUP2 PUSH1 0x0 DUP8 DUP1 EXTCODESIZE ISZERO DUP1 ISZERO PUSH2 0x163B JUMPI PUSH1 0x0 DUP1 REVERT JUMPDEST POP GAS CALL ISZERO DUP1 ISZERO PUSH2 0x164F JUMPI RETURNDATASIZE PUSH1 0x0 DUP1 RETURNDATACOPY RETURNDATASIZE PUSH1 0x0 REVERT JUMPDEST POP POP POP POP PUSH1 0x40 MLOAD RETURNDATASIZE PUSH1 0x1F NOT PUSH1 0x1F DUP3 ADD AND DUP3 ADD DUP1 PUSH1 0x40 MSTORE POP DUP2 ADD SWAP1 PUSH2 0x1673 SWAP2 SWAP1 PUSH2 0x24A9 JUMP JUMPDEST POP PUSH2 0x167E CALLER DUP4 PUSH2 0x1D22 JUMP JUMPDEST POP POP PUSH1 0x1 PUSH1 0x9 SSTORE JUMP JUMPDEST CALLER PUSH1 0x0 DUP2 DUP2 MSTORE PUSH1 0x7 PUSH1 0x20 SWAP1 DUP2 MSTORE PUSH1 0x40 DUP1 DUP4 KECCAK256 PUSH1 0x1 PUSH1 0x1 PUSH1 0xA0 SHL SUB DUP8 AND DUP1 DUP6 MSTORE SWAP1 DUP4 MSTORE SWAP3 DUP2 SWAP1 KECCAK256 DUP1 SLOAD PUSH1 0xFF NOT AND DUP7 ISZERO ISZERO SWAP1 DUP2 OR SWAP1 SWAP2 SSTORE SWAP1 MLOAD SWAP1 DUP2 MSTORE SWAP2 SWAP3 SWAP2 PUSH32 0x17307EAB39AB6107E8899845AD3D59BD9653F200F220920489CA2B5937696C31 SWAP2 ADD PUSH1 0x40 MLOAD DUP1 SWAP2 SUB SWAP1 LOG3 POP POP JUMP JUMPDEST PUSH2 0x16FB PUSH2 0x1C7D JUMP JUMPDEST PUSH1 0x15 DUP1 SLOAD SWAP2 ISZERO ISZERO PUSH1 0x1 PUSH1 0xB0 SHL MUL PUSH1 0xFF PUSH1 0xB0 SHL NOT SWAP1 SWAP3 AND SWAP2 SWAP1 SWAP2 OR SWAP1 SSTORE JUMP JUMPDEST PUSH2 0x1724 DUP5 DUP5 DUP5 PUSH2 0x1042 JUMP JUMPDEST PUSH1 0x1 PUSH1 0x1 PUSH1 0xA0 SHL SUB DUP4 AND EXTCODESIZE ISZERO PUSH2 0x175D JUMPI PUSH2 0x1740 DUP5 DUP5 DUP5 DUP5 PUSH2 0x1DF7 JUMP JUMPDEST PUSH2 0x175D JUMPI PUSH1 0x40 MLOAD PUSH4 0x68D2BF6B PUSH1 0xE1 SHL DUP2 MSTORE PUSH1 0x4 ADD PUSH1 0x40 MLOAD DUP1 SWAP2 SUB SWAP1 REVERT JUMPDEST POP POP POP POP JUMP JUMPDEST PUSH1 0xB DUP1 SLOAD PUSH2 0xBB1 SWAP1 PUSH2 0x28DB JUMP JUMPDEST PUSH1 0x60 PUSH2 0x177B DUP3 PUSH2 0x1CD7 JUMP JUMPDEST PUSH2 0x17E0 JUMPI PUSH1 0x40 MLOAD PUSH3 0x461BCD PUSH1 0xE5 SHL DUP2 MSTORE PUSH1 0x20 PUSH1 0x4 DUP3 ADD MSTORE PUSH1 0x30 PUSH1 0x24 DUP3 ADD MSTORE PUSH32 0x455243373231414D657461646174613A2055524920717565727920666F72206E PUSH1 0x44 DUP3 ADD MSTORE PUSH16 0x37B732BC34B9BA32B73A103A37B5B2B7 PUSH1 0x81 SHL PUSH1 0x64 DUP3 ADD MSTORE PUSH1 0x84 ADD PUSH2 0xD1D JUMP JUMPDEST PUSH1 0x15 SLOAD PUSH1 0x1 PUSH1 0xA8 SHL SWAP1 DIV PUSH1 0xFF AND PUSH2 0x1883 JUMPI PUSH1 0xC DUP1 SLOAD PUSH2 0x17FE SWAP1 PUSH2 0x28DB JUMP JUMPDEST DUP1 PUSH1 0x1F ADD PUSH1 0x20 DUP1 SWAP2 DIV MUL PUSH1 0x20 ADD PUSH1 0x40 MLOAD SWAP1 DUP2 ADD PUSH1 0x40 MSTORE DUP1 SWAP3 SWAP2 SWAP1 DUP2 DUP2 MSTORE PUSH1 0x20 ADD DUP3 DUP1 SLOAD PUSH2 0x182A SWAP1 PUSH2 0x28DB JUMP JUMPDEST DUP1 ISZERO PUSH2 0x1877 JUMPI DUP1 PUSH1 0x1F LT PUSH2 0x184C JUMPI PUSH2 0x100 DUP1 DUP4 SLOAD DIV MUL DUP4 MSTORE SWAP2 PUSH1 0x20 ADD SWAP2 PUSH2 0x1877 JUMP JUMPDEST DUP3 ADD SWAP2 SWAP1 PUSH1 0x0 MSTORE PUSH1 0x20 PUSH1 0x0 KECCAK256 SWAP1 JUMPDEST DUP2 SLOAD DUP2 MSTORE SWAP1 PUSH1 0x1 ADD SWAP1 PUSH1 0x20 ADD DUP1 DUP4 GT PUSH2 0x185A JUMPI DUP3 SWAP1 SUB PUSH1 0x1F AND DUP3 ADD SWAP2 JUMPDEST POP POP POP POP POP SWAP1 POP SWAP2 SWAP1 POP JUMP JUMPDEST PUSH1 0x0 PUSH2 0x188D PUSH2 0x1EEF JUMP JUMPDEST SWAP1 POP PUSH1 0x0 DUP2 MLOAD GT PUSH2 0x18AD JUMPI PUSH1 0x40 MLOAD DUP1 PUSH1 0x20 ADD PUSH1 0x40 MSTORE DUP1 PUSH1 0x0 DUP2 MSTORE POP PUSH2 0x18DB JUMP JUMPDEST DUP1 PUSH2 0x18B7 DUP5 PUSH2 0x1EFE JUMP JUMPDEST PUSH1 0xB PUSH1 0x40 MLOAD PUSH1 0x20 ADD PUSH2 0x18CB SWAP4 SWAP3 SWAP2 SWAP1 PUSH2 0x263B JUMP JUMPDEST PUSH1 0x40 MLOAD PUSH1 0x20 DUP2 DUP4 SUB SUB DUP2 MSTORE SWAP1 PUSH1 0x40 MSTORE JUMPDEST SWAP4 SWAP3 POP POP POP JUMP JUMPDEST PUSH2 0x18EA PUSH2 0x1C7D JUMP JUMPDEST PUSH1 0x15 SLOAD PUSH1 0x40 MLOAD PUSH4 0x70A08231 PUSH1 0xE0 SHL DUP2 MSTORE ADDRESS PUSH1 0x4 DUP3 ADD MSTORE PUSH1 0x1 PUSH1 0x1 PUSH1 0xA0 SHL SUB SWAP1 SWAP2 AND SWAP1 PUSH4 0xA9059CBB SWAP1 CALLER SWAP1 DUP4 SWAP1 PUSH4 0x70A08231 SWAP1 PUSH1 0x24 ADD PUSH1 0x20 PUSH1 0x40 MLOAD DUP1 DUP4 SUB DUP2 DUP7 DUP1 EXTCODESIZE ISZERO DUP1 ISZERO PUSH2 0x1937 JUMPI PUSH1 0x0 DUP1 REVERT JUMPDEST POP GAS STATICCALL ISZERO DUP1 ISZERO PUSH2 0x194B JUMPI RETURNDATASIZE PUSH1 0x0 DUP1 RETURNDATACOPY RETURNDATASIZE PUSH1 0x0 REVERT JUMPDEST POP POP POP POP PUSH1 0x40 MLOAD RETURNDATASIZE PUSH1 0x1F NOT PUSH1 0x1F DUP3 ADD AND DUP3 ADD DUP1 PUSH1 0x40 MSTORE POP DUP2 ADD SWAP1 PUSH2 0x196F SWAP2 SWAP1 PUSH2 0x255B JUMP JUMPDEST PUSH1 0x40 MLOAD PUSH1 0x1 PUSH1 0x1 PUSH1 0xE0 SHL SUB NOT PUSH1 0xE0 DUP6 SWAP1 SHL AND DUP2 MSTORE PUSH1 0x1 PUSH1 0x1 PUSH1 0xA0 SHL SUB SWAP1 SWAP3 AND PUSH1 0x4 DUP4 ADD MSTORE PUSH1 0x24 DUP3 ADD MSTORE PUSH1 0x44 ADD PUSH1 0x20 PUSH1 0x40 MLOAD DUP1 DUP4 SUB DUP2 PUSH1 0x0 DUP8 DUP1 EXTCODESIZE ISZERO DUP1 ISZERO PUSH2 0x19B5 JUMPI PUSH1 0x0 DUP1 REVERT JUMPDEST POP GAS CALL ISZERO DUP1 ISZERO PUSH2 0x19C9 JUMPI RETURNDATASIZE PUSH1 0x0 DUP1 RETURNDATACOPY RETURNDATASIZE PUSH1 0x0 REVERT JUMPDEST POP POP POP POP PUSH1 0x40 MLOAD RETURNDATASIZE PUSH1 0x1F NOT PUSH1 0x1F DUP3 ADD AND DUP3 ADD DUP1 PUSH1 0x40 MSTORE POP DUP2 ADD SWAP1 PUSH2 0x19ED SWAP2 SWAP1 PUSH2 0x24A9 JUMP JUMPDEST POP JUMP JUMPDEST PUSH1 0x2 PUSH1 0x9 SLOAD EQ ISZERO PUSH2 0x1A13 JUMPI PUSH1 0x40 MLOAD PUSH3 0x461BCD PUSH1 0xE5 SHL DUP2 MSTORE PUSH1 0x4 ADD PUSH2 0xD1D SWAP1 PUSH2 0x27DF JUMP JUMPDEST PUSH1 0x2 PUSH1 0x9 SSTORE PUSH1 0x15 SLOAD PUSH1 0x1 PUSH1 0xA0 SHL SWAP1 DIV PUSH1 0xFF AND ISZERO PUSH2 0x1A42 JUMPI PUSH1 0x40 MLOAD PUSH3 0x461BCD PUSH1 0xE5 SHL DUP2 MSTORE PUSH1 0x4 ADD PUSH2 0xD1D SWAP1 PUSH2 0x2771 JUMP JUMPDEST PUSH1 0x15 SLOAD PUSH1 0x1 PUSH1 0xC0 SHL SWAP1 DIV PUSH1 0xFF AND PUSH2 0x1A9B JUMPI PUSH1 0x40 MLOAD PUSH3 0x461BCD PUSH1 0xE5 SHL DUP2 MSTORE PUSH1 0x20 PUSH1 0x4 DUP3 ADD MSTORE PUSH1 0x19 PUSH1 0x24 DUP3 ADD MSTORE PUSH32 0x416964726F70204861736E277420737461727465642079657400000000000000 PUSH1 0x44 DUP3 ADD MSTORE PUSH1 0x64 ADD PUSH2 0xD1D JUMP JUMPDEST PUSH1 0x0 PUSH2 0x1AA5 PUSH2 0xCEC JUMP JUMPDEST SWAP1 POP PUSH1 0x0 DUP3 GT PUSH2 0x1AC7 JUMPI PUSH1 0x40 MLOAD PUSH3 0x461BCD PUSH1 0xE5 SHL DUP2 MSTORE PUSH1 0x4 ADD PUSH2 0xD1D SWAP1 PUSH2 0x2816 JUMP JUMPDEST PUSH1 0x13 SLOAD DUP3 GT ISZERO PUSH2 0x1B19 JUMPI PUSH1 0x40 MLOAD PUSH3 0x461BCD PUSH1 0xE5 SHL DUP2 MSTORE PUSH1 0x20 PUSH1 0x4 DUP3 ADD MSTORE PUSH1 0x1F PUSH1 0x24 DUP3 ADD MSTORE PUSH32 0x6D6178206D696E7420616D6F756E742070657220747820657863656564656400 PUSH1 0x44 DUP3 ADD MSTORE PUSH1 0x64 ADD PUSH2 0xD1D JUMP JUMPDEST PUSH1 0x13 SLOAD DUP3 PUSH2 0x1B26 CALLER PUSH2 0xE89 JUMP JUMPDEST PUSH2 0x1B30 SWAP2 SWAP1 PUSH2 0x284D JUMP JUMPDEST GT ISZERO PUSH2 0x1B4E JUMPI PUSH1 0x40 MLOAD PUSH3 0x461BCD PUSH1 0xE5 SHL DUP2 MSTORE PUSH1 0x4 ADD PUSH2 0xD1D SWAP1 PUSH2 0x27A8 JUMP JUMPDEST PUSH1 0xF SLOAD PUSH2 0x1B5B DUP4 DUP4 PUSH2 0x284D JUMP JUMPDEST GT ISZERO PUSH2 0x1B79 JUMPI PUSH1 0x40 MLOAD PUSH3 0x461BCD PUSH1 0xE5 SHL DUP2 MSTORE PUSH1 0x4 ADD PUSH2 0xD1D SWAP1 PUSH2 0x274D JUMP JUMPDEST PUSH1 0x14 SLOAD PUSH2 0x1B86 DUP4 DUP4 PUSH2 0x284D JUMP JUMPDEST GT ISZERO PUSH2 0x15B4 JUMPI PUSH1 0x40 MLOAD PUSH3 0x461BCD PUSH1 0xE5 SHL DUP2 MSTORE PUSH1 0x20 PUSH1 0x4 DUP3 ADD MSTORE PUSH1 0xF PUSH1 0x24 DUP3 ADD MSTORE PUSH15 0x105A5C991C9BDC081A185CC8195B99 PUSH1 0x8A SHL PUSH1 0x44 DUP3 ADD MSTORE PUSH1 0x64 ADD PUSH2 0xD1D JUMP JUMPDEST PUSH2 0x1BCE PUSH2 0x1C7D JUMP JUMPDEST DUP1 MLOAD PUSH2 0x1235 SWAP1 PUSH1 0xB SWAP1 PUSH1 0x20 DUP5 ADD SWAP1 PUSH2 0x2203 JUMP JUMPDEST PUSH1 0x0 PUSH2 0xAA2 DUP3 PUSH2 0xE89 JUMP JUMPDEST PUSH2 0x1BF4 PUSH2 0x1C7D JUMP JUMPDEST DUP1 MLOAD PUSH2 0x1235 SWAP1 PUSH1 0xC SWAP1 PUSH1 0x20 DUP5 ADD SWAP1 PUSH2 0x2203 JUMP JUMPDEST PUSH2 0x1C0F PUSH2 0x1C7D JUMP JUMPDEST PUSH1 0x1 PUSH1 0x1 PUSH1 0xA0 SHL SUB DUP2 AND PUSH2 0x1C74 JUMPI PUSH1 0x40 MLOAD PUSH3 0x461BCD PUSH1 0xE5 SHL DUP2 MSTORE PUSH1 0x20 PUSH1 0x4 DUP3 ADD MSTORE PUSH1 0x26 PUSH1 0x24 DUP3 ADD MSTORE PUSH32 0x4F776E61626C653A206E6577206F776E657220697320746865207A65726F2061 PUSH1 0x44 DUP3 ADD MSTORE PUSH6 0x646472657373 PUSH1 0xD0 SHL PUSH1 0x64 DUP3 ADD MSTORE PUSH1 0x84 ADD PUSH2 0xD1D JUMP JUMPDEST PUSH2 0x19ED DUP2 PUSH2 0x1DA5 JUMP JUMPDEST PUSH1 0x8 SLOAD PUSH1 0x1 PUSH1 0x1 PUSH1 0xA0 SHL SUB AND CALLER EQ PUSH2 0x12F2 JUMPI PUSH1 0x40 MLOAD PUSH3 0x461BCD PUSH1 0xE5 SHL DUP2 MSTORE PUSH1 0x20 PUSH1 0x4 DUP3 ADD DUP2 SWAP1 MSTORE PUSH1 0x24 DUP3 ADD MSTORE PUSH32 0x4F776E61626C653A2063616C6C6572206973206E6F7420746865206F776E6572 PUSH1 0x44 DUP3 ADD MSTORE PUSH1 0x64 ADD PUSH2 0xD1D JUMP JUMPDEST PUSH1 0x0 DUP2 PUSH1 0x1 GT ISZERO DUP1 ISZERO PUSH2 0x1CEB JUMPI POP PUSH1 0x0 SLOAD DUP3 LT JUMPDEST DUP1 ISZERO PUSH2 0xAA2 JUMPI POP POP PUSH1 0x0 SWAP1 DUP2 MSTORE PUSH1 0x4 PUSH1 0x20 MSTORE PUSH1 0x40 SWAP1 KECCAK256 SLOAD PUSH1 0x1 PUSH1 0xE0 SHL AND ISZERO SWAP1 JUMP JUMPDEST PUSH1 0x0 DUP3 PUSH2 0x1D19 DUP6 DUP5 PUSH2 0x2018 JUMP JUMPDEST EQ SWAP5 SWAP4 POP POP POP POP JUMP JUMPDEST PUSH2 0x1235 DUP3 DUP3 PUSH1 0x40 MLOAD DUP1 PUSH1 0x20 ADD PUSH1 0x40 MSTORE DUP1 PUSH1 0x0 DUP2 MSTORE POP PUSH2 0x2073 JUMP JUMPDEST PUSH1 0x0 DUP2 DUP1 PUSH1 0x1 GT PUSH2 0x1D8C JUMPI PUSH1 0x0 SLOAD DUP2 LT ISZERO PUSH2 0x1D8C JUMPI PUSH1 0x0 DUP2 DUP2 MSTORE PUSH1 0x4 PUSH1 0x20 MSTORE PUSH1 0x40 SWAP1 KECCAK256 SLOAD PUSH1 0x1 PUSH1 0xE0 SHL DUP2 AND PUSH2 0x1D8A JUMPI JUMPDEST DUP1 PUSH2 0x18DB JUMPI POP PUSH1 0x0 NOT ADD PUSH1 0x0 DUP2 DUP2 MSTORE PUSH1 0x4 PUSH1 0x20 MSTORE PUSH1 0x40 SWAP1 KECCAK256 SLOAD PUSH2 0x1D6C JUMP JUMPDEST POP JUMPDEST PUSH1 0x40 MLOAD PUSH4 0x6F96CDA1 PUSH1 0xE1 SHL DUP2 MSTORE PUSH1 0x4 ADD PUSH1 0x40 MLOAD DUP1 SWAP2 SUB SWAP1 REVERT JUMPDEST PUSH1 0x8 DUP1 SLOAD PUSH1 0x1 PUSH1 0x1 PUSH1 0xA0 SHL SUB DUP4 DUP2 AND PUSH1 0x1 PUSH1 0x1 PUSH1 0xA0 SHL SUB NOT DUP4 AND DUP2 OR SWAP1 SWAP4 SSTORE PUSH1 0x40 MLOAD SWAP2 AND SWAP2 SWAP1 DUP3 SWAP1 PUSH32 0x8BE0079C531659141344CD1FD0A4F28419497F9722A3DAAFE3B4186F6B6457E0 SWAP1 PUSH1 0x0 SWAP1 LOG3 POP POP JUMP JUMPDEST PUSH1 0x40 MLOAD PUSH4 0xA85BD01 PUSH1 0xE1 SHL DUP2 MSTORE PUSH1 0x0 SWAP1 PUSH1 0x1 PUSH1 0x1 PUSH1 0xA0 SHL SUB DUP6 AND SWAP1 PUSH4 0x150B7A02 SWAP1 PUSH2 0x1E2C SWAP1 CALLER SWAP1 DUP10 SWAP1 DUP9 SWAP1 DUP9 SWAP1 PUSH1 0x4 ADD PUSH2 0x26FD JUMP JUMPDEST PUSH1 0x20 PUSH1 0x40 MLOAD DUP1 DUP4 SUB DUP2 PUSH1 0x0 DUP8 DUP1 EXTCODESIZE ISZERO DUP1 ISZERO PUSH2 0x1E46 JUMPI PUSH1 0x0 DUP1 REVERT JUMPDEST POP GAS CALL SWAP3 POP POP POP DUP1 ISZERO PUSH2 0x1E76 JUMPI POP PUSH1 0x40 DUP1 MLOAD PUSH1 0x1F RETURNDATASIZE SWAP1 DUP2 ADD PUSH1 0x1F NOT AND DUP3 ADD SWAP1 SWAP3 MSTORE PUSH2 0x1E73 SWAP2 DUP2 ADD SWAP1 PUSH2 0x24F9 JUMP JUMPDEST PUSH1 0x1 JUMPDEST PUSH2 0x1ED1 JUMPI RETURNDATASIZE DUP1 DUP1 ISZERO PUSH2 0x1EA4 JUMPI PUSH1 0x40 MLOAD SWAP2 POP PUSH1 0x1F NOT PUSH1 0x3F RETURNDATASIZE ADD AND DUP3 ADD PUSH1 0x40 MSTORE RETURNDATASIZE DUP3 MSTORE RETURNDATASIZE PUSH1 0x0 PUSH1 0x20 DUP5 ADD RETURNDATACOPY PUSH2 0x1EA9 JUMP JUMPDEST PUSH1 0x60 SWAP2 POP JUMPDEST POP DUP1 MLOAD PUSH2 0x1EC9 JUMPI PUSH1 0x40 MLOAD PUSH4 0x68D2BF6B PUSH1 0xE1 SHL DUP2 MSTORE PUSH1 0x4 ADD PUSH1 0x40 MLOAD DUP1 SWAP2 SUB SWAP1 REVERT JUMPDEST DUP1 MLOAD DUP2 PUSH1 0x20 ADD REVERT JUMPDEST PUSH1 0x1 PUSH1 0x1 PUSH1 0xE0 SHL SUB NOT AND PUSH4 0xA85BD01 PUSH1 0xE1 SHL EQ SWAP1 POP JUMPDEST SWAP5 SWAP4 POP POP POP POP JUMP JUMPDEST PUSH1 0x60 PUSH1 0xA DUP1 SLOAD PUSH2 0xADD SWAP1 PUSH2 0x28DB JUMP JUMPDEST PUSH1 0x60 DUP2 PUSH2 0x1F22 JUMPI POP POP PUSH1 0x40 DUP1 MLOAD DUP1 DUP3 ADD SWAP1 SWAP2 MSTORE PUSH1 0x1 DUP2 MSTORE PUSH1 0x3 PUSH1 0xFC SHL PUSH1 0x20 DUP3 ADD MSTORE SWAP1 JUMP JUMPDEST DUP2 PUSH1 0x0 JUMPDEST DUP2 ISZERO PUSH2 0x1F4C JUMPI DUP1 PUSH2 0x1F36 DUP2 PUSH2 0x2916 JUMP JUMPDEST SWAP2 POP PUSH2 0x1F45 SWAP1 POP PUSH1 0xA DUP4 PUSH2 0x2865 JUMP JUMPDEST SWAP2 POP PUSH2 0x1F26 JUMP JUMPDEST PUSH1 0x0 DUP2 PUSH8 0xFFFFFFFFFFFFFFFF DUP2 GT ISZERO PUSH2 0x1F75 JUMPI PUSH4 0x4E487B71 PUSH1 0xE0 SHL PUSH1 0x0 MSTORE PUSH1 0x41 PUSH1 0x4 MSTORE PUSH1 0x24 PUSH1 0x0 REVERT JUMPDEST PUSH1 0x40 MLOAD SWAP1 DUP1 DUP3 MSTORE DUP1 PUSH1 0x1F ADD PUSH1 0x1F NOT AND PUSH1 0x20 ADD DUP3 ADD PUSH1 0x40 MSTORE DUP1 ISZERO PUSH2 0x1F9F JUMPI PUSH1 0x20 DUP3 ADD DUP2 DUP1 CALLDATASIZE DUP4 CALLDATACOPY ADD SWAP1 POP JUMPDEST POP SWAP1 POP JUMPDEST DUP5 ISZERO PUSH2 0x1EE7 JUMPI PUSH2 0x1FB4 PUSH1 0x1 DUP4 PUSH2 0x2898 JUMP JUMPDEST SWAP2 POP PUSH2 0x1FC1 PUSH1 0xA DUP7 PUSH2 0x2931 JUMP JUMPDEST PUSH2 0x1FCC SWAP1 PUSH1 0x30 PUSH2 0x284D JUMP JUMPDEST PUSH1 0xF8 SHL DUP2 DUP4 DUP2 MLOAD DUP2 LT PUSH2 0x1FEF JUMPI PUSH4 0x4E487B71 PUSH1 0xE0 SHL PUSH1 0x0 MSTORE PUSH1 0x32 PUSH1 0x4 MSTORE PUSH1 0x24 PUSH1 0x0 REVERT JUMPDEST PUSH1 0x20 ADD ADD SWAP1 PUSH1 0x1 PUSH1 0x1 PUSH1 0xF8 SHL SUB NOT AND SWAP1 DUP2 PUSH1 0x0 BYTE SWAP1 MSTORE8 POP PUSH2 0x2011 PUSH1 0xA DUP7 PUSH2 0x2865 JUMP JUMPDEST SWAP5 POP PUSH2 0x1FA3 JUMP JUMPDEST PUSH1 0x0 DUP2 DUP2 JUMPDEST DUP5 MLOAD DUP2 LT ISZERO PUSH2 0x206B JUMPI PUSH2 0x2057 DUP3 DUP7 DUP4 DUP2 MLOAD DUP2 LT PUSH2 0x204A JUMPI PUSH4 0x4E487B71 PUSH1 0xE0 SHL PUSH1 0x0 MSTORE PUSH1 0x32 PUSH1 0x4 MSTORE PUSH1 0x24 PUSH1 0x0 REVERT JUMPDEST PUSH1 0x20 MUL PUSH1 0x20 ADD ADD MLOAD PUSH2 0x20E0 JUMP JUMPDEST SWAP2 POP DUP1 PUSH2 0x2063 DUP2 PUSH2 0x2916 JUMP JUMPDEST SWAP2 POP POP PUSH2 0x201D JUMP JUMPDEST POP SWAP4 SWAP3 POP POP POP JUMP JUMPDEST PUSH2 0x207D DUP4 DUP4 PUSH2 0x210C JUMP JUMPDEST PUSH1 0x1 PUSH1 0x1 PUSH1 0xA0 SHL SUB DUP4 AND EXTCODESIZE ISZERO PUSH2 0x11FB JUMPI PUSH1 0x0 SLOAD DUP3 DUP2 SUB JUMPDEST PUSH2 0x20A7 PUSH1 0x0 DUP7 DUP4 DUP1 PUSH1 0x1 ADD SWAP5 POP DUP7 PUSH2 0x1DF7 JUMP JUMPDEST PUSH2 0x20C4 JUMPI PUSH1 0x40 MLOAD PUSH4 0x68D2BF6B PUSH1 0xE1 SHL DUP2 MSTORE PUSH1 0x4 ADD PUSH1 0x40 MLOAD DUP1 SWAP2 SUB SWAP1 REVERT JUMPDEST DUP2 DUP2 LT PUSH2 0x2094 JUMPI DUP2 PUSH1 0x0 SLOAD EQ PUSH2 0x20D9 JUMPI PUSH1 0x0 DUP1 REVERT JUMPDEST POP POP POP POP POP JUMP JUMPDEST PUSH1 0x0 DUP2 DUP4 LT PUSH2 0x20FC JUMPI PUSH1 0x0 DUP3 DUP2 MSTORE PUSH1 0x20 DUP5 SWAP1 MSTORE PUSH1 0x40 SWAP1 KECCAK256 PUSH2 0x18DB JUMP JUMPDEST POP PUSH1 0x0 SWAP2 DUP3 MSTORE PUSH1 0x20 MSTORE PUSH1 0x40 SWAP1 KECCAK256 SWAP1 JUMP JUMPDEST PUSH1 0x0 SLOAD DUP2 PUSH2 0x212D JUMPI PUSH1 0x40 MLOAD PUSH4 0xB562E8DD PUSH1 0xE0 SHL DUP2 MSTORE PUSH1 0x4 ADD PUSH1 0x40 MLOAD DUP1 SWAP2 SUB SWAP1 REVERT JUMPDEST PUSH1 0x1 PUSH1 0x1 PUSH1 0xA0 SHL SUB DUP4 AND PUSH1 0x0 DUP2 DUP2 MSTORE PUSH1 0x5 PUSH1 0x20 SWAP1 DUP2 MSTORE PUSH1 0x40 DUP1 DUP4 KECCAK256 DUP1 SLOAD PUSH9 0x10000000000000001 DUP9 MUL ADD SWAP1 SSTORE DUP5 DUP4 MSTORE PUSH1 0x4 SWAP1 SWAP2 MSTORE DUP2 KECCAK256 PUSH1 0x1 DUP6 EQ PUSH1 0xE1 SHL TIMESTAMP PUSH1 0xA0 SHL OR DUP4 OR SWAP1 SSTORE DUP3 DUP5 ADD SWAP1 DUP4 SWAP1 DUP4 SWAP1 PUSH32 0xDDF252AD1BE2C89B69C2B068FC378DAA952BA7F163C4A11628F55A4DF523B3EF DUP2 DUP1 LOG4 PUSH1 0x1 DUP4 ADD JUMPDEST DUP2 DUP2 EQ PUSH2 0x21DC JUMPI DUP1 DUP4 PUSH1 0x0 PUSH32 0xDDF252AD1BE2C89B69C2B068FC378DAA952BA7F163C4A11628F55A4DF523B3EF PUSH1 0x0 DUP1 LOG4 PUSH1 0x1 ADD PUSH2 0x21A4 JUMP JUMPDEST POP DUP2 PUSH2 0x21FA JUMPI PUSH1 0x40 MLOAD PUSH3 0x2E0763 PUSH1 0xE8 SHL DUP2 MSTORE PUSH1 0x4 ADD PUSH1 0x40 MLOAD DUP1 SWAP2 SUB SWAP1 REVERT JUMPDEST PUSH1 0x0 SSTORE POP POP POP POP JUMP JUMPDEST DUP3 DUP1 SLOAD PUSH2 0x220F SWAP1 PUSH2 0x28DB JUMP JUMPDEST SWAP1 PUSH1 0x0 MSTORE PUSH1 0x20 PUSH1 0x0 KECCAK256 SWAP1 PUSH1 0x1F ADD PUSH1 0x20 SWAP1 DIV DUP2 ADD SWAP3 DUP3 PUSH2 0x2231 JUMPI PUSH1 0x0 DUP6 SSTORE PUSH2 0x2277 JUMP JUMPDEST DUP3 PUSH1 0x1F LT PUSH2 0x224A JUMPI DUP1 MLOAD PUSH1 0xFF NOT AND DUP4 DUP1 ADD OR DUP6 SSTORE PUSH2 0x2277 JUMP JUMPDEST DUP3 DUP1 ADD PUSH1 0x1 ADD DUP6 SSTORE DUP3 ISZERO PUSH2 0x2277 JUMPI SWAP2 DUP3 ADD JUMPDEST DUP3 DUP2 GT ISZERO PUSH2 0x2277 JUMPI DUP3 MLOAD DUP3 SSTORE SWAP2 PUSH1 0x20 ADD SWAP2 SWAP1 PUSH1 0x1 ADD SWAP1 PUSH2 0x225C JUMP JUMPDEST POP PUSH2 0x2283 SWAP3 SWAP2 POP PUSH2 0x2287 JUMP JUMPDEST POP SWAP1 JUMP JUMPDEST JUMPDEST DUP1 DUP3 GT ISZERO PUSH2 0x2283 JUMPI PUSH1 0x0 DUP2 SSTORE PUSH1 0x1 ADD PUSH2 0x2288 JUMP JUMPDEST PUSH1 0x0 PUSH8 0xFFFFFFFFFFFFFFFF DUP1 DUP5 GT ISZERO PUSH2 0x22B7 JUMPI PUSH2 0x22B7 PUSH2 0x2971 JUMP JUMPDEST PUSH1 0x40 MLOAD PUSH1 0x1F DUP6 ADD PUSH1 0x1F NOT SWAP1 DUP2 AND PUSH1 0x3F ADD AND DUP2 ADD SWAP1 DUP3 DUP3 GT DUP2 DUP4 LT OR ISZERO PUSH2 0x22DF JUMPI PUSH2 0x22DF PUSH2 0x2971 JUMP JUMPDEST DUP2 PUSH1 0x40 MSTORE DUP1 SWAP4 POP DUP6 DUP2 MSTORE DUP7 DUP7 DUP7 ADD GT ISZERO PUSH2 0x22F8 JUMPI PUSH1 0x0 DUP1 REVERT JUMPDEST DUP6 DUP6 PUSH1 0x20 DUP4 ADD CALLDATACOPY PUSH1 0x0 PUSH1 0x20 DUP8 DUP4 ADD ADD MSTORE POP POP POP SWAP4 SWAP3 POP POP POP JUMP JUMPDEST DUP1 CALLDATALOAD PUSH1 0x1 PUSH1 0x1 PUSH1 0xA0 SHL SUB DUP2 AND DUP2 EQ PUSH2 0x2329 JUMPI PUSH1 0x0 DUP1 REVERT JUMPDEST SWAP2 SWAP1 POP JUMP JUMPDEST PUSH1 0x0 PUSH1 0x20 DUP3 DUP5 SUB SLT ISZERO PUSH2 0x233F JUMPI DUP1 DUP2 REVERT JUMPDEST PUSH2 0x18DB DUP3 PUSH2 0x2312 JUMP JUMPDEST PUSH1 0x0 DUP1 PUSH1 0x40 DUP4 DUP6 SUB SLT ISZERO PUSH2 0x235A JUMPI DUP1 DUP2 REVERT JUMPDEST PUSH2 0x2363 DUP4 PUSH2 0x2312 JUMP JUMPDEST SWAP2 POP PUSH2 0x2371 PUSH1 0x20 DUP5 ADD PUSH2 0x2312 JUMP JUMPDEST SWAP1 POP SWAP3 POP SWAP3 SWAP1 POP JUMP JUMPDEST PUSH1 0x0 DUP1 PUSH1 0x0 PUSH1 0x60 DUP5 DUP7 SUB SLT ISZERO PUSH2 0x238E JUMPI DUP1 DUP2 REVERT JUMPDEST PUSH2 0x2397 DUP5 PUSH2 0x2312 JUMP JUMPDEST SWAP3 POP PUSH2 0x23A5 PUSH1 0x20 DUP6 ADD PUSH2 0x2312 JUMP JUMPDEST SWAP2 POP PUSH1 0x40 DUP5 ADD CALLDATALOAD SWAP1 POP SWAP3 POP SWAP3 POP SWAP3 JUMP JUMPDEST PUSH1 0x0 DUP1 PUSH1 0x0 DUP1 PUSH1 0x80 DUP6 DUP8 SUB SLT ISZERO PUSH2 0x23CA JUMPI DUP1 DUP2 REVERT JUMPDEST PUSH2 0x23D3 DUP6 PUSH2 0x2312 JUMP JUMPDEST SWAP4 POP PUSH2 0x23E1 PUSH1 0x20 DUP7 ADD PUSH2 0x2312 JUMP JUMPDEST SWAP3 POP PUSH1 0x40 DUP6 ADD CALLDATALOAD SWAP2 POP PUSH1 0x60 DUP6 ADD CALLDATALOAD PUSH8 0xFFFFFFFFFFFFFFFF DUP2 GT ISZERO PUSH2 0x2403 JUMPI DUP2 DUP3 REVERT JUMPDEST DUP6 ADD PUSH1 0x1F DUP2 ADD DUP8 SGT PUSH2 0x2413 JUMPI DUP2 DUP3 REVERT JUMPDEST PUSH2 0x2422 DUP8 DUP3 CALLDATALOAD PUSH1 0x20 DUP5 ADD PUSH2 0x229C JUMP JUMPDEST SWAP2 POP POP SWAP3 SWAP6 SWAP2 SWAP5 POP SWAP3 POP JUMP JUMPDEST PUSH1 0x0 DUP1 PUSH1 0x40 DUP4 DUP6 SUB SLT ISZERO PUSH2 0x2440 JUMPI DUP2 DUP3 REVERT JUMPDEST PUSH2 0x2449 DUP4 PUSH2 0x2312 JUMP JUMPDEST SWAP2 POP PUSH1 0x20 DUP4 ADD CALLDATALOAD PUSH2 0x2459 DUP2 PUSH2 0x2987 JUMP JUMPDEST DUP1 SWAP2 POP POP SWAP3 POP SWAP3 SWAP1 POP JUMP JUMPDEST PUSH1 0x0 DUP1 PUSH1 0x40 DUP4 DUP6 SUB SLT ISZERO PUSH2 0x2476 JUMPI DUP2 DUP3 REVERT JUMPDEST PUSH2 0x247F DUP4 PUSH2 0x2312 JUMP JUMPDEST SWAP5 PUSH1 0x20 SWAP4 SWAP1 SWAP4 ADD CALLDATALOAD SWAP4 POP POP POP JUMP JUMPDEST PUSH1 0x0 PUSH1 0x20 DUP3 DUP5 SUB SLT ISZERO PUSH2 0x249E JUMPI DUP1 DUP2 REVERT JUMPDEST DUP2 CALLDATALOAD PUSH2 0x18DB DUP2 PUSH2 0x2987 JUMP JUMPDEST PUSH1 0x0 PUSH1 0x20 DUP3 DUP5 SUB SLT ISZERO PUSH2 0x24BA JUMPI DUP1 DUP2 REVERT JUMPDEST DUP2 MLOAD PUSH2 0x18DB DUP2 PUSH2 0x2987 JUMP JUMPDEST PUSH1 0x0 PUSH1 0x20 DUP3 DUP5 SUB SLT ISZERO PUSH2 0x24D6 JUMPI DUP1 DUP2 REVERT JUMPDEST POP CALLDATALOAD SWAP2 SWAP1 POP JUMP JUMPDEST PUSH1 0x0 PUSH1 0x20 DUP3 DUP5 SUB SLT ISZERO PUSH2 0x24EE JUMPI DUP1 DUP2 REVERT JUMPDEST DUP2 CALLDATALOAD PUSH2 0x18DB DUP2 PUSH2 0x2995 JUMP JUMPDEST PUSH1 0x0 PUSH1 0x20 DUP3 DUP5 SUB SLT ISZERO PUSH2 0x250A JUMPI DUP1 DUP2 REVERT JUMPDEST DUP2 MLOAD PUSH2 0x18DB DUP2 PUSH2 0x2995 JUMP JUMPDEST PUSH1 0x0 PUSH1 0x20 DUP3 DUP5 SUB SLT ISZERO PUSH2 0x2526 JUMPI DUP1 DUP2 REVERT JUMPDEST DUP2 CALLDATALOAD PUSH8 0xFFFFFFFFFFFFFFFF DUP2 GT ISZERO PUSH2 0x253C JUMPI DUP2 DUP3 REVERT JUMPDEST DUP3 ADD PUSH1 0x1F DUP2 ADD DUP5 SGT PUSH2 0x254C JUMPI DUP2 DUP3 REVERT JUMPDEST PUSH2 0x1EE7 DUP5 DUP3 CALLDATALOAD PUSH1 0x20 DUP5 ADD PUSH2 0x229C JUMP JUMPDEST PUSH1 0x0 PUSH1 0x20 DUP3 DUP5 SUB SLT ISZERO PUSH2 0x256C JUMPI DUP1 DUP2 REVERT JUMPDEST POP MLOAD SWAP2 SWAP1 POP JUMP JUMPDEST PUSH1 0x0 DUP1 PUSH1 0x40 DUP4 DUP6 SUB SLT ISZERO PUSH2 0x2585 JUMPI DUP2 DUP3 REVERT JUMPDEST DUP3 CALLDATALOAD SWAP2 POP PUSH2 0x2371 PUSH1 0x20 DUP5 ADD PUSH2 0x2312 JUMP JUMPDEST PUSH1 0x0 DUP1 PUSH1 0x0 PUSH1 0x40 DUP5 DUP7 SUB SLT ISZERO PUSH2 0x25A9 JUMPI DUP1 DUP2 REVERT JUMPDEST DUP4 CALLDATALOAD SWAP3 POP PUSH1 0x20 DUP5 ADD CALLDATALOAD PUSH8 0xFFFFFFFFFFFFFFFF DUP1 DUP3 GT ISZERO PUSH2 0x25C7 JUMPI DUP3 DUP4 REVERT JUMPDEST DUP2 DUP7 ADD SWAP2 POP DUP7 PUSH1 0x1F DUP4 ADD SLT PUSH2 0x25DA JUMPI DUP3 DUP4 REVERT JUMPDEST DUP2 CALLDATALOAD DUP2 DUP2 GT ISZERO PUSH2 0x25E8 JUMPI DUP4 DUP5 REVERT JUMPDEST DUP8 PUSH1 0x20 DUP3 PUSH1 0x5 SHL DUP6 ADD ADD GT ISZERO PUSH2 0x25FC JUMPI DUP4 DUP5 REVERT JUMPDEST PUSH1 0x20 DUP4 ADD SWAP5 POP DUP1 SWAP4 POP POP POP POP SWAP3 POP SWAP3 POP SWAP3 JUMP JUMPDEST PUSH1 0x0 DUP2 MLOAD DUP1 DUP5 MSTORE PUSH2 0x2627 DUP2 PUSH1 0x20 DUP7 ADD PUSH1 0x20 DUP7 ADD PUSH2 0x28AF JUMP JUMPDEST PUSH1 0x1F ADD PUSH1 0x1F NOT AND SWAP3 SWAP1 SWAP3 ADD PUSH1 0x20 ADD SWAP3 SWAP2 POP POP JUMP JUMPDEST PUSH1 0x0 DUP5 MLOAD PUSH1 0x20 PUSH2 0x264E DUP3 DUP6 DUP4 DUP11 ADD PUSH2 0x28AF JUMP JUMPDEST DUP6 MLOAD SWAP2 DUP5 ADD SWAP2 PUSH2 0x2661 DUP2 DUP5 DUP5 DUP11 ADD PUSH2 0x28AF JUMP JUMPDEST DUP6 SLOAD SWAP3 ADD SWAP2 DUP4 SWAP1 PUSH1 0x1 DUP2 DUP2 SHR SWAP1 DUP1 DUP4 AND DUP1 PUSH2 0x267D JUMPI PUSH1 0x7F DUP4 AND SWAP3 POP JUMPDEST DUP6 DUP4 LT DUP2 EQ ISZERO PUSH2 0x269B JUMPI PUSH4 0x4E487B71 PUSH1 0xE0 SHL DUP9 MSTORE PUSH1 0x22 PUSH1 0x4 MSTORE PUSH1 0x24 DUP9 REVERT JUMPDEST DUP1 DUP1 ISZERO PUSH2 0x26AF JUMPI PUSH1 0x1 DUP2 EQ PUSH2 0x26C0 JUMPI PUSH2 0x26EC JUMP JUMPDEST PUSH1 0xFF NOT DUP6 AND DUP9 MSTORE DUP4 DUP9 ADD SWAP6 POP PUSH2 0x26EC JUMP JUMPDEST PUSH1 0x0 DUP12 DUP2 MSTORE PUSH1 0x20 SWAP1 KECCAK256 DUP10 JUMPDEST DUP6 DUP2 LT ISZERO PUSH2 0x26E4 JUMPI DUP2 SLOAD DUP11 DUP3 ADD MSTORE SWAP1 DUP5 ADD SWAP1 DUP9 ADD PUSH2 0x26CB JUMP JUMPDEST POP POP DUP4 DUP9 ADD SWAP6 POP JUMPDEST POP SWAP4 SWAP12 SWAP11 POP POP POP POP POP POP POP POP POP POP POP JUMP JUMPDEST PUSH1 0x1 PUSH1 0x1 PUSH1 0xA0 SHL SUB DUP6 DUP2 AND DUP3 MSTORE DUP5 AND PUSH1 0x20 DUP3 ADD MSTORE PUSH1 0x40 DUP2 ADD DUP4 SWAP1 MSTORE PUSH1 0x80 PUSH1 0x60 DUP3 ADD DUP2 SWAP1 MSTORE PUSH1 0x0 SWAP1 PUSH2 0x2730 SWAP1 DUP4 ADD DUP5 PUSH2 0x260F JUMP JUMPDEST SWAP7 SWAP6 POP POP POP POP POP POP JUMP JUMPDEST PUSH1 0x20 DUP2 MSTORE PUSH1 0x0 PUSH2 0x18DB PUSH1 0x20 DUP4 ADD DUP5 PUSH2 0x260F JUMP JUMPDEST PUSH1 0x20 DUP1 DUP3 MSTORE PUSH1 0xA SWAP1 DUP3 ADD MSTORE PUSH10 0x15D94814DBDB191BDD5D PUSH1 0xB2 SHL PUSH1 0x40 DUP3 ADD MSTORE PUSH1 0x60 ADD SWAP1 JUMP JUMPDEST PUSH1 0x20 DUP1 DUP3 MSTORE PUSH1 0x17 SWAP1 DUP3 ADD MSTORE PUSH32 0x6F6F707320636F6E747261637420697320706175736564000000000000000000 PUSH1 0x40 DUP3 ADD MSTORE PUSH1 0x60 ADD SWAP1 JUMP JUMPDEST PUSH1 0x20 DUP1 DUP3 MSTORE PUSH1 0x1B SWAP1 DUP3 ADD MSTORE PUSH32 0x4D6178204E4654205065722057616C6C65742065786365656465640000000000 PUSH1 0x40 DUP3 ADD MSTORE PUSH1 0x60 ADD SWAP1 JUMP JUMPDEST PUSH1 0x20 DUP1 DUP3 MSTORE PUSH1 0x1F SWAP1 DUP3 ADD MSTORE PUSH32 0x5265656E7472616E637947756172643A207265656E7472616E742063616C6C00 PUSH1 0x40 DUP3 ADD MSTORE PUSH1 0x60 ADD SWAP1 JUMP JUMPDEST PUSH1 0x20 DUP1 DUP3 MSTORE PUSH1 0x1B SWAP1 DUP3 ADD MSTORE PUSH32 0x6E65656420746F206D696E74206174206C656173742031204E46540000000000 PUSH1 0x40 DUP3 ADD MSTORE PUSH1 0x60 ADD SWAP1 JUMP JUMPDEST PUSH1 0x0 DUP3 NOT DUP3 GT ISZERO PUSH2 0x2860 JUMPI PUSH2 0x2860 PUSH2 0x2945 JUMP JUMPDEST POP ADD SWAP1 JUMP JUMPDEST PUSH1 0x0 DUP3 PUSH2 0x2874 JUMPI PUSH2 0x2874 PUSH2 0x295B JUMP JUMPDEST POP DIV SWAP1 JUMP JUMPDEST PUSH1 0x0 DUP2 PUSH1 0x0 NOT DIV DUP4 GT DUP3 ISZERO ISZERO AND ISZERO PUSH2 0x2893 JUMPI PUSH2 0x2893 PUSH2 0x2945 JUMP JUMPDEST POP MUL SWAP1 JUMP JUMPDEST PUSH1 0x0 DUP3 DUP3 LT ISZERO PUSH2 0x28AA JUMPI PUSH2 0x28AA PUSH2 0x2945 JUMP JUMPDEST POP SUB SWAP1 JUMP JUMPDEST PUSH1 0x0 JUMPDEST DUP4 DUP2 LT ISZERO PUSH2 0x28CA JUMPI DUP2 DUP2 ADD MLOAD DUP4 DUP3 ADD MSTORE PUSH1 0x20 ADD PUSH2 0x28B2 JUMP JUMPDEST DUP4 DUP2 GT ISZERO PUSH2 0x175D JUMPI POP POP PUSH1 0x0 SWAP2 ADD MSTORE JUMP JUMPDEST PUSH1 0x1 DUP2 DUP2 SHR SWAP1 DUP3 AND DUP1 PUSH2 0x28EF JUMPI PUSH1 0x7F DUP3 AND SWAP2 POP JUMPDEST PUSH1 0x20 DUP3 LT DUP2 EQ ISZERO PUSH2 0x2910 JUMPI PUSH4 0x4E487B71 PUSH1 0xE0 SHL PUSH1 0x0 MSTORE PUSH1 0x22 PUSH1 0x4 MSTORE PUSH1 0x24 PUSH1 0x0 REVERT JUMPDEST POP SWAP2 SWAP1 POP JUMP JUMPDEST PUSH1 0x0 PUSH1 0x0 NOT DUP3 EQ ISZERO PUSH2 0x292A JUMPI PUSH2 0x292A PUSH2 0x2945 JUMP JUMPDEST POP PUSH1 0x1 ADD SWAP1 JUMP JUMPDEST PUSH1 0x0 DUP3 PUSH2 0x2940 JUMPI PUSH2 0x2940 PUSH2 0x295B JUMP JUMPDEST POP MOD SWAP1 JUMP JUMPDEST PUSH4 0x4E487B71 PUSH1 0xE0 SHL PUSH1 0x0 MSTORE PUSH1 0x11 PUSH1 0x4 MSTORE PUSH1 0x24 PUSH1 0x0 REVERT JUMPDEST PUSH4 0x4E487B71 PUSH1 0xE0 SHL PUSH1 0x0 MSTORE PUSH1 0x12 PUSH1 0x4 MSTORE PUSH1 0x24 PUSH1 0x0 REVERT JUMPDEST PUSH4 0x4E487B71 PUSH1 0xE0 SHL PUSH1 0x0 MSTORE PUSH1 0x41 PUSH1 0x4 MSTORE PUSH1 0x24 PUSH1 0x0 REVERT JUMPDEST DUP1 ISZERO ISZERO DUP2 EQ PUSH2 0x19ED JUMPI PUSH1 0x0 DUP1 REVERT JUMPDEST PUSH1 0x1 PUSH1 0x1 PUSH1 0xE0 SHL SUB NOT DUP2 AND DUP2 EQ PUSH2 0x19ED JUMPI PUSH1 0x0 DUP1 REVERT INVALID LOG2 PUSH5 0x6970667358 0x22 SLT KECCAK256 CALLDATACOPY 0x5D 0x4B PUSH15 0xC6819D46143FD1A2E61307F49DC35D COINBASE MULMOD 0xE4 SWAP5 DUP1 0xD0 0xC9 0xE7 0xE1 0x4F PUSH15 0x75D564736F6C634300080400330000 "},"methodIdentifiers":{"Airdrop(uint256)":"d0ecdf48","AirdropEnabled()":"17d8924d","Max_Airdrop_Amount_Per_Wallet()":"d4c53f3d","MaxperTx()":"ff645691","MaxperWalletwl()":"6ae433a8","PublicMint(uint256)":"9fb17e34","WLMint(uint256,bytes32[])":"226fe1c0","approve(address,uint256)":"095ea7b3","balanceOf(address)":"70a08231","baseExtension()":"c6682862","baseURI()":"6c0360eb","getApproved(uint256)":"081812fc","gift(uint256,address)":"83a076be","isApprovedForAll(address,address)":"e985e9c5","maxAirDropSupply()":"1dcd8e4e","maxPerWallet()":"453c2310","maxSupply()":"d5abeb01","merkleRoot()":"2eb4a7ab","name()":"06fdde03","notRevealedUri()":"081c8c44","numberMinted(address)":"dc33e681","owner()":"8da5cb5b","ownerOf(uint256)":"6352211e","pause(bool)":"02329a29","paused()":"5c975abb","publicMint()":"26092b83","rate()":"2c4e722e","renounceOwnership()":"715018a6","reveal(bool)":"940cd05b","revealed()":"51830227","safeTransferFrom(address,address,uint256)":"42842e0e","safeTransferFrom(address,address,uint256,bytes)":"b88d4fde","setApprovalForAll(address,bool)":"a22cb465","setBaseExtension(string)":"da3ef23f","setBaseURI(string)":"55f804b3","setMaxAirDropSupply(uint256)":"5ac7164f","setMax_Airdrop_Amount_Per_Wallet(uint256)":"0c311a9c","setMaxperTx(uint256)":"5ef9ff37","setMaxperWallet(uint256)":"4a2bbe3d","setMaxperWalletwl(uint256)":"7afb04ff","setMaxsupply(uint256)":"149835a0","setMerkleRoot(bytes32)":"7cb64759","setNotRevealedURI(string)":"f2c4ce1e","setRate(uint256)":"34fcf437","setWlRate(uint256)":"55753761","supportsInterface(bytes4)":"01ffc9a7","symbol()":"95d89b41","toggleAirdropEnabled(bool)":"6b38d118","toggleWlMint(bool)":"ac813088","togglepublicMint(bool)":"963cf257","tokenAddress()":"9d76ea58","tokenURI(uint256)":"c87b56dd","totalSupply()":"18160ddd","transferFrom(address,address,uint256)":"23b872dd","transferOwnership(address)":"f2fde38b","withdrawToken()":"ca628c78","wlMint()":"7f9fa411","wlRate()":"b8b4af39"}}}}}