{"contracts/DexNft.sol":{"DexNft":{"abi":[{"inputs":[{"internalType":"address","name":"_tokenAddress","type":"address"}],"stateMutability":"nonpayable","type":"constructor"},{"anonymous":false,"inputs":[{"indexed":true,"internalType":"address","name":"account","type":"address"},{"indexed":true,"internalType":"address","name":"operator","type":"address"},{"indexed":false,"internalType":"bool","name":"approved","type":"bool"}],"name":"ApprovalForAll","type":"event"},{"anonymous":false,"inputs":[{"indexed":true,"internalType":"address","name":"previousOwner","type":"address"},{"indexed":true,"internalType":"address","name":"newOwner","type":"address"}],"name":"OwnershipTransferred","type":"event"},{"anonymous":false,"inputs":[{"indexed":false,"internalType":"address","name":"account","type":"address"}],"name":"Paused","type":"event"},{"anonymous":false,"inputs":[{"indexed":true,"internalType":"address","name":"operator","type":"address"},{"indexed":true,"internalType":"address","name":"from","type":"address"},{"indexed":true,"internalType":"address","name":"to","type":"address"},{"indexed":false,"internalType":"uint256[]","name":"ids","type":"uint256[]"},{"indexed":false,"internalType":"uint256[]","name":"values","type":"uint256[]"}],"name":"TransferBatch","type":"event"},{"anonymous":false,"inputs":[{"indexed":true,"internalType":"address","name":"operator","type":"address"},{"indexed":true,"internalType":"address","name":"from","type":"address"},{"indexed":true,"internalType":"address","name":"to","type":"address"},{"indexed":false,"internalType":"uint256","name":"id","type":"uint256"},{"indexed":false,"internalType":"uint256","name":"value","type":"uint256"}],"name":"TransferSingle","type":"event"},{"anonymous":false,"inputs":[{"indexed":false,"internalType":"string","name":"value","type":"string"},{"indexed":true,"internalType":"uint256","name":"id","type":"uint256"}],"name":"URI","type":"event"},{"anonymous":false,"inputs":[{"indexed":false,"internalType":"address","name":"account","type":"address"}],"name":"Unpaused","type":"event"},{"inputs":[],"name":"Common_items_cost","outputs":[{"internalType":"uint256","name":"","type":"uint256"}],"stateMutability":"view","type":"function"},{"inputs":[],"name":"Epic_items_cost","outputs":[{"internalType":"uint256","name":"","type":"uint256"}],"stateMutability":"view","type":"function"},{"inputs":[],"name":"Leader_items_cost","outputs":[{"internalType":"uint256","name":"","type":"uint256"}],"stateMutability":"view","type":"function"},{"inputs":[],"name":"Legendary_items_cost","outputs":[{"internalType":"uint256","name":"","type":"uint256"}],"stateMutability":"view","type":"function"},{"inputs":[],"name":"Rare_items_cost","outputs":[{"internalType":"uint256","name":"","type":"uint256"}],"stateMutability":"view","type":"function"},{"inputs":[],"name":"Uncommon_items_cost","outputs":[{"internalType":"uint256","name":"","type":"uint256"}],"stateMutability":"view","type":"function"},{"inputs":[{"internalType":"address","name":"account","type":"address"},{"internalType":"uint256","name":"id","type":"uint256"}],"name":"balanceOf","outputs":[{"internalType":"uint256","name":"","type":"uint256"}],"stateMutability":"view","type":"function"},{"inputs":[{"internalType":"address[]","name":"accounts","type":"address[]"},{"internalType":"uint256[]","name":"ids","type":"uint256[]"}],"name":"balanceOfBatch","outputs":[{"internalType":"uint256[]","name":"","type":"uint256[]"}],"stateMutability":"view","type":"function"},{"inputs":[{"internalType":"uint256","name":"id","type":"uint256"}],"name":"exists","outputs":[{"internalType":"bool","name":"","type":"bool"}],"stateMutability":"view","type":"function"},{"inputs":[{"internalType":"address","name":"account","type":"address"},{"internalType":"address","name":"operator","type":"address"}],"name":"isApprovedForAll","outputs":[{"internalType":"bool","name":"","type":"bool"}],"stateMutability":"view","type":"function"},{"inputs":[],"name":"maxCommonSupply","outputs":[{"internalType":"uint256","name":"","type":"uint256"}],"stateMutability":"view","type":"function"},{"inputs":[],"name":"maxEpicSupply","outputs":[{"internalType":"uint256","name":"","type":"uint256"}],"stateMutability":"view","type":"function"},{"inputs":[],"name":"maxLeaderSupply","outputs":[{"internalType":"uint256","name":"","type":"uint256"}],"stateMutability":"view","type":"function"},{"inputs":[],"name":"maxLegendarySupply","outputs":[{"internalType":"uint256","name":"","type":"uint256"}],"stateMutability":"view","type":"function"},{"inputs":[],"name":"maxRareSupply","outputs":[{"internalType":"uint256","name":"","type":"uint256"}],"stateMutability":"view","type":"function"},{"inputs":[],"name":"maxUncommonSupply","outputs":[{"internalType":"uint256","name":"","type":"uint256"}],"stateMutability":"view","type":"function"},{"inputs":[{"internalType":"uint256","name":"id","type":"uint256"}],"name":"mint","outputs":[],"stateMutability":"nonpayable","type":"function"},{"inputs":[],"name":"owner","outputs":[{"internalType":"address","name":"","type":"address"}],"stateMutability":"view","type":"function"},{"inputs":[],"name":"pause","outputs":[],"stateMutability":"nonpayable","type":"function"},{"inputs":[],"name":"paused","outputs":[{"internalType":"bool","name":"","type":"bool"}],"stateMutability":"view","type":"function"},{"inputs":[],"name":"rate","outputs":[{"internalType":"uint256","name":"","type":"uint256"}],"stateMutability":"view","type":"function"},{"inputs":[],"name":"renounceOwnership","outputs":[],"stateMutability":"nonpayable","type":"function"},{"inputs":[{"internalType":"address","name":"from","type":"address"},{"internalType":"address","name":"to","type":"address"},{"internalType":"uint256[]","name":"ids","type":"uint256[]"},{"internalType":"uint256[]","name":"amounts","type":"uint256[]"},{"internalType":"bytes","name":"data","type":"bytes"}],"name":"safeBatchTransferFrom","outputs":[],"stateMutability":"nonpayable","type":"function"},{"inputs":[{"internalType":"address","name":"from","type":"address"},{"internalType":"address","name":"to","type":"address"},{"internalType":"uint256","name":"id","type":"uint256"},{"internalType":"uint256","name":"amount","type":"uint256"},{"internalType":"bytes","name":"data","type":"bytes"}],"name":"safeTransferFrom","outputs":[],"stateMutability":"nonpayable","type":"function"},{"inputs":[{"internalType":"address","name":"operator","type":"address"},{"internalType":"bool","name":"approved","type":"bool"}],"name":"setApprovalForAll","outputs":[],"stateMutability":"nonpayable","type":"function"},{"inputs":[{"internalType":"uint256","name":"_newsupply","type":"uint256"}],"name":"setMaxCommonSupply","outputs":[],"stateMutability":"nonpayable","type":"function"},{"inputs":[{"internalType":"uint256","name":"_newsupply","type":"uint256"}],"name":"setMaxEpicSupply","outputs":[],"stateMutability":"nonpayable","type":"function"},{"inputs":[{"internalType":"uint256","name":"_newsupply","type":"uint256"}],"name":"setMaxLegendarySupply","outputs":[],"stateMutability":"nonpayable","type":"function"},{"inputs":[{"internalType":"uint256","name":"_newsupply","type":"uint256"}],"name":"setMaxRareSupply","outputs":[],"stateMutability":"nonpayable","type":"function"},{"inputs":[{"internalType":"uint256","name":"_newsupply","type":"uint256"}],"name":"setMaxUncommonSupply","outputs":[],"stateMutability":"nonpayable","type":"function"},{"inputs":[{"internalType":"uint256","name":"_newsupply","type":"uint256"}],"name":"setMaxleaderSupply","outputs":[],"stateMutability":"nonpayable","type":"function"},{"inputs":[{"internalType":"string","name":"newuri","type":"string"}],"name":"setURI","outputs":[],"stateMutability":"nonpayable","type":"function"},{"inputs":[{"internalType":"uint256","name":"_newcost","type":"uint256"}],"name":"set_Common_items_cost","outputs":[],"stateMutability":"nonpayable","type":"function"},{"inputs":[{"internalType":"uint256","name":"_newcost","type":"uint256"}],"name":"set_Epic_items_cost","outputs":[],"stateMutability":"nonpayable","type":"function"},{"inputs":[{"internalType":"uint256","name":"_newcost","type":"uint256"}],"name":"set_Leader_items_cost","outputs":[],"stateMutability":"nonpayable","type":"function"},{"inputs":[{"internalType":"uint256","name":"_newcost","type":"uint256"}],"name":"set_Legendary_items_cost","outputs":[],"stateMutability":"nonpayable","type":"function"},{"inputs":[{"internalType":"uint256","name":"_newcost","type":"uint256"}],"name":"set_Rare_items_cost","outputs":[],"stateMutability":"nonpayable","type":"function"},{"inputs":[{"internalType":"uint256","name":"_newcost","type":"uint256"}],"name":"set_Uncommon_items_cost","outputs":[],"stateMutability":"nonpayable","type":"function"},{"inputs":[{"internalType":"bytes4","name":"interfaceId","type":"bytes4"}],"name":"supportsInterface","outputs":[{"internalType":"bool","name":"","type":"bool"}],"stateMutability":"view","type":"function"},{"inputs":[],"name":"tokenAddress","outputs":[{"internalType":"contract IERC20","name":"","type":"address"}],"stateMutability":"view","type":"function"},{"inputs":[{"internalType":"uint256","name":"id","type":"uint256"}],"name":"totalSupply","outputs":[{"internalType":"uint256","name":"","type":"uint256"}],"stateMutability":"view","type":"function"},{"inputs":[{"internalType":"address","name":"newOwner","type":"address"}],"name":"transferOwnership","outputs":[],"stateMutability":"nonpayable","type":"function"},{"inputs":[],"name":"unpause","outputs":[],"stateMutability":"nonpayable","type":"function"},{"inputs":[{"internalType":"uint256","name":"_id","type":"uint256"}],"name":"uri","outputs":[{"internalType":"string","name":"","type":"string"}],"stateMutability":"view","type":"function"},{"inputs":[],"name":"withdrawToken","outputs":[],"stateMutability":"nonpayable","type":"function"}],"evm":{"bytecode":{"linkReferences":{},"object":"60806040526003600555606460065560c860075561012c6008556101906009556101f4600a55610bb8600b5560c8600c556096600d556064600e55604b600f556032601055600a6014553480156200005657600080fd5b5060405162002729380380620027298339810160408190526200007991620001ee565b604051806060016040528060368152602001620026f3603691396200009e81620000dd565b50620000aa33620000f6565b6003805460ff60a01b19169055601580546001600160a01b0319166001600160a01b03929092169190911790556200025b565b8051620000f290600290602084019062000148565b5050565b600380546001600160a01b038381166001600160a01b0319831681179093556040519116919082907f8be0079c531659141344cd1fd0a4f28419497f9722a3daafe3b4186f6b6457e090600090a35050565b82805462000156906200021e565b90600052602060002090601f0160209004810192826200017a5760008555620001c5565b82601f106200019557805160ff1916838001178555620001c5565b82800160010185558215620001c5579182015b82811115620001c5578251825591602001919060010190620001a8565b50620001d3929150620001d7565b5090565b5b80821115620001d35760008155600101620001d8565b60006020828403121562000200578081fd5b81516001600160a01b038116811462000217578182fd5b9392505050565b600181811c908216806200023357607f821691505b602082108114156200025557634e487b7160e01b600052602260045260246000fd5b50919050565b612488806200026b6000396000f3fe608060405234801561001057600080fd5b506004361061027e5760003560e01c80638da5cb5b1161015c578063bf7ee4a5116100ce578063da248c4b11610087578063da248c4b14610530578063dd6f175214610543578063e985e9c51461054c578063f242432a14610588578063f2fde38b1461059b578063fad078df146105ae57600080fd5b8063bf7ee4a5146104f1578063c8eb86c8146104fa578063ca5605b314610503578063ca628c781461050c578063ce1d91f414610514578063d02439fe1461052757600080fd5b8063ab24834811610120578063ab2483481461047c578063aeb8062114610485578063b78a5d7714610498578063b7e2698d146104ab578063b7f24320146104be578063bd85b039146104d157600080fd5b80638da5cb5b146104155780639a41aa731461043a5780639d76ea5814610443578063a0712d6814610456578063a22cb4651461046957600080fd5b806340624b79116101f55780635c975abb116101b95780635c975abb146103ba57806366871520146103cc578063715018a6146103df5780637814308b146103e75780638456cb59146103fa5780638d61e9f11461040257600080fd5b806340624b79146103535780634e1273f41461035c5780634f558e791461037c578063559c039a1461039e5780635c774f03146103a757600080fd5b806325ba5f561161024757806325ba5f56146103145780632c4e722e1461031d5780632eb2c2d6146103265780633235d397146103395780633ba09b9e146103425780633f4ba83a1461034b57600080fd5b8062fdd58e1461028357806301ffc9a7146102a957806302fe5305146102cc5780630e89341c146102e15780631e6b8b8214610301575b600080fd5b610296610291366004611d7d565b6105c1565b6040519081526020015b60405180910390f35b6102bc6102b7366004611e8d565b610657565b60405190151581526020016102a0565b6102df6102da366004611ec5565b6106a9565b005b6102f46102ef366004611f0b565b6106bd565b6040516102a091906120c4565b6102df61030f366004611f0b565b610754565b61029660085481565b61029660145481565b6102df610334366004611c3e565b610761565b61029660055481565b61029660075481565b6102df6107ad565b610296600d5481565b61036f61036a366004611da6565b6107bf565b6040516102a09190612083565b6102bc61038a366004611f0b565b600090815260046020526040902054151590565b61029660095481565b6102df6103b5366004611f0b565b610921565b600354600160a01b900460ff166102bc565b6102df6103da366004611f0b565b61092e565b6102df61093b565b6102df6103f5366004611f0b565b61094d565b6102df61095a565b6102df610410366004611f0b565b61096a565b6003546001600160a01b03165b6040516001600160a01b0390911681526020016102a0565b610296600b5481565b601554610422906001600160a01b031681565b6102df610464366004611f0b565b610977565b6102df610477366004611d47565b610ad3565b61029660065481565b6102df610493366004611f0b565b610ae2565b6102df6104a6366004611f0b565b610aef565b6102df6104b9366004611f0b565b610afc565b6102df6104cc366004611f0b565b610b09565b6102966104df366004611f0b565b60009081526004602052604090205490565b61029660105481565b610296600e5481565b610296600f5481565b6102df610b16565b6102df610522366004611f0b565b610c21565b610296600c5481565b6102df61053e366004611f0b565b610c2e565b610296600a5481565b6102bc61055a366004611c0c565b6001600160a01b03918216600090815260016020908152604080832093909416825291909152205460ff1690565b6102df610596366004611ce4565b610c3b565b6102df6105a9366004611bf2565b610c80565b6102df6105bc366004611f0b565b610cf6565b60006001600160a01b0383166106315760405162461bcd60e51b815260206004820152602a60248201527f455243313135353a2061646472657373207a65726f206973206e6f742061207660448201526930b634b21037bbb732b960b11b60648201526084015b60405180910390fd5b506000908152602081815260408083206001600160a01b03949094168352929052205490565b60006001600160e01b03198216636cdb3d1360e11b148061068857506001600160e01b031982166303a24d0760e21b145b806106a357506301ffc9a760e01b6001600160e01b03198316145b92915050565b6106b1610d03565b6106ba81610d5d565b50565b60008181526004602052604090205460609061071b5760405162461bcd60e51b815260206004820152601860248201527f5552493a20746f6b656e20646f65736e277420657869737400000000000000006044820152606401610628565b61072482610d70565b61072d83610e04565b60405160200161073e929190611fa1565b6040516020818303038152906040529050919050565b61075c610d03565b600555565b6001600160a01b03851633148061077d575061077d853361055a565b6107995760405162461bcd60e51b8152600401610628906120d7565b6107a68585858585610f26565b5050505050565b6107b5610d03565b6107bd61112d565b565b606081518351146108245760405162461bcd60e51b815260206004820152602960248201527f455243313135353a206163636f756e747320616e6420696473206c656e677468604482015268040dad2e6dac2e8c6d60bb1b6064820152608401610628565b6000835167ffffffffffffffff81111561084e57634e487b7160e01b600052604160045260246000fd5b604051908082528060200260200182016040528015610877578160200160208202803683370190505b50905060005b8451811015610919576108de8582815181106108a957634e487b7160e01b600052603260045260246000fd5b60200260200101518583815181106108d157634e487b7160e01b600052603260045260246000fd5b60200260200101516105c1565b8282815181106108fe57634e487b7160e01b600052603260045260246000fd5b60209081029190910101526109128161231b565b905061087d565b509392505050565b610929610d03565b600b55565b610936610d03565b600655565b610943610d03565b6107bd6000611182565b610955610d03565b600f55565b610962610d03565b6107bd6111d4565b610972610d03565b600d55565b6080811061099057600654601155600c54601255610a01565b606381106109a957600754601155600d54601255610a01565b604081106109c257600854601155600e54601255610a01565b602581106109db57600954601155600f54601255610a01565b600a81106109f457600a54601155601054601255610a01565b600554601155600b546012555b6015546012546001600160a01b03909116906323b872dd9033903090610a2f90670de0b6b3a764000061224d565b6040516001600160e01b031960e086901b1681526001600160a01b0393841660048201529290911660248301526044820152606401602060405180830381600087803b158015610a7e57600080fd5b505af1158015610a92573d6000803e3d6000fd5b505050506040513d601f19601f82011682018060405250810190610ab69190611e71565b506106ba3382600160405180602001604052806000815250611217565b610ade33838361133a565b5050565b610aea610d03565b600955565b610af7610d03565b600e55565b610b04610d03565b600a55565b610b11610d03565b600855565b610b1e610d03565b6015546040516370a0823160e01b81523060048201526001600160a01b039091169063a9059cbb90339083906370a082319060240160206040518083038186803b158015610b6b57600080fd5b505afa158015610b7f573d6000803e3d6000fd5b505050506040513d601f19601f82011682018060405250810190610ba39190611f23565b6040516001600160e01b031960e085901b1681526001600160a01b0390921660048301526024820152604401602060405180830381600087803b158015610be957600080fd5b505af1158015610bfd573d6000803e3d6000fd5b505050506040513d601f19601f820116820180604052508101906106ba9190611e71565b610c29610d03565b600c55565b610c36610d03565b601055565b6001600160a01b038516331480610c575750610c57853361055a565b610c735760405162461bcd60e51b8152600401610628906120d7565b6107a6858585858561141b565b610c88610d03565b6001600160a01b038116610ced5760405162461bcd60e51b815260206004820152602660248201527f4f776e61626c653a206e6577206f776e657220697320746865207a65726f206160448201526564647265737360d01b6064820152608401610628565b6106ba81611182565b610cfe610d03565b600755565b6003546001600160a01b031633146107bd5760405162461bcd60e51b815260206004820181905260248201527f4f776e61626c653a2063616c6c6572206973206e6f7420746865206f776e65726044820152606401610628565b8051610ade906002906020840190611a45565b606060028054610d7f906122b3565b80601f0160208091040260200160405190810160405280929190818152602001828054610dab906122b3565b8015610df85780601f10610dcd57610100808354040283529160200191610df8565b820191906000526020600020905b815481529060010190602001808311610ddb57829003601f168201915b50505050509050919050565b606081610e285750506040805180820190915260018152600360fc1b602082015290565b8160005b8115610e525780610e3c8161231b565b9150610e4b9050600a83612239565b9150610e2c565b60008167ffffffffffffffff811115610e7b57634e487b7160e01b600052604160045260246000fd5b6040519080825280601f01601f191660200182016040528015610ea5576020820181803683370190505b5090505b8415610f1e57610eba60018361226c565b9150610ec7600a86612336565b610ed2906030612221565b60f81b818381518110610ef557634e487b7160e01b600052603260045260246000fd5b60200101906001600160f81b031916908160001a905350610f17600a86612239565b9450610ea9565b949350505050565b8151835114610f885760405162461bcd60e51b815260206004820152602860248201527f455243313135353a2069647320616e6420616d6f756e7473206c656e677468206044820152670dad2e6dac2e8c6d60c31b6064820152608401610628565b6001600160a01b038416610fae5760405162461bcd60e51b81526004016106289061216e565b33610fbd818787878787611553565b60005b84518110156110bf576000858281518110610feb57634e487b7160e01b600052603260045260246000fd5b60200260200101519050600085838151811061101757634e487b7160e01b600052603260045260246000fd5b602090810291909101810151600084815280835260408082206001600160a01b038e1683529093529190912054909150818110156110675760405162461bcd60e51b8152600401610628906121b3565b6000838152602081815260408083206001600160a01b038e8116855292528083208585039055908b168252812080548492906110a4908490612221565b92505081905550505050806110b89061231b565b9050610fc0565b50846001600160a01b0316866001600160a01b0316826001600160a01b03167f4a39dc06d4c0dbc64b70af90fd698a233a518aa5d07e595d983b8c0526c8f7fb878760405161110f929190612096565b60405180910390a4611125818787878787611569565b505050505050565b6111356116d4565b6003805460ff60a01b191690557f5db9ee0a495bf2e6ff9c91a7834c1ba4fdd244a5e8aa4e537bd38aeae4b073aa335b6040516001600160a01b03909116815260200160405180910390a1565b600380546001600160a01b038381166001600160a01b0319831681179093556040519116919082907f8be0079c531659141344cd1fd0a4f28419497f9722a3daafe3b4186f6b6457e090600090a35050565b6111dc611724565b6003805460ff60a01b1916600160a01b1790557f62e78cea01bee320cd4e420270b5ea74000d11b0c9f74754ebdbfc544b05a2586111653390565b6001600160a01b0384166112775760405162461bcd60e51b815260206004820152602160248201527f455243313135353a206d696e7420746f20746865207a65726f206164647265736044820152607360f81b6064820152608401610628565b33600061128385611771565b9050600061129085611771565b90506112a183600089858589611553565b6000868152602081815260408083206001600160a01b038b168452909152812080548792906112d1908490612221565b909155505060408051878152602081018790526001600160a01b03808a1692600092918716917fc3d58168c5ae7397731d063d5bbf3d657854427343f4c083240f7aacaa2d0f62910160405180910390a4611331836000898989896117ca565b50505050505050565b816001600160a01b0316836001600160a01b031614156113ae5760405162461bcd60e51b815260206004820152602960248201527f455243313135353a2073657474696e6720617070726f76616c20737461747573604482015268103337b91039b2b63360b91b6064820152608401610628565b6001600160a01b03838116600081815260016020908152604080832094871680845294825291829020805460ff191686151590811790915591519182527f17307eab39ab6107e8899845ad3d59bd9653f200f220920489ca2b5937696c31910160405180910390a3505050565b6001600160a01b0384166114415760405162461bcd60e51b81526004016106289061216e565b33600061144d85611771565b9050600061145a85611771565b905061146a838989858589611553565b6000868152602081815260408083206001600160a01b038c168452909152902054858110156114ab5760405162461bcd60e51b8152600401610628906121b3565b6000878152602081815260408083206001600160a01b038d8116855292528083208985039055908a168252812080548892906114e8908490612221565b909155505060408051888152602081018890526001600160a01b03808b16928c821692918816917fc3d58168c5ae7397731d063d5bbf3d657854427343f4c083240f7aacaa2d0f62910160405180910390a4611548848a8a8a8a8a6117ca565b505050505050505050565b61155b611724565b611125868686868686611894565b6001600160a01b0384163b156111255760405163bc197c8160e01b81526001600160a01b0385169063bc197c81906115ad9089908990889088908890600401611fe0565b602060405180830381600087803b1580156115c757600080fd5b505af19250505080156115f7575060408051601f3d908101601f191682019092526115f491810190611ea9565b60015b6116a45761160361238c565b806308c379a0141561163d57506116186123a4565b80611623575061163f565b8060405162461bcd60e51b815260040161062891906120c4565b505b60405162461bcd60e51b815260206004820152603460248201527f455243313135353a207472616e7366657220746f206e6f6e20455243313135356044820152732932b1b2b4bb32b91034b6b83632b6b2b73a32b960611b6064820152608401610628565b6001600160e01b0319811663bc197c8160e01b146113315760405162461bcd60e51b815260040161062890612126565b600354600160a01b900460ff166107bd5760405162461bcd60e51b815260206004820152601460248201527314185d5cd8589b194e881b9bdd081c185d5cd95960621b6044820152606401610628565b600354600160a01b900460ff16156107bd5760405162461bcd60e51b815260206004820152601060248201526f14185d5cd8589b194e881c185d5cd95960821b6044820152606401610628565b604080516001808252818301909252606091600091906020808301908036833701905050905082816000815181106117b957634e487b7160e01b600052603260045260246000fd5b602090810291909101015292915050565b6001600160a01b0384163b156111255760405163f23a6e6160e01b81526001600160a01b0385169063f23a6e619061180e908990899088908890889060040161203e565b602060405180830381600087803b15801561182857600080fd5b505af1925050508015611858575060408051601f3d908101601f1916820190925261185591810190611ea9565b60015b6118645761160361238c565b6001600160e01b0319811663f23a6e6160e01b146113315760405162461bcd60e51b815260040161062890612126565b6001600160a01b0385166119375760005b8351811015611935578281815181106118ce57634e487b7160e01b600052603260045260246000fd5b6020026020010151600460008684815181106118fa57634e487b7160e01b600052603260045260246000fd5b60200260200101518152602001908152602001600020600082825461191f9190612221565b9091555061192e90508161231b565b90506118a5565b505b6001600160a01b0384166111255760005b835181101561133157600084828151811061197357634e487b7160e01b600052603260045260246000fd5b60200260200101519050600084838151811061199f57634e487b7160e01b600052603260045260246000fd5b6020026020010151905060006004600084815260200190815260200160002054905081811015611a225760405162461bcd60e51b815260206004820152602860248201527f455243313135353a206275726e20616d6f756e74206578636565647320746f74604482015267616c537570706c7960c01b6064820152608401610628565b60009283526004602052604090922091039055611a3e8161231b565b9050611948565b828054611a51906122b3565b90600052602060002090601f016020900481019282611a735760008555611ab9565b82601f10611a8c57805160ff1916838001178555611ab9565b82800160010185558215611ab9579182015b82811115611ab9578251825591602001919060010190611a9e565b50611ac5929150611ac9565b5090565b5b80821115611ac55760008155600101611aca565b600067ffffffffffffffff831115611af857611af8612376565b604051611b0f601f8501601f1916602001826122ee565b809150838152848484011115611b2457600080fd5b83836020830137600060208583010152509392505050565b80356001600160a01b0381168114611b5357600080fd5b919050565b600082601f830112611b68578081fd5b81356020611b75826121fd565b604051611b8282826122ee565b8381528281019150858301600585901b87018401881015611ba1578586fd5b855b85811015611bbf57813584529284019290840190600101611ba3565b5090979650505050505050565b600082601f830112611bdc578081fd5b611beb83833560208501611ade565b9392505050565b600060208284031215611c03578081fd5b611beb82611b3c565b60008060408385031215611c1e578081fd5b611c2783611b3c565b9150611c3560208401611b3c565b90509250929050565b600080600080600060a08688031215611c55578081fd5b611c5e86611b3c565b9450611c6c60208701611b3c565b9350604086013567ffffffffffffffff80821115611c88578283fd5b611c9489838a01611b58565b94506060880135915080821115611ca9578283fd5b611cb589838a01611b58565b93506080880135915080821115611cca578283fd5b50611cd788828901611bcc565b9150509295509295909350565b600080600080600060a08688031215611cfb578081fd5b611d0486611b3c565b9450611d1260208701611b3c565b93506040860135925060608601359150608086013567ffffffffffffffff811115611d3b578182fd5b611cd788828901611bcc565b60008060408385031215611d59578182fd5b611d6283611b3c565b91506020830135611d728161242e565b809150509250929050565b60008060408385031215611d8f578182fd5b611d9883611b3c565b946020939093013593505050565b60008060408385031215611db8578182fd5b823567ffffffffffffffff80821115611dcf578384fd5b818501915085601f830112611de2578384fd5b81356020611def826121fd565b604051611dfc82826122ee565b8381528281019150858301600585901b870184018b1015611e1b578889fd5b8896505b84871015611e4457611e3081611b3c565b835260019690960195918301918301611e1f565b5096505086013592505080821115611e5a578283fd5b50611e6785828601611b58565b9150509250929050565b600060208284031215611e82578081fd5b8151611beb8161242e565b600060208284031215611e9e578081fd5b8135611beb8161243c565b600060208284031215611eba578081fd5b8151611beb8161243c565b600060208284031215611ed6578081fd5b813567ffffffffffffffff811115611eec578182fd5b8201601f81018413611efc578182fd5b610f1e84823560208401611ade565b600060208284031215611f1c578081fd5b5035919050565b600060208284031215611f34578081fd5b5051919050565b6000815180845260208085019450808401835b83811015611f6a57815187529582019590820190600101611f4e565b509495945050505050565b60008151808452611f8d816020860160208601612283565b601f01601f19169290920160200192915050565b60008351611fb3818460208801612283565b835190830190611fc7818360208801612283565b64173539b7b760d91b9101908152600501949350505050565b6001600160a01b0386811682528516602082015260a06040820181905260009061200c90830186611f3b565b828103606084015261201e8186611f3b565b905082810360808401526120328185611f75565b98975050505050505050565b6001600160a01b03868116825285166020820152604081018490526060810183905260a06080820181905260009061207890830184611f75565b979650505050505050565b602081526000611beb6020830184611f3b565b6040815260006120a96040830185611f3b565b82810360208401526120bb8185611f3b565b95945050505050565b602081526000611beb6020830184611f75565b6020808252602f908201527f455243313135353a2063616c6c6572206973206e6f7420746f6b656e206f776e60408201526e195c881b9bdc88185c1c1c9bdd9959608a1b606082015260800190565b60208082526028908201527f455243313135353a204552433131353552656365697665722072656a656374656040820152676420746f6b656e7360c01b606082015260800190565b60208082526025908201527f455243313135353a207472616e7366657220746f20746865207a65726f206164604082015264647265737360d81b606082015260800190565b6020808252602a908201527f455243313135353a20696e73756666696369656e742062616c616e636520666f60408201526939103a3930b739b332b960b11b606082015260800190565b600067ffffffffffffffff82111561221757612217612376565b5060051b60200190565b600082198211156122345761223461234a565b500190565b60008261224857612248612360565b500490565b60008160001904831182151516156122675761226761234a565b500290565b60008282101561227e5761227e61234a565b500390565b60005b8381101561229e578181015183820152602001612286565b838111156122ad576000848401525b50505050565b600181811c908216806122c757607f821691505b602082108114156122e857634e487b7160e01b600052602260045260246000fd5b50919050565b601f8201601f1916810167ffffffffffffffff8111828210171561231457612314612376565b6040525050565b600060001982141561232f5761232f61234a565b5060010190565b60008261234557612345612360565b500690565b634e487b7160e01b600052601160045260246000fd5b634e487b7160e01b600052601260045260246000fd5b634e487b7160e01b600052604160045260246000fd5b600060033d11156123a157600481823e5160e01c5b90565b600060443d10156123b25790565b6040516003193d81016004833e81513d67ffffffffffffffff81602484011181841117156123e257505050505090565b82850191508151818111156123fa5750505050505090565b843d87010160208285010111156124145750505050505090565b612423602082860101876122ee565b509095945050505050565b80151581146106ba57600080fd5b6001600160e01b0319811681146106ba57600080fdfea264697066735822122043b1a11a35e89f61407eafee2e9f88b1ebab763c0d6a2bd73ba871f611baaa1b64736f6c63430008040033697066733a2f2f516d59386a36526142656b526e3754353336757279626b41435177637162716e517950544e4370364a6451675a392f","opcodes":"PUSH1 0x80 PUSH1 0x40 MSTORE PUSH1 0x3 PUSH1 0x5 SSTORE PUSH1 0x64 PUSH1 0x6 SSTORE PUSH1 0xC8 PUSH1 0x7 SSTORE PUSH2 0x12C PUSH1 0x8 SSTORE PUSH2 0x190 PUSH1 0x9 SSTORE PUSH2 0x1F4 PUSH1 0xA SSTORE PUSH2 0xBB8 PUSH1 0xB SSTORE PUSH1 0xC8 PUSH1 0xC SSTORE PUSH1 0x96 PUSH1 0xD SSTORE PUSH1 0x64 PUSH1 0xE SSTORE PUSH1 0x4B PUSH1 0xF SSTORE PUSH1 0x32 PUSH1 0x10 SSTORE PUSH1 0xA PUSH1 0x14 SSTORE CALLVALUE DUP1 ISZERO PUSH3 0x56 JUMPI PUSH1 0x0 DUP1 REVERT JUMPDEST POP PUSH1 0x40 MLOAD PUSH3 0x2729 CODESIZE SUB DUP1 PUSH3 0x2729 DUP4 CODECOPY DUP2 ADD PUSH1 0x40 DUP2 SWAP1 MSTORE PUSH3 0x79 SWAP2 PUSH3 0x1EE JUMP JUMPDEST PUSH1 0x40 MLOAD DUP1 PUSH1 0x60 ADD PUSH1 0x40 MSTORE DUP1 PUSH1 0x36 DUP2 MSTORE PUSH1 0x20 ADD PUSH3 0x26F3 PUSH1 0x36 SWAP2 CODECOPY PUSH3 0x9E DUP2 PUSH3 0xDD JUMP JUMPDEST POP PUSH3 0xAA CALLER PUSH3 0xF6 JUMP JUMPDEST PUSH1 0x3 DUP1 SLOAD PUSH1 0xFF PUSH1 0xA0 SHL NOT AND SWAP1 SSTORE PUSH1 0x15 DUP1 SLOAD PUSH1 0x1 PUSH1 0x1 PUSH1 0xA0 SHL SUB NOT AND PUSH1 0x1 PUSH1 0x1 PUSH1 0xA0 SHL SUB SWAP3 SWAP1 SWAP3 AND SWAP2 SWAP1 SWAP2 OR SWAP1 SSTORE PUSH3 0x25B JUMP JUMPDEST DUP1 MLOAD PUSH3 0xF2 SWAP1 PUSH1 0x2 SWAP1 PUSH1 0x20 DUP5 ADD SWAP1 PUSH3 0x148 JUMP JUMPDEST POP POP JUMP JUMPDEST PUSH1 0x3 DUP1 SLOAD PUSH1 0x1 PUSH1 0x1 PUSH1 0xA0 SHL SUB DUP4 DUP2 AND PUSH1 0x1 PUSH1 0x1 PUSH1 0xA0 SHL SUB NOT DUP4 AND DUP2 OR SWAP1 SWAP4 SSTORE PUSH1 0x40 MLOAD SWAP2 AND SWAP2 SWAP1 DUP3 SWAP1 PUSH32 0x8BE0079C531659141344CD1FD0A4F28419497F9722A3DAAFE3B4186F6B6457E0 SWAP1 PUSH1 0x0 SWAP1 LOG3 POP POP JUMP JUMPDEST DUP3 DUP1 SLOAD PUSH3 0x156 SWAP1 PUSH3 0x21E JUMP JUMPDEST SWAP1 PUSH1 0x0 MSTORE PUSH1 0x20 PUSH1 0x0 KECCAK256 SWAP1 PUSH1 0x1F ADD PUSH1 0x20 SWAP1 DIV DUP2 ADD SWAP3 DUP3 PUSH3 0x17A JUMPI PUSH1 0x0 DUP6 SSTORE PUSH3 0x1C5 JUMP JUMPDEST DUP3 PUSH1 0x1F LT PUSH3 0x195 JUMPI DUP1 MLOAD PUSH1 0xFF NOT AND DUP4 DUP1 ADD OR DUP6 SSTORE PUSH3 0x1C5 JUMP JUMPDEST DUP3 DUP1 ADD PUSH1 0x1 ADD DUP6 SSTORE DUP3 ISZERO PUSH3 0x1C5 JUMPI SWAP2 DUP3 ADD JUMPDEST DUP3 DUP2 GT ISZERO PUSH3 0x1C5 JUMPI DUP3 MLOAD DUP3 SSTORE SWAP2 PUSH1 0x20 ADD SWAP2 SWAP1 PUSH1 0x1 ADD SWAP1 PUSH3 0x1A8 JUMP JUMPDEST POP PUSH3 0x1D3 SWAP3 SWAP2 POP PUSH3 0x1D7 JUMP JUMPDEST POP SWAP1 JUMP JUMPDEST JUMPDEST DUP1 DUP3 GT ISZERO PUSH3 0x1D3 JUMPI PUSH1 0x0 DUP2 SSTORE PUSH1 0x1 ADD PUSH3 0x1D8 JUMP JUMPDEST PUSH1 0x0 PUSH1 0x20 DUP3 DUP5 SUB SLT ISZERO PUSH3 0x200 JUMPI DUP1 DUP2 REVERT JUMPDEST DUP2 MLOAD PUSH1 0x1 PUSH1 0x1 PUSH1 0xA0 SHL SUB DUP2 AND DUP2 EQ PUSH3 0x217 JUMPI DUP2 DUP3 REVERT JUMPDEST SWAP4 SWAP3 POP POP POP JUMP JUMPDEST PUSH1 0x1 DUP2 DUP2 SHR SWAP1 DUP3 AND DUP1 PUSH3 0x233 JUMPI PUSH1 0x7F DUP3 AND SWAP2 POP JUMPDEST PUSH1 0x20 DUP3 LT DUP2 EQ ISZERO PUSH3 0x255 JUMPI PUSH4 0x4E487B71 PUSH1 0xE0 SHL PUSH1 0x0 MSTORE PUSH1 0x22 PUSH1 0x4 MSTORE PUSH1 0x24 PUSH1 0x0 REVERT JUMPDEST POP SWAP2 SWAP1 POP JUMP JUMPDEST PUSH2 0x2488 DUP1 PUSH3 0x26B PUSH1 0x0 CODECOPY PUSH1 0x0 RETURN INVALID PUSH1 0x80 PUSH1 0x40 MSTORE CALLVALUE DUP1 ISZERO PUSH2 0x10 JUMPI PUSH1 0x0 DUP1 REVERT JUMPDEST POP PUSH1 0x4 CALLDATASIZE LT PUSH2 0x27E JUMPI PUSH1 0x0 CALLDATALOAD PUSH1 0xE0 SHR DUP1 PUSH4 0x8DA5CB5B GT PUSH2 0x15C JUMPI DUP1 PUSH4 0xBF7EE4A5 GT PUSH2 0xCE JUMPI DUP1 PUSH4 0xDA248C4B GT PUSH2 0x87 JUMPI DUP1 PUSH4 0xDA248C4B EQ PUSH2 0x530 JUMPI DUP1 PUSH4 0xDD6F1752 EQ PUSH2 0x543 JUMPI DUP1 PUSH4 0xE985E9C5 EQ PUSH2 0x54C JUMPI DUP1 PUSH4 0xF242432A EQ PUSH2 0x588 JUMPI DUP1 PUSH4 0xF2FDE38B EQ PUSH2 0x59B JUMPI DUP1 PUSH4 0xFAD078DF EQ PUSH2 0x5AE JUMPI PUSH1 0x0 DUP1 REVERT JUMPDEST DUP1 PUSH4 0xBF7EE4A5 EQ PUSH2 0x4F1 JUMPI DUP1 PUSH4 0xC8EB86C8 EQ PUSH2 0x4FA JUMPI DUP1 PUSH4 0xCA5605B3 EQ PUSH2 0x503 JUMPI DUP1 PUSH4 0xCA628C78 EQ PUSH2 0x50C JUMPI DUP1 PUSH4 0xCE1D91F4 EQ PUSH2 0x514 JUMPI DUP1 PUSH4 0xD02439FE EQ PUSH2 0x527 JUMPI PUSH1 0x0 DUP1 REVERT JUMPDEST DUP1 PUSH4 0xAB248348 GT PUSH2 0x120 JUMPI DUP1 PUSH4 0xAB248348 EQ PUSH2 0x47C JUMPI DUP1 PUSH4 0xAEB80621 EQ PUSH2 0x485 JUMPI DUP1 PUSH4 0xB78A5D77 EQ PUSH2 0x498 JUMPI DUP1 PUSH4 0xB7E2698D EQ PUSH2 0x4AB JUMPI DUP1 PUSH4 0xB7F24320 EQ PUSH2 0x4BE JUMPI DUP1 PUSH4 0xBD85B039 EQ PUSH2 0x4D1 JUMPI PUSH1 0x0 DUP1 REVERT JUMPDEST DUP1 PUSH4 0x8DA5CB5B EQ PUSH2 0x415 JUMPI DUP1 PUSH4 0x9A41AA73 EQ PUSH2 0x43A JUMPI DUP1 PUSH4 0x9D76EA58 EQ PUSH2 0x443 JUMPI DUP1 PUSH4 0xA0712D68 EQ PUSH2 0x456 JUMPI DUP1 PUSH4 0xA22CB465 EQ PUSH2 0x469 JUMPI PUSH1 0x0 DUP1 REVERT JUMPDEST DUP1 PUSH4 0x40624B79 GT PUSH2 0x1F5 JUMPI DUP1 PUSH4 0x5C975ABB GT PUSH2 0x1B9 JUMPI DUP1 PUSH4 0x5C975ABB EQ PUSH2 0x3BA JUMPI DUP1 PUSH4 0x66871520 EQ PUSH2 0x3CC JUMPI DUP1 PUSH4 0x715018A6 EQ PUSH2 0x3DF JUMPI DUP1 PUSH4 0x7814308B EQ PUSH2 0x3E7 JUMPI DUP1 PUSH4 0x8456CB59 EQ PUSH2 0x3FA JUMPI DUP1 PUSH4 0x8D61E9F1 EQ PUSH2 0x402 JUMPI PUSH1 0x0 DUP1 REVERT JUMPDEST DUP1 PUSH4 0x40624B79 EQ PUSH2 0x353 JUMPI DUP1 PUSH4 0x4E1273F4 EQ PUSH2 0x35C JUMPI DUP1 PUSH4 0x4F558E79 EQ PUSH2 0x37C JUMPI DUP1 PUSH4 0x559C039A EQ PUSH2 0x39E JUMPI DUP1 PUSH4 0x5C774F03 EQ PUSH2 0x3A7 JUMPI PUSH1 0x0 DUP1 REVERT JUMPDEST DUP1 PUSH4 0x25BA5F56 GT PUSH2 0x247 JUMPI DUP1 PUSH4 0x25BA5F56 EQ PUSH2 0x314 JUMPI DUP1 PUSH4 0x2C4E722E EQ PUSH2 0x31D JUMPI DUP1 PUSH4 0x2EB2C2D6 EQ PUSH2 0x326 JUMPI DUP1 PUSH4 0x3235D397 EQ PUSH2 0x339 JUMPI DUP1 PUSH4 0x3BA09B9E EQ PUSH2 0x342 JUMPI DUP1 PUSH4 0x3F4BA83A EQ PUSH2 0x34B JUMPI PUSH1 0x0 DUP1 REVERT JUMPDEST DUP1 PUSH3 0xFDD58E EQ PUSH2 0x283 JUMPI DUP1 PUSH4 0x1FFC9A7 EQ PUSH2 0x2A9 JUMPI DUP1 PUSH4 0x2FE5305 EQ PUSH2 0x2CC JUMPI DUP1 PUSH4 0xE89341C EQ PUSH2 0x2E1 JUMPI DUP1 PUSH4 0x1E6B8B82 EQ PUSH2 0x301 JUMPI JUMPDEST PUSH1 0x0 DUP1 REVERT JUMPDEST PUSH2 0x296 PUSH2 0x291 CALLDATASIZE PUSH1 0x4 PUSH2 0x1D7D JUMP JUMPDEST PUSH2 0x5C1 JUMP JUMPDEST PUSH1 0x40 MLOAD SWAP1 DUP2 MSTORE PUSH1 0x20 ADD JUMPDEST PUSH1 0x40 MLOAD DUP1 SWAP2 SUB SWAP1 RETURN JUMPDEST PUSH2 0x2BC PUSH2 0x2B7 CALLDATASIZE PUSH1 0x4 PUSH2 0x1E8D JUMP JUMPDEST PUSH2 0x657 JUMP JUMPDEST PUSH1 0x40 MLOAD SWAP1 ISZERO ISZERO DUP2 MSTORE PUSH1 0x20 ADD PUSH2 0x2A0 JUMP JUMPDEST PUSH2 0x2DF PUSH2 0x2DA CALLDATASIZE PUSH1 0x4 PUSH2 0x1EC5 JUMP JUMPDEST PUSH2 0x6A9 JUMP JUMPDEST STOP JUMPDEST PUSH2 0x2F4 PUSH2 0x2EF CALLDATASIZE PUSH1 0x4 PUSH2 0x1F0B JUMP JUMPDEST PUSH2 0x6BD JUMP JUMPDEST PUSH1 0x40 MLOAD PUSH2 0x2A0 SWAP2 SWAP1 PUSH2 0x20C4 JUMP JUMPDEST PUSH2 0x2DF PUSH2 0x30F CALLDATASIZE PUSH1 0x4 PUSH2 0x1F0B JUMP JUMPDEST PUSH2 0x754 JUMP JUMPDEST PUSH2 0x296 PUSH1 0x8 SLOAD DUP2 JUMP JUMPDEST PUSH2 0x296 PUSH1 0x14 SLOAD DUP2 JUMP JUMPDEST PUSH2 0x2DF PUSH2 0x334 CALLDATASIZE PUSH1 0x4 PUSH2 0x1C3E JUMP JUMPDEST PUSH2 0x761 JUMP JUMPDEST PUSH2 0x296 PUSH1 0x5 SLOAD DUP2 JUMP JUMPDEST PUSH2 0x296 PUSH1 0x7 SLOAD DUP2 JUMP JUMPDEST PUSH2 0x2DF PUSH2 0x7AD JUMP JUMPDEST PUSH2 0x296 PUSH1 0xD SLOAD DUP2 JUMP JUMPDEST PUSH2 0x36F PUSH2 0x36A CALLDATASIZE PUSH1 0x4 PUSH2 0x1DA6 JUMP JUMPDEST PUSH2 0x7BF JUMP JUMPDEST PUSH1 0x40 MLOAD PUSH2 0x2A0 SWAP2 SWAP1 PUSH2 0x2083 JUMP JUMPDEST PUSH2 0x2BC PUSH2 0x38A CALLDATASIZE PUSH1 0x4 PUSH2 0x1F0B JUMP JUMPDEST PUSH1 0x0 SWAP1 DUP2 MSTORE PUSH1 0x4 PUSH1 0x20 MSTORE PUSH1 0x40 SWAP1 KECCAK256 SLOAD ISZERO ISZERO SWAP1 JUMP JUMPDEST PUSH2 0x296 PUSH1 0x9 SLOAD DUP2 JUMP JUMPDEST PUSH2 0x2DF PUSH2 0x3B5 CALLDATASIZE PUSH1 0x4 PUSH2 0x1F0B JUMP JUMPDEST PUSH2 0x921 JUMP JUMPDEST PUSH1 0x3 SLOAD PUSH1 0x1 PUSH1 0xA0 SHL SWAP1 DIV PUSH1 0xFF AND PUSH2 0x2BC JUMP JUMPDEST PUSH2 0x2DF PUSH2 0x3DA CALLDATASIZE PUSH1 0x4 PUSH2 0x1F0B JUMP JUMPDEST PUSH2 0x92E JUMP JUMPDEST PUSH2 0x2DF PUSH2 0x93B JUMP JUMPDEST PUSH2 0x2DF PUSH2 0x3F5 CALLDATASIZE PUSH1 0x4 PUSH2 0x1F0B JUMP JUMPDEST PUSH2 0x94D JUMP JUMPDEST PUSH2 0x2DF PUSH2 0x95A JUMP JUMPDEST PUSH2 0x2DF PUSH2 0x410 CALLDATASIZE PUSH1 0x4 PUSH2 0x1F0B JUMP JUMPDEST PUSH2 0x96A JUMP JUMPDEST PUSH1 0x3 SLOAD PUSH1 0x1 PUSH1 0x1 PUSH1 0xA0 SHL SUB AND JUMPDEST PUSH1 0x40 MLOAD PUSH1 0x1 PUSH1 0x1 PUSH1 0xA0 SHL SUB SWAP1 SWAP2 AND DUP2 MSTORE PUSH1 0x20 ADD PUSH2 0x2A0 JUMP JUMPDEST PUSH2 0x296 PUSH1 0xB SLOAD DUP2 JUMP JUMPDEST PUSH1 0x15 SLOAD PUSH2 0x422 SWAP1 PUSH1 0x1 PUSH1 0x1 PUSH1 0xA0 SHL SUB AND DUP2 JUMP JUMPDEST PUSH2 0x2DF PUSH2 0x464 CALLDATASIZE PUSH1 0x4 PUSH2 0x1F0B JUMP JUMPDEST PUSH2 0x977 JUMP JUMPDEST PUSH2 0x2DF PUSH2 0x477 CALLDATASIZE PUSH1 0x4 PUSH2 0x1D47 JUMP JUMPDEST PUSH2 0xAD3 JUMP JUMPDEST PUSH2 0x296 PUSH1 0x6 SLOAD DUP2 JUMP JUMPDEST PUSH2 0x2DF PUSH2 0x493 CALLDATASIZE PUSH1 0x4 PUSH2 0x1F0B JUMP JUMPDEST PUSH2 0xAE2 JUMP JUMPDEST PUSH2 0x2DF PUSH2 0x4A6 CALLDATASIZE PUSH1 0x4 PUSH2 0x1F0B JUMP JUMPDEST PUSH2 0xAEF JUMP JUMPDEST PUSH2 0x2DF PUSH2 0x4B9 CALLDATASIZE PUSH1 0x4 PUSH2 0x1F0B JUMP JUMPDEST PUSH2 0xAFC JUMP JUMPDEST PUSH2 0x2DF PUSH2 0x4CC CALLDATASIZE PUSH1 0x4 PUSH2 0x1F0B JUMP JUMPDEST PUSH2 0xB09 JUMP JUMPDEST PUSH2 0x296 PUSH2 0x4DF CALLDATASIZE PUSH1 0x4 PUSH2 0x1F0B JUMP JUMPDEST PUSH1 0x0 SWAP1 DUP2 MSTORE PUSH1 0x4 PUSH1 0x20 MSTORE PUSH1 0x40 SWAP1 KECCAK256 SLOAD SWAP1 JUMP JUMPDEST PUSH2 0x296 PUSH1 0x10 SLOAD DUP2 JUMP JUMPDEST PUSH2 0x296 PUSH1 0xE SLOAD DUP2 JUMP JUMPDEST PUSH2 0x296 PUSH1 0xF SLOAD DUP2 JUMP JUMPDEST PUSH2 0x2DF PUSH2 0xB16 JUMP JUMPDEST PUSH2 0x2DF PUSH2 0x522 CALLDATASIZE PUSH1 0x4 PUSH2 0x1F0B JUMP JUMPDEST PUSH2 0xC21 JUMP JUMPDEST PUSH2 0x296 PUSH1 0xC SLOAD DUP2 JUMP JUMPDEST PUSH2 0x2DF PUSH2 0x53E CALLDATASIZE PUSH1 0x4 PUSH2 0x1F0B JUMP JUMPDEST PUSH2 0xC2E JUMP JUMPDEST PUSH2 0x296 PUSH1 0xA SLOAD DUP2 JUMP JUMPDEST PUSH2 0x2BC PUSH2 0x55A CALLDATASIZE PUSH1 0x4 PUSH2 0x1C0C JUMP JUMPDEST PUSH1 0x1 PUSH1 0x1 PUSH1 0xA0 SHL SUB SWAP2 DUP3 AND PUSH1 0x0 SWAP1 DUP2 MSTORE PUSH1 0x1 PUSH1 0x20 SWAP1 DUP2 MSTORE PUSH1 0x40 DUP1 DUP4 KECCAK256 SWAP4 SWAP1 SWAP5 AND DUP3 MSTORE SWAP2 SWAP1 SWAP2 MSTORE KECCAK256 SLOAD PUSH1 0xFF AND SWAP1 JUMP JUMPDEST PUSH2 0x2DF PUSH2 0x596 CALLDATASIZE PUSH1 0x4 PUSH2 0x1CE4 JUMP JUMPDEST PUSH2 0xC3B JUMP JUMPDEST PUSH2 0x2DF PUSH2 0x5A9 CALLDATASIZE PUSH1 0x4 PUSH2 0x1BF2 JUMP JUMPDEST PUSH2 0xC80 JUMP JUMPDEST PUSH2 0x2DF PUSH2 0x5BC CALLDATASIZE PUSH1 0x4 PUSH2 0x1F0B JUMP JUMPDEST PUSH2 0xCF6 JUMP JUMPDEST PUSH1 0x0 PUSH1 0x1 PUSH1 0x1 PUSH1 0xA0 SHL SUB DUP4 AND PUSH2 0x631 JUMPI PUSH1 0x40 MLOAD PUSH3 0x461BCD PUSH1 0xE5 SHL DUP2 MSTORE PUSH1 0x20 PUSH1 0x4 DUP3 ADD MSTORE PUSH1 0x2A PUSH1 0x24 DUP3 ADD MSTORE PUSH32 0x455243313135353A2061646472657373207A65726F206973206E6F7420612076 PUSH1 0x44 DUP3 ADD MSTORE PUSH10 0x30B634B21037BBB732B9 PUSH1 0xB1 SHL PUSH1 0x64 DUP3 ADD MSTORE PUSH1 0x84 ADD JUMPDEST PUSH1 0x40 MLOAD DUP1 SWAP2 SUB SWAP1 REVERT JUMPDEST POP PUSH1 0x0 SWAP1 DUP2 MSTORE PUSH1 0x20 DUP2 DUP2 MSTORE PUSH1 0x40 DUP1 DUP4 KECCAK256 PUSH1 0x1 PUSH1 0x1 PUSH1 0xA0 SHL SUB SWAP5 SWAP1 SWAP5 AND DUP4 MSTORE SWAP3 SWAP1 MSTORE KECCAK256 SLOAD SWAP1 JUMP JUMPDEST PUSH1 0x0 PUSH1 0x1 PUSH1 0x1 PUSH1 0xE0 SHL SUB NOT DUP3 AND PUSH4 0x6CDB3D13 PUSH1 0xE1 SHL EQ DUP1 PUSH2 0x688 JUMPI POP PUSH1 0x1 PUSH1 0x1 PUSH1 0xE0 SHL SUB NOT DUP3 AND PUSH4 0x3A24D07 PUSH1 0xE2 SHL EQ JUMPDEST DUP1 PUSH2 0x6A3 JUMPI POP PUSH4 0x1FFC9A7 PUSH1 0xE0 SHL PUSH1 0x1 PUSH1 0x1 PUSH1 0xE0 SHL SUB NOT DUP4 AND EQ JUMPDEST SWAP3 SWAP2 POP POP JUMP JUMPDEST PUSH2 0x6B1 PUSH2 0xD03 JUMP JUMPDEST PUSH2 0x6BA DUP2 PUSH2 0xD5D JUMP JUMPDEST POP JUMP JUMPDEST PUSH1 0x0 DUP2 DUP2 MSTORE PUSH1 0x4 PUSH1 0x20 MSTORE PUSH1 0x40 SWAP1 KECCAK256 SLOAD PUSH1 0x60 SWAP1 PUSH2 0x71B JUMPI PUSH1 0x40 MLOAD PUSH3 0x461BCD PUSH1 0xE5 SHL DUP2 MSTORE PUSH1 0x20 PUSH1 0x4 DUP3 ADD MSTORE PUSH1 0x18 PUSH1 0x24 DUP3 ADD MSTORE PUSH32 0x5552493A20746F6B656E20646F65736E27742065786973740000000000000000 PUSH1 0x44 DUP3 ADD MSTORE PUSH1 0x64 ADD PUSH2 0x628 JUMP JUMPDEST PUSH2 0x724 DUP3 PUSH2 0xD70 JUMP JUMPDEST PUSH2 0x72D DUP4 PUSH2 0xE04 JUMP JUMPDEST PUSH1 0x40 MLOAD PUSH1 0x20 ADD PUSH2 0x73E SWAP3 SWAP2 SWAP1 PUSH2 0x1FA1 JUMP JUMPDEST PUSH1 0x40 MLOAD PUSH1 0x20 DUP2 DUP4 SUB SUB DUP2 MSTORE SWAP1 PUSH1 0x40 MSTORE SWAP1 POP SWAP2 SWAP1 POP JUMP JUMPDEST PUSH2 0x75C PUSH2 0xD03 JUMP JUMPDEST PUSH1 0x5 SSTORE JUMP JUMPDEST PUSH1 0x1 PUSH1 0x1 PUSH1 0xA0 SHL SUB DUP6 AND CALLER EQ DUP1 PUSH2 0x77D JUMPI POP PUSH2 0x77D DUP6 CALLER PUSH2 0x55A JUMP JUMPDEST PUSH2 0x799 JUMPI PUSH1 0x40 MLOAD PUSH3 0x461BCD PUSH1 0xE5 SHL DUP2 MSTORE PUSH1 0x4 ADD PUSH2 0x628 SWAP1 PUSH2 0x20D7 JUMP JUMPDEST PUSH2 0x7A6 DUP6 DUP6 DUP6 DUP6 DUP6 PUSH2 0xF26 JUMP JUMPDEST POP POP POP POP POP JUMP JUMPDEST PUSH2 0x7B5 PUSH2 0xD03 JUMP JUMPDEST PUSH2 0x7BD PUSH2 0x112D JUMP JUMPDEST JUMP JUMPDEST PUSH1 0x60 DUP2 MLOAD DUP4 MLOAD EQ PUSH2 0x824 JUMPI PUSH1 0x40 MLOAD PUSH3 0x461BCD PUSH1 0xE5 SHL DUP2 MSTORE PUSH1 0x20 PUSH1 0x4 DUP3 ADD MSTORE PUSH1 0x29 PUSH1 0x24 DUP3 ADD MSTORE PUSH32 0x455243313135353A206163636F756E747320616E6420696473206C656E677468 PUSH1 0x44 DUP3 ADD MSTORE PUSH9 0x40DAD2E6DAC2E8C6D PUSH1 0xBB SHL PUSH1 0x64 DUP3 ADD MSTORE PUSH1 0x84 ADD PUSH2 0x628 JUMP JUMPDEST PUSH1 0x0 DUP4 MLOAD PUSH8 0xFFFFFFFFFFFFFFFF DUP2 GT ISZERO PUSH2 0x84E JUMPI PUSH4 0x4E487B71 PUSH1 0xE0 SHL PUSH1 0x0 MSTORE PUSH1 0x41 PUSH1 0x4 MSTORE PUSH1 0x24 PUSH1 0x0 REVERT JUMPDEST PUSH1 0x40 MLOAD SWAP1 DUP1 DUP3 MSTORE DUP1 PUSH1 0x20 MUL PUSH1 0x20 ADD DUP3 ADD PUSH1 0x40 MSTORE DUP1 ISZERO PUSH2 0x877 JUMPI DUP2 PUSH1 0x20 ADD PUSH1 0x20 DUP3 MUL DUP1 CALLDATASIZE DUP4 CALLDATACOPY ADD SWAP1 POP JUMPDEST POP SWAP1 POP PUSH1 0x0 JUMPDEST DUP5 MLOAD DUP2 LT ISZERO PUSH2 0x919 JUMPI PUSH2 0x8DE DUP6 DUP3 DUP2 MLOAD DUP2 LT PUSH2 0x8A9 JUMPI PUSH4 0x4E487B71 PUSH1 0xE0 SHL PUSH1 0x0 MSTORE PUSH1 0x32 PUSH1 0x4 MSTORE PUSH1 0x24 PUSH1 0x0 REVERT JUMPDEST PUSH1 0x20 MUL PUSH1 0x20 ADD ADD MLOAD DUP6 DUP4 DUP2 MLOAD DUP2 LT PUSH2 0x8D1 JUMPI PUSH4 0x4E487B71 PUSH1 0xE0 SHL PUSH1 0x0 MSTORE PUSH1 0x32 PUSH1 0x4 MSTORE PUSH1 0x24 PUSH1 0x0 REVERT JUMPDEST PUSH1 0x20 MUL PUSH1 0x20 ADD ADD MLOAD PUSH2 0x5C1 JUMP JUMPDEST DUP3 DUP3 DUP2 MLOAD DUP2 LT PUSH2 0x8FE JUMPI PUSH4 0x4E487B71 PUSH1 0xE0 SHL PUSH1 0x0 MSTORE PUSH1 0x32 PUSH1 0x4 MSTORE PUSH1 0x24 PUSH1 0x0 REVERT JUMPDEST PUSH1 0x20 SWAP1 DUP2 MUL SWAP2 SWAP1 SWAP2 ADD ADD MSTORE PUSH2 0x912 DUP2 PUSH2 0x231B JUMP JUMPDEST SWAP1 POP PUSH2 0x87D JUMP JUMPDEST POP SWAP4 SWAP3 POP POP POP JUMP JUMPDEST PUSH2 0x929 PUSH2 0xD03 JUMP JUMPDEST PUSH1 0xB SSTORE JUMP JUMPDEST PUSH2 0x936 PUSH2 0xD03 JUMP JUMPDEST PUSH1 0x6 SSTORE JUMP JUMPDEST PUSH2 0x943 PUSH2 0xD03 JUMP JUMPDEST PUSH2 0x7BD PUSH1 0x0 PUSH2 0x1182 JUMP JUMPDEST PUSH2 0x955 PUSH2 0xD03 JUMP JUMPDEST PUSH1 0xF SSTORE JUMP JUMPDEST PUSH2 0x962 PUSH2 0xD03 JUMP JUMPDEST PUSH2 0x7BD PUSH2 0x11D4 JUMP JUMPDEST PUSH2 0x972 PUSH2 0xD03 JUMP JUMPDEST PUSH1 0xD SSTORE JUMP JUMPDEST PUSH1 0x80 DUP2 LT PUSH2 0x990 JUMPI PUSH1 0x6 SLOAD PUSH1 0x11 SSTORE PUSH1 0xC SLOAD PUSH1 0x12 SSTORE PUSH2 0xA01 JUMP JUMPDEST PUSH1 0x63 DUP2 LT PUSH2 0x9A9 JUMPI PUSH1 0x7 SLOAD PUSH1 0x11 SSTORE PUSH1 0xD SLOAD PUSH1 0x12 SSTORE PUSH2 0xA01 JUMP JUMPDEST PUSH1 0x40 DUP2 LT PUSH2 0x9C2 JUMPI PUSH1 0x8 SLOAD PUSH1 0x11 SSTORE PUSH1 0xE SLOAD PUSH1 0x12 SSTORE PUSH2 0xA01 JUMP JUMPDEST PUSH1 0x25 DUP2 LT PUSH2 0x9DB JUMPI PUSH1 0x9 SLOAD PUSH1 0x11 SSTORE PUSH1 0xF SLOAD PUSH1 0x12 SSTORE PUSH2 0xA01 JUMP JUMPDEST PUSH1 0xA DUP2 LT PUSH2 0x9F4 JUMPI PUSH1 0xA SLOAD PUSH1 0x11 SSTORE PUSH1 0x10 SLOAD PUSH1 0x12 SSTORE PUSH2 0xA01 JUMP JUMPDEST PUSH1 0x5 SLOAD PUSH1 0x11 SSTORE PUSH1 0xB SLOAD PUSH1 0x12 SSTORE JUMPDEST PUSH1 0x15 SLOAD PUSH1 0x12 SLOAD PUSH1 0x1 PUSH1 0x1 PUSH1 0xA0 SHL SUB SWAP1 SWAP2 AND SWAP1 PUSH4 0x23B872DD SWAP1 CALLER SWAP1 ADDRESS SWAP1 PUSH2 0xA2F SWAP1 PUSH8 0xDE0B6B3A7640000 PUSH2 0x224D JUMP JUMPDEST PUSH1 0x40 MLOAD PUSH1 0x1 PUSH1 0x1 PUSH1 0xE0 SHL SUB NOT PUSH1 0xE0 DUP7 SWAP1 SHL AND DUP2 MSTORE PUSH1 0x1 PUSH1 0x1 PUSH1 0xA0 SHL SUB SWAP4 DUP5 AND PUSH1 0x4 DUP3 ADD MSTORE SWAP3 SWAP1 SWAP2 AND PUSH1 0x24 DUP4 ADD MSTORE PUSH1 0x44 DUP3 ADD MSTORE PUSH1 0x64 ADD PUSH1 0x20 PUSH1 0x40 MLOAD DUP1 DUP4 SUB DUP2 PUSH1 0x0 DUP8 DUP1 EXTCODESIZE ISZERO DUP1 ISZERO PUSH2 0xA7E JUMPI PUSH1 0x0 DUP1 REVERT JUMPDEST POP GAS CALL ISZERO DUP1 ISZERO PUSH2 0xA92 JUMPI RETURNDATASIZE PUSH1 0x0 DUP1 RETURNDATACOPY RETURNDATASIZE PUSH1 0x0 REVERT JUMPDEST POP POP POP POP PUSH1 0x40 MLOAD RETURNDATASIZE PUSH1 0x1F NOT PUSH1 0x1F DUP3 ADD AND DUP3 ADD DUP1 PUSH1 0x40 MSTORE POP DUP2 ADD SWAP1 PUSH2 0xAB6 SWAP2 SWAP1 PUSH2 0x1E71 JUMP JUMPDEST POP PUSH2 0x6BA CALLER DUP3 PUSH1 0x1 PUSH1 0x40 MLOAD DUP1 PUSH1 0x20 ADD PUSH1 0x40 MSTORE DUP1 PUSH1 0x0 DUP2 MSTORE POP PUSH2 0x1217 JUMP JUMPDEST PUSH2 0xADE CALLER DUP4 DUP4 PUSH2 0x133A JUMP JUMPDEST POP POP JUMP JUMPDEST PUSH2 0xAEA PUSH2 0xD03 JUMP JUMPDEST PUSH1 0x9 SSTORE JUMP JUMPDEST PUSH2 0xAF7 PUSH2 0xD03 JUMP JUMPDEST PUSH1 0xE SSTORE JUMP JUMPDEST PUSH2 0xB04 PUSH2 0xD03 JUMP JUMPDEST PUSH1 0xA SSTORE JUMP JUMPDEST PUSH2 0xB11 PUSH2 0xD03 JUMP JUMPDEST PUSH1 0x8 SSTORE JUMP JUMPDEST PUSH2 0xB1E PUSH2 0xD03 JUMP JUMPDEST PUSH1 0x15 SLOAD PUSH1 0x40 MLOAD PUSH4 0x70A08231 PUSH1 0xE0 SHL DUP2 MSTORE ADDRESS PUSH1 0x4 DUP3 ADD MSTORE PUSH1 0x1 PUSH1 0x1 PUSH1 0xA0 SHL SUB SWAP1 SWAP2 AND SWAP1 PUSH4 0xA9059CBB SWAP1 CALLER SWAP1 DUP4 SWAP1 PUSH4 0x70A08231 SWAP1 PUSH1 0x24 ADD PUSH1 0x20 PUSH1 0x40 MLOAD DUP1 DUP4 SUB DUP2 DUP7 DUP1 EXTCODESIZE ISZERO DUP1 ISZERO PUSH2 0xB6B JUMPI PUSH1 0x0 DUP1 REVERT JUMPDEST POP GAS STATICCALL ISZERO DUP1 ISZERO PUSH2 0xB7F JUMPI RETURNDATASIZE PUSH1 0x0 DUP1 RETURNDATACOPY RETURNDATASIZE PUSH1 0x0 REVERT JUMPDEST POP POP POP POP PUSH1 0x40 MLOAD RETURNDATASIZE PUSH1 0x1F NOT PUSH1 0x1F DUP3 ADD AND DUP3 ADD DUP1 PUSH1 0x40 MSTORE POP DUP2 ADD SWAP1 PUSH2 0xBA3 SWAP2 SWAP1 PUSH2 0x1F23 JUMP JUMPDEST PUSH1 0x40 MLOAD PUSH1 0x1 PUSH1 0x1 PUSH1 0xE0 SHL SUB NOT PUSH1 0xE0 DUP6 SWAP1 SHL AND DUP2 MSTORE PUSH1 0x1 PUSH1 0x1 PUSH1 0xA0 SHL SUB SWAP1 SWAP3 AND PUSH1 0x4 DUP4 ADD MSTORE PUSH1 0x24 DUP3 ADD MSTORE PUSH1 0x44 ADD PUSH1 0x20 PUSH1 0x40 MLOAD DUP1 DUP4 SUB DUP2 PUSH1 0x0 DUP8 DUP1 EXTCODESIZE ISZERO DUP1 ISZERO PUSH2 0xBE9 JUMPI PUSH1 0x0 DUP1 REVERT JUMPDEST POP GAS CALL ISZERO DUP1 ISZERO PUSH2 0xBFD JUMPI RETURNDATASIZE PUSH1 0x0 DUP1 RETURNDATACOPY RETURNDATASIZE PUSH1 0x0 REVERT JUMPDEST POP POP POP POP PUSH1 0x40 MLOAD RETURNDATASIZE PUSH1 0x1F NOT PUSH1 0x1F DUP3 ADD AND DUP3 ADD DUP1 PUSH1 0x40 MSTORE POP DUP2 ADD SWAP1 PUSH2 0x6BA SWAP2 SWAP1 PUSH2 0x1E71 JUMP JUMPDEST PUSH2 0xC29 PUSH2 0xD03 JUMP JUMPDEST PUSH1 0xC SSTORE JUMP JUMPDEST PUSH2 0xC36 PUSH2 0xD03 JUMP JUMPDEST PUSH1 0x10 SSTORE JUMP JUMPDEST PUSH1 0x1 PUSH1 0x1 PUSH1 0xA0 SHL SUB DUP6 AND CALLER EQ DUP1 PUSH2 0xC57 JUMPI POP PUSH2 0xC57 DUP6 CALLER PUSH2 0x55A JUMP JUMPDEST PUSH2 0xC73 JUMPI PUSH1 0x40 MLOAD PUSH3 0x461BCD PUSH1 0xE5 SHL DUP2 MSTORE PUSH1 0x4 ADD PUSH2 0x628 SWAP1 PUSH2 0x20D7 JUMP JUMPDEST PUSH2 0x7A6 DUP6 DUP6 DUP6 DUP6 DUP6 PUSH2 0x141B JUMP JUMPDEST PUSH2 0xC88 PUSH2 0xD03 JUMP JUMPDEST PUSH1 0x1 PUSH1 0x1 PUSH1 0xA0 SHL SUB DUP2 AND PUSH2 0xCED JUMPI PUSH1 0x40 MLOAD PUSH3 0x461BCD PUSH1 0xE5 SHL DUP2 MSTORE PUSH1 0x20 PUSH1 0x4 DUP3 ADD MSTORE PUSH1 0x26 PUSH1 0x24 DUP3 ADD MSTORE PUSH32 0x4F776E61626C653A206E6577206F776E657220697320746865207A65726F2061 PUSH1 0x44 DUP3 ADD MSTORE PUSH6 0x646472657373 PUSH1 0xD0 SHL PUSH1 0x64 DUP3 ADD MSTORE PUSH1 0x84 ADD PUSH2 0x628 JUMP JUMPDEST PUSH2 0x6BA DUP2 PUSH2 0x1182 JUMP JUMPDEST PUSH2 0xCFE PUSH2 0xD03 JUMP JUMPDEST PUSH1 0x7 SSTORE JUMP JUMPDEST PUSH1 0x3 SLOAD PUSH1 0x1 PUSH1 0x1 PUSH1 0xA0 SHL SUB AND CALLER EQ PUSH2 0x7BD JUMPI PUSH1 0x40 MLOAD PUSH3 0x461BCD PUSH1 0xE5 SHL DUP2 MSTORE PUSH1 0x20 PUSH1 0x4 DUP3 ADD DUP2 SWAP1 MSTORE PUSH1 0x24 DUP3 ADD MSTORE PUSH32 0x4F776E61626C653A2063616C6C6572206973206E6F7420746865206F776E6572 PUSH1 0x44 DUP3 ADD MSTORE PUSH1 0x64 ADD PUSH2 0x628 JUMP JUMPDEST DUP1 MLOAD PUSH2 0xADE SWAP1 PUSH1 0x2 SWAP1 PUSH1 0x20 DUP5 ADD SWAP1 PUSH2 0x1A45 JUMP JUMPDEST PUSH1 0x60 PUSH1 0x2 DUP1 SLOAD PUSH2 0xD7F SWAP1 PUSH2 0x22B3 JUMP JUMPDEST DUP1 PUSH1 0x1F ADD PUSH1 0x20 DUP1 SWAP2 DIV MUL PUSH1 0x20 ADD PUSH1 0x40 MLOAD SWAP1 DUP2 ADD PUSH1 0x40 MSTORE DUP1 SWAP3 SWAP2 SWAP1 DUP2 DUP2 MSTORE PUSH1 0x20 ADD DUP3 DUP1 SLOAD PUSH2 0xDAB SWAP1 PUSH2 0x22B3 JUMP JUMPDEST DUP1 ISZERO PUSH2 0xDF8 JUMPI DUP1 PUSH1 0x1F LT PUSH2 0xDCD JUMPI PUSH2 0x100 DUP1 DUP4 SLOAD DIV MUL DUP4 MSTORE SWAP2 PUSH1 0x20 ADD SWAP2 PUSH2 0xDF8 JUMP JUMPDEST DUP3 ADD SWAP2 SWAP1 PUSH1 0x0 MSTORE PUSH1 0x20 PUSH1 0x0 KECCAK256 SWAP1 JUMPDEST DUP2 SLOAD DUP2 MSTORE SWAP1 PUSH1 0x1 ADD SWAP1 PUSH1 0x20 ADD DUP1 DUP4 GT PUSH2 0xDDB JUMPI DUP3 SWAP1 SUB PUSH1 0x1F AND DUP3 ADD SWAP2 JUMPDEST POP POP POP POP POP SWAP1 POP SWAP2 SWAP1 POP JUMP JUMPDEST PUSH1 0x60 DUP2 PUSH2 0xE28 JUMPI POP POP PUSH1 0x40 DUP1 MLOAD DUP1 DUP3 ADD SWAP1 SWAP2 MSTORE PUSH1 0x1 DUP2 MSTORE PUSH1 0x3 PUSH1 0xFC SHL PUSH1 0x20 DUP3 ADD MSTORE SWAP1 JUMP JUMPDEST DUP2 PUSH1 0x0 JUMPDEST DUP2 ISZERO PUSH2 0xE52 JUMPI DUP1 PUSH2 0xE3C DUP2 PUSH2 0x231B JUMP JUMPDEST SWAP2 POP PUSH2 0xE4B SWAP1 POP PUSH1 0xA DUP4 PUSH2 0x2239 JUMP JUMPDEST SWAP2 POP PUSH2 0xE2C JUMP JUMPDEST PUSH1 0x0 DUP2 PUSH8 0xFFFFFFFFFFFFFFFF DUP2 GT ISZERO PUSH2 0xE7B JUMPI PUSH4 0x4E487B71 PUSH1 0xE0 SHL PUSH1 0x0 MSTORE PUSH1 0x41 PUSH1 0x4 MSTORE PUSH1 0x24 PUSH1 0x0 REVERT JUMPDEST PUSH1 0x40 MLOAD SWAP1 DUP1 DUP3 MSTORE DUP1 PUSH1 0x1F ADD PUSH1 0x1F NOT AND PUSH1 0x20 ADD DUP3 ADD PUSH1 0x40 MSTORE DUP1 ISZERO PUSH2 0xEA5 JUMPI PUSH1 0x20 DUP3 ADD DUP2 DUP1 CALLDATASIZE DUP4 CALLDATACOPY ADD SWAP1 POP JUMPDEST POP SWAP1 POP JUMPDEST DUP5 ISZERO PUSH2 0xF1E JUMPI PUSH2 0xEBA PUSH1 0x1 DUP4 PUSH2 0x226C JUMP JUMPDEST SWAP2 POP PUSH2 0xEC7 PUSH1 0xA DUP7 PUSH2 0x2336 JUMP JUMPDEST PUSH2 0xED2 SWAP1 PUSH1 0x30 PUSH2 0x2221 JUMP JUMPDEST PUSH1 0xF8 SHL DUP2 DUP4 DUP2 MLOAD DUP2 LT PUSH2 0xEF5 JUMPI PUSH4 0x4E487B71 PUSH1 0xE0 SHL PUSH1 0x0 MSTORE PUSH1 0x32 PUSH1 0x4 MSTORE PUSH1 0x24 PUSH1 0x0 REVERT JUMPDEST PUSH1 0x20 ADD ADD SWAP1 PUSH1 0x1 PUSH1 0x1 PUSH1 0xF8 SHL SUB NOT AND SWAP1 DUP2 PUSH1 0x0 BYTE SWAP1 MSTORE8 POP PUSH2 0xF17 PUSH1 0xA DUP7 PUSH2 0x2239 JUMP JUMPDEST SWAP5 POP PUSH2 0xEA9 JUMP JUMPDEST SWAP5 SWAP4 POP POP POP POP JUMP JUMPDEST DUP2 MLOAD DUP4 MLOAD EQ PUSH2 0xF88 JUMPI PUSH1 0x40 MLOAD PUSH3 0x461BCD PUSH1 0xE5 SHL DUP2 MSTORE PUSH1 0x20 PUSH1 0x4 DUP3 ADD MSTORE PUSH1 0x28 PUSH1 0x24 DUP3 ADD MSTORE PUSH32 0x455243313135353A2069647320616E6420616D6F756E7473206C656E67746820 PUSH1 0x44 DUP3 ADD MSTORE PUSH8 0xDAD2E6DAC2E8C6D PUSH1 0xC3 SHL PUSH1 0x64 DUP3 ADD MSTORE PUSH1 0x84 ADD PUSH2 0x628 JUMP JUMPDEST PUSH1 0x1 PUSH1 0x1 PUSH1 0xA0 SHL SUB DUP5 AND PUSH2 0xFAE JUMPI PUSH1 0x40 MLOAD PUSH3 0x461BCD PUSH1 0xE5 SHL DUP2 MSTORE PUSH1 0x4 ADD PUSH2 0x628 SWAP1 PUSH2 0x216E JUMP JUMPDEST CALLER PUSH2 0xFBD DUP2 DUP8 DUP8 DUP8 DUP8 DUP8 PUSH2 0x1553 JUMP JUMPDEST PUSH1 0x0 JUMPDEST DUP5 MLOAD DUP2 LT ISZERO PUSH2 0x10BF JUMPI PUSH1 0x0 DUP6 DUP3 DUP2 MLOAD DUP2 LT PUSH2 0xFEB JUMPI PUSH4 0x4E487B71 PUSH1 0xE0 SHL PUSH1 0x0 MSTORE PUSH1 0x32 PUSH1 0x4 MSTORE PUSH1 0x24 PUSH1 0x0 REVERT JUMPDEST PUSH1 0x20 MUL PUSH1 0x20 ADD ADD MLOAD SWAP1 POP PUSH1 0x0 DUP6 DUP4 DUP2 MLOAD DUP2 LT PUSH2 0x1017 JUMPI PUSH4 0x4E487B71 PUSH1 0xE0 SHL PUSH1 0x0 MSTORE PUSH1 0x32 PUSH1 0x4 MSTORE PUSH1 0x24 PUSH1 0x0 REVERT JUMPDEST PUSH1 0x20 SWAP1 DUP2 MUL SWAP2 SWAP1 SWAP2 ADD DUP2 ADD MLOAD PUSH1 0x0 DUP5 DUP2 MSTORE DUP1 DUP4 MSTORE PUSH1 0x40 DUP1 DUP3 KECCAK256 PUSH1 0x1 PUSH1 0x1 PUSH1 0xA0 SHL SUB DUP15 AND DUP4 MSTORE SWAP1 SWAP4 MSTORE SWAP2 SWAP1 SWAP2 KECCAK256 SLOAD SWAP1 SWAP2 POP DUP2 DUP2 LT ISZERO PUSH2 0x1067 JUMPI PUSH1 0x40 MLOAD PUSH3 0x461BCD PUSH1 0xE5 SHL DUP2 MSTORE PUSH1 0x4 ADD PUSH2 0x628 SWAP1 PUSH2 0x21B3 JUMP JUMPDEST PUSH1 0x0 DUP4 DUP2 MSTORE PUSH1 0x20 DUP2 DUP2 MSTORE PUSH1 0x40 DUP1 DUP4 KECCAK256 PUSH1 0x1 PUSH1 0x1 PUSH1 0xA0 SHL SUB DUP15 DUP2 AND DUP6 MSTORE SWAP3 MSTORE DUP1 DUP4 KECCAK256 DUP6 DUP6 SUB SWAP1 SSTORE SWAP1 DUP12 AND DUP3 MSTORE DUP2 KECCAK256 DUP1 SLOAD DUP5 SWAP3 SWAP1 PUSH2 0x10A4 SWAP1 DUP5 SWAP1 PUSH2 0x2221 JUMP JUMPDEST SWAP3 POP POP DUP2 SWAP1 SSTORE POP POP POP POP DUP1 PUSH2 0x10B8 SWAP1 PUSH2 0x231B JUMP JUMPDEST SWAP1 POP PUSH2 0xFC0 JUMP JUMPDEST POP DUP5 PUSH1 0x1 PUSH1 0x1 PUSH1 0xA0 SHL SUB AND DUP7 PUSH1 0x1 PUSH1 0x1 PUSH1 0xA0 SHL SUB AND DUP3 PUSH1 0x1 PUSH1 0x1 PUSH1 0xA0 SHL SUB AND PUSH32 0x4A39DC06D4C0DBC64B70AF90FD698A233A518AA5D07E595D983B8C0526C8F7FB DUP8 DUP8 PUSH1 0x40 MLOAD PUSH2 0x110F SWAP3 SWAP2 SWAP1 PUSH2 0x2096 JUMP JUMPDEST PUSH1 0x40 MLOAD DUP1 SWAP2 SUB SWAP1 LOG4 PUSH2 0x1125 DUP2 DUP8 DUP8 DUP8 DUP8 DUP8 PUSH2 0x1569 JUMP JUMPDEST POP POP POP POP POP POP JUMP JUMPDEST PUSH2 0x1135 PUSH2 0x16D4 JUMP JUMPDEST PUSH1 0x3 DUP1 SLOAD PUSH1 0xFF PUSH1 0xA0 SHL NOT AND SWAP1 SSTORE PUSH32 0x5DB9EE0A495BF2E6FF9C91A7834C1BA4FDD244A5E8AA4E537BD38AEAE4B073AA CALLER JUMPDEST PUSH1 0x40 MLOAD PUSH1 0x1 PUSH1 0x1 PUSH1 0xA0 SHL SUB SWAP1 SWAP2 AND DUP2 MSTORE PUSH1 0x20 ADD PUSH1 0x40 MLOAD DUP1 SWAP2 SUB SWAP1 LOG1 JUMP JUMPDEST PUSH1 0x3 DUP1 SLOAD PUSH1 0x1 PUSH1 0x1 PUSH1 0xA0 SHL SUB DUP4 DUP2 AND PUSH1 0x1 PUSH1 0x1 PUSH1 0xA0 SHL SUB NOT DUP4 AND DUP2 OR SWAP1 SWAP4 SSTORE PUSH1 0x40 MLOAD SWAP2 AND SWAP2 SWAP1 DUP3 SWAP1 PUSH32 0x8BE0079C531659141344CD1FD0A4F28419497F9722A3DAAFE3B4186F6B6457E0 SWAP1 PUSH1 0x0 SWAP1 LOG3 POP POP JUMP JUMPDEST PUSH2 0x11DC PUSH2 0x1724 JUMP JUMPDEST PUSH1 0x3 DUP1 SLOAD PUSH1 0xFF PUSH1 0xA0 SHL NOT AND PUSH1 0x1 PUSH1 0xA0 SHL OR SWAP1 SSTORE PUSH32 0x62E78CEA01BEE320CD4E420270B5EA74000D11B0C9F74754EBDBFC544B05A258 PUSH2 0x1165 CALLER SWAP1 JUMP JUMPDEST PUSH1 0x1 PUSH1 0x1 PUSH1 0xA0 SHL SUB DUP5 AND PUSH2 0x1277 JUMPI PUSH1 0x40 MLOAD PUSH3 0x461BCD PUSH1 0xE5 SHL DUP2 MSTORE PUSH1 0x20 PUSH1 0x4 DUP3 ADD MSTORE PUSH1 0x21 PUSH1 0x24 DUP3 ADD MSTORE PUSH32 0x455243313135353A206D696E7420746F20746865207A65726F20616464726573 PUSH1 0x44 DUP3 ADD MSTORE PUSH1 0x73 PUSH1 0xF8 SHL PUSH1 0x64 DUP3 ADD MSTORE PUSH1 0x84 ADD PUSH2 0x628 JUMP JUMPDEST CALLER PUSH1 0x0 PUSH2 0x1283 DUP6 PUSH2 0x1771 JUMP JUMPDEST SWAP1 POP PUSH1 0x0 PUSH2 0x1290 DUP6 PUSH2 0x1771 JUMP JUMPDEST SWAP1 POP PUSH2 0x12A1 DUP4 PUSH1 0x0 DUP10 DUP6 DUP6 DUP10 PUSH2 0x1553 JUMP JUMPDEST PUSH1 0x0 DUP7 DUP2 MSTORE PUSH1 0x20 DUP2 DUP2 MSTORE PUSH1 0x40 DUP1 DUP4 KECCAK256 PUSH1 0x1 PUSH1 0x1 PUSH1 0xA0 SHL SUB DUP12 AND DUP5 MSTORE SWAP1 SWAP2 MSTORE DUP2 KECCAK256 DUP1 SLOAD DUP8 SWAP3 SWAP1 PUSH2 0x12D1 SWAP1 DUP5 SWAP1 PUSH2 0x2221 JUMP JUMPDEST SWAP1 SWAP2 SSTORE POP POP PUSH1 0x40 DUP1 MLOAD DUP8 DUP2 MSTORE PUSH1 0x20 DUP2 ADD DUP8 SWAP1 MSTORE PUSH1 0x1 PUSH1 0x1 PUSH1 0xA0 SHL SUB DUP1 DUP11 AND SWAP3 PUSH1 0x0 SWAP3 SWAP2 DUP8 AND SWAP2 PUSH32 0xC3D58168C5AE7397731D063D5BBF3D657854427343F4C083240F7AACAA2D0F62 SWAP2 ADD PUSH1 0x40 MLOAD DUP1 SWAP2 SUB SWAP1 LOG4 PUSH2 0x1331 DUP4 PUSH1 0x0 DUP10 DUP10 DUP10 DUP10 PUSH2 0x17CA JUMP JUMPDEST POP POP POP POP POP POP POP JUMP JUMPDEST DUP2 PUSH1 0x1 PUSH1 0x1 PUSH1 0xA0 SHL SUB AND DUP4 PUSH1 0x1 PUSH1 0x1 PUSH1 0xA0 SHL SUB AND EQ ISZERO PUSH2 0x13AE JUMPI PUSH1 0x40 MLOAD PUSH3 0x461BCD PUSH1 0xE5 SHL DUP2 MSTORE PUSH1 0x20 PUSH1 0x4 DUP3 ADD MSTORE PUSH1 0x29 PUSH1 0x24 DUP3 ADD MSTORE PUSH32 0x455243313135353A2073657474696E6720617070726F76616C20737461747573 PUSH1 0x44 DUP3 ADD MSTORE PUSH9 0x103337B91039B2B633 PUSH1 0xB9 SHL PUSH1 0x64 DUP3 ADD MSTORE PUSH1 0x84 ADD PUSH2 0x628 JUMP JUMPDEST PUSH1 0x1 PUSH1 0x1 PUSH1 0xA0 SHL SUB DUP4 DUP2 AND PUSH1 0x0 DUP2 DUP2 MSTORE PUSH1 0x1 PUSH1 0x20 SWAP1 DUP2 MSTORE PUSH1 0x40 DUP1 DUP4 KECCAK256 SWAP5 DUP8 AND DUP1 DUP5 MSTORE SWAP5 DUP3 MSTORE SWAP2 DUP3 SWAP1 KECCAK256 DUP1 SLOAD PUSH1 0xFF NOT AND DUP7 ISZERO ISZERO SWAP1 DUP2 OR SWAP1 SWAP2 SSTORE SWAP2 MLOAD SWAP2 DUP3 MSTORE PUSH32 0x17307EAB39AB6107E8899845AD3D59BD9653F200F220920489CA2B5937696C31 SWAP2 ADD PUSH1 0x40 MLOAD DUP1 SWAP2 SUB SWAP1 LOG3 POP POP POP JUMP JUMPDEST PUSH1 0x1 PUSH1 0x1 PUSH1 0xA0 SHL SUB DUP5 AND PUSH2 0x1441 JUMPI PUSH1 0x40 MLOAD PUSH3 0x461BCD PUSH1 0xE5 SHL DUP2 MSTORE PUSH1 0x4 ADD PUSH2 0x628 SWAP1 PUSH2 0x216E JUMP JUMPDEST CALLER PUSH1 0x0 PUSH2 0x144D DUP6 PUSH2 0x1771 JUMP JUMPDEST SWAP1 POP PUSH1 0x0 PUSH2 0x145A DUP6 PUSH2 0x1771 JUMP JUMPDEST SWAP1 POP PUSH2 0x146A DUP4 DUP10 DUP10 DUP6 DUP6 DUP10 PUSH2 0x1553 JUMP JUMPDEST PUSH1 0x0 DUP7 DUP2 MSTORE PUSH1 0x20 DUP2 DUP2 MSTORE PUSH1 0x40 DUP1 DUP4 KECCAK256 PUSH1 0x1 PUSH1 0x1 PUSH1 0xA0 SHL SUB DUP13 AND DUP5 MSTORE SWAP1 SWAP2 MSTORE SWAP1 KECCAK256 SLOAD DUP6 DUP2 LT ISZERO PUSH2 0x14AB JUMPI PUSH1 0x40 MLOAD PUSH3 0x461BCD PUSH1 0xE5 SHL DUP2 MSTORE PUSH1 0x4 ADD PUSH2 0x628 SWAP1 PUSH2 0x21B3 JUMP JUMPDEST PUSH1 0x0 DUP8 DUP2 MSTORE PUSH1 0x20 DUP2 DUP2 MSTORE PUSH1 0x40 DUP1 DUP4 KECCAK256 PUSH1 0x1 PUSH1 0x1 PUSH1 0xA0 SHL SUB DUP14 DUP2 AND DUP6 MSTORE SWAP3 MSTORE DUP1 DUP4 KECCAK256 DUP10 DUP6 SUB SWAP1 SSTORE SWAP1 DUP11 AND DUP3 MSTORE DUP2 KECCAK256 DUP1 SLOAD DUP9 SWAP3 SWAP1 PUSH2 0x14E8 SWAP1 DUP5 SWAP1 PUSH2 0x2221 JUMP JUMPDEST SWAP1 SWAP2 SSTORE POP POP PUSH1 0x40 DUP1 MLOAD DUP9 DUP2 MSTORE PUSH1 0x20 DUP2 ADD DUP9 SWAP1 MSTORE PUSH1 0x1 PUSH1 0x1 PUSH1 0xA0 SHL SUB DUP1 DUP12 AND SWAP3 DUP13 DUP3 AND SWAP3 SWAP2 DUP9 AND SWAP2 PUSH32 0xC3D58168C5AE7397731D063D5BBF3D657854427343F4C083240F7AACAA2D0F62 SWAP2 ADD PUSH1 0x40 MLOAD DUP1 SWAP2 SUB SWAP1 LOG4 PUSH2 0x1548 DUP5 DUP11 DUP11 DUP11 DUP11 DUP11 PUSH2 0x17CA JUMP JUMPDEST POP POP POP POP POP POP POP POP POP JUMP JUMPDEST PUSH2 0x155B PUSH2 0x1724 JUMP JUMPDEST PUSH2 0x1125 DUP7 DUP7 DUP7 DUP7 DUP7 DUP7 PUSH2 0x1894 JUMP JUMPDEST PUSH1 0x1 PUSH1 0x1 PUSH1 0xA0 SHL SUB DUP5 AND EXTCODESIZE ISZERO PUSH2 0x1125 JUMPI PUSH1 0x40 MLOAD PUSH4 0xBC197C81 PUSH1 0xE0 SHL DUP2 MSTORE PUSH1 0x1 PUSH1 0x1 PUSH1 0xA0 SHL SUB DUP6 AND SWAP1 PUSH4 0xBC197C81 SWAP1 PUSH2 0x15AD SWAP1 DUP10 SWAP1 DUP10 SWAP1 DUP9 SWAP1 DUP9 SWAP1 DUP9 SWAP1 PUSH1 0x4 ADD PUSH2 0x1FE0 JUMP JUMPDEST PUSH1 0x20 PUSH1 0x40 MLOAD DUP1 DUP4 SUB DUP2 PUSH1 0x0 DUP8 DUP1 EXTCODESIZE ISZERO DUP1 ISZERO PUSH2 0x15C7 JUMPI PUSH1 0x0 DUP1 REVERT JUMPDEST POP GAS CALL SWAP3 POP POP POP DUP1 ISZERO PUSH2 0x15F7 JUMPI POP PUSH1 0x40 DUP1 MLOAD PUSH1 0x1F RETURNDATASIZE SWAP1 DUP2 ADD PUSH1 0x1F NOT AND DUP3 ADD SWAP1 SWAP3 MSTORE PUSH2 0x15F4 SWAP2 DUP2 ADD SWAP1 PUSH2 0x1EA9 JUMP JUMPDEST PUSH1 0x1 JUMPDEST PUSH2 0x16A4 JUMPI PUSH2 0x1603 PUSH2 0x238C JUMP JUMPDEST DUP1 PUSH4 0x8C379A0 EQ ISZERO PUSH2 0x163D JUMPI POP PUSH2 0x1618 PUSH2 0x23A4 JUMP JUMPDEST DUP1 PUSH2 0x1623 JUMPI POP PUSH2 0x163F JUMP JUMPDEST DUP1 PUSH1 0x40 MLOAD PUSH3 0x461BCD PUSH1 0xE5 SHL DUP2 MSTORE PUSH1 0x4 ADD PUSH2 0x628 SWAP2 SWAP1 PUSH2 0x20C4 JUMP JUMPDEST POP JUMPDEST PUSH1 0x40 MLOAD PUSH3 0x461BCD PUSH1 0xE5 SHL DUP2 MSTORE PUSH1 0x20 PUSH1 0x4 DUP3 ADD MSTORE PUSH1 0x34 PUSH1 0x24 DUP3 ADD MSTORE PUSH32 0x455243313135353A207472616E7366657220746F206E6F6E2045524331313535 PUSH1 0x44 DUP3 ADD MSTORE PUSH20 0x2932B1B2B4BB32B91034B6B83632B6B2B73A32B9 PUSH1 0x61 SHL PUSH1 0x64 DUP3 ADD MSTORE PUSH1 0x84 ADD PUSH2 0x628 JUMP JUMPDEST PUSH1 0x1 PUSH1 0x1 PUSH1 0xE0 SHL SUB NOT DUP2 AND PUSH4 0xBC197C81 PUSH1 0xE0 SHL EQ PUSH2 0x1331 JUMPI PUSH1 0x40 MLOAD PUSH3 0x461BCD PUSH1 0xE5 SHL DUP2 MSTORE PUSH1 0x4 ADD PUSH2 0x628 SWAP1 PUSH2 0x2126 JUMP JUMPDEST PUSH1 0x3 SLOAD PUSH1 0x1 PUSH1 0xA0 SHL SWAP1 DIV PUSH1 0xFF AND PUSH2 0x7BD JUMPI PUSH1 0x40 MLOAD PUSH3 0x461BCD PUSH1 0xE5 SHL DUP2 MSTORE PUSH1 0x20 PUSH1 0x4 DUP3 ADD MSTORE PUSH1 0x14 PUSH1 0x24 DUP3 ADD MSTORE PUSH20 0x14185D5CD8589B194E881B9BDD081C185D5CD959 PUSH1 0x62 SHL PUSH1 0x44 DUP3 ADD MSTORE PUSH1 0x64 ADD PUSH2 0x628 JUMP JUMPDEST PUSH1 0x3 SLOAD PUSH1 0x1 PUSH1 0xA0 SHL SWAP1 DIV PUSH1 0xFF AND ISZERO PUSH2 0x7BD JUMPI PUSH1 0x40 MLOAD PUSH3 0x461BCD PUSH1 0xE5 SHL DUP2 MSTORE PUSH1 0x20 PUSH1 0x4 DUP3 ADD MSTORE PUSH1 0x10 PUSH1 0x24 DUP3 ADD MSTORE PUSH16 0x14185D5CD8589B194E881C185D5CD959 PUSH1 0x82 SHL PUSH1 0x44 DUP3 ADD MSTORE PUSH1 0x64 ADD PUSH2 0x628 JUMP JUMPDEST PUSH1 0x40 DUP1 MLOAD PUSH1 0x1 DUP1 DUP3 MSTORE DUP2 DUP4 ADD SWAP1 SWAP3 MSTORE PUSH1 0x60 SWAP2 PUSH1 0x0 SWAP2 SWAP1 PUSH1 0x20 DUP1 DUP4 ADD SWAP1 DUP1 CALLDATASIZE DUP4 CALLDATACOPY ADD SWAP1 POP POP SWAP1 POP DUP3 DUP2 PUSH1 0x0 DUP2 MLOAD DUP2 LT PUSH2 0x17B9 JUMPI PUSH4 0x4E487B71 PUSH1 0xE0 SHL PUSH1 0x0 MSTORE PUSH1 0x32 PUSH1 0x4 MSTORE PUSH1 0x24 PUSH1 0x0 REVERT JUMPDEST PUSH1 0x20 SWAP1 DUP2 MUL SWAP2 SWAP1 SWAP2 ADD ADD MSTORE SWAP3 SWAP2 POP POP JUMP JUMPDEST PUSH1 0x1 PUSH1 0x1 PUSH1 0xA0 SHL SUB DUP5 AND EXTCODESIZE ISZERO PUSH2 0x1125 JUMPI PUSH1 0x40 MLOAD PUSH4 0xF23A6E61 PUSH1 0xE0 SHL DUP2 MSTORE PUSH1 0x1 PUSH1 0x1 PUSH1 0xA0 SHL SUB DUP6 AND SWAP1 PUSH4 0xF23A6E61 SWAP1 PUSH2 0x180E SWAP1 DUP10 SWAP1 DUP10 SWAP1 DUP9 SWAP1 DUP9 SWAP1 DUP9 SWAP1 PUSH1 0x4 ADD PUSH2 0x203E JUMP JUMPDEST PUSH1 0x20 PUSH1 0x40 MLOAD DUP1 DUP4 SUB DUP2 PUSH1 0x0 DUP8 DUP1 EXTCODESIZE ISZERO DUP1 ISZERO PUSH2 0x1828 JUMPI PUSH1 0x0 DUP1 REVERT JUMPDEST POP GAS CALL SWAP3 POP POP POP DUP1 ISZERO PUSH2 0x1858 JUMPI POP PUSH1 0x40 DUP1 MLOAD PUSH1 0x1F RETURNDATASIZE SWAP1 DUP2 ADD PUSH1 0x1F NOT AND DUP3 ADD SWAP1 SWAP3 MSTORE PUSH2 0x1855 SWAP2 DUP2 ADD SWAP1 PUSH2 0x1EA9 JUMP JUMPDEST PUSH1 0x1 JUMPDEST PUSH2 0x1864 JUMPI PUSH2 0x1603 PUSH2 0x238C JUMP JUMPDEST PUSH1 0x1 PUSH1 0x1 PUSH1 0xE0 SHL SUB NOT DUP2 AND PUSH4 0xF23A6E61 PUSH1 0xE0 SHL EQ PUSH2 0x1331 JUMPI PUSH1 0x40 MLOAD PUSH3 0x461BCD PUSH1 0xE5 SHL DUP2 MSTORE PUSH1 0x4 ADD PUSH2 0x628 SWAP1 PUSH2 0x2126 JUMP JUMPDEST PUSH1 0x1 PUSH1 0x1 PUSH1 0xA0 SHL SUB DUP6 AND PUSH2 0x1937 JUMPI PUSH1 0x0 JUMPDEST DUP4 MLOAD DUP2 LT ISZERO PUSH2 0x1935 JUMPI DUP3 DUP2 DUP2 MLOAD DUP2 LT PUSH2 0x18CE JUMPI PUSH4 0x4E487B71 PUSH1 0xE0 SHL PUSH1 0x0 MSTORE PUSH1 0x32 PUSH1 0x4 MSTORE PUSH1 0x24 PUSH1 0x0 REVERT JUMPDEST PUSH1 0x20 MUL PUSH1 0x20 ADD ADD MLOAD PUSH1 0x4 PUSH1 0x0 DUP7 DUP5 DUP2 MLOAD DUP2 LT PUSH2 0x18FA JUMPI PUSH4 0x4E487B71 PUSH1 0xE0 SHL PUSH1 0x0 MSTORE PUSH1 0x32 PUSH1 0x4 MSTORE PUSH1 0x24 PUSH1 0x0 REVERT JUMPDEST PUSH1 0x20 MUL PUSH1 0x20 ADD ADD MLOAD DUP2 MSTORE PUSH1 0x20 ADD SWAP1 DUP2 MSTORE PUSH1 0x20 ADD PUSH1 0x0 KECCAK256 PUSH1 0x0 DUP3 DUP3 SLOAD PUSH2 0x191F SWAP2 SWAP1 PUSH2 0x2221 JUMP JUMPDEST SWAP1 SWAP2 SSTORE POP PUSH2 0x192E SWAP1 POP DUP2 PUSH2 0x231B JUMP JUMPDEST SWAP1 POP PUSH2 0x18A5 JUMP JUMPDEST POP JUMPDEST PUSH1 0x1 PUSH1 0x1 PUSH1 0xA0 SHL SUB DUP5 AND PUSH2 0x1125 JUMPI PUSH1 0x0 JUMPDEST DUP4 MLOAD DUP2 LT ISZERO PUSH2 0x1331 JUMPI PUSH1 0x0 DUP5 DUP3 DUP2 MLOAD DUP2 LT PUSH2 0x1973 JUMPI PUSH4 0x4E487B71 PUSH1 0xE0 SHL PUSH1 0x0 MSTORE PUSH1 0x32 PUSH1 0x4 MSTORE PUSH1 0x24 PUSH1 0x0 REVERT JUMPDEST PUSH1 0x20 MUL PUSH1 0x20 ADD ADD MLOAD SWAP1 POP PUSH1 0x0 DUP5 DUP4 DUP2 MLOAD DUP2 LT PUSH2 0x199F JUMPI PUSH4 0x4E487B71 PUSH1 0xE0 SHL PUSH1 0x0 MSTORE PUSH1 0x32 PUSH1 0x4 MSTORE PUSH1 0x24 PUSH1 0x0 REVERT JUMPDEST PUSH1 0x20 MUL PUSH1 0x20 ADD ADD MLOAD SWAP1 POP PUSH1 0x0 PUSH1 0x4 PUSH1 0x0 DUP5 DUP2 MSTORE PUSH1 0x20 ADD SWAP1 DUP2 MSTORE PUSH1 0x20 ADD PUSH1 0x0 KECCAK256 SLOAD SWAP1 POP DUP2 DUP2 LT ISZERO PUSH2 0x1A22 JUMPI PUSH1 0x40 MLOAD PUSH3 0x461BCD PUSH1 0xE5 SHL DUP2 MSTORE PUSH1 0x20 PUSH1 0x4 DUP3 ADD MSTORE PUSH1 0x28 PUSH1 0x24 DUP3 ADD MSTORE PUSH32 0x455243313135353A206275726E20616D6F756E74206578636565647320746F74 PUSH1 0x44 DUP3 ADD MSTORE PUSH8 0x616C537570706C79 PUSH1 0xC0 SHL PUSH1 0x64 DUP3 ADD MSTORE PUSH1 0x84 ADD PUSH2 0x628 JUMP JUMPDEST PUSH1 0x0 SWAP3 DUP4 MSTORE PUSH1 0x4 PUSH1 0x20 MSTORE PUSH1 0x40 SWAP1 SWAP3 KECCAK256 SWAP2 SUB SWAP1 SSTORE PUSH2 0x1A3E DUP2 PUSH2 0x231B JUMP JUMPDEST SWAP1 POP PUSH2 0x1948 JUMP JUMPDEST DUP3 DUP1 SLOAD PUSH2 0x1A51 SWAP1 PUSH2 0x22B3 JUMP JUMPDEST SWAP1 PUSH1 0x0 MSTORE PUSH1 0x20 PUSH1 0x0 KECCAK256 SWAP1 PUSH1 0x1F ADD PUSH1 0x20 SWAP1 DIV DUP2 ADD SWAP3 DUP3 PUSH2 0x1A73 JUMPI PUSH1 0x0 DUP6 SSTORE PUSH2 0x1AB9 JUMP JUMPDEST DUP3 PUSH1 0x1F LT PUSH2 0x1A8C JUMPI DUP1 MLOAD PUSH1 0xFF NOT AND DUP4 DUP1 ADD OR DUP6 SSTORE PUSH2 0x1AB9 JUMP JUMPDEST DUP3 DUP1 ADD PUSH1 0x1 ADD DUP6 SSTORE DUP3 ISZERO PUSH2 0x1AB9 JUMPI SWAP2 DUP3 ADD JUMPDEST DUP3 DUP2 GT ISZERO PUSH2 0x1AB9 JUMPI DUP3 MLOAD DUP3 SSTORE SWAP2 PUSH1 0x20 ADD SWAP2 SWAP1 PUSH1 0x1 ADD SWAP1 PUSH2 0x1A9E JUMP JUMPDEST POP PUSH2 0x1AC5 SWAP3 SWAP2 POP PUSH2 0x1AC9 JUMP JUMPDEST POP SWAP1 JUMP JUMPDEST JUMPDEST DUP1 DUP3 GT ISZERO PUSH2 0x1AC5 JUMPI PUSH1 0x0 DUP2 SSTORE PUSH1 0x1 ADD PUSH2 0x1ACA JUMP JUMPDEST PUSH1 0x0 PUSH8 0xFFFFFFFFFFFFFFFF DUP4 GT ISZERO PUSH2 0x1AF8 JUMPI PUSH2 0x1AF8 PUSH2 0x2376 JUMP JUMPDEST PUSH1 0x40 MLOAD PUSH2 0x1B0F PUSH1 0x1F DUP6 ADD PUSH1 0x1F NOT AND PUSH1 0x20 ADD DUP3 PUSH2 0x22EE JUMP JUMPDEST DUP1 SWAP2 POP DUP4 DUP2 MSTORE DUP5 DUP5 DUP5 ADD GT ISZERO PUSH2 0x1B24 JUMPI PUSH1 0x0 DUP1 REVERT JUMPDEST DUP4 DUP4 PUSH1 0x20 DUP4 ADD CALLDATACOPY PUSH1 0x0 PUSH1 0x20 DUP6 DUP4 ADD ADD MSTORE POP SWAP4 SWAP3 POP POP POP JUMP JUMPDEST DUP1 CALLDATALOAD PUSH1 0x1 PUSH1 0x1 PUSH1 0xA0 SHL SUB DUP2 AND DUP2 EQ PUSH2 0x1B53 JUMPI PUSH1 0x0 DUP1 REVERT JUMPDEST SWAP2 SWAP1 POP JUMP JUMPDEST PUSH1 0x0 DUP3 PUSH1 0x1F DUP4 ADD SLT PUSH2 0x1B68 JUMPI DUP1 DUP2 REVERT JUMPDEST DUP2 CALLDATALOAD PUSH1 0x20 PUSH2 0x1B75 DUP3 PUSH2 0x21FD JUMP JUMPDEST PUSH1 0x40 MLOAD PUSH2 0x1B82 DUP3 DUP3 PUSH2 0x22EE JUMP JUMPDEST DUP4 DUP2 MSTORE DUP3 DUP2 ADD SWAP2 POP DUP6 DUP4 ADD PUSH1 0x5 DUP6 SWAP1 SHL DUP8 ADD DUP5 ADD DUP9 LT ISZERO PUSH2 0x1BA1 JUMPI DUP6 DUP7 REVERT JUMPDEST DUP6 JUMPDEST DUP6 DUP2 LT ISZERO PUSH2 0x1BBF JUMPI DUP2 CALLDATALOAD DUP5 MSTORE SWAP3 DUP5 ADD SWAP3 SWAP1 DUP5 ADD SWAP1 PUSH1 0x1 ADD PUSH2 0x1BA3 JUMP JUMPDEST POP SWAP1 SWAP8 SWAP7 POP POP POP POP POP POP POP JUMP JUMPDEST PUSH1 0x0 DUP3 PUSH1 0x1F DUP4 ADD SLT PUSH2 0x1BDC JUMPI DUP1 DUP2 REVERT JUMPDEST PUSH2 0x1BEB DUP4 DUP4 CALLDATALOAD PUSH1 0x20 DUP6 ADD PUSH2 0x1ADE JUMP JUMPDEST SWAP4 SWAP3 POP POP POP JUMP JUMPDEST PUSH1 0x0 PUSH1 0x20 DUP3 DUP5 SUB SLT ISZERO PUSH2 0x1C03 JUMPI DUP1 DUP2 REVERT JUMPDEST PUSH2 0x1BEB DUP3 PUSH2 0x1B3C JUMP JUMPDEST PUSH1 0x0 DUP1 PUSH1 0x40 DUP4 DUP6 SUB SLT ISZERO PUSH2 0x1C1E JUMPI DUP1 DUP2 REVERT JUMPDEST PUSH2 0x1C27 DUP4 PUSH2 0x1B3C JUMP JUMPDEST SWAP2 POP PUSH2 0x1C35 PUSH1 0x20 DUP5 ADD PUSH2 0x1B3C JUMP JUMPDEST SWAP1 POP SWAP3 POP SWAP3 SWAP1 POP JUMP JUMPDEST PUSH1 0x0 DUP1 PUSH1 0x0 DUP1 PUSH1 0x0 PUSH1 0xA0 DUP7 DUP9 SUB SLT ISZERO PUSH2 0x1C55 JUMPI DUP1 DUP2 REVERT JUMPDEST PUSH2 0x1C5E DUP7 PUSH2 0x1B3C JUMP JUMPDEST SWAP5 POP PUSH2 0x1C6C PUSH1 0x20 DUP8 ADD PUSH2 0x1B3C JUMP JUMPDEST SWAP4 POP PUSH1 0x40 DUP7 ADD CALLDATALOAD PUSH8 0xFFFFFFFFFFFFFFFF DUP1 DUP3 GT ISZERO PUSH2 0x1C88 JUMPI DUP3 DUP4 REVERT JUMPDEST PUSH2 0x1C94 DUP10 DUP4 DUP11 ADD PUSH2 0x1B58 JUMP JUMPDEST SWAP5 POP PUSH1 0x60 DUP9 ADD CALLDATALOAD SWAP2 POP DUP1 DUP3 GT ISZERO PUSH2 0x1CA9 JUMPI DUP3 DUP4 REVERT JUMPDEST PUSH2 0x1CB5 DUP10 DUP4 DUP11 ADD PUSH2 0x1B58 JUMP JUMPDEST SWAP4 POP PUSH1 0x80 DUP9 ADD CALLDATALOAD SWAP2 POP DUP1 DUP3 GT ISZERO PUSH2 0x1CCA JUMPI DUP3 DUP4 REVERT JUMPDEST POP PUSH2 0x1CD7 DUP9 DUP3 DUP10 ADD PUSH2 0x1BCC JUMP JUMPDEST SWAP2 POP POP SWAP3 SWAP6 POP SWAP3 SWAP6 SWAP1 SWAP4 POP JUMP JUMPDEST PUSH1 0x0 DUP1 PUSH1 0x0 DUP1 PUSH1 0x0 PUSH1 0xA0 DUP7 DUP9 SUB SLT ISZERO PUSH2 0x1CFB JUMPI DUP1 DUP2 REVERT JUMPDEST PUSH2 0x1D04 DUP7 PUSH2 0x1B3C JUMP JUMPDEST SWAP5 POP PUSH2 0x1D12 PUSH1 0x20 DUP8 ADD PUSH2 0x1B3C JUMP JUMPDEST SWAP4 POP PUSH1 0x40 DUP7 ADD CALLDATALOAD SWAP3 POP PUSH1 0x60 DUP7 ADD CALLDATALOAD SWAP2 POP PUSH1 0x80 DUP7 ADD CALLDATALOAD PUSH8 0xFFFFFFFFFFFFFFFF DUP2 GT ISZERO PUSH2 0x1D3B JUMPI DUP2 DUP3 REVERT JUMPDEST PUSH2 0x1CD7 DUP9 DUP3 DUP10 ADD PUSH2 0x1BCC JUMP JUMPDEST PUSH1 0x0 DUP1 PUSH1 0x40 DUP4 DUP6 SUB SLT ISZERO PUSH2 0x1D59 JUMPI DUP2 DUP3 REVERT JUMPDEST PUSH2 0x1D62 DUP4 PUSH2 0x1B3C JUMP JUMPDEST SWAP2 POP PUSH1 0x20 DUP4 ADD CALLDATALOAD PUSH2 0x1D72 DUP2 PUSH2 0x242E JUMP JUMPDEST DUP1 SWAP2 POP POP SWAP3 POP SWAP3 SWAP1 POP JUMP JUMPDEST PUSH1 0x0 DUP1 PUSH1 0x40 DUP4 DUP6 SUB SLT ISZERO PUSH2 0x1D8F JUMPI DUP2 DUP3 REVERT JUMPDEST PUSH2 0x1D98 DUP4 PUSH2 0x1B3C JUMP JUMPDEST SWAP5 PUSH1 0x20 SWAP4 SWAP1 SWAP4 ADD CALLDATALOAD SWAP4 POP POP POP JUMP JUMPDEST PUSH1 0x0 DUP1 PUSH1 0x40 DUP4 DUP6 SUB SLT ISZERO PUSH2 0x1DB8 JUMPI DUP2 DUP3 REVERT JUMPDEST DUP3 CALLDATALOAD PUSH8 0xFFFFFFFFFFFFFFFF DUP1 DUP3 GT ISZERO PUSH2 0x1DCF JUMPI DUP4 DUP5 REVERT JUMPDEST DUP2 DUP6 ADD SWAP2 POP DUP6 PUSH1 0x1F DUP4 ADD SLT PUSH2 0x1DE2 JUMPI DUP4 DUP5 REVERT JUMPDEST DUP2 CALLDATALOAD PUSH1 0x20 PUSH2 0x1DEF DUP3 PUSH2 0x21FD JUMP JUMPDEST PUSH1 0x40 MLOAD PUSH2 0x1DFC DUP3 DUP3 PUSH2 0x22EE JUMP JUMPDEST DUP4 DUP2 MSTORE DUP3 DUP2 ADD SWAP2 POP DUP6 DUP4 ADD PUSH1 0x5 DUP6 SWAP1 SHL DUP8 ADD DUP5 ADD DUP12 LT ISZERO PUSH2 0x1E1B JUMPI DUP9 DUP10 REVERT JUMPDEST DUP9 SWAP7 POP JUMPDEST DUP5 DUP8 LT ISZERO PUSH2 0x1E44 JUMPI PUSH2 0x1E30 DUP2 PUSH2 0x1B3C JUMP JUMPDEST DUP4 MSTORE PUSH1 0x1 SWAP7 SWAP1 SWAP7 ADD SWAP6 SWAP2 DUP4 ADD SWAP2 DUP4 ADD PUSH2 0x1E1F JUMP JUMPDEST POP SWAP7 POP POP DUP7 ADD CALLDATALOAD SWAP3 POP POP DUP1 DUP3 GT ISZERO PUSH2 0x1E5A JUMPI DUP3 DUP4 REVERT JUMPDEST POP PUSH2 0x1E67 DUP6 DUP3 DUP7 ADD PUSH2 0x1B58 JUMP JUMPDEST SWAP2 POP POP SWAP3 POP SWAP3 SWAP1 POP JUMP JUMPDEST PUSH1 0x0 PUSH1 0x20 DUP3 DUP5 SUB SLT ISZERO PUSH2 0x1E82 JUMPI DUP1 DUP2 REVERT JUMPDEST DUP2 MLOAD PUSH2 0x1BEB DUP2 PUSH2 0x242E JUMP JUMPDEST PUSH1 0x0 PUSH1 0x20 DUP3 DUP5 SUB SLT ISZERO PUSH2 0x1E9E JUMPI DUP1 DUP2 REVERT JUMPDEST DUP2 CALLDATALOAD PUSH2 0x1BEB DUP2 PUSH2 0x243C JUMP JUMPDEST PUSH1 0x0 PUSH1 0x20 DUP3 DUP5 SUB SLT ISZERO PUSH2 0x1EBA JUMPI DUP1 DUP2 REVERT JUMPDEST DUP2 MLOAD PUSH2 0x1BEB DUP2 PUSH2 0x243C JUMP JUMPDEST PUSH1 0x0 PUSH1 0x20 DUP3 DUP5 SUB SLT ISZERO PUSH2 0x1ED6 JUMPI DUP1 DUP2 REVERT JUMPDEST DUP2 CALLDATALOAD PUSH8 0xFFFFFFFFFFFFFFFF DUP2 GT ISZERO PUSH2 0x1EEC JUMPI DUP2 DUP3 REVERT JUMPDEST DUP3 ADD PUSH1 0x1F DUP2 ADD DUP5 SGT PUSH2 0x1EFC JUMPI DUP2 DUP3 REVERT JUMPDEST PUSH2 0xF1E DUP5 DUP3 CALLDATALOAD PUSH1 0x20 DUP5 ADD PUSH2 0x1ADE JUMP JUMPDEST PUSH1 0x0 PUSH1 0x20 DUP3 DUP5 SUB SLT ISZERO PUSH2 0x1F1C JUMPI DUP1 DUP2 REVERT JUMPDEST POP CALLDATALOAD SWAP2 SWAP1 POP JUMP JUMPDEST PUSH1 0x0 PUSH1 0x20 DUP3 DUP5 SUB SLT ISZERO PUSH2 0x1F34 JUMPI DUP1 DUP2 REVERT JUMPDEST POP MLOAD SWAP2 SWAP1 POP JUMP JUMPDEST PUSH1 0x0 DUP2 MLOAD DUP1 DUP5 MSTORE PUSH1 0x20 DUP1 DUP6 ADD SWAP5 POP DUP1 DUP5 ADD DUP4 JUMPDEST DUP4 DUP2 LT ISZERO PUSH2 0x1F6A JUMPI DUP2 MLOAD DUP8 MSTORE SWAP6 DUP3 ADD SWAP6 SWAP1 DUP3 ADD SWAP1 PUSH1 0x1 ADD PUSH2 0x1F4E JUMP JUMPDEST POP SWAP5 SWAP6 SWAP5 POP POP POP POP POP JUMP JUMPDEST PUSH1 0x0 DUP2 MLOAD DUP1 DUP5 MSTORE PUSH2 0x1F8D DUP2 PUSH1 0x20 DUP7 ADD PUSH1 0x20 DUP7 ADD PUSH2 0x2283 JUMP JUMPDEST PUSH1 0x1F ADD PUSH1 0x1F NOT AND SWAP3 SWAP1 SWAP3 ADD PUSH1 0x20 ADD SWAP3 SWAP2 POP POP JUMP JUMPDEST PUSH1 0x0 DUP4 MLOAD PUSH2 0x1FB3 DUP2 DUP5 PUSH1 0x20 DUP9 ADD PUSH2 0x2283 JUMP JUMPDEST DUP4 MLOAD SWAP1 DUP4 ADD SWAP1 PUSH2 0x1FC7 DUP2 DUP4 PUSH1 0x20 DUP9 ADD PUSH2 0x2283 JUMP JUMPDEST PUSH5 0x173539B7B7 PUSH1 0xD9 SHL SWAP2 ADD SWAP1 DUP2 MSTORE PUSH1 0x5 ADD SWAP5 SWAP4 POP POP POP POP JUMP JUMPDEST PUSH1 0x1 PUSH1 0x1 PUSH1 0xA0 SHL SUB DUP7 DUP2 AND DUP3 MSTORE DUP6 AND PUSH1 0x20 DUP3 ADD MSTORE PUSH1 0xA0 PUSH1 0x40 DUP3 ADD DUP2 SWAP1 MSTORE PUSH1 0x0 SWAP1 PUSH2 0x200C SWAP1 DUP4 ADD DUP7 PUSH2 0x1F3B JUMP JUMPDEST DUP3 DUP2 SUB PUSH1 0x60 DUP5 ADD MSTORE PUSH2 0x201E DUP2 DUP7 PUSH2 0x1F3B JUMP JUMPDEST SWAP1 POP DUP3 DUP2 SUB PUSH1 0x80 DUP5 ADD MSTORE PUSH2 0x2032 DUP2 DUP6 PUSH2 0x1F75 JUMP JUMPDEST SWAP9 SWAP8 POP POP POP POP POP POP POP POP JUMP JUMPDEST PUSH1 0x1 PUSH1 0x1 PUSH1 0xA0 SHL SUB DUP7 DUP2 AND DUP3 MSTORE DUP6 AND PUSH1 0x20 DUP3 ADD MSTORE PUSH1 0x40 DUP2 ADD DUP5 SWAP1 MSTORE PUSH1 0x60 DUP2 ADD DUP4 SWAP1 MSTORE PUSH1 0xA0 PUSH1 0x80 DUP3 ADD DUP2 SWAP1 MSTORE PUSH1 0x0 SWAP1 PUSH2 0x2078 SWAP1 DUP4 ADD DUP5 PUSH2 0x1F75 JUMP JUMPDEST SWAP8 SWAP7 POP POP POP POP POP POP POP JUMP JUMPDEST PUSH1 0x20 DUP2 MSTORE PUSH1 0x0 PUSH2 0x1BEB PUSH1 0x20 DUP4 ADD DUP5 PUSH2 0x1F3B JUMP JUMPDEST PUSH1 0x40 DUP2 MSTORE PUSH1 0x0 PUSH2 0x20A9 PUSH1 0x40 DUP4 ADD DUP6 PUSH2 0x1F3B JUMP JUMPDEST DUP3 DUP2 SUB PUSH1 0x20 DUP5 ADD MSTORE PUSH2 0x20BB DUP2 DUP6 PUSH2 0x1F3B JUMP JUMPDEST SWAP6 SWAP5 POP POP POP POP POP JUMP JUMPDEST PUSH1 0x20 DUP2 MSTORE PUSH1 0x0 PUSH2 0x1BEB PUSH1 0x20 DUP4 ADD DUP5 PUSH2 0x1F75 JUMP JUMPDEST PUSH1 0x20 DUP1 DUP3 MSTORE PUSH1 0x2F SWAP1 DUP3 ADD MSTORE PUSH32 0x455243313135353A2063616C6C6572206973206E6F7420746F6B656E206F776E PUSH1 0x40 DUP3 ADD MSTORE PUSH15 0x195C881B9BDC88185C1C1C9BDD9959 PUSH1 0x8A SHL PUSH1 0x60 DUP3 ADD MSTORE PUSH1 0x80 ADD SWAP1 JUMP JUMPDEST PUSH1 0x20 DUP1 DUP3 MSTORE PUSH1 0x28 SWAP1 DUP3 ADD MSTORE PUSH32 0x455243313135353A204552433131353552656365697665722072656A65637465 PUSH1 0x40 DUP3 ADD MSTORE PUSH8 0x6420746F6B656E73 PUSH1 0xC0 SHL PUSH1 0x60 DUP3 ADD MSTORE PUSH1 0x80 ADD SWAP1 JUMP JUMPDEST PUSH1 0x20 DUP1 DUP3 MSTORE PUSH1 0x25 SWAP1 DUP3 ADD MSTORE PUSH32 0x455243313135353A207472616E7366657220746F20746865207A65726F206164 PUSH1 0x40 DUP3 ADD MSTORE PUSH5 0x6472657373 PUSH1 0xD8 SHL PUSH1 0x60 DUP3 ADD MSTORE PUSH1 0x80 ADD SWAP1 JUMP JUMPDEST PUSH1 0x20 DUP1 DUP3 MSTORE PUSH1 0x2A SWAP1 DUP3 ADD MSTORE PUSH32 0x455243313135353A20696E73756666696369656E742062616C616E636520666F PUSH1 0x40 DUP3 ADD MSTORE PUSH10 0x39103A3930B739B332B9 PUSH1 0xB1 SHL PUSH1 0x60 DUP3 ADD MSTORE PUSH1 0x80 ADD SWAP1 JUMP JUMPDEST PUSH1 0x0 PUSH8 0xFFFFFFFFFFFFFFFF DUP3 GT ISZERO PUSH2 0x2217 JUMPI PUSH2 0x2217 PUSH2 0x2376 JUMP JUMPDEST POP PUSH1 0x5 SHL PUSH1 0x20 ADD SWAP1 JUMP JUMPDEST PUSH1 0x0 DUP3 NOT DUP3 GT ISZERO PUSH2 0x2234 JUMPI PUSH2 0x2234 PUSH2 0x234A JUMP JUMPDEST POP ADD SWAP1 JUMP JUMPDEST PUSH1 0x0 DUP3 PUSH2 0x2248 JUMPI PUSH2 0x2248 PUSH2 0x2360 JUMP JUMPDEST POP DIV SWAP1 JUMP JUMPDEST PUSH1 0x0 DUP2 PUSH1 0x0 NOT DIV DUP4 GT DUP3 ISZERO ISZERO AND ISZERO PUSH2 0x2267 JUMPI PUSH2 0x2267 PUSH2 0x234A JUMP JUMPDEST POP MUL SWAP1 JUMP JUMPDEST PUSH1 0x0 DUP3 DUP3 LT ISZERO PUSH2 0x227E JUMPI PUSH2 0x227E PUSH2 0x234A JUMP JUMPDEST POP SUB SWAP1 JUMP JUMPDEST PUSH1 0x0 JUMPDEST DUP4 DUP2 LT ISZERO PUSH2 0x229E JUMPI DUP2 DUP2 ADD MLOAD DUP4 DUP3 ADD MSTORE PUSH1 0x20 ADD PUSH2 0x2286 JUMP JUMPDEST DUP4 DUP2 GT ISZERO PUSH2 0x22AD JUMPI PUSH1 0x0 DUP5 DUP5 ADD MSTORE JUMPDEST POP POP POP POP JUMP JUMPDEST PUSH1 0x1 DUP2 DUP2 SHR SWAP1 DUP3 AND DUP1 PUSH2 0x22C7 JUMPI PUSH1 0x7F DUP3 AND SWAP2 POP JUMPDEST PUSH1 0x20 DUP3 LT DUP2 EQ ISZERO PUSH2 0x22E8 JUMPI PUSH4 0x4E487B71 PUSH1 0xE0 SHL PUSH1 0x0 MSTORE PUSH1 0x22 PUSH1 0x4 MSTORE PUSH1 0x24 PUSH1 0x0 REVERT JUMPDEST POP SWAP2 SWAP1 POP JUMP JUMPDEST PUSH1 0x1F DUP3 ADD PUSH1 0x1F NOT AND DUP2 ADD PUSH8 0xFFFFFFFFFFFFFFFF DUP2 GT DUP3 DUP3 LT OR ISZERO PUSH2 0x2314 JUMPI PUSH2 0x2314 PUSH2 0x2376 JUMP JUMPDEST PUSH1 0x40 MSTORE POP POP JUMP JUMPDEST PUSH1 0x0 PUSH1 0x0 NOT DUP3 EQ ISZERO PUSH2 0x232F JUMPI PUSH2 0x232F PUSH2 0x234A JUMP JUMPDEST POP PUSH1 0x1 ADD SWAP1 JUMP JUMPDEST PUSH1 0x0 DUP3 PUSH2 0x2345 JUMPI PUSH2 0x2345 PUSH2 0x2360 JUMP JUMPDEST POP MOD SWAP1 JUMP JUMPDEST PUSH4 0x4E487B71 PUSH1 0xE0 SHL PUSH1 0x0 MSTORE PUSH1 0x11 PUSH1 0x4 MSTORE PUSH1 0x24 PUSH1 0x0 REVERT JUMPDEST PUSH4 0x4E487B71 PUSH1 0xE0 SHL PUSH1 0x0 MSTORE PUSH1 0x12 PUSH1 0x4 MSTORE PUSH1 0x24 PUSH1 0x0 REVERT JUMPDEST PUSH4 0x4E487B71 PUSH1 0xE0 SHL PUSH1 0x0 MSTORE PUSH1 0x41 PUSH1 0x4 MSTORE PUSH1 0x24 PUSH1 0x0 REVERT JUMPDEST PUSH1 0x0 PUSH1 0x3 RETURNDATASIZE GT ISZERO PUSH2 0x23A1 JUMPI PUSH1 0x4 DUP2 DUP3 RETURNDATACOPY MLOAD PUSH1 0xE0 SHR JUMPDEST SWAP1 JUMP JUMPDEST PUSH1 0x0 PUSH1 0x44 RETURNDATASIZE LT ISZERO PUSH2 0x23B2 JUMPI SWAP1 JUMP JUMPDEST PUSH1 0x40 MLOAD PUSH1 0x3 NOT RETURNDATASIZE DUP2 ADD PUSH1 0x4 DUP4 RETURNDATACOPY DUP2 MLOAD RETURNDATASIZE PUSH8 0xFFFFFFFFFFFFFFFF DUP2 PUSH1 0x24 DUP5 ADD GT DUP2 DUP5 GT OR ISZERO PUSH2 0x23E2 JUMPI POP POP POP POP POP SWAP1 JUMP JUMPDEST DUP3 DUP6 ADD SWAP2 POP DUP2 MLOAD DUP2 DUP2 GT ISZERO PUSH2 0x23FA JUMPI POP POP POP POP POP POP SWAP1 JUMP JUMPDEST DUP5 RETURNDATASIZE DUP8 ADD ADD PUSH1 0x20 DUP3 DUP6 ADD ADD GT ISZERO PUSH2 0x2414 JUMPI POP POP POP POP POP POP SWAP1 JUMP JUMPDEST PUSH2 0x2423 PUSH1 0x20 DUP3 DUP7 ADD ADD DUP8 PUSH2 0x22EE JUMP JUMPDEST POP SWAP1 SWAP6 SWAP5 POP POP POP POP POP JUMP JUMPDEST DUP1 ISZERO ISZERO DUP2 EQ PUSH2 0x6BA JUMPI PUSH1 0x0 DUP1 REVERT JUMPDEST PUSH1 0x1 PUSH1 0x1 PUSH1 0xE0 SHL SUB NOT DUP2 AND DUP2 EQ PUSH2 0x6BA JUMPI PUSH1 0x0 DUP1 REVERT INVALID LOG2 PUSH5 0x6970667358 0x22 SLT KECCAK256 NUMBER 0xB1 LOG1 BYTE CALLDATALOAD 0xE8 SWAP16 PUSH2 0x407E 0xAF 0xEE 0x2E SWAP16 DUP9 0xB1 0xEB 0xAB PUSH23 0x3C0D6A2BD73BA871F611BAAA1B64736F6C634300080400 CALLER PUSH10 0x7066733A2F2F516D5938 PUSH11 0x36526142656B526E375435 CALLER CALLDATASIZE PUSH22 0x7279626B41435177637162716E517950544E4370364A PUSH5 0x51675A392F "},"methodIdentifiers":{"Common_items_cost()":"bf7ee4a5","Epic_items_cost()":"40624b79","Leader_items_cost()":"9a41aa73","Legendary_items_cost()":"d02439fe","Rare_items_cost()":"c8eb86c8","Uncommon_items_cost()":"ca5605b3","balanceOf(address,uint256)":"00fdd58e","balanceOfBatch(address[],uint256[])":"4e1273f4","exists(uint256)":"4f558e79","isApprovedForAll(address,address)":"e985e9c5","maxCommonSupply()":"dd6f1752","maxEpicSupply()":"3ba09b9e","maxLeaderSupply()":"3235d397","maxLegendarySupply()":"ab248348","maxRareSupply()":"25ba5f56","maxUncommonSupply()":"559c039a","mint(uint256)":"a0712d68","owner()":"8da5cb5b","pause()":"8456cb59","paused()":"5c975abb","rate()":"2c4e722e","renounceOwnership()":"715018a6","safeBatchTransferFrom(address,address,uint256[],uint256[],bytes)":"2eb2c2d6","safeTransferFrom(address,address,uint256,uint256,bytes)":"f242432a","setApprovalForAll(address,bool)":"a22cb465","setMaxCommonSupply(uint256)":"b7e2698d","setMaxEpicSupply(uint256)":"fad078df","setMaxLegendarySupply(uint256)":"66871520","setMaxRareSupply(uint256)":"b7f24320","setMaxUncommonSupply(uint256)":"aeb80621","setMaxleaderSupply(uint256)":"1e6b8b82","setURI(string)":"02fe5305","set_Common_items_cost(uint256)":"da248c4b","set_Epic_items_cost(uint256)":"8d61e9f1","set_Leader_items_cost(uint256)":"5c774f03","set_Legendary_items_cost(uint256)":"ce1d91f4","set_Rare_items_cost(uint256)":"b78a5d77","set_Uncommon_items_cost(uint256)":"7814308b","supportsInterface(bytes4)":"01ffc9a7","tokenAddress()":"9d76ea58","totalSupply(uint256)":"bd85b039","transferOwnership(address)":"f2fde38b","unpause()":"3f4ba83a","uri(uint256)":"0e89341c","withdrawToken()":"ca628c78"}}}}}